:020000040800F2
:1000000010510120DD380008491200084D12000887
:100010005112000855120008591200080000000093
:100020000000000000000000000000005D12000859
:100030005F12000800000000DB3A00083D3A0008AB
:10004000F7380008F7380008F7380008F7380008D4
:10005000F7380008F7380008F7380008F7380008C4
:10006000F7380008F7380008F7380008F7380008B4
:10007000F7380008F7380008F7380008F7380008A4
:10008000F7380008F7380008F7380008F738000894
:1000900025080008F7380008F7380008F738000886
:1000A000F7380008990A0008F7380008F738000800
:1000B0005F0A00084D0B00087F0B0008F7380008A6
:1000C000F7380008F7380008F7380008F738000854
:1000D000F7380008B10B0008F7380008730F000864
:1000E000F7380008F7380008F7380008F738000834
:1000F000CB0A0008F7380008F7380008F73800087E
:10010000F7380008F7380008FD0A0008F73800083B
:10011000651100089B110008F73800081F1200083D
:10012000F7380008F7380008F7380008F7380008F3
:10013000F7380008F7380008F7380008F7380008E3
:10014000F7380008F7380008F7380008F7380008D3
:10015000F7380008F7380008F7380008F7380008C3
:10016000F7380008F7380008F7380008F7380008B3
:10017000F7380008F7380008F7380008F7380008A3
:10018000F7380008F738000800F002F800F090F89F
:100190000AA090E8000C82448344AAF10107DA45E2
:1001A00001D100F085F8AFF2090EBAE80F0013F0A4
:1001B000010F18BFFB1A43F00103184758C800008D
:1001C00078C80000103A24BF78C878C1FAD852071E
:1001D00024BF30C830C144BF04680C6070470000C1
:1001E0000023002400250026103A28BF78C1FBD840
:1001F000520728BF30C148BF0B6070476E2909F015
:10020000F982702909F0518466290CF0BC816529B6
:100210000CF0B98167290CF0B68161290CF0B58129
:1002200003681B0A28BF41F08001692909F0A682F2
:10023000642909F0A382752909F0A0826F2909F0C9
:10024000DF83782909F01D84E92909F07983E429FD
:1002500009F07683F52909F07383EF2909F0DC832F
:10026000F82909F01C840368DB0928BF41F08001EC
:10027000632909F0FA82732909F0FF82E3290AF061
:100280005780F3290AF05C80002070471FB50AF000
:10029000ADF80400002000210BF070F8401C6060F5
:1002A000002000210BF054F8E0601FBD10B510BD18
:1002B0000AF06EF81146FFF7E9FF00F01DF80AF0AA
:1002C00047F903B4FFF7F2FF03BC0AF08BF9000013
:1002D000184800686421B0FBF1F4204603F0BFFB2E
:1002E00004F09EF900F07EFA00BF00231A460121B7
:1002F000184606F0ADFAF8E710B586B000BF03F077
:100300000DFC04F088F8032000214FF480720A4BA2
:10031000CDE90132CDE903100A200346074A0090D7
:10032000074805F009FF044604F062F9002006B012
:1003300010BD0000980000202401002020050020AE
:10034000D102000886B09DF81400059005AA00218E
:10035000FE48006805F094FD4EE105AA0021FB4827
:10036000006805F077FC01F0C3FD044601F03AFD9A
:10037000054601F031FD06462246294601F035FDCD
:10038000F348007830B1012851D0022864D0032806
:1003900078D1DAE001F020FD0446EE490BF08AFF47
:1003A00008D2ED4AEB49080303F019F9044602F0BC
:1003B00063FE3BE001F010FD0446E6490BF07AFED7
:1003C0000AD801F009FD0446E4490BF073FF03D29B
:1003D000E14802F051FE29E001F0FEFC0446DF494D
:1003E0000BF068FE22D8DC4ADD49DC4803F092F8C5
:1003F000044602F041FE4FF40071DA4806F02AFF8D
:10040000A0B14FF48071D74806F024FF70B101F01D
:10041000E3FC0446D2490BF04DFE07D8002002F061
:100420002BFECB480078401CC94908708FE00020A3
:1004300002F022FE02F0B2FC0121CA4806F00AFFD7
:1004400048B10221C74806F005FF20B1C048007836
:10045000401CBF4908707AE0C34A0021052002F021
:1004600087F801F0B9FC0446C0490BF023FE0AD816
:100470004FF07F52BD49BE4803F0B1F8044602F088
:10048000FBFD61E062E001F0A7FC0446B9490BF016
:1004900011FE0BD801F0A0FC0446B4490BF00AFF92
:1004A00004D24FF07F5002F0E7FD4DE001F094FCE4
:1004B0000446B0490BF0FEFE10D201F08DFC04465C
:1004C000AD490BF0F7FD09D84FF07F52AA49A94872
:1004D00003F020F8044602F0CFFD35E001F07CFC8B
:1004E0000446A5490BF0E6FE2ED2A44802F0C4FD56
:1004F00001F072FC0446A2490BF0DCFE24D200207D
:1005000002F0BAFD01F0F4FC04464FF07E510BF00E
:10051000D1FD14D201F0ECFC04469A490BF0CAFE5E
:100520000DD299480078642809DB02F059FD0020BB
:100530009549087086480078401C854908709248A3
:100540000078401C9049087001E000E000BF00BF47
:100550008E480078401C8D490870084600780A28AB
:100560004AD101F039FC8A4908608A480168884804
:1005700000680BF093FF044687490BF071FC874934
:10058000086001F0B5FC80460BF02CFD044601F03C
:1005900029FC80460BF026FD05467D4800680BF0DF
:1005A00021FD06467D4800680BF01CFD83460BF0DC
:1005B00055FD82467948016850460BF0DDFE8146C4
:1005C00077490BF0ABFD80460BF00CFD07467348F6
:1005D00000680BF007FD3B46024672A1CDE90065BD
:1005E00002940490754801F0B7FC694800686949B5
:1005F0000860002065490870AFE608B500BF4FF4F9
:10060000A06007F049F90020034640F2473240F26B
:10061000E73100904FF0804000F03DFE002003469F
:1006200040F2473263210090654800F034FE40F20A
:10063000DC51644801F0C7F84FF4E13001F022FBCF
:100640004FF4E13001F02CFD4FF4E13001F06BFB91
:1006500042F210715B4801F0B6F801F083FA01F044
:10066000C7FA4FF400704310574A4FF4FA710090E4
:10067000564802F029F901F09DFD012001F0A6FD88
:10068000022001F0A3FD032001F0A0FD042001F0F1
:100690009DFD062001F09AFD072001F097FD08203E
:1006A00001F094FD092001F091FD0A2001F08EFD7A
:1006B0000B2001F08BFD464A1146012001F023FE7C
:1006C000434A1146022001F01EFE414A1146032012
:1006D00001F019FE3E4A1146042001F014FE42F6D4
:1006E000E0633C4A1146052001F0D0FE47F230534A
:1006F00041F288321146062001F0C8FE47F230531D
:1007000041F288321146072001F0C0FE47F2305313
:1007100041F288321146082001F0B8FE43F69823D2
:100720002D4A1146092001F0B1FE2A4A11460A203D
:1007300001F0E9FD274A11460B2001F0E4FD3221CA
:10074000204801F040F802F01DFB47E000000020C7
:10075000150000200000C8C30000C0BF00C041C693
:10076000000048C60010024010B6FDFF00E044C67D
:1007700000C04BC600D0DEC50050D2C53333333F76
:100780000010CCC5000080BF14000020060000202F
:100790000C000020080000200000C84210000020CB
:1007A00000007A4425642E25642020202564202022
:1007B000202564202025640D0A0000000050004020
:1007C00000040040000C00400004024000640040AF
:1007D000A0860100E093040090D00300FF2005F004
:1007E0000BFF08BD10B500BF002005F0A1F90849B6
:1007F00008600B23074A0021074805F042FC044625
:100800000C23064A0021064805F03BFC044610BDB7
:100810000000002020A90020FB050008202901205D
:10082000450300082DE9F05F4FF0000A03F034F9AA
:100830008346FB480078401CF9490870584603F08D
:100840002FF90823F74AF849F84802F03FFAF6482A
:10085000006816281BD1F3480078F5490870F14864
:100860004078487008460088F2490880ED48807852
:10087000F1490870EB48C078487008460088EF4995
:1008800008800846B0F90010002002F045FAE6485A
:10089000006818281BD1E3480078E5490870E14852
:1008A0004078487008460088E2490880DD48807832
:1008B000E1490870DB48C078487008460088E04984
:1008C00008800846B0F90010012002F025FAD64849
:1008D000006840F2862188420ED0D3480068491C47
:1008E000884209D0D0480068B0F5227F04D0CE48B5
:1008F0000068891C88427DD14FF0000A07E0C94892
:1009000010F80A00CF4901F80A000AF1010ABAF109
:10091000080FF4DBCB480068CB4988420BD1C248B2
:10092000006840F28921884205D1C64948680BF029
:1009300095FBC6490860C3480068C349891F8842BF
:100940005DD1B948006840F28621884214D1BD4982
:100950004968A1F1F9000AF065FF8046BC4ABD4B29
:100960000AF0B4FF06460022BB4B0BF0E3F8044646
:100970000AF01AFDB9490860AB48006840F28721C7
:10098000884214D1AF494968A1F23A400AF04AFFBF
:100990008046B34AB34B0AF099FF06460022AE4B9D
:1009A0000BF0C8F804460AF0FFFCAC4948609E48CA
:1009B0000068B0F5227F14D1A2494968A1F26540D0
:1009C0000AF030FF8046A84AA84B0AF07FFF06468F
:1009D0000022A74B0BF0BAF804460AF0E5FC9F4949
:1009E00088609148006840F28921884207D1954982
:1009F000486800E003E00BF031FB9849C8609D496E
:100A00008A4808F012FC9B49491C884808F00DFCF4
:100A10009849C91C854808F008FC9749834808F0A4
:100A200004FC9649814808F000FC95497F4808F08D
:100A3000FCFB934908317D4808F0F7FB91497B485E
:100A400008F0F3FB9049794808F0EFFB8E49083134
:100A5000764808F0EAFB03F008FDBDE8F09F10B50A
:100A600003F01AF804466E480078401C6C49087080
:100A7000204603F015F80121880707F0E2FC012861
:100A800007D18248006805F0A0F90121880707F026
:100A9000E9FC03F0EAFC10BD10B502F0FDFF0446CE
:100AA0005F480078401C5E490870204602F0F8FF5D
:100AB0000121774807F0C5FC012803D101217448C2
:100AC00007F0D0FC03F0D1FC10BD10B502F0E4FF3C
:100AD000044653480078401C51490870204602F0F3
:100AE000DFFF01216B4807F0ACFC012803D1012195
:100AF000684807F0B7FC03F0B8FC10BD2DE9F041E1
:100B000002F0CAFF044646480078401C4449087079
:100B1000204602F0C5FF01215F4807F092FC012842
:100B200010D101215C4807F09DFC01F0E1F9054678
:100B300001F058F9064601F04FF907462A463146BA
:100B400001F053F903F091FCBDE8F08110B502F01B
:100B5000A3FF044632480078401C31490870204603
:100B600002F09EFF01214D4807F06BFC012803D1E4
:100B700001214A4807F076FC03F077FC10BD10B560
:100B800002F08AFF044626480078401C2449087079
:100B9000204602F085FF0121414807F052FC012860
:100BA00003D101213E4807F05DFC03F05EFC10BD5F
:100BB0002DE9F041002502F06FFF07461848007844
:100BC000401C17490870384602F06AFF40F2255170
:100BD000344807F0FCFE012868D140F22551314825
:100BE00007F02CFF2F4807F046FEC4B221462D48DF
:100BF00007F02BFE2C4800680F2874D2DFE800F0C5
:100C000008576378848C8D8E8F9091A0FEFDFC0038
:100C1000412C04D124480068401C23490860A2E10B
:100C2000CD0000204C000020540000200064004053
:100C300018000020240000201A00002028000020B6
:100C40002A0000201C000020565800402C000020E4
:100C500022718FA50F5D903F00804640242901201E
:100C6000543541D47D00923FEE258DD13AAA8A3F7A
:100C7000000018400100F0107000F0300300001276
:100C800008000032030000140800003400000020B7
:100C90000000014000040140000C0040000400403E
:100CA0000008004000100140580000205DE1432C86
:100CB00005D1FE480068401CFC49086002E00020A5
:100CC000FA4908604FE1502C05D1F8480068401CF3
:100CD000F64908600BE0432C06D1F44800680A305E
:100CE000F249086003E011E10020F04908603AE1B0
:100CF000432C05D1ED480068401CEC49086002E037
:100D00000020EA4908602EE1E9480470E7480068DD
:100D1000401CE649086026E100BF00BF00BF00BFDD
:100D200000BFE2480068092804DAE0480068401F74
:100D3000E0490C54DD480068401CDC49086012E1C1
:100D4000DB480078052190FBF1F201FB1200052839
:100D50007ED2DFE800F0032D5B879800D44800784E
:100D6000052190FBF1F0D449D24A126841F82020C5
:100D7000D0480168D1480BF091FB05460021284678
:100D80000BF098F900D20025CC4928460BF092FAD6
:100D900000D2CA4DCA4928460BF0C0F980460BF074
:100DA00021F9064632460021072001F0E1FB7FE0F1
:100DB000BF480078052190FBF1F0C249BD4A126896
:100DC00041F82020BB490868BF490AF0D5FF054615
:100DD000002128460BF06EF900D20025BB492846B9
:100DE0000BF068FA00D2B94DB94928460BF096F9D4
:100DF00080460BF0F7F802E076E06DE060E0064632
:100E000032460021082001F0B3FB51E0A8480078E9
:100E1000052190FBF1F1AF48A64A126840F8212065
:100E2000A4480168A5480BF039FB05460021284677
:100E30000BF040F900D20025A74928460BF03AFAFA
:100E400000D2A54DA54928460BF068F9804600E080
:100E50002AE00BF0C7F8064632460021062001F0D2
:100E600087FB25E092480078052190FBF1F19C4832
:100E7000904A126840F821208E48006801030B2038
:100E800001F0A7FA14E08A480078052190FBF1F000
:100E90009449884A126841F8202086480068010376
:100EA0000A2001F096FA03E0FF208149087000BF94
:100EB00000BF00207D490860FF207D49087052E096
:100EC000542C05D179480068401C7849086002E03C
:100ED00000207649086046E0754804707348006851
:100EE000401C724908603EE07F480068401C7E4913
:100EF000086008460068062807D16C480068401C56
:100F00006A4908600020784908602CE06848007849
:100F10007649086008460068012802D002281AD1E4
:100F200015E07348007870B97248006800F50060F9
:100F300070490860084600210268092001F018FB8A
:100F400001206B49087000206849086003E0002018
:100F50006649086000BF00BF002054490860FF20B8
:100F60005349087000BF00BF00BF03F07EFABDE820
:100F7000F08110B502F090FD04465F480078401CF7
:100F80005D490870204602F08BFD40F225515B4818
:100F900007F01DFD01287DD140F22551574807F08B
:100FA0004DFD564807F067FC5549087055480078D4
:100FB000052870D2DFE800F00311263D4B005048B1
:100FC00000780D2805D14F480078401C4D49087025
:100FD00002E000204B490870C0E0494800780A2828
:100FE00008D100204849087046480078401C45490F
:100FF000087006E0424800780D2802D000204149E0
:101000000870ABE03E48007840493F4A1278885467
:101010003D480078401C3C49087008460078182874
:1010200006DB0020087037480078401C35490870FE
:1010300094E0334800780A2805D132480078401CF3
:101040003049087002E000202E49087086E02C48E4
:1010500000780D287AD12D4800682D4908602B486A
:1010600040682C490860294880682B490860274857
:10107000C0682A4908602548006929490860234852
:1010800040692849086023480068224908602248CE
:10109000006801E063E05DE01F4908601F480068E8
:1010A0001E4908601E4800681D493EE058000020A7
:1010B0005C0000206400002034290120000034423C
:1010C0003C8E6342502901200000C04000001042C5
:1010D0009A9999426C2901200000B442A64F7A42A5
:1010E00088290120A4290120600000206800002038
:1010F0000400002030000020CD0000200048004007
:101100006C0000206D0000206E000020C02901202E
:101110003C0000204000002044000020340000205B
:10112000380000204800002010E008604C480068AB
:101130004B4908604B48006800F04BFE4A48006885
:1011400000F04DFE4948006800F0CFFE00204849FD
:10115000087003E000204649087000BF00BF03F09C
:1011600084F910BD10B502F097FC044641480078A0
:10117000401C40490870204602F092FC40F2255184
:101180003D4807F024FC012804D140F225513A489B
:1011900007F054FC03F069F910BD70B502F07CFC57
:1011A000054634480078401C32490870284602F051
:1011B00077FC40F22551314807F009FC28B340F292
:1011C00025512E4807F03AFC2C4807F054FBC4B2D6
:1011D0002B48008800F40040B8B929480088B0F5D1
:1011E000C87F13DA0021274806F0BCFC2448008899
:1011F00018B90121234806F0F5FC21480188008830
:10120000401C1F4A10802048445405E01C480088B8
:1012100040F400401A49088003F027F970BD10B56A
:101220000121184807F00DF968B11548008840F40D
:101230000040134908800121124807F013F90021EA
:10124000104806F0CFFC10BD00BFFEE700BFFEE770
:1012500000BFFEE700BFFEE700BFFEE77047704734
:101260004800002034000020380000203C0000200E
:101270006D000020CD000020004C004000500040D8
:101280007000002000140040782B012000BF401E99
:101290000028FCD170472DE9FF4104460D46164653
:1012A0001F46DDF82880F949601A8C4270D01ADC9C
:1012B000F749A4EB01008C426CD00ADCB4F1804FFA
:1012C0004ED0F4482044002852D0B0F5806F71D140
:1012D00056E0B0F5806F65D0B0F5006F6CD0B0F51A
:1012E000406FF4D170E0B0F5923F21D009DCB0F549
:1012F000806F7AD0B0F5644F0AD0B0F5684F7CD1DA
:101300000EE0B0F5943F1BD0B0F5963F75D11FE0CD
:101310000121084606F0C6F919208DF800006DE09D
:101320000121022006F0BEF92C208DF8000065E0B6
:101330000121080406F0B6F918208DF800005DE0E0
:101340000121192006F0AEF92C208DF8000055E09F
:101350000121880406F0A6F91A208DF800004DE05E
:101360000121084606F08DF91C208DF8000045E0AB
:101370000121022006F085F91D208DF800003DE0D6
:101380000121042006F07DF91E208DF8000035E0D3
:1013900023E0FFE70121082006F073F932208DF8E1
:1013A00000002BE00121102006F06BF936208DF8AB
:1013B000000023E021E0FFE70121202006F061F991
:1013C00037208DF8000019E00121402006F059F97E
:1013D0002B208DF8000011E007E00121802006F0AD
:1013E00050F92C208DF8000008E00121080206F0D9
:1013F00048F92D208DF8000000E000BF00BF0295E5
:10140000ADF804600020ADF80C00ADF8060001A9AD
:10141000204606F05EFB0121204607F023F801225A
:101420001146204606F0F6FFF8B28DF8010008F0EC
:10143000FF008DF8020001208DF80300684606F0D9
:1014400030FA0121204606F0CDFBBDE8FF81FEB554
:1014500004460D462E468D49601A8C4270D01ADC27
:101460008B49A4EB01008C426CD00ADCB4F1804FB4
:101470004ED088482044002852D0B0F5806F71D1FA
:1014800056E0B0F5806F65D0B0F5006F6CD0B0F568
:10149000406FF4D170E0B0F5923F21D009DCB0F597
:1014A000806F7AD0B0F5644F0AD0B0F5684F7CD128
:1014B0000EE0B0F5943F1BD0B0F5963F75D11FE01C
:1014C0000121084606F0EEF8A820ADF800006DE016
:1014D0000121022006F0E6F8A820ADF8000065E042
:1014E0000121080406F0DEF8A820ADF800005DE058
:1014F0000121480406F0D6F8A820ADF8000055E018
:101500000121880406F0CEF8A820ADF800004DE0D7
:101510000121084606F0B5F85420ADF8000045E07A
:101520000121022006F0ADF85420ADF800003DE0A6
:101530000121042006F0A5F85420ADF8000035E0A4
:1015400023E0FFE70121082006F09BF85420ADF8C6
:1015500000002BE00121102006F093F85420ADF894
:10156000000023E021E0FFE70121202006F089F8B8
:101570005420ADF8000019E00121402006F081F868
:101580005420ADF8000011E007E00121802006F0B2
:1015900078F85420ADF8000008E00121080206F0B8
:1015A00070F85420ADF8000000E000BF00BF01203B
:1015B00001900020ADF80800ADF802006946204611
:1015C00006F087FA0121204606F00CFB4FF6FF706B
:1015D000811B204606F0C6FA03E0204606F0C6FA54
:1015E00086B24FF6FF708642F7DB0021204606F0F8
:1015F000F9FAFEBDFEB504460D462E462349601A93
:101600008C4276D01ADC2249A4EB01008C427CD0BB
:101610000ADCB4F1804F5AD01E48204400285FD025
:10162000B0F5806F67D167E0B0F5806F79D0B0F525
:10163000006F7FD0B0F5406FF4D184E0B0F5923FF9
:101640002AD009DCB0F5806F6AD0B0F5644F0AD0BB
:10165000B0F5684F4FD10FE0B0F5943F25D0B0F50D
:10166000963F48D12AE00121084606F01BF844F2D3
:10167000A010ADF8000082E00121022006F012F86F
:1016800044F2A010ADF8000079E00000001C00401A
:10169000000C004000FCFFBF0121080406F002F826
:1016A00044F2A010ADF8000069E00121480405F003
:1016B000F9FF44F2A010ADF8000060E001218804B9
:1016C00005F0F0FF44F2A010ADF8000057E0012152
:1016D000084605F0D6FF42F2D000ADF800004EE01B
:1016E0000121022005F0CDFF42F2D000ADF800004C
:1016F00045E031E009E041E00121042005F0C1FFAF
:1017000042F2D000ADF8000039E00121082005F0D8
:10171000B8FF42F2D000ADF8000030E001E009E08F
:1017200023E00121102005F0ACFF42F2D000ADF81B
:10173000000024E00121202005F0A3FF42F2D000A8
:10174000ADF800001BE00121402005F09AFF42F2B5
:10175000D000ADF8000012E00121802005F091FFDB
:1017600042F2D000ADF8000009E00121080205F0C6
:1017700088FF42F2D000ADF8000000E000BF00BFDB
:10178000012001900020ADF80800ADF80200694684
:10179000204606F09EF90121204606F023FA4FF676
:1017A000FF70811B204606F0DDF903E0204606F0BD
:1017B000DDF986B24FF6FF708642F7DB0021204646
:1017C00006F010FAFEBD70B506460C46002500BFB7
:1017D00004E00A213046FFF70DFF6D1CA542F8D347
:1017E00070BD30B58BB004460D460121022005F0D6
:1017F00048FF0121022005F011FF02220521A24825
:1018000005F051FD2020099002208DF828000320CA
:101810008DF8290000208DF82A0001208DF82B007A
:1018200009A9994805F0B4FCA8B2ADF81800002049
:10183000ADF81A000794ADF8200006A9934806F009
:1018400048F96020ADF804000120ADF80600002042
:10185000ADF8100001A98D4806F009FA08218B485F
:1018600006F062FB0121894806F09EF901218748B4
:1018700006F0B8F96421854806F01BFB0BB030BDBB
:1018800030B58BB004460D460121042005F0F9FE69
:101890000121082005F0C2FE02220C217C4805F03F
:1018A00002FD02220E217A4805F0FDFC4FF4A04013
:1018B000099002208DF8280003208DF829000020CF
:1018C0008DF82A0001208DF82B0009A9704805F039
:1018D0005FFCA8B2ADF818000020ADF81A0007941C
:1018E000ADF8200006A96B4806F0F3F86020ADF8CB
:1018F00004000120ADF806000020ADF8100001A999
:10190000644806F07BF901A9624806F0FDF9082158
:10191000604806F000FB08215E4806F012FB01213A
:101920005C4806F041F901215A4806F05BF9642150
:10193000584806F0BCFA6421564806F0BCFA0BB0D1
:1019400030BD2DE9F84F044689464FF0000A524950
:1019500048460AF085FA514900900AF0DFFB8346B9
:101960000AF0DEF907464E4A4E4B09F04FFD054698
:1019700009F01AFD82464C4950460AF09BFC01D200
:10198000DFF824A1002150460AF094FB01D24FF069
:10199000000A012C0BD1454950460AF0BFFB064610
:1019A0000AF03CFB054629463A4806F080FA022C2C
:1019B0000BD13E4950460AF0B1FB06460AF02EFB19
:1019C00005462946334806F076FABDE8F88F70B52B
:1019D00004460D46364840F8245050F8241020465E
:1019E000FFF7AFFF70BD0146314850F82100704746
:1019F00010B504462E4951F824002E490AF0BCF9CE
:101A00002B4941F82400084650F824102046FFF7DF
:101A100098FF10BD10B50446254951F8240025490A
:101A20000AF03CFD224941F82400084650F82410F1
:101A30002046FFF786FF10BD7FB505460C46012105
:101A4000202005F01EFE0195ADF800400020ADF805
:101A50000800ADF802006946174806F03AF801227E
:101A60001146154806F0D6FC37208DF80C000020F2
:101A70008DF80D0001208DF80E008DF80F0003A8E1
:101A800005F00FFF7FBD000000040240000400408D
:101A9000000C0240000800400000C842CDCC4C3D84
:101AA0009A9999999999A93F000002430000FA4434
:101AB000D829012000004040001400407CB50446B5
:101AC0000D461646C4F30900002839D1A012A0F52E
:101AD00080108038092833D2DFE800F0050A0F149F
:101AE000191E23282D000121084605F097FD28E046
:101AF0000121022005F092FD23E00121042005F0E0
:101B00008DFD1EE00121082005F088FD19E001216E
:101B1000102005F083FD14E00121202005F07EFD5A
:101B20000FE00121402005F079FD0AE0012180202D
:101B300005F074FD05E00121080205F06FFD00E0ED
:101B400000BF00BF00958DF8046000208DF80600EE
:101B50008DF8070002208DF805006946204605F043
:101B600017FB7CBD1CB50121102005F057FD03209B
:101B7000009000208DF804008DF8060002208DF8FA
:101B800007008DF805006946344805F001FB032085
:101B9000009002208DF807006946304805F0F8FAF9
:101BA0000121022005F03AFD4FF4806000900020F2
:101BB0008DF804008DF8060001208DF80700022042
:101BC0008DF805006946264805F0E2FA4FF480607A
:101BD000009001208DF807006946214805F0D8FAE9
:101BE0001CBD10B5012204211C48FFF767FF10BD82
:101BF0001CB50121102005F011FD4FF4F06000909C
:101C000000208DF804008DF8060003208DF80500F3
:101C100001208DF807006946104805F0B9FA4FF425
:101C2000F0610E4805F030FB0121022005F0F6FCC2
:101C30000220009000208DF804008DF8060003209B
:101C40008DF8050001208DF807006946044805F06D
:101C50009FFA0221024805F017FB1CBD001002404C
:101C60000004024070B504460D46E1B2FC4806F09F
:101C7000ECFD00BF4021FA4806F0DAFD0028F9D05B
:101C8000204670BD10B588B004460121022005F041
:101C9000C5FC0121102005F005FD07220621F148B1
:101CA00005F001FB07221146EE4805F0FCFAC020C2
:101CB000069002208DF81C008DF81D0000208DF884
:101CC0001E0001208DF81F0006A9E64805F060FA05
:101CD00002940020ADF80C00ADF80E00ADF8100035
:101CE000ADF814000C20ADF8120002A9DE4806F091
:101CF000E3FC25208DF8040000208DF8050001206C
:101D00008DF806008DF8070001A805F0CAFD012234
:101D100040F22551D44806F035FE0121D24806F0A4
:101D200053FD08B010BD10B588B004460121042051
:101D300005F074FC0121880405F0A3FC07220A21A8
:101D4000CA4805F0B0FA07220B21C84805F0ABFAE3
:101D50004FF44060069002208DF81C008DF81D00A5
:101D600000208DF81E0001208DF81F0006A9BF4835
:101D700005F00EFA02940020ADF80C00ADF80E004C
:101D8000ADF81000ADF814000C20ADF8120002A957
:101D9000B74806F091FC0121B54806F015FD402139
:101DA000B34806F03CFD012240F22551B04806F050
:101DB000E9FD27208DF8040000208DF805000120A2
:101DC0008DF806008DF8070001A805F06AFD08B03F
:101DD00010BDA84908607047A64800687047A6492A
:101DE00008607047A448006870472DE9F04F8BB039
:101DF00006460C469146A148016830460AF04EFB63
:101E000083469F48016820460AF048FB0A905846DE
:101E100009F086FF21F0004107464FF03332994B1D
:101E200009F052FE0BD30A9809F07AFF21F0004125
:101E300007464FF03332934B09F046FE2BD248460B
:101E400009F06EFFCDE9080159460A9809F07EF8BD
:101E5000019009F065FF8C4A8C4BCDE9020109F035
:101E600089FB00228A4BCDE9040109F02FFDCDE961
:101E70000601DDE9082309F069FE21F0004107466B
:101E80000022844B09F0E6FC01D2012001E04FF072
:101E9000FF30824601E04FF0000A0A9908460AF036
:101EA0003DF95946089058460AF038F907900899C4
:101EB00009F062FF804609F035FA074664210AFB03
:101EC00001F00AF0CBF8394609900AF027F90546E7
:101ED0006A4806606A4804606F490D6028460BB086
:101EE000BDE8F08F6C48006870476C490860704727
:101EF0006A4800687047F0B503460D46164600274D
:101F000029460A2E03D0002008702846F0BD33B9B8
:101F1000302001F8010B002008702846F6E7002B5E
:101F200003DA2D2001F8010B5B4242F210720DE042
:101F300093FBF2F404B937B104F1300001F8010B5E
:101F400004FB123301270A2092FBF0F2002AEFDC97
:101F5000002008702846D9E70FB470B586B0064651
:101F60000CA8019073E00B9800785C281CD10B98AA
:101F7000401C0B9000786E2809D072280FD10D21DB
:101F8000304606F062FC0B98401C0B900BE00A21D7
:101F9000304606F05AFC0B98401C0B9003E00B985F
:101FA000401C0B9000BF4BE00B980078252840D1D7
:101FB0000B98401C0B900078642818D0732833D1FC
:101FC000019810C801900BE02178304606F03DFCE6
:101FD00000BF4021304606F02BFC0028F9D0641CDD
:101FE00020780028F0D10B98401C0B9020E001983D
:101FF00020C801900A2202A92846FFF77CFF02AC04
:102000000BE02178304606F020FC00BF402130462E
:1020100006F00EFC0028F9D0641C20780028F0D1CE
:102020000B98401C0B9003E00B98401C0B9000BFDA
:1020300006E00B9810F8011B0B90304606F005FCEB
:1020400000BF4021304606F0F3FB0028F9D00B9882
:102050000078002887D106B070BC5DF814FB000042
:1020600000500040000402400010014000080240FF
:102070000048004074000020780000208400002008
:10208000880000203333D33F4AD8124DFB2109404A
:1020900000806640008056407C00002080000020C8
:1020A00010B588B0044601940020ADF80800ADF8E2
:1020B0000A00ADF80C00ADF810000C20ADF80E00D1
:1020C000012105F0ABFA0121080505F0DAFA082232
:1020D0000C21344805F0E7F808220221324805F0C7
:1020E000E2F800208DF81A0001208DF81B00022074
:1020F0008DF81800C002059002208DF8190005A97E
:10210000284805F045F802208DF8180004200590B5
:1021100005A9254805F03CF801A9244806F0CCFAA9
:1021200035208DF81C0001208DF81F008DF81D0052
:102130008DF81E004FF4A06005F0AEFB07A805F077
:10214000B0FB012240F22551184806F01BFC01218A
:10215000164806F039FB08B010BD0FB438B505A815
:1021600000901348009A049907F070F9002000903D
:102170000F4807F06BFA85B200240DE000BF402144
:102180000A4806F055FB0028F9D00948015D0748C8
:1021900006F05BFB601C84B2AC42EFDB38BC5DF840
:1021A00014FB000000080240000C024000500040F8
:1021B000E82901201CB5FD4903C9CDE90001082328
:1021C0006A460021FA4800F055FD1CBD30B587B0C5
:1021D0000446F649083103C9CDE9050104F540700C
:1021E0000090019000208DF808008DF8090008206B
:1021F0008DF80A000598C0B28DF80B000598010A09
:102200008DF80C100598010C8DF80D100598000E36
:102210008DF80E000698C1B28DF80F100698010ACD
:102220008DF810100698010C8DF811100698000E0C
:102230008DF812006946DE4806F0A2FD054600BF93
:102240002946DB4806F034FE0128F9D107B030BD3D
:1022500070B588B006460024D449103103C9CDE9D1
:10226000060106F540700190029000208DF80C00E8
:102270008DF80D0008208DF80E0000BF3FE006A885
:1022800010F834008DF80F0006A830F83400010A69
:102290008DF8101006A850F83400010C8DF81110BC
:1022A00006A850F83400000E8DF8120006A800EBC6
:1022B000C40001798DF8131006A800EBC4008088D3
:1022C000010A8DF8141006A800EBC4004068010C48
:1022D0008DF8151006A800EBC4004068000E8DF8BC
:1022E000160001A9B24806F04BFD054600BF29467D
:1022F000AF4806F0DDFD0128F9D1601CC4B2012C05
:10230000BDDB08B070BD2DE9F04194B005460E4626
:10231000174600243822A549183106A807F0B5F958
:1023200005F540700190029000208DF80C008DF8AA
:102330000D0008208DF80E000D960F979D49119104
:102340004942139100BF3FE006A810F834008DF811
:102350000F0006A830F83400010A8DF8101006A806
:1023600050F83400010C8DF8111006A850F8340014
:10237000000E8DF8120006A800EBC40001798DF85C
:10238000131006A800EBC4008088010A8DF8141011
:1023900006A800EBC4004068010C8DF8151006A8D3
:1023A00000EBC4004068000E8DF8160001A98048BB
:1023B00006F0E6FC804600BF41467D4806F078FD09
:1023C0000128F9D1601CC4B2072CBDDB14B0BDE8F4
:1023D000F081F0B589B005460F460024734B5033A9
:1023E0000FCB05AE0FC605F54070009001900020A0
:1023F0008DF808008DF8090008208DF80A0006976E
:1024000000BF3FE005A810F834008DF80B0005A8C8
:1024100030F83400010A8DF80C1005A850F834008B
:10242000010C8DF80D1005A850F83400000E8DF841
:102430000E0005A800EBC40001798DF80F1005A867
:1024400000EBC4008088010A8DF8101005A800EB8D
:10245000C4004068010C8DF8111005A800EBC40001
:102460004068000E8DF812006946514806F088FC5D
:10247000064600BF31464E4806F01AFD0128F9D144
:10248000601CC4B2022CBDDB09B0F0BD2DE9F043E5
:10249000A5B080460D4616461F46002480224349BB
:1024A000603105A807F0F1F808F540700090019040
:1024B00000208DF808008DF8090008208DF80A002A
:1024C000109512951495169618961A961C971E97A5
:1024D00005A8C766384941674942C1670A91494220
:1024E0000C9100BF3FE005A810F834008DF80B00F8
:1024F00005A830F83400010A8DF80C1005A850F832
:102500003400010C8DF80D1005A850F83400000EB1
:102510008DF80E0005A800EBC40001798DF80F10AE
:1025200005A800EBC4008088010A8DF8101005A8EA
:1025300000EBC4004068010C8DF8111005A800EBF9
:10254000C4004068000E8DF812006946184806F075
:1025500017FC814600BF4946154806F0A9FC012832
:10256000F9D1601CC4B2102CBDDB25B0BDE8F083EE
:102570002DE9F0418AB005460F46904600240B4BEA
:10258000E0330FCB06AE0FC605F540700190029008
:1025900000208DF80C008DF80D0008208DF80E003D
:1025A00067B944F2501006900BE0000070C60008B6
:1025B00000640040C0E1E400F6C99A3B45F25020B7
:1025C0000690CDF81C8000243FE006A810F83400E7
:1025D0008DF80F0006A830F83400010A8DF81010AD
:1025E00006A850F83400010C8DF8111006A850F818
:1025F0003400000E8DF8120006A800EBC40001792B
:102600008DF8131006A800EBC4008088010A8DF82D
:10261000141006A800EBC4004068010C8DF81510DA
:1026200006A800EBC4004068000E8DF8160001A952
:10263000A34806F0A5FB064600BF3146A04806F0B9
:1026400037FC0128F9D1601CC4B2022CBDDB0AB0F2
:10265000BDE8F08130B587B004469A4903C9CDE999
:10266000050104F540700090019000208DF80800ED
:102670008DF8090008208DF80A000598C0B28DF881
:102680000B000598010A8DF80C100598010C8DF8C7
:102690000D100598000E8DF80E000698C1B28DF849
:1026A0000F100698010A8DF810100698010C8DF88D
:1026B00011100698000E8DF812006946804806F049
:1026C0005FFB054600BF29467D4806F0F1FB012867
:1026D000F9D107B030BD30B587B00446794908312B
:1026E00003C9CDE9050104F5407000900190002078
:1026F0008DF808008DF8090008208DF80A0005986B
:10270000C0B28DF80B000598010A8DF80C100598E1
:10271000010C8DF80D100598000E8DF80E0006982E
:10272000C1B28DF80F100698010A8DF810100698A6
:10273000010C8DF811100698000E8DF812006946F4
:102740005F4806F01DFB054600BF29465C4806F0C1
:10275000AFFB0128F9D107B030BD30B587B00446D2
:102760005849103103C9CDE9050104F540700090C6
:10277000019000208DF808008DF8090008208DF8E0
:102780000A000598C0B28DF80B000598010A8DF873
:102790000C100598010C8DF80D100598000E8DF8A1
:1027A0000E000698C1B28DF80F100698010A8DF838
:1027B00010100698010C8DF811100698000E8DF877
:1027C000120069463E4806F0DBFA054600BF29467E
:1027D0003B4806F06DFB0128F9D107B030BD30B59C
:1027E00087B004463749183103C9CDE9050104F51E
:1027F00040700090019000208DF808008DF80900CD
:1028000008208DF80A000598C0B28DF80B000598D5
:10281000010A8DF80C100598010C8DF80D10059823
:10282000000E8DF80E000698C1B28DF80F100698B4
:10283000010A8DF810100698010C8DF811100698F9
:10284000000E8DF8120069461D4806F099FA0546FB
:1028500000BF29461A4806F02BFB0128F9D107B022
:1028600030BD70B586B004460D46009504F5407045
:102870000190029000208DF80C008DF80D000820CA
:102880008DF80E009DF800008DF80F009DF80110E6
:102890008DF810109DF802108DF811109DF803109E
:1028A0008DF8121001A9064806F06AFA064600BF24
:1028B0003146034806F0FCFA0128F9D106B070BD94
:1028C0000064004060C700082DE9F04F8BB0064659
:1028D0000F4614461D46DDF850804FF00009CA46E9
:1028E000CB46B5F5807F43D012DC102D34D008DC08
:1028F000012D25D0022D26D0042D27D0082D4FD113
:1029000027E0202D2BD0402D2CD0802D48D12CE03D
:10291000B5F5805F38D009DCB5F5007F2BD0B5F573
:10292000806F2BD0B5F5006F3AD12AE0B5F5005F86
:102930002DD0B5F5804F2DD0B5F5004F30D12CE01E
:102940004FF000092DE04FF001092AE04FF0020995
:1029500027E04FF0030924E04FF0040921E04FF095
:1029600005091EE04FF006091BE04FF0070918E0CB
:102970004FF0080915E04FF0090912E04FF00A097D
:102980000FE04FF00B090CE04FF00C0909E04FF09D
:102990000D0906E04FF00E0903E04FF00F0900E0CB
:1029A00000BF00BFB8F5807F4BD01ADCB8F1100F24
:1029B0003BD00CDCB8F1010F2BD0B8F1020F2BD0BB
:1029C000B8F1040F2BD0B8F1080F52D12AE0B8F1BA
:1029D000200F2DD0B8F1400F2DD0B8F1800F48D185
:1029E0002CE0B8F5805F38D009DCB8F5007F2BD03B
:1029F000B8F5806F2BD0B8F5006F3AD12AE0B8F562
:102A0000005F2DD0B8F5804F2DD0B8F5004F30D1F4
:102A10002CE04FF0000A2DE04FF0010A2AE04FF0C1
:102A2000020A27E04FF0030A24E04FF0040A21E0F5
:102A30004FF0050A1EE04FF0060A1BE04FF0070AB0
:102A400018E04FF0080A15E04FF0090A12E04FF0C5
:102A50000A0A0FE04FF00B0A0CE04FF00C0A09E0F5
:102A60004FF00D0A06E04FF00E0A03E04FF00F0A98
:102A700000E000BF00BFA748304418B1B0F5806F38
:102A80001AD10CE04FF0090B00208DF81200142031
:102A90008DF804000121480604F0F3FD0DE04FF02D
:102AA000090B0E208DF8120040208DF80400012142
:102AB000000504F0E6FD00E000BF00BFC4F309001C
:102AC00078BBA012A0F580108038092834D2DFE846
:102AD00000F0050A0F14191E23292E0001210846B3
:102AE00004F09CFD29E00121022004F097FD24E080
:102AF0000121042004F092FD1FE00121082004F0D0
:102B00008DFD1AE00121102004F088FD15E001215F
:102B1000202004F083FD10E00121402004F07EFD20
:102B20000BE009E00121802004F078FD05E001219F
:102B3000080204F073FD00E000BF00BF5A4649469A
:102B4000204604F0B0FB5A465146204604F0ABFB49
:102B500045EA0800099002208DF828008DF8290028
:102B600000208DF82A0001208DF82B0009A92046AD
:102B700004F00EFB304605F071FF00208DF81E00BA
:102B80008DF81F008DF820008DF821008DF82200AF
:102B90008DF823008DF81A008DF81B000B208DF89E
:102BA0001C0007208DF81D007D2F22D008DC0A2F85
:102BB0000FD0142F11D0322F13D0642F29D114E04D
:102BC000FA2F1AD0B7F5FA7F1BD0B7F57A7F20D14C
:102BD0001BE0C820ADF818001CE06420ADF8180018
:102BE00018E02820ADF8180014E01420ADF8180003
:102BF00010E01020ADF818000CE00820ADF8180027
:102C000008E00420ADF8180004E00220ADF8180038
:102C100000E000BF00BF06A9304605F038FF0020E5
:102C20008DF8130001208DF814000020ADF8080085
:102C3000ADF80A00ADF80C00ADF80E00ADF81000CC
:102C400001208DF8150002A805F0ABFF00208DF8DB
:102C5000050003208DF8060001208DF8070001A86B
:102C600004F01FFE01220221304606F099FA0BB053
:102C7000BDE8F08F2DE9F04385B081460D469046C2
:102C80001E4600240095019500208DF808008DF85F
:102C900009008DF80A6000BF06E018F804100DF175
:102CA0000B000155601C84B2B442F6DB694648460D
:102CB00006F066F80746002400BF3946484606F08D
:102CC000F7F80128F9D105B0BDE8F0832DE9F0410E
:102CD00086B080460D4616461F4600240021404619
:102CE00006F0C6F918B9002006B0BDE8F08101AAC7
:102CF0000021404606F039F9002405E00DF10F00EF
:102D0000005D3055601CC4B2BC42F7DB01982860FE
:102D10000120E9E7009CFFBF044A42F820107047F9
:102D20000146024850F82100704700008C00002046
:102D30002DE9F04385B004460D4616464FF00009D4
:102D4000002701200090019000208DF808008DF8E8
:102D5000090001208DF80A00600140EA4500304377
:102D6000C7B28DF80B706946124806F009F8804624
:102D700000BF41460F4806F09BF80128F9D105B085
:102D8000BDE8F08310B5002204210120FFF7D0FF39
:102D9000012203211046FFF7CBFF10BD10B5012221
:102DA00004211046FFF7C4FF002203210120FFF792
:102DB000BFFF10BD006400402DE9F04F8BB004460A
:102DC00089469246002006900021504609F072FA8A
:102DD0000DD800214FF07E5008F0B8F80646FE49A5
:102DE00009F03EF80546FD4909F098F906900021E2
:102DF000504609F05FF90CD20021F94808F0A6F816
:102E00000646F54909F02CF80546F44909F086F91B
:102E10000690F448069908F0AFFFF049019009F0D8
:102E20001FF88346EC4909F079F9029008F0BCF9E3
:102E3000039008F075FF21F000480746484608F067
:102E40006FFF3A464346CDE9040108F03FFD0546D1
:102E500008F0AAFA0990E348069909F01FFBDF4938
:102E6000019008F0FDFF8346DB4909F057F9029015
:102E700008F09AF9039008F053FF21F00041CDE9E2
:102E80000401484608F04CFF0546DDE9042308F03C
:102E90001DFD074608F088FA0890D348069909F006
:102EA000FDFACE49019008F0DBFFCB49029009F012
:102EB00035F9039008F078F9834608F031FF21F0E6
:102EC0000041CDE90401484608F02AFF0746DDE944
:102ED000042308F0FBFC054608F066FA0790C24898
:102EE000069908F049FFBD49019008F0B9FFBA49B9
:102EF000029009F013F9834608F056F9039008F0A0
:102F00000FFF21F00041CDE90401484608F008FF19
:102F10000746DDE9042308F0D9FC054608F044FA29
:102F20000A9007A80FC884E80F000BB0BDE8F08F27
:102F30007FB5009809F072F80446009809F06EF821
:102F40000546224629460120FFF7DDF9019809F0E0
:102F500065F80446019809F061F8054622462946BD
:102F60000220FFF7D0F9029809F058F804460298B9
:102F700009F054F80546224629460320FFF7C3F915
:102F8000039809F04BF80446039809F047F8054602
:102F9000224629460420FFF7B6F97FBD1FB50098E9
:102FA00009F020F8044621460120FFF712FA0198A3
:102FB00009F018F8044621460220FFF70AFA0298A1
:102FC00009F010F8044621460320FFF702FA03989F
:102FD00009F008F8044621460420FFF7FAF91FBD5E
:102FE00010B500210120FFF7F4F900210220FFF7BE
:102FF000F0F900210320FFF7ECF900210420FFF78E
:10300000E8F910BD2DE9F047044600257749204630
:1030100008F026FF8146764908F022FF80464FF0EF
:10302000804109F07BF807466B4909F077F80646BE
:10303000704909F073F805462846BDE8F0872DE988
:10304000F047044600254FF08041204608F008FF75
:103050008146614908F004FF8046664908F000FF98
:103060000746634909F05AF80646604909F056F8E0
:1030700005462846BDE8F0872DE9F84F04465E492D
:10308000204609F04BF8824608F04AFE21F0004144
:1030900007464FF02042594B08F0B8F9054608F0B2
:1030A00083F981465649484609F038F8064654499E
:1030B000204609F033F80746314608F05DFE054624
:1030C000FFF7BDFF4F4908604D49484609F026F813
:1030D00006464B49204609F021F80746314609F0DB
:1030E000DDF90546FFF7ABFF4649486044494846CD
:1030F00009F014F8804684F000474149384609F049
:103100000DF80646414609F0C9F90546FFF797FF55
:103110003C4988603A49484609F000F8804684F006
:1031200000473749384608F0F9FF0646414608F09F
:1031300023FE0546FFF783FF3249C860FEF7D8FE3D
:103140000546002109F0B6F87ED2FEF7D1FE0090C8
:103150002D48006880F0004B5846009908F0DEFFCB
:1031600082461E4908F07CFE80461B4908F0D6FFC7
:103170000746264908F0D2FF0646FFF760FF0546DE
:1031800020480168284608F0F7FD1E490860FEF750
:10319000AFFE00901C48006880F0004B5846009934
:1031A00008F0BCFF82460D4908F05AFE80460A49E5
:1031B00008F0B4FF0746164908F0B0FF0646FFF7CF
:1031C0003EFF05460F484168284608F0D5FD0D49E9
:1031D0004860FEF78DFE1DE0DB0F494000003443E0
:1031E000000080BF00003442000007436EDBAA41AC
:1031F0000000FA44E3A59B3D295C8F3D9999B93FB6
:10320000F704353F082D012094000020EB73F53EB4
:10321000F6288C3F0090FE48006880F0004B58462E
:10322000009908F07BFF8246FA4908F019FE8046B3
:10323000F94908F073FF0746F84908F06FFF0646A2
:10324000FFF7FDFE054600E012E0F54881682846DC
:1032500008F092FDF24988600020FFF7F0FE054675
:10326000EF48C168284608F087FDED49C86077E05F
:10327000FEF73EFE0546002108F01CFF70D2FEF767
:1032800037FE0090E248006880F0004B58460099F5
:1032900008F044FF8246DF4908F0E2FD8046DE493F
:1032A00008F03CFF0746DF4908F038FF0646FFF705
:1032B000C6FE0546DA480168284608F05DFDD84993
:1032C0000860FEF715FE0090D148006880F0004BC2
:1032D0005846009908F022FF8246CE4908F0C0FD0A
:1032E0008046CD4908F01AFF0746CF4908F016FF7F
:1032F0000646FFF7A4FE0546C9484168284608F07F
:103300003BFDC74948600020FFF799FE0546C448C9
:103310008168284608F030FDC1498860FEF7E8FD65
:103320000090BB48006880F0004B5846009908F0B8
:10333000F5FE8246B74908F093FD8046B64908F08D
:10334000EDFE0746B54908F0E9FE0646FFF777FEB1
:103350000546B348C168284608F00EFDB049C8606C
:103360004FF08041204608F0A5FE09D24FF04041C1
:10337000204608F09FFF03D2A9480FC8FFF70EFEB2
:103380004FF08041204608F095FF05D94FF04041AD
:10339000204608F08FFE01D8FFF722FE0120BDE88D
:1033A000F88F70B50446A149204608F0B7FE0546DF
:1033B000FFF745FE9E49086084F000469B49304671
:1033C00008F0ACFE0546FFF73AFE9949486084F0E4
:1033D00000469649304608F0A1FE0546FFF72FFE4D
:1033E000934988609149204608F098FE0546FFF70A
:1033F00026FE8F49C86008460FC8FFF7CFFD0120A1
:1034000070BD2DE9FF4705460C461646002000908A
:10341000019002900390042C40D17E49304608F080
:103420001FFD81467C4908F079FE80467E4908F000
:1034300075FE0746FFF703FE00907649304608F018
:103440000FFD8146744908F069FE8046794908F00D
:1034500065FE0746FFF7F3FD01906E49304608F020
:10346000FFFC81466C4908F059FE80466B4908F024
:1034700055FE0746FFF7E3FD02906649304608F027
:10348000EFFC8146644908F049FE8046002108F0BF
:1034900045FE0746FFF7D3FD039035E0032C33D1FB
:1034A0005C49304608F0DCFC81465B4908F036FE9A
:1034B0008046604908F032FE0746FFF7C0FD0090E5
:1034C0005449304608F0CCFC8146534908F026FEAA
:1034D0008046554908F022FE0746FFF7B0FD0190EF
:1034E0000020FFF7ACFD02904A49304608F0B8FCD6
:1034F0008146494908F012FE8046484908F00EFE10
:103500000746FFF79CFD03909DE80F0085E80F003C
:10351000BDE8FF872DE9F74F90B083469246002023
:103520000E90504608F0FCFB21F00047064650463E
:1035300008F0F6FB804632463B4608F01BF804468E
:103540004FF0C0423C4B08F0C1F9CDE90A015046AA
:1035500008F0E6FB21F000470646504608F0E0FB85
:10356000804632463B4608F005F804464FF0C0421C
:10357000314B08F0ABF9CDE90201504608F0D0FB21
:10358000CDE90001DDE9022308F0E0FACDE906010A
:103590005846119908F082FF0646FEF71DFC0746C3
:1035A000119908F07BFF0546314608F059FC0446A6
:1035B00008F0B6FBCDE90401DDE9062308F086F941
:1035C000CDE90801DDE90A2307F020FFCDE90C0170
:1035D00007F0EAFE0E900E9813B0BDE8F08F2DE9CB
:1035E000F74F90B08246934600200E90584608F060
:1035F00097FB21F000470646584608F091FB8046AD
:1036000032463B4607F0B6FF044600220B4B17E05C
:103610009400002000003443DB0F49407FD91D3F58
:10362000082D0120F6288C3FEB73F53EF704353F5B
:10363000182D0120DF4F8D3F6666E63F0000F03F0A
:1036400008F044F9CDE90A01584608F069FB21F079
:1036500000470646584608F063FB044632463B46A0
:1036600007F088FF00221C4BCDE9000108F02EF97D
:10367000CDE90401584608F053FBCDE90201DDE92C
:10368000042308F063FA804689465046119908F0F1
:1036900073FE0646FEF7A0FB0746514608F0FEFE05
:1036A0000546314608F0DCFB044608F039FB42468B
:1036B0004B46CDE9060108F009F9CDE90801DDE93D
:1036C0000A2307F0A3FECDE90C0107F06DFE0E9072
:1036D0000E9813B0BDE8F08F0000F03F0CB500204D
:1036E000019000907248006840F480307049086092
:1036F00000BF6F48006800F4003000900198401C43
:103700000190009818B90198B0F5A06FF1D1684800
:10371000006800F4003010B10120009001E00020AA
:1037200000900098012846D161484030006840F080
:1037300080505F49403108605E48006840F4804036
:103740005C4908605A4808300068594908310860E7
:103750000846006840F4004008600846006840F4ED
:10376000A05008605448091F0860081F006840F016
:103770008070091F086000BF4D48006800F00070AD
:103780000028F9D040F205604C49086048480830EC
:10379000006820F0030046490831086008460068C8
:1037A00040F00200086000BF41480830006800F0A7
:1037B0000C000828F8D10CBD10B53D48006840F059
:1037C00001003B4908600020394908310860384849
:1037D00000683B490840364908603A48091D0860BE
:1037E000081F006820F48020091F0860002030496D
:1037F0000C310860FFF772FF4FF00060324908603B
:1038000010BD70B500200022022300240221284DA3
:1038100008352D6805F00C0020B1042806D00828D2
:1038200034D107E0294D2A4E356033E0294D284E2A
:1038300035602FE01E4D2D1D2D68C5F380541C4DA5
:103840002D1D2D6805F03F0154B1224DB5FBF1F55A
:10385000174E361D3668C6F3881605FB06F209E0DA
:103860001A4DB5FBF1F5124E361D3668C6F38816B3
:1038700005FB06F20E4D2D1D2D68C5F301456D1C8F
:103880006B00B2FBF3F5124E356003E00F4D104EA6
:10389000356000BF00BF064D08352D68C5F3031520
:1038A0000D4E705D0A4D2D68C540094E356070BDE6
:1038B000003802400070004008544007003C0240BD
:1038C000FFFFF6FE1030002408ED00E00024F400B5
:1038D0009800002000127A009C00002009488047D0
:1038E00009480047FEE7FEE7FEE7FEE7FEE7FEE7E2
:1038F000FEE7FEE7FEE7FEE704480549054A064BFA
:1039000070470000B937000889010008104B0120FA
:1039100010510120104D0120104D012057488021E9
:1039200002E0491E002204C00029FAD1544A554B36
:103930001A601A46126822F007021A600022524BDF
:103940001A807047704710B50446204603F0A9FB63
:1039500010BD10B50446204603F0A4FB10BD10B501
:1039600003F0A1FB10BD10B503F09FFB10BD70B5B7
:10397000044610464FF080750560051F28462C60F0
:10398000424E051F28462E604FF01236051F28466E
:103990002E604FF00336051F28462E604FF002368A
:1039A000051F28462E607610051F28462E60051F2D
:1039B000284629604FF01136051F28462E604FF02B
:1039C0001036051F28462E604FF00936051F284681
:1039D0002E604FF00836051F28462E604FF0073640
:1039E000051F28462E604FF00636051F28462E601C
:1039F0004FF00536051F28462E604FF00436051F90
:103A000028462E6070BD10B503F050FB10BD10B5F8
:103A10000446204603F04BFB10BD10B503F048FBF5
:103A200019480088401C18490880084600880A2860
:103A300003D30020088003F04FFA10BD10B500F04A
:103A40002BF8044612480078401C114908702046A3
:103A500000F026F800F003FE00F007FD10BD411E47
:103A60004FF0E0225161FF220A49CA7200214FF053
:103A7000E02291610721116170470000282D01208B
:103A8000282F0120AC000020B0000020D3670008E0
:103A9000CD00002018ED00E0EFF3108072B6704703
:103AA00080F3108870471F484FF0FF01017000201D
:103AB00080F309881C48012101701C484FF0805197
:103AC000016062B6FEE719484FF08051016070470F
:103AD00016484FF080510160704772B6EFF30980CD
:103AE00028B1203880E8F00F11490968086000B556
:103AF000104880475DF804EB0F4810490A780270BF
:103B00000B480F490A680260106890E8F00F2030F7
:103B100080F309884EF0040E62B6704772B67047A3
:103B200062B6704722ED00E0DA00002004ED00E00C
:103B3000E0000020073A0008CF000020D00000205D
:103B4000E80000201D481E481E481F481F48204806
:103B50002048214821482248224823482348244815
:103B600024482548254826482648274827482848E5
:103B70002848294829482A482A482B482B482C48B5
:103B80002C482D482D482E482E482F482F48304885
:103B90003048314831483248324833483348344855
:103BA0003448354835483648364837483748384825
:103BB00038483948394800BF7047000080C70008BE
:103BC00084C700088AC700088CC7000888C7000897
:103BD0008EC7000890C7000892C7000894C7000865
:103BE00096C7000898C700089AC700089CC7000835
:103BF0009EC70008A0C70008A2C70008A4C7000805
:103C0000A6C70008A8C70008AAC70008ACC70008D4
:103C1000AEC70008B0C70008B2C70008B4C70008A4
:103C2000B6C70008B8C70008BAC70008BCC7000874
:103C3000BEC70008C0C70008C2C70008C4C7000844
:103C4000C6C70008C8C70008CAC70008CCC7000814
:103C5000CEC70008D0C70008D2C70008D6C70008E2
:103C6000D8C70008DAC70008DCC70008F045012003
:103C7000704A0120E0C70008E2C70008E4C7000856
:103C8000E6C70008E8C70008EAC70008ECC7000854
:103C9000EEC70008F0C70008DEC70008F2C700083A
:103CA0000146002002E0491C421CD0B20A78002ADA
:103CB000F9D170472DE9F04105460E46144600271C
:103CC00025B9042020700020BDE8F0811EB90C2029
:103CD00020700020F8E7F748007818B11120207014
:103CE0000020F1E72878012808D0022807D003280F
:103CF00002D0042804D100E000BF00BF00BF03E0F1
:103D0000012020700020DFE700BFFFF7C5FE074657
:103D1000686930603068FFF7C3FF80463846FFF7B8
:103D2000BFFE002020704046CEE72DE9F041054659
:103D30000E46144600271DB904202070BDE8F0810E
:103D400016B90C202070F9E7DA48007810B112207B
:103D50002070F3E72878012808D0022807D003282C
:103D600002D0042804D100E000BF00BF00BF02E081
:103D700001202070E2E700BFFFF78EFE07466E616C
:103D80003846FFF78DFE0020207000BFD6E7F0B563
:103D9000024612F8384F95785678383A0B4618682C
:103DA0000FE000F10B073F5DB74300F10B0C0CF87F
:103DB000047067463F5D17B9877AAF4387721B1D52
:103DC00018680028EDD1F0BDBB49BC4A1278885C68
:103DD000BB49095CB84A515C01EBC001B94A11709A
:103DE000704710B50024FFF757FE0446B14800782D
:103DF000F8B9B5480078E0B9FFF7E6FFB348B14934
:103E0000097850F82100B2490860AE480078B149FD
:103E1000097888420DD0AE480068C06B401CAC49A0
:103E20000968C863AC480068401CAB490860FFF7EC
:103E30004AFE2046FFF734FE10BD70B5014600244F
:103E4000A64D2D68EC61A54C246821620B461868CC
:103E50001BE0A24C246894F8385000F10B04645D18
:103E60009E4D2D6895F839502C439C4D2D6895F842
:103E7000386000F10B05AC55847A984D2D6895F8A3
:103E80003A502C4384721B1D18680028E1D1934CD2
:103E9000246894F838208A4CA45C904D2D6895F8DD
:103EA0003950AC43864DAC542C46A45C44B98B4C81
:103EB000246894F83A50814C2478AC437F4D2C70A0
:103EC00070BD2DE9FF4F83B081460E461546109F09
:103ED00000200090B9F1000F05D1042038700020B7
:103EE00007B0BDE8F08FD9F8000018B90420387089
:103EF0000020F5E71EB9042038700020F0E71DB956
:103F0000042038700020EBE700203060CA46DAF861
:103F1000004015E02078062807D2DFE800F006040C
:103F20000503070807E006E005E000BF00BF012029
:103F300038700020D4E700BF0AF1040ADAF8004024
:103F4000002CE7D15B48007818B1022038700020BF
:103F5000C6E75D48007818B10D2038700020BFE733
:103F6000FFF79AFD00900020029083460190CA4618
:103F7000DAF8004066E02078062853D2DFE800F047
:103F800052172A035354208960B12089401E208192
:103F900010C601200290002001C50BF101001FFA9C
:103FA00080FB03E0019840F00100019045E060686B
:103FB00058B1606801C50020606010C60120029001
:103FC0000BF101001FFA80FB03E0019840F00200B2
:103FD000019032E0D4F80480B8F81600E8B1D8F8BF
:103FE0001010081DC8F81000086801C5D8F808109E
:103FF000D8F81000884203D1D8F80400C8F810009F
:10400000B8F81600401EA8F8160010C6012002904D
:104010000BF101001FFA80FB03E0019840F004005F
:1040200001900AE000BF00BF0098FFF739FD0020B3
:10403000306001203870584652E700BF0AF1040A88
:10404000DAF80040002C96D10298012808D100200F
:1040500030600098FFF724FD0020387058463FE795
:104060001E48006890F83400019941F0800108432F
:104070001A49096881F8340000201849096881F854
:10408000350016490698096808634846FFF7D5FECB
:104090000098FFF705FDFFF7A4FEFFF7FDFC009079
:1040A0000E48006890F83500D0B1012831D00228C0
:1040B0002ED116E0CD000020F4C70008D10000206A
:1040C000D2000020D0000020CE00002018390120AE
:1040D000E8000020CF000020B4000020E000002015
:1040E00000BFFE480068C4693CB110C600203060C3
:1040F0000BF101001FFA80FB09E00120F749096874
:1041000081F835004946F5480068FFF740FE06E0B3
:1041100000BF4946F1480068FFF739FE00BF00BF05
:10412000EE48006890F8350020B1012828D0022818
:1041300025D11FE0207806280DD2DFE800F00C061C
:1041400007030D0E002001C510E000BFE348006822
:10415000406A01C50AE000BF00BF0098FFF7A0FC5D
:1041600000203060012038705846B9E600BF0020BA
:1041700038700AE0002001C50E20387005E000BF4D
:10418000002001C50A20387000BF00BF0020D349BD
:10419000096881F83400D149096881F83500CF49B0
:1041A0000968C861CD4909680862CC490968486254
:1041B0000098FFF775FC584692E67CB5002514E0A0
:1041C0006946284602F0CDF9064666B9C44850F85B
:1041D000254044B1012C06D0D4E9020100EB810056
:1041E000A0640198E064681CC5B23F2DE8D97CBD8D
:1041F000002400BF02E0142002F0F8FAB948007869
:104200000028F8D0B84800686421B0FBF1F0B64946
:1042100008600846006828B90020B4490870FF20EB
:1042200002F0EAF900BFFFF737FC0446B048006827
:10423000B04908600020AE4908602046FFF730FC16
:10424000AC480068A8490968B0FBF1F0C0F164000F
:10425000A6490870FFF787FBFFF7AFFF0A2002F0BF
:10426000C5FAE0E700B587B0032000218022A24B09
:10427000CDE90132CDE903104FF6FE703E239F4A8F
:104280000090AFF2930001F057FF06AA9CA13E20D8
:1042900002F0DAF807B000BD002400BF00BFFFF74E
:1042A000FBFB044692480068401C91490860204688
:1042B000FFF7F6FBFFF753FBF1E700B587B00320EC
:1042C00000218022924BCDE90132CDE903104FF657
:1042D000FF703F238F4A0090AFF2430001F02CFFA4
:1042E00006AA8DA13F2002F0AFF807B000BD04E0A0
:1042F000002200F8012B4A1E91B20029F8D1704724
:1043000070B54FF4B4618848FFF7F1FF002411E065
:10431000601C85B204EB4400834901EBC00305EB4C
:10432000450001EBC006002018705E607FA0586158
:10433000601C84B23B2CEBD304EB44007A4901EBC4
:10434000C00300201870586078A05861084678496A
:10435000086070BD70B54FF430617648FFF7C7FF55
:104360004FF480715E48FFF7C2FF002413E0601C29
:10437000C5B204EB440000EBC4006E4901EBC0037E
:1043800005EB450000EBC50001EBC0065E6167A0D0
:104390001865601CC4B21F2CE9D304EB440000EB89
:1043A000C400644901EBC003002058615FA0186598
:1043B0000020614908605F486049086070BD0021C5
:1043C0005F4A1170002004E000215E4A1154411C34
:1043D000C8B20828F8D300215B4A11705B4A1170FB
:1043E0005B4A11603D4A11607047002059490860DE
:1043F0005949087059490870594908705949087055
:10440000594908603A4908603A49086036490860E5
:1044100034490870704710B5FFF780FAFFF7E5FFE1
:10442000FFF7CDFFFFF796FFFFF76AFF00F0E4FE0E
:1044300001F00FF801F03BFBFFF73FFFFFF712FF22
:1044400002F0A4FDFFF77EFAFFF77CFB10BD4548A4
:104450000078012808D140480078FF2804D23E485F
:104460000078401C3C490870704710B500243D4856
:104470000078012830D1FFF70FFB0446364800785A
:1044800020B135480078401E334908703248007822
:10449000F8B932480078E0B9FFF796FC10482B498C
:1044A000097850F821002A490860284800782649F0
:1044B000097888420DD026480068C06B401C24490A
:1044C0000968C86328480068401C27490860FFF74E
:1044D000FFFA2046FFF7E4FA10BD0000E0000020DC
:1044E00018390120CC000020C4000020C0000020AA
:1044F000DC000020C80000201835012014370120FE
:1045000075432F4F532D49492053746174000000A7
:10451000183701201439012075432F4F532D494975
:104520002049646C65000000282F01203F00000036
:10453000B8000020183A0120EC000020E400002020
:10454000D1000020D2000020CF000020D0000020A9
:10455000E8000020FC000020CD000020CE0000205C
:10456000DB000020DA000020B400002010B5002499
:10457000FE480078012811D1FFF78EFA0446FC4866
:10458000007840B9FB480078FF2804D2F948007849
:10459000401CF84908702046FFF782FA10BD10B59C
:1045A0000024F2480078012821D1FFF775FA04466B
:1045B000F0480078C0B1EF480078401EED4908701F
:1045C0000846007860B9EA48007828B92046FFF725
:1045D00067FAFFF706FC0AE02046FFF761FA06E0FB
:1045E0002046FFF75DFA02E02046FFF759FA10BDBA
:1045F00010B5DE48007890B9FFF7E6FBDE4800789A
:10460000DE490870DE48DC49097850F82100DD49B0
:10461000086008460068DC490860FFF744FA10BDEE
:1046200010B50024022002F0E1F8FFF735FA044645
:104630000020D64908602046FFF732FA0A2002F02F
:10464000D5F8FFF729FA0446D0480068D049086039
:104650000120D04908702046FFF722FA10BD70B53E
:104660000026FFF7DAF9FFF717FA0646CA4800688E
:10467000401CC94908603046FFF712FABB48007871
:10468000012853D1C548007820B1012804D0022860
:1046900009D103E001250BE0002509E001250120F7
:1046A000BE49087004E001250020BC49087000BF25
:1046B00000BF05B970BDBA48046833E0FFF7ECF9F4
:1046C0000646206B50B3206B401E2063206B28BB36
:1046D00094F8340000F0370040B114F8340F00F0C3
:1046E000C800207001206070343C02E0002084F893
:1046F000350094F8340000F0080078B93834A07818
:10470000A84909780843A74908702078A649085C99
:104710006178084314F83819A34A50546469304644
:10472000FFF7BEF994F836003F28C7D100BFC1E7B4
:1047300040F223107047704710B590F8382001F10F
:104740000B039B5C90F83940A34301F10B04A35485
:1047500023469B5C23B98B7A90F83A40A3438B7233
:1047600010BD2DE9F04F05460F4690469946A87AB0
:104770008E490E5C05F10B00805D11F800B00BEB6B
:10478000C60000F0FF0A7E4850F82A40002024347A
:10479000E0602760207C20EA0800207484F81190F3
:1047A000207C243C00F0080068B994F83A007D4968
:1047B000097808437B4908707B48805D94F839107C
:1047C00008437949885529462046FFF7B5FF206AF6
:1047D00020B12046216AFFF7DAFAE5615046BDE8CC
:1047E000F08F10B5684A1268D061674A126892F873
:1047F000383000F10B02D25C634B1B6893F8393000
:104800001A43614B1B6893F8384000F10B031A55AB
:10481000827A5D4B1B6893F83A301A4382725A4A87
:10482000126892F83810604A525C574B1B6893F834
:1048300039309A435C4B5A541A46525C42B9524A38
:10484000126892F83A30574A12789A43554B1A70C8
:1048500010BD014600228A72002005E0002301F10C
:104860000B021354421CD0B20828F7D3704705E05E
:1048700011F8013B00F8013B531E9AB2002AF7D110
:1048800070472DE9F84F05460F4690469946DDE9F9
:104890000AAB00200090FFF7FFF80090444804683E
:1048A000002C61D01C3454F8080C41490860009871
:1048B000FFF7F6F844F81C7CA57600202076607699
:1048C000606144F818BC44F810AC44F8148C0C989F
:1048D00024F80C0C24F80A9C0020E077E8102077DC
:1048E00005F00700E076217F01208840A077E17E77
:1048F000012088406077002020606060E060A06058
:104900002062A0626062E0622063AFF2E030606328
:104910001C3C002606E0002104F1540040F826105B
:10492000701CC6B2002EF6D02046FFF770F8204665
:10493000FFF709F8FFF7B0F80090114840F825405C
:104940001748006860610020A0611548006810B138
:10495000134800688461124804603834A078114913
:10496000097808430F4925E039E00000DA0000200B
:10497000CD000020CE000020D0000020CF0000207D
:1049800018390120E8000020E0000020DC000020B1
:10499000C4000020CC000020FC000020F00000201B
:1049A000EC000020D1000020D2000020F4C7000855
:1049B000E4000020087020780B49085C6178084307
:1049C00014F83819084A505408480078401C074920
:1049D00008700098FFF764F80020BDE8F88F009891
:1049E000FFF75EF84220F8E7D2000020DB0000204D
:1049F0002DE9F05F04460F4691461E464FF0000B2E
:104A000024B96E2030700020BDE8F09F2078052882
:104A100003D0012030700020F6E709F0800ABAF1D7
:104A2000000F04D029F080094FF0010801E04FF099
:104A3000000800203070FFF72FF88346B9F1000F0F
:104A40002CD0B9F1010F3BD0B9F1020F03D0B9F16D
:104A5000030F46D111E0208900EA0705BD4206D1C7
:104A6000B8F1010F05D12089A843208101E0702011
:104A700030705846FFF714F83AE0208900EA07053D
:104A800035B1B8F1010F05D12089A843208101E09B
:104A9000702030705846FFF703F829E0208927EA94
:104AA0000005BD4206D1B8F1010F05D12089284388
:104AB000208101E0702030705846FEF7F1FF17E0CA
:104AC000208927EA000535B1B8F1010F05D1208909
:104AD0002843208101E0702030705846FEF7E0FF47
:104AE00006E05846FEF7DCFF00256F20307000BF5F
:104AF00000BF284688E72DE9F04106460D4600270D
:104B0000F748007820B1102028700020BDE8F0811F
:104B1000FEF7C2FF0746F348046884B100684068A6
:104B2000F049086005202070268100206060EEA01A
:104B3000E0603846FEF7B4FF0020287004E03846F5
:104B4000FEF7AEFF722028702046DFE730B5014641
:104B50004A6808682AB9CC68606028B100254560B9
:104B600002E0106000B142608B6800259D6230BD9C
:104B7000F0B506460F46B46800202C3460602780EC
:104B8000207A00F0DF00207200206072207A2C3C36
:104B900088B93834A078D54909780843D3490870D2
:104BA0002078D349085C6178084314F83819D04A52
:104BB0005054012500E000253046FFF7C7FF284686
:104BC000F0BD2DE9F0470446894615464FF0000A2E
:104BD00024B96E2028702046BDE8F087C0480078D0
:104BE00018B10F2028702046F6E72078052803D05A
:104BF000012028702046EFE7FEF74EFF82466068EE
:104C000008B1012700E00027B9F1000F03D0B9F186
:104C1000010F3CD119E08FB9B3A0E06000202070F3
:104C2000B0480068606000202081AE4804605046B3
:104C3000FEF736FF00202870002605E05046FEF7FC
:104C40002FFF49202870264628E0D4F8048005E08C
:104C500000214046FFF78CFFD8F80080B8F1000F24
:104C6000F6D1A1A0E060002020709E48006860603E
:104C7000002020819B4804605046FEF711FF012F61
:104C800001D1FFF7AEF800202870002606E050465C
:104C9000FEF706FF07202870264600BF00BF3046FB
:104CA0009AE72DE9F04105460E461446002725B93E
:104CB0006E2020700020BDE8F0811EB90C2020700D
:104CC0000020F8E78648007818B1112020700020F5
:104CD000F1E7FEF7E1FE07462878052806D03846BA
:104CE000FEF7DEFE012020700020E4E7E868306077
:104CF0003068FEF7D5FF80463846FEF7D1FE00202B
:104D000020704046D7E72DE9F04105460E4614468F
:104D100000271DB96E202070BDE8F08116B90C2067
:104D20002070F9E76E48007810B112202070F3E788
:104D3000FEF7B2FE07462878052805D03846FEF76C
:104D4000AFFE01202070E7E7EE603846FEF7A8FED0
:104D50000020207000BFDFE7F0B51446059E654FC8
:104D60003F6897F8347047F02007DFF888C1DCF817
:104D700000C08CF834700027DFF878C1DCF800C080
:104D80008CF835705B4F3F683E635A4F3F68B9629D
:104D90000C828B74574F3F688F6047680F60002705
:104DA0004F60C860456805B169604160514F3F6818
:104DB00097F838204E4FBF5CDFF838C1DCF800C0F0
:104DC0009CF839C027EA0C07DFF824C10CF8027000
:104DD0006746BF5C5FB9474F3F6897F83AC0434F9B
:104DE0003F7827EA0C07DFF804C18CF80070F0BDAB
:104DF0002DE9F04F89B005460F4691469A46129E1E
:104E0000002002902DB96E203070002009B0BDE85E
:104E1000F08F3348007818B1022030700020F5E799
:104E20003548007818B10D2030700020EEE7287862
:104E3000052803D0012030700020E7E709F0800B3F
:104E4000BBF1000F04D009F07F094FF0010801E029
:104E50004FF00008FEF720FE0290B9F1000F59D084
:104E6000B9F1010F79D0B9F1020F03D0B9F1030FF5
:104E700072D120E0288900EA0704BC420FD1B8F1C2
:104E8000010F02D12889A04328811A48006884852F
:104E90000298FEF705FE002030702046B6E74B462C
:104EA0003A4604A92846CDF800A0FFF755FF02981E
:104EB000FEF7F6FD79E0288900EA0704F4B1B8F1BD
:104EC000010F02D12889A04328810A4800688485FF
:104ED0000298FEF7E5FD00203070204696E70000BE
:104EE000CD000020BC0000203F000000D1000020C9
:104EF000D2000020E0000020CE0000204B463A46C1
:104F000004A92846CDF800A0FFF726FF0298FEF777
:104F1000C7FD4AE0288927EA0004BC420FD1B8F156
:104F2000010F02D1288920432881C7480068848561
:104F30000298FEF7B5FD00203070204666E74B462C
:104F40003A4604A92846CDF800A0FFF705FF0298CD
:104F5000FEF7A6FD29E000E01FE0288927EA00040B
:104F60007CB1B8F1010F02D1288920432881B648CD
:104F7000006884850298FEF793FD0020307020467B
:104F800044E74B463A4604A92846CDF800A0FFF76F
:104F9000E3FE0298FEF784FD07E00298FEF780FD2D
:104FA00000246F203070204630E700BFFEF719FF65
:104FB000FEF772FD0290A448006890F8350020B317
:104FC000A148006890F83500039000209E490968C8
:104FD00081F8350004A8FFF7B9FD00209A49096857
:104FE00081F834000298FEF75BFD00240398012845
:104FF00005D0022802D10E20307003E000BF0A2045
:10500000307000BF00BF204600E78F480068848DE5
:10501000B8F1010F1ED1B9F1000F0ED0B9F1010F97
:105020000CD0B9F1020F03D0B9F1030F0AD100E09F
:1050300000BF2889A04328810BE000BF28892043B6
:10504000288106E00298FEF72BFD6F2030700020CB
:10505000DCE600BF0298FEF723FD002030702046FA
:10506000D4E670B50025FEF717FD054676480068C2
:10507000848D2846FEF714FD204670BD2DE9FC5FA7
:105080000446894692461E460020009024B96E20B0
:1050900030700020BDE8FC9F2078052803D0012057
:1050A00030700020F6E7FEF7F7FC0090BAF1000F31
:1050B00003D0BAF1010F0AD104E0208920EA0900E7
:1050C00020810BE0208940EA0900208106E0009859
:1050D000FEF7E6FC712030700020DBE700BF4FF0E8
:1050E000000B656855E0A87C40B3012838D0022841
:1050F00002D0032844D111E02089298A00EA01075F
:10510000288AB84209D139462846FFF731FD804642
:10511000B8F1010F01D14FF0010B38E02089298A45
:1051200000EA01074FB139462846FFF721FD8046C6
:10513000B8F1010F01D14FF0010B28E0288A218935
:1051400020EA0107288AB84209D139462846FFF7E4
:105150000FFD8046B8F1010F01D14FF0010B16E0B1
:10516000288A218920EA01074FB139462846FFF7EE
:10517000FFFC8046B8F1010F01D14FF0010B06E0B2
:105180000098FEF78DFC6F203070002082E700BF92
:105190002D68002DA7D10098FEF782FCBBF1010F0E
:1051A00001D1FEF71EFEFEF777FC009020890190EA
:1051B0000098FEF775FC0020307001986AE72DE931
:1051C000F04104460D46002724B96E2028700020C7
:1051D000BDE8F0812078052803D001202870002048
:1051E000F6E7FEF759FC074626893846FEF758FCD5
:1051F000002028703046EBE72DE9F041502113489C
:10520000FFF775F800250EE0681C86B20F4800EB2A
:10521000051400EB0617002020706760AFF23830ED
:10522000E060681C85B2042DEED3084800EB05143D
:10523000002020706060AFF25030E0600348044905
:105240000860BDE8F0810000E0000020C8340120C3
:10525000BC0000202DE9FC5F05460F4691461E4626
:105260000020009025B9622030700020BDE8FC9F2E
:1052700005F0030018B1622030700020F6E7022F1D
:1052800003D25B2030700020F0E7B9F1040F03D2A5
:105290005C2030700020E9E7FEF7FEFB00907F48BD
:1052A0000468006820B17D48006840687B49086058
:1052B0000098FEF7F5FB1CB95A2030700020D5E7A6
:1052C000AA46A846781E01904FF0000B05E0C8449E
:1052D000CAF80080C2460BF1010B01988345F6D352
:1052E0000020CAF80000256065602761E760C4F807
:1052F000089030702046B9E72DE9F04104460D468C
:10530000002724B9602028700020BDE8F081FEF756
:10531000C3FB0746206960B1666830686060206939
:10532000401E20613846FEF7BBFB00202870304647
:10533000EBE73846FEF7B4FB5D2028700020E4E779
:105340002DE9F04106460D461446002726B9602097
:1053500020700020BDE8F0811DB90C2020700020D5
:10536000F8E74F48007818B1112020700020F1E7CD
:10537000FEF792FB0746706928602868FEF790FCEC
:1053800080463846FEF78CFB002020704046E1E75F
:105390002DE9F04105460E46144600271DB9602050
:1053A0002070BDE8F08116B90C202070F9E73C4868
:1053B000007810B112202070F3E7FEF76DFB07466E
:1053C0006E613846FEF76CFB0020207000BFE8E7F6
:1053D00070B504460D4600260CB9602070BD0DB9AD
:1053E0005F20FBE7FEF758FB0646D4E9031088422E
:1053F00004D33046FEF754FB5E20EFE76068286078
:1054000065602069401C20613046FEF749FB0020A2
:10541000E4E770B505460C4600260DB9602070BD66
:105420000CB96120FBE7FEF737FB064628682060D1
:1054300068686060A868A060E868E060286920612A
:105440003046FEF72DFBD4E90301401A60610020CD
:10545000E5E770B578211348FEF749FF00240EE018
:1054600004EB44000F4901EBC005601C00EB400059
:1054700001EBC00068600CA06861601C84B2042C61
:10548000EED304EB4400074901EBC005002068603F
:1054900005A0686108460149086070BDF40000205D
:1054A000CD000020184501203F0000002DE9F0410B
:1054B00006460D464FF0000826B90420287000204B
:1054C000BDE8F0813078022803D001202870002048
:1054D000F6E7FEF7E1FA80467468E08A78B1216960
:1054E000081D20610F68E08A401EE082A1682069E3
:1054F000884201D1606820610020287002E01F20EE
:10550000287000274046FEF7CBFA3846D8E72DE949
:10551000F04106460F464FF00008FA48007810B1F7
:105520000020BDE8F081FEF7B7FA8046F64804682F
:10553000006820B1F44800684068F34908604046BC
:10554000FEF7AEFAFCB1FEF7A7FA8046EF48056811
:10555000D5B100680068ED4908604046FEF7A0FA42
:105560006E6006EB8700A860EE602E61AF820020BF
:10557000E88202202070002020816560E4A0606144
:105580002046FFF766F908E0DF4800686060DE4803
:1055900004604046FEF784FA00242046C1E72DE966
:1055A000F0470446894615464FF0000A24B9042006
:1055B00028702046BDE8F0872078022803D001201B
:1055C00028702046F6E7CF48007818B10F202870E1
:1055D0002046EFE7FEF760FA8246A07A10B14FF05E
:1055E000010801E04FF00008B9F1000F03D0B9F154
:1055F000010F49D121E0B8F1000F17D1C4A06061BB
:105600006668C24800683060C048066000202070AC
:10561000BD480068606000202081BB48046050469F
:10562000FEF73EFA00202870002705E05046FEF7FE
:1056300037FA4920287027462DE005E00023042290
:1056400019462046FFF78DF8A07A0028F6D1B0A0C1
:1056500060616668AD4800683060AC480660002054
:105660002070A9480068606000202081A64804607E
:105670005046FEF715FAB8F1010F01D1FEF7B1FB64
:1056800000202870002706E05046FEF709FA0720A0
:105690002870274600BF00BF38468BE770B5054627
:1056A00000260DB9042070BD2878022801D0012001
:1056B000F9E7FEF7F1F906466C686068E06060683B
:1056C00020610020E0823046FEF7EAF90020EAE798
:1056D0002DE9F0470646884615464FF0000926B9E1
:1056E000042028700020BDE8F0873078022803D01D
:1056F000012028700020F6E78248007818B10220C7
:1057000028700020EFE78348007818B10D2028703A
:105710000020E8E7FEF7C0F981467468E08A98B196
:105720002169081D20610F68E08A401EE082A1689F
:105730002069884201D1606820614846FEF7B0F9CF
:10574000002028703846CEE77348006890F834008F
:1057500040F004007049096881F8340000206E4967
:10576000096881F835006C480068C0F83080304620
:10577000FFF737F84846FEF793F9FEF732FBFEF7DE
:105780008BF981466448006890F8350020B1012803
:105790000DD002280AD105E05F480068476A002062
:1057A00028700DE000270E20287009E000BF314668
:1057B00059480068FEF7C0FF00270A20287000BF84
:1057C00000BF00205449096881F834005249096833
:1057D00081F8350050490968C8614F490968086275
:1057E0004D49096848624846FEF75AF938467AE753
:1057F0002DE9F04104460F4615464FF0000824B944
:10580000042028700020BDE8F0812078022803D011
:10581000012028700020F6E7FEF73EF98046A07AC6
:1058200020B300267FB1012F0CD107E00223042210
:1058300000212046FEF795FF701CC6B2A07A002812
:10584000F4D109E000BF0223042200212046FEF724
:1058500088FF701CC6B200BF00BF4046FEF720F9AB
:10586000FEF7BFFA0E2028703046CCE74046FEF720
:1058700017F90020287000BFC5E72DE9F041054663
:105880000E46002715B90420BDE8F08128780228CB
:1058900001D00120F8E7FEF7FFF80746A87A60B1CB
:1058A0000023042231462846FEF75BFF3846FEF708
:1058B000F7F8FEF796FA0020E6E76C68E08AA18A1E
:1058C000884204DB3846FEF7EBF81E20DCE7E1688F
:1058D000081DE0600E60E08A401CE082D4E90210FE
:1058E000884201D16068E0603846FEF7D9F80020B0
:1058F000CAE72DE9F04105460E46002775B9042098
:10590000BDE8F081CD000020B8000020F8000020A4
:105910003F000000CE000020E00000202878022890
:1059200001D00120ECE7FEF7B7F80746A87A60B18E
:105930000023042231462846FEF713FF3846FEF7BF
:10594000AFF8FEF74EFA0020DAE76C68E08AA18A29
:10595000884204DB3846FEF7A3F81E20D0E76168D2
:105960002069884201D1A06820612069001F206160
:1059700020690660E08A401CE0823846FEF790F815
:105980000020BDE72DE9F04105460F4616464FF0D1
:10599000000815B90420BDE8F0812878022801D05C
:1059A0000120F8E7FEF778F88046A87AE8B106F01B
:1059B000010050B105E00023042239462846FEF7D5
:1059C000D0FEA87A0028F6D105E00023042239464B
:1059D0002846FEF7C6FE4046FEF762F806F00400D1
:1059E00008B9FEF7FEF90020D5E76C68E08AA18AC5
:1059F000884204DB4046FEF753F81E20CBE706F052
:105A0000020058B161682069884201D1A068206114
:105A10002069001F20612069076009E0E168081D16
:105A2000E0600F60D4E90210884201D16068E06054
:105A3000E08A401CE0824046FEF732F80020AAE7E8
:105A40002DE9F04705460C464FF0000A15B9042031
:105A5000BDE8F0870CB90920FAE72878022801D0C0
:105A60000120F5E7FEF718F88246A87A207405F1C0
:105A70000B0804F10809002705E018F8010B09F8E4
:105A8000010B781CC7B2082FF7D36E68F08A18B1E3
:105A900030690068206001E000202060F08AA0806A
:105AA000B08AE0805046FDF7FBFF0020D0E72DE9EB
:105AB000F04160211048FEF71AFC00240DE0601C44
:105AC00086B204EB44000C4901EBC00506EB46002E
:105AD00001EBC0072F60601C84B2032CEFD304EBF2
