:020000040800F2
:10000000604D012099240008310B0008350B0008D1
:10001000390B00083D0B0008410B000800000000F0
:10002000000000000000000000000000450B000878
:10003000470B00080000000097260008F92500087B
:10004000B3240008B3240008B3240008B324000834
:10005000B3240008B3240008B3240008B324000824
:10006000B3240008B3240008B3240008B324000814
:10007000B3240008B3240008B3240008B324000804
:10008000B3240008B3240008B3240008B3240008F4
:1000900025040008B3240008B3240008B324000892
:1000A000B324000861050008B3240008B324000845
:1000B00027050008F705000829060008B3240008F2
:1000C000B3240008B3240008B3240008B3240008B4
:1000D000B32400085B060008B3240008B32400081A
:1000E000B3240008B3240008B3240008B324000894
:1000F00093050008B3240008B3240008B3240008C3
:10010000B3240008B3240008C5050008B324000880
:10011000050A00083B0A0008B3240008B3240008BD
:10012000B3240008B3240008B3240008B324000853
:10013000B3240008B3240008B3240008B324000843
:10014000B3240008B3240008B3240008B324000833
:10015000B3240008B3240008B3240008B324000823
:10016000B3240008B3240008B3240008B324000813
:10017000B3240008B3240008B3240008B324000803
:10018000B3240008B324000800F002F800F03AF8A5
:100190000AA090E8000C82448344AAF10107DA45E2
:1001A00001D100F02FF8AFF2090EBAE80F0013F0FA
:1001B000010F18BFFB1A43F001031847608C0000C1
:1001C000808C0000103A24BF78C878C1FAD8520752
:1001D00024BF30C830C144BF04680C6070470000C1
:1001E0000023002400250026103A28BF78C1FBD840
:1001F000520728BF30C148BF0B6070471FB51FBDF5
:1002000010B510BD07F035FF1146FFF7F7FF00F0FE
:100210001DF807F053FF03B4FFF7F2FF03BC07F02C
:100220005BFF0000184800686421B0FBF1F4204631
:1002300002F0F3F902F0D2FF00F0C5F800BF00238E
:100240001A460121184605F0E1F8F8E710B586B026
:1002500000BF02F041FA02F0BCFE032000214FF47F
:1002600080720A4BCDE90132CDE903100A20034622
:10027000074A0090074804F03DFD044602F096FF4F
:10028000002006B010BD000050000020DC0000205F
:10029000D80400202502000808B59DF80000009051
:1002A0006A4600215348006804F0C8FB1DE06A4616
:1002B00000215048006804F0ABFA4F48007801284C
:1002C00013D14E480078401C4C490870084600780D
:1002D00064280AD14FF400620121092001F0FCFBDF
:1002E00000204549087045490870E0E708B500BF9F
:1002F0004FF4A06006F0AEF80020034640F247320B
:1003000040F2E73100904FF0804000F046FC4FF49F
:10031000E1613B4800F0D9FE4FF4E13001F036F8DE
:100320004FF4E13001F0D5F84FF400704310354A36
:100330004FF4FA710090344801F07AFD01F0EEF9C3
:10034000062001F0F7F9072001F0F4F9082001F088
:10035000F1F9092001F0EEF90A2001F0EBF90B2088
:1003600001F0E8F947F2305341F288321146062095
:1003700001F040FB47F2305341F28832114607202A
:1003800001F038FB47F2305341F288321146082021
:1003900001F030FB42F210731C4A1146092001F0B3
:1003A00029FB1B4A11460A2001F061FA184A11463E
:1003B0000B2001F05CFA3221114800F086FEFF208C
:1003C00004F0F8FE08BD10B500BF002004F08EF95F
:1003D000084908600B230F4A00210F4804F02FFC46
:1003E00004460C230D4A00210D4804F028FC044665
:1003F00010BD0000000000200400002006000020C6
:10040000000C0040000402400064004090D0030053
:10041000E0930400D8A80020ED020008D8280120AD
:100420009902000810B502F015F90446FD4800785D
:10043000401CFC490870204602F010F90823FA4AD3
:10044000FA49FB4801F0F6FEF848006816281BD16F
:10045000F5480078F7490870F34840784870084636
:100460000088F5490880F0488078F4490870EE4823
:10047000C078487008460088F14908800846B0F9FD
:100480000010002001F0FCFEE848006818281BD18D
:10049000E5480078E7490870E34840784870084626
:1004A0000088E5490880E0488078E4490870DE4823
:1004B000C078487008460088E24908800846B0F9CC
:1004C0000010012001F0DCFEDF49D94807F08BFC69
:1004D000DD49491CD64807F086FCDB49C91CD448D5
:1004E00007F081FCD949D24807F07DFCD849D048B3
:1004F00007F079FCD749CE4807F075FCD54908319B
:10050000CB4807F070FCD449C94807F06CFCD349CC
:10051000C74807F068FCD1490831C54807F063FCBB
:1005200002F081FD10BD10B502F094F80446BD48FC
:100530000078401CBB490870204602F08FF801216A
:10054000880706F05CFD012807D1C548006804F063
:100550001AFA0121880706F063FD02F064FD10BD60
:1005600010B502F077F80446AE480078401CAD495B
:100570000870204602F072F80121BA4806F03FFDEB
:10058000012803D10121B74806F04AFD02F04BFDD6
:1005900010BD10B502F05EF80446A2480078401C79
:1005A000A0490870204602F059F80121AE4806F033
:1005B00026FD012803D10121AB4806F031FD02F0F0
:1005C00032FD10BD10B502F045F80446954800789C
:1005D000401C94490870204602F040F80121A348CD
:1005E00006F00DFD012803D10121A04806F018FDF9
:1005F00002F019FD10BD10B502F02CF80446894830
:100600000078401C87490870204602F027F8012135
:10061000974806F0F4FC012803D10121944806F024
:10062000FFFC02F000FD10BD10B502F013F8044607
:100630007C480078401C7B490870204602F00EF888
:1006400001218C4806F0DBFC012803D101218948F7
:1006500006F0E6FC02F0E7FC10BD2DE9F0410025B4
:1006600001F0F8FF07466F480078401C6D4908709C
:10067000384601F0F3FF40F225517F4806F085FF30
:10068000012874D140F225517B4806F0B5FF7A4825
:1006900006F0CFFEC4B22146774806F0B4FE774894
:1006A00000680F2864D2DFE800F008101C303C44DA
:1006B000454647484958FEFDBC00412C04D16F48CF
:1006C0000068401C6D49086096E1432C05D16B48D9
:1006D0000068401C6949086002E000206749086022
:1006E0008AE1502C05D165480068401C63490860C8
:1006F0000AE0432C05D1614800680A305F49086070
:1007000002E000205D49086076E1432C05D15B489A
:100710000068401C5949086002E000205749086001
:100720006AE15748047055480068401C5349086006
:1007300062E100BF00BF00BF00BF00BF4F480068BC
:10074000092804DA4D480068401F4E490C544B48B4
:100750000068401C494908604EE14948007805217D
:1007600090FBF1F201FB1200052859D201E045E1AE
:100770001BE1DFE800F0032D9CC6D700404800785D
:10078000052190FBF1F040493E4A126841F82020D3
:100790003C4801683D4808F089F905460021284693
:1007A00008F052F800D200253849284608F04CF9E4
:1007B00000D2364D3649284608F07AF8804608F0CF
:1007C00007F8064632460021072001F085F9BEE011
:1007D0002B480078052190FBF1F02E49294A126838
:1007E00041F82020274908682B4907F0C1FE05463B
:1007F0000021284608F028F800D20025274928467D
:1008000008F022F900D2254D2549284608F050F875
:10081000804607F0DDFF064632460021082043E00F
:1008200091E0B0E0850000201900002024000020A5
:1008300000640040080000200C0000200A00002096
:1008400010000020120000200100F0107000F030B5
:1008500003000012080000320300001408000034F6
:10086000000000200000014000040140000C004096
:100870000004004000080040001001402800002053
:100880002C00002034000020DC280120000034422D
:100890003C8E6342F82801200000C0400000104256
:1008A0009A99994267E05AE001F016F94FE0A6489C
:1008B0000078052190FBF1F1A448A54A126840F8A0
:1008C0002120A3480168A34808F0F0F8054600215C
:1008D000284607F0B9FF00D200259F49284608F0B6
:1008E000B3F800D29C4D9D49284607F0E1FF8046B1
:1008F00007F06EFF064632460021062001F0ECF8B4
:1009000025E091480078052190FBF1F19448904A48
:10091000126840F821208E48006801030B2001F086
:100920000CF814E088480078052190FBF1F18D481F
:10093000874A126840F821208548006801030A2090
:1009400000F0FBFF03E0FF207F49087000BF00BFFD
:10095000002085490860FF207B4908704CE0542C3A
:1009600005D181480068401C7F49086002E00020F2
:100970007D49086040E0744804707B480068401C72
:100980007949086038E079480068401C7749086078
:1009900008460068062807D173480068401C724961
:1009A000086000207149086026E0674800787049B7
:1009B000086008460068012802D0022814D10FE020
:1009C0006C48007840B94FF400620121092001F021
:1009D00083F801206749087000206549086003E03A
:1009E00000206349086000BF00BF00205E49086026
:1009F000FF205549087000BF00BF00BF02F013FB85
:100A0000BDE8F08110B501F025FE04465A48007893
:100A1000401C59490870204601F020FE40F2255143
:100A2000564806F0B2FD012804D140F22551534842
:100A300006F0E2FD02F0F7FA10BD70B5002401F0F7
:100A400009FE05464C480078401C4B490870284672
:100A500001F004FE40F22551494806F096FD0128B8
:100A600063D140F22551464806F0C6FD444806F0E1
:100A7000E0FCC4B243480068052851D2DFE800F02A
:100A80000309192C3600432C02D101203D4908608E
:100A90004AE04D2C03D102203A49086008E0432C7B
:100AA00003D101203749086002E000203549086081
:100AB0003AE0354835490978445434480078401CB8
:100AC0003249087008460078052804DB00200870C9
:100AD00003202C49086027E04D2C03D1042029492C
:100AE000086002E00020274908601DE0432C13D174
:100AF00025488078552805D1234909783039C8B26E
:100B000000F0F8FB20488078442805D11E49097878
:100B10003039C8B200F000FC00201A49086003E038
:100B200000201849086000BF00BF02F07CFA70BDC9
:100B300000BFFEE700BFFEE700BFFEE700BFFEE725
:100B400000BFFEE7704770472C00002014290120E9
:100B500034000020000034420000B442A64F7A4224
:100B6000302901204C2901202800002030000020DD
:100B7000380000200400002085000020004C0040C8
:100B8000005000403C0000201400002040000020E5
:100B900000BF401E0028FCD170472DE9FF410446EC
:100BA0000D4616461F46DDF82880F949601A8C422A
:100BB00070D01ADCF749A4EB01008C426CD00ADC3F
:100BC000B4F1804F4ED0F4482044002852D0B0F504
:100BD000806F71D156E0B0F5806F65D0B0F5006FD1
:100BE0006CD0B0F5406FF4D170E0B0F5923F21D0F9
:100BF00009DCB0F5806F7AD0B0F5644F0AD0B0F55B
:100C0000684F7CD10EE0B0F5943F1BD0B0F5963F15
:100C100075D11FE00121084605F022FB19208DF84F
:100C200000006DE00121022005F01AFB2C208DF858
:100C3000000065E00121080405F012FB18208DF882
:100C400000005DE00121192005F00AFB2C208DF841
:100C5000000055E00121880405F002FB1A208DF800
:100C600000004DE00121084605F0E9FA1C208DF84E
:100C7000000045E00121022005F0E1FA1D208DF879
:100C800000003DE00121042005F0D9FA1E208DF876
:100C9000000035E023E0FFE70121082005F0CFFA4E
:100CA00032208DF800002BE00121102005F0C7FA5A
:100CB00036208DF8000023E021E0FFE7012120200D
:100CC00005F0BDFA37208DF8000019E00121402021
:100CD00005F0B5FA2B208DF8000011E007E00121A6
:100CE000802005F0ACFA2C208DF8000008E00121EE
:100CF000080205F0A4FA2D208DF8000000E000BFE6
:100D000000BF0295ADF804600020ADF80C00ADF80E
:100D1000060001A9204605F0BAFC0121204606F094
:100D20007FF901221146204606F052F9F8B28DF8FB
:100D3000010008F0FF008DF8020001208DF803008B
:100D4000684605F08CFB0121204605F029FDBDE831
:100D5000FF81FEB504460D462E468D49601A8C4231
:100D600070D01ADC8B49A4EB01008C426CD00ADCF9
:100D7000B4F1804F4ED088482044002852D0B0F5BE
:100D8000806F71D156E0B0F5806F65D0B0F5006F1F
:100D90006CD0B0F5406FF4D170E0B0F5923F21D047
:100DA00009DCB0F5806F7AD0B0F5644F0AD0B0F5A9
:100DB000684F7CD10EE0B0F5943F1BD0B0F5963F64
:100DC00075D11FE00121084605F04AFAA820ADF8C8
:100DD00000006DE00121022005F042FAA820ADF8E4
:100DE000000065E00121080405F03AFAA820ADF8FA
:100DF00000005DE00121480405F032FAA820ADF8BA
:100E0000000055E00121880405F02AFAA820ADF879
:100E100000004DE00121084605F011FA5420ADF81C
:100E2000000045E00121022005F009FA5420ADF848
:100E300000003DE00121042005F001FA5420ADF846
:100E4000000035E023E0FFE70121082005F0F7F975
:100E50005420ADF800002BE00121102005F0EFF93F
:100E60005420ADF8000023E021E0FFE7012120201D
:100E700005F0E5F95420ADF8000019E0012140200B
:100E800005F0DDF95420ADF8000011E007E0012184
:100E9000802005F0D4F95420ADF8000008E00121CD
:100EA000080205F0CCF95420ADF8000000E000BFC6
:100EB00000BF012001900020ADF80800ADF802004D
:100EC0006946204605F0E3FB0121204605F068FC59
:100ED0004FF6FF70811B204605F022FC03E0204600
:100EE00005F022FC86B24FF6FF708642F7DB002148
:100EF000204605F055FCFEBDFEB504460D462E46C7
:100F00002349601A8C4276D01ADC2249A4EB0100F6
:100F10008C427CD00ADCB4F1804F5AD01E48204469
:100F200000285FD0B0F5806F67D167E0B0F5806FC3
:100F300079D0B0F5006F7FD0B0F5406FF4D184E088
:100F4000B0F5923F2AD009DCB0F5806F6AD0B0F5D9
:100F5000644F0AD0B0F5684F4FD10FE0B0F5943F21
:100F600025D0B0F5963F48D12AE00121084605F08A
:100F700077F944F2A010ADF8000082E001210220D0
:100F800005F06EF944F2A010ADF8000079E0000021
:100F9000001C0040000C004000FCFFBF01210804C1
:100FA00005F05EF944F2A010ADF8000069E00121FF
:100FB000480405F055F944F2A010ADF8000060E0D7
:100FC0000121880405F04CF944F2A010ADF80000AE
:100FD00057E00121084605F032F942F2D000ADF8A1
:100FE00000004EE00121022005F029F942F2D00074
:100FF000ADF8000045E031E009E041E001210420C6
:1010000005F01DF942F2D000ADF8000039E00121F1
:10101000082005F014F942F2D000ADF8000030E0ED
:1010200001E009E023E00121102005F008F942F277
:10103000D000ADF8000024E00121202005F0FFF8E9
:1010400042F2D000ADF800001BE00121402005F085
:10105000F6F842F2D000ADF8000012E00121802045
:1010600005F0EDF842F2D000ADF8000009E00121F2
:10107000080205F0E4F842F2D000ADF8000000E00C
:1010800000BF00BF012001900020ADF80800ADF8BE
:1010900002006946204605F0FAFA0121204605F0D3
:1010A0007FFB4FF6FF70811B204605F039FB03E004
:1010B000204605F039FB86B24FF6FF708642F7DB1B
:1010C0000021204605F06CFBFEBD70B506460C46BF
:1010D000002500BF04E00A213046FFF70DFF6D1C1C
:1010E000A542F8D370BD30B58BB004460D46012142
:1010F000022005F0A4F80121022005F06DF802227B
:1011000005218E4804F0ADFE2020099002208DF8C4
:10111000280003208DF8290000208DF82A000120E6
:101120008DF82B0009A9854804F010FEA8B2ADF88F
:1011300018000020ADF81A000794ADF8200006A9A9
:101140007F4805F0A4FA6020ADF804000120ADF856
:1011500006000020ADF8100001A9794805F065FBF4
:101160000821774805F0BEFC0121754805F0FAFA20
:101170000121734805F014FB6421714805F077FCE8
:101180000BB030BD30B58BB004460D4601210420B4
:1011900005F055F80121082005F01EF802220C2167
:1011A000684804F05EFE02220E21664804F059FEF3
:1011B0004FF4A040099002208DF8280003208DF8FC
:1011C000290000208DF82A0001208DF82B0009A9A4
:1011D0005C4804F0BBFDA8B2ADF818000020ADF8E3
:1011E0001A000794ADF8200006A9574805F04FFAF9
:1011F0006020ADF804000120ADF806000020ADF835
:10120000100001A9504805F0D7FA01A94E4805F091
:1012100059FB08214C4805F05CFC08214A4805F0C0
:101220006EFC0121484805F09DFA0121464805F071
:10123000B7FA6421444805F018FC6421424805F0DF
:1012400018FC0BB030BD2DE9F84F044689464FF02D
:10125000000A3E49484607F0F9F93D49009007F079
:1012600027FB834607F058F907463A4A3A4B06F0FF
:101270006DFF054606F038FF82463849504607F0B4
:10128000E3FB01D2DFF8D4A00021504607F0DCFADE
:1012900001D24FF0000A012C0BD13149504607F022
:1012A00007FB064607F0B0FA05462946264805F032
:1012B000DCFB022C0BD12A49504607F0F9FA06460E
:1012C00007F0A2FA054629461F4805F0D2FBBDE803
:1012D000F88F70B504460D46224840F8245050F867
:1012E00024102046FFF7AFFF70BD01461D4850F89F
:1012F0002100704710B504461A4951F824001A49D4
:1013000007F036F9174941F82400084650F8241030
:101310002046FFF798FF10BD10B50446114951F85B
:101320002400114907F0C2FB0E4941F82400084689
:1013300050F824102046FFF786FF10BD000402403D
:1013400000040040000C0240000800400000C842B9
:10135000CDCC4C3D9A9999999999A93F00000243A7
:101360000000FA44682901200000404070B504469E
:101370000D46E1B2E24806F046F800BF4021E048E1
:1013800006F034F80028F9D0204670BD10B588B0BA
:1013900004460121022004F01FFF0121102004F067
:1013A0005FFF07220621D74804F05BFD07221146A4
:1013B000D44804F056FDC020069002208DF81C0091
:1013C0008DF81D0000208DF81E0001208DF81F00F3
:1013D00006A9CC4804F0BAFC02940020ADF80C0039
:1013E000ADF80E00ADF81000ADF814000C20ADF80B
:1013F000120002A9C44805F03DFF25208DF8040025
:1014000000208DF8050001208DF806008DF80700FA
:1014100001A805F024F8012240F22551BA4806F04F
:101420008FF80121B84805F0ADFF08B010BD10B528
:1014300088B004460121042004F0CEFE0121880476
:1014400004F0FDFE07220A21B04804F00AFD07223D
:101450000B21AE4804F005FD4FF4406006900220D9
:101460008DF81C008DF81D0000208DF81E00012055
:101470008DF81F0006A9A54804F068FC029400201E
:10148000ADF80C00ADF80E00ADF81000ADF814008A
:101490000C20ADF8120002A99D4805F0EBFE0121D9
:1014A0009B4805F06FFF012240F22551984806F055
:1014B00047F827208DF8040000208DF80500012052
:1014C0008DF806008DF8070001A804F0C8FF08B0E9
:1014D00010BD10B588B0044604940020ADF8140087
:1014E000ADF81600ADF81800ADF81C000C20ADF8F2
:1014F0001A00012104F070FE0121080504F09FFE8E
:1015000008220C21814804F0ACFC08220221814809
:1015100004F0A7FC00208DF80A0001208DF80B00D4
:1015200002208DF80800C002019002208DF8090009
:1015300001A9764804F00AFC02208DF80800042076
:10154000019001A9734804F001FC04A96C4805F05E
:1015500091FE35208DF80C0001208DF80F008DF8DC
:101560000D008DF80E004FF4A06004F073FF03A887
:1015700004F075FF012240F22551614805F0E0FFBB
:1015800001215F4805F0FEFE08B010BD6249086009
:101590007047614800687047F0B503460D4616462F
:1015A000002729460A2E03D0002008702846F0BDE7
:1015B00033B9302001F8010B002008702846F6E707
:1015C000002B03DA2D2001F8010B5B4242F210726E
:1015D0000DE093FBF2F404B937B104F1300001F8E7
:1015E000010B04FB123301270A2092FBF0F2002AC0
:1015F000EFDC002008702846D9E70FB470B586B03C
:1016000006460CA8019073E00B9800785C281CD16A
:101610000B98401C0B9000786E2809D072280FD1CF
:101620000D21304605F0EFFE0B98401C0B900BE0AF
:101630000A21304605F0E7FE0B98401C0B9003E0B2
:101640000B98401C0B9000BF4BE00B9800782528AE
:1016500040D10B98401C0B900078642818D0732858
:1016600033D1019810C801900BE02178304605F085
:10167000CAFE00BF4021304605F0B8FE0028F9D070
:10168000641C20780028F0D10B98401C0B9020E0BF
:10169000019820C801900A2202A92846FFF77CFF82
:1016A00002AC0BE02178304605F0ADFE00BF4021D2
:1016B000304605F09BFE0028F9D0641C20780028F5
:1016C000F0D10B98401C0B9003E00B98401C0B9042
:1016D00000BF06E00B9810F8011B0B90304605F098
:1016E00092FE00BF4021304605F080FE0028F9D070
:1016F0000B980078002887D106B070BC5DF814FB09
:101700000050004000040240001001400008024068
:1017100000480040000C0240440000201CB5FD4978
:1017200003C9CDE9000108236A460021FA4800F008
:1017300055FD1CBD30B587B00446F649083103C9D4
:10174000CDE9050104F540700090019000208DF86E
:1017500008008DF8090008208DF80A000598C0B22D
:101760008DF80B000598010A8DF80C100598010CF6
:101770008DF80D100598000E8DF80E000698C1B278
:101780008DF80F100698010A8DF810100698010CBC
:101790008DF811100698000E8DF812006946DE488B
:1017A00006F0CCF8054600BF2946DB4806F05EF996
:1017B0000128F9D107B030BD70B588B006460024C5
:1017C000D449103103C9CDE9060106F540700190F6
:1017D000029000208DF80C008DF80D0008208DF887
:1017E0000E0000BF3FE006A810F834008DF80F008F
:1017F00006A830F83400010A8DF8101006A850F839
:101800003400010C8DF8111006A850F83400000EB9
:101810008DF8120006A800EBC40001798DF81310B2
:1018200006A800EBC4008088010A8DF8141006A8F1
:1018300000EBC4004068010C8DF8151006A800EB01
:10184000C4004068000E8DF8160001A9B24806F0E9
:1018500075F8054600BF2946AF4806F007F901288C
:10186000F9D1601CC4B2012CBDDB08B070BD2DE9FC
:10187000F04194B005460E46174600243822A5498B
:10188000183106A806F0C0FB05F5407001900290E3
:1018900000208DF80C008DF80D0008208DF80E004A
:1018A0000D960F979D4911914942139100BF3FE05A
:1018B00006A810F834008DF80F0006A830F83400A0
:1018C000010A8DF8101006A850F83400010C8DF8AC
:1018D000111006A850F83400000E8DF8120006A86A
:1018E00000EBC40001798DF8131006A800EBC400CA
:1018F0008088010A8DF8141006A800EBC400406827
:10190000010C8DF8151006A800EBC4004068000E0D
:101910008DF8160001A9804806F010F8804600BF37
:1019200041467D4806F0A2F80128F9D1601CC4B2F6
:10193000072CBDDB14B0BDE8F081F0B589B00546D9
:101940000F460024734B50330FCB05AE0FC605F581
:1019500040700090019000208DF808008DF809007B
:1019600008208DF80A00069700BF3FE005A810F890
:1019700034008DF80B0005A830F83400010A8DF80A
:101980000C1005A850F83400010C8DF80D1005A8B6
:1019900050F83400000E8DF80E0005A800EBC400CE
:1019A00001798DF80F1005A800EBC4008088010AAA
:1019B0008DF8101005A800EBC4004068010C8DF8EC
:1019C000111005A800EBC4004068000E8DF812004D
:1019D0006946514805F0B2FF064600BF31464E4801
:1019E00006F044F80128F9D1601CC4B2022CBDDB1A
:1019F00009B0F0BD2DE9F043A5B080460D4616466E
:101A00001F46002480224349603105A806F0FCFAF5
:101A100008F540700090019000208DF808008DF8C6
:101A2000090008208DF80A00109512951495169655
:101A300018961A961C971E9705A8C76638494167DD
:101A40004942C1670A9149420C9100BF3FE005A895
:101A500010F834008DF80B0005A830F83400010AA6
:101A60008DF80C1005A850F83400010C8DF80D10FD
:101A700005A850F83400000E8DF80E0005A800EB04
:101A8000C40001798DF80F1005A800EBC400808810
:101A9000010A8DF8101005A800EBC4004068010C85
:101AA0008DF8111005A800EBC4004068000E8DF8F9
:101AB00012006946184805F041FF814600BF4946BB
:101AC000154805F0D3FF0128F9D1601CC4B2102CD1
:101AD000BDDB25B0BDE8F0832DE9F0418AB00546B5
:101AE0000F46904600240B4BE0330FCB06AE0FC6DB
:101AF00005F540700190029000208DF80C008DF8E3
:101B00000D0008208DF80E0067B944F250100690C1
:101B10000BE00000988B000800640040C0E1E40086
:101B2000F6C99A3B45F250200690CDF81C8000245F
:101B30003FE006A810F834008DF80F0006A830F832
:101B40003400010A8DF8101006A850F83400010C7A
:101B50008DF8111006A850F83400000E8DF8120010
:101B600006A800EBC40001798DF8131006A800EB5D
:101B7000C4008088010A8DF8141006A800EBC40088
:101B80004068010C8DF8151006A800EBC4004068F1
:101B9000000E8DF8160001A9A34805F0CFFE0646F9
:101BA00000BF3146A04805F061FF0128F9D1601C53
:101BB000C4B2022CBDDB0AB0BDE8F08130B587B0FD
:101BC00004469A4903C9CDE9050104F54070009027
:101BD000019000208DF808008DF8090008208DF88C
:101BE0000A000598C0B28DF80B000598010A8DF81F
:101BF0000C100598010C8DF80D100598000E8DF84D
:101C00000E000698C1B28DF80F100698010A8DF8E3
:101C100010100698010C8DF811100698000E8DF822
:101C200012006946804805F089FE054600BF294636
:101C30007D4805F01BFF0128F9D107B030BD30B554
:101C400087B004467949083103C9CDE9050104F597
:101C500040700090019000208DF808008DF8090078
:101C600008208DF80A000598C0B28DF80B00059881
:101C7000010A8DF80C100598010C8DF80D100598CF
:101C8000000E8DF80E000698C1B28DF80F10069860
:101C9000010A8DF810100698010C8DF811100698A5
:101CA000000E8DF8120069465F4805F047FE0546B4
:101CB00000BF29465C4805F0D9FE0128F9D107B0DC
:101CC00030BD30B587B004465849103103C9CDE95D
:101CD000050104F540700090019000208DF8080087
:101CE0008DF8090008208DF80A000598C0B28DF81B
:101CF0000B000598010A8DF80C100598010C8DF861
:101D00000D100598000E8DF80E000698C1B28DF8E2
:101D10000F100698010A8DF810100698010C8DF826
:101D200011100698000E8DF8120069463E4805F025
:101D300005FE054600BF29463B4805F097FE0128F1
:101D4000F9D107B030BD30B587B0044637491831F6
:101D500003C9CDE9050104F5407000900190002011
:101D60008DF808008DF8090008208DF80A00059804
:101D7000C0B28DF80B000598010A8DF80C1005987B
:101D8000010C8DF80D100598000E8DF80E000698C8
:101D9000C1B28DF80F100698010A8DF81010069840
:101DA000010C8DF811100698000E8DF8120069468E
:101DB0001D4805F0C3FD054600BF29461A4805F039
:101DC00055FE0128F9D107B030BD70B586B0044684
:101DD0000D46009504F540700190029000208DF8AA
:101DE0000C008DF80D0008208DF80E009DF8000005
:101DF0008DF80F009DF801108DF810109DF802105D
:101E00008DF811109DF803108DF8121001A90648E5
:101E100005F094FD064600BF3146034805F026FE56
:101E20000128F9D106B070BD00640040888C00081C
:101E30002DE9F04F8BB006460F4614461D46DDF8DF
:101E400050804FF00009CA46CB46B5F5807F43D09D
:101E500012DC102D34D008DC012D25D0022D26D027
:101E6000042D27D0082D4FD127E0202D2BD0402D39
:101E70002CD0802D48D12CE0B5F5805F38D009DC1E
:101E8000B5F5007F2BD0B5F5806F2BD0B5F5006F81
:101E90003AD12AE0B5F5005F2DD0B5F5804F2DD0B1
:101EA000B5F5004F30D12CE04FF000092DE04FF098
:101EB00001092AE04FF0020927E04FF0030924E06E
:101EC0004FF0040921E04FF005091EE04FF006092C
:101ED0001BE04FF0070918E04FF0080915E04FF03C
:101EE000090912E04FF00A090FE04FF00B090CE06E
:101EF0004FF00C0909E04FF00D0906E04FF00E0914
:101F000003E04FF00F0900E000BF00BFB8F5807F8D
:101F10004BD01ADCB8F1100F3BD00CDCB8F1010F3C
:101F20002BD0B8F1020F2BD0B8F1040F2BD0B8F1A1
:101F3000080F52D12AE0B8F1200F2DD0B8F1400F90
:101F40002DD0B8F1800F48D12CE0B8F5805F38D0A3
:101F500009DCB8F5007F2BD0B8F5806F2BD0B8F531
:101F6000006F3AD12AE0B8F5005F2DD0B8F5804F68
:101F70002DD0B8F5004F30D12CE04FF0000A2DE005
:101F80004FF0010A2AE04FF0020A27E04FF0030A5F
:101F900024E04FF0040A21E04FF0050A1EE04FF064
:101FA000060A1BE04FF0070A18E04FF0080A15E098
:101FB0004FF0090A12E04FF00A0A0FE04FF00B0A47
:101FC0000CE04FF00C0A09E04FF00D0A06E04FF06C
:101FD0000E0A03E04FF00F0A00E000BF00BFA74861
:101FE000304418B1B0F5806F1AD10CE04FF0090BF6
:101FF00000208DF8120014208DF8040001214806FD
:1020000004F01DF90DE04FF0090B0E208DF81200C1
:1020100040208DF804000121000504F010F900E0D3
:1020200000BF00BFC4F3090078BBA012A0F5801068
:102030008038092834D2DFE800F0050A0F14191E91
:1020400023292E000121084604F0C6F829E00121C9
:10205000022004F0C1F824E00121042004F0BCF8BF
:102060001FE00121082004F0B7F81AE00121102038
:1020700004F0B2F815E00121202004F0ADF810E0E2
:102080000121402004F0A8F80BE009E001218020A4
:1020900004F0A2F805E00121080204F09DF800E038
:1020A00000BF00BF5A464946204603F0DAFE5A46B2
:1020B0005146204603F0D5FE45EA0800099002206B
:1020C0008DF828008DF8290000208DF82A000120C5
:1020D0008DF82B0009A9204603F038FE304605F0A4
:1020E0009BFA00208DF81E008DF81F008DF820004F
:1020F0008DF821008DF822008DF823008DF81A004C
:102100008DF81B000B208DF81C0007208DF81D009A
:102110007D2F22D008DC0A2F0FD0142F11D0322FA0
:1021200013D0642F29D114E0FA2F1AD0B7F5FA7F13
:102130001BD0B7F57A7F20D11BE0C820ADF818007E
:102140001CE06420ADF8180018E02820ADF8180055
:1021500014E01420ADF8180010E01020ADF81800BD
:102160000CE00820ADF8180008E00420ADF81800D5
:1021700004E00220ADF8180000E000BF00BF06A98F
:10218000304605F062FA00208DF8130001208DF82A
:1021900014000020ADF80800ADF80A00ADF80C00FE
:1021A000ADF80E00ADF8100001208DF8150002A862
:1021B00005F0D5FA00208DF8050003208DF8060003
:1021C00001208DF8070001A804F049F9012202213D
:1021D000304605F0C3FD0BB0BDE8F08F2DE9F043AC
:1021E00085B081460D4690461E4600240095019517
:1021F00000208DF808008DF809008DF80A6000BFF6
:1022000006E018F804100DF10B000155601C84B2B3
:10221000B442F6DB6946484605F090FB07460024C9
:1022200000BF3946484605F021FC0128F9D105B028
:10223000BDE8F0832DE9F04186B080460D46164694
:102240001F4600240021404605F0F0FC18B900208C
:1022500006B0BDE8F08101AA0021404605F063FC0C
:10226000002405E00DF10F00005D3055601CC4B284
:10227000BC42F7DB019828600120E9E7009CFFBF22
:10228000044A42F8201070470146024850F82100E5
:1022900070470000480000200CB50020019000901D
:1022A0007248006840F480307049086000BF6F4891
:1022B000006800F4003000900198401C01900098E4
:1022C00018B90198B0F5A06FF1D16848006800F422
:1022D000003010B10120009001E000200090009833
:1022E000012846D161484030006840F080505F4985
:1022F000403108605E48006840F480405C490860F6
:102300005A48083000685949083108600846006892
:1023100040F4004008600846006840F4A05008609F
:102320005448091F0860081F006840F08070091FAA
:10233000086000BF4D48006800F000700028F9D028
:1023400040F205604C49086048480830006820F0B9
:1023500003004649083108600846006840F0020062
:10236000086000BF41480830006800F00C000828F1
:10237000F8D10CBD10B53D48006840F001003B4964
:1023800008600020394908310860384800683B4936
:102390000840364908603A48091D0860081F00686F
:1023A00020F48020091F0860002030490C310860AB
:1023B000FFF772FF4FF000603249086010BD70B542
:1023C00000200022022300240221284D08352D6818
:1023D00005F00C0020B1042806D0082834D107E00D
:1023E000294D2A4E356033E0294D284E35602FE0C7
:1023F0001E4D2D1D2D68C5F380541C4D2D1D2D68BF
:1024000005F03F0154B1224DB5FBF1F5174E361DD5
:102410003668C6F3881605FB06F209E01A4DB5FBCF
:10242000F1F5124E361D3668C6F3881605FB06F226
:102430000E4D2D1D2D68C5F301456D1C6B00B2FBC3
:10244000F3F5124E356003E00F4D104E356000BFBE
:1024500000BF064D08352D68C5F303150D4E705DA0
:102460000A4D2D68C540094E356070BD00380240E8
:102470000070004008544007003C0240FFFFF6FE99
:102480001030002408ED00E00024F400500000208B
:1024900000127A005400002009488047094800478C
:1024A000FEE7FEE7FEE7FEE7FEE7FEE7FEE7FEE704
:1024B000FEE7FEE704480549054A064B7047000061
:1024C000752300088901000860470120604D012044
:1024D00060490120604901205748802102E0491EDF
:1024E000002204C00029FAD1544A554B1A601A46FA
:1024F000126822F007021A600022524B1A807047BD
:10250000704710B50446204603F0A9FB10BD10B576
:102510000446204603F0A4FB10BD10B503F0A1FB58
:1025200010BD10B503F09FFB10BD70B504461046FA
:102530004FF080750560051F28462C60424E051F30
:1025400028462E604FF01236051F28462E604FF0A9
:102550000336051F28462E604FF00236051F284619
:102560002E607610051F28462E60051F284629601C
:102570004FF01136051F28462E604FF01036051F0C
:1025800028462E604FF00936051F28462E604FF072
:102590000836051F28462E604FF00736051F2846CF
:1025A0002E604FF00636051F28462E604FF0053688
:1025B000051F28462E604FF00436051F28462E6062
:1025C00070BD10B503F050FB10BD10B50446204699
:1025D00003F04BFB10BD10B503F048FB1948008811
:1025E000401C18490880084600880A2803D30020A8
:1025F000088003F04FFA10BD10B500F02BF8044628
:1026000012480078401C11490870204600F026F856
:1026100000F003FE00F007FD10BD411E4FF0E02268
:102620005161FF220A49CA7200214FF0E0229161F4
:10263000072111617047000074290120742B0120CB
:1026400064000020680000208F53000885000020EF
:1026500018ED00E0EFF3108072B6704780F3108839
:1026600070471F484FF0FF010170002080F3098878
:102670001C48012101701C484FF08051016062B676
:10268000FEE719484FF080510160704716484FF03F
:1026900080510160704772B6EFF3098028B120388D
:1026A00080E8F00F11490968086000B510488047BC
:1026B0005DF804EB0F4810490A7802700B480F4987
:1026C0000A680260106890E8F00F203080F30988F3
:1026D0004EF0040E62B6704772B6704762B670472D
:1026E00022ED00E09200002004ED00E098000020C0
:1026F000C32500088700002088000020A0000020DB
:102700001D481E481E481F481F4820482048214891
:102710002148224822482348234824482448254861
:102720002548264826482748274828482848294831
:1027300029482A482A482B482B482C482C482D4801
:102740002D482E482E482F482F48304830483148D1
:1027500031483248324833483348344834483548A1
:102760003548364836483748374838483848394871
:10277000394800BF70470000A88C0008AC8C0008E6
:10278000B28C0008B48C0008B08C0008B68C00082D
:10279000B88C0008BA8C0008BC8C0008BE8C0008FD
:1027A000C08C0008C28C0008C48C0008C68C0008CD
:1027B000C88C0008CA8C0008CC8C0008CE8C00089D
:1027C000D08C0008D28C0008D48C0008D68C00086D
:1027D000D88C0008DA8C0008DC8C0008DE8C00083D
:1027E000E08C0008E28C0008E48C0008E68C00080D
:1027F000E88C0008EA8C0008EC8C0008EE8C0008DD
:10280000F08C0008F28C0008F48C0008F68C0008AC
:10281000F88C0008FA8C0008FE8C0008008D000877
:10282000028D0008048D00083C420120BC460120B6
:10283000088D00080A8D00080C8D00080E8D000818
:10284000108D0008128D0008148D0008168D0008E8
:10285000188D0008068D00081A8D0008014600201A
:1028600002E0491C421CD0B20A78002AF9D1704714
:102870002DE9F04105460E461446002725B90420EF
:1028800020700020BDE8F0811EB90C2020700020CF
:10289000F8E7F748007818B1112020700020F1E720
:1028A0002878012808D0022807D0032802D004285D
:1028B00004D100E000BF00BF00BF03E00120207092
:1028C0000020DFE700BFFFF7C5FE074668693060FC
:1028D0003068FFF7C3FF80463846FFF7BFFE002091
:1028E00020704046CEE72DE9F04105460E461446DD
:1028F00000271DB904202070BDE8F08116B90C2016
:102900002070F9E7DA48007810B112202070F3E760
:102910002878012808D0022807D0032802D00428EC
:1029200004D100E000BF00BF00BF02E00120207022
:10293000E2E700BFFFF78EFE07466E613846FFF7FD
:102940008DFE0020207000BFD6E7F0B5024612F8D9
:10295000384F95785678383A0B4618680FE000F1F2
:102960000B073F5DB74300F10B0C0CF80470674692
:102970003F5D17B9877AAF4387721B1D186800281F
:10298000EDD1F0BDBB49BC4A1278885CBB49095CFB
:10299000B84A515C01EBC001B94A1170704710B5DB
:1029A0000024FFF757FE0446B1480078F8B9B5484F
:1029B0000078E0B9FFF7E6FFB348B149097850F86D
:1029C0002100B2490860AE480078B14909788842D0
:1029D0000DD0AE480068C06B401CAC490968C863A4
:1029E000AC480068401CAB490860FFF74AFE20462F
:1029F000FFF734FE10BD70B501460024A64D2D68CA
:102A0000EC61A54C246821620B4618681BE0A24CBF
:102A1000246894F8385000F10B04645D9E4D2D68D5
:102A200095F839502C439C4D2D6895F8386000F18D
:102A30000B05AC55847A984D2D6895F83A502C4387
:102A400084721B1D18680028E1D1934C246894F807
:102A500038208A4CA45C904D2D6895F83950AC43D1
:102A6000864DAC542C46A45C44B98B4C246894F835
:102A70003A50814C2478AC437F4D2C7070BD2DE9C9
:102A8000FF4F83B081460E461546109F00200090F0
:102A9000B9F1000F05D104203870002007B0BDE85F
:102AA000F08FD9F8000018B9042038700020F5E73D
:102AB0001EB9042038700020F0E71DB904203870DA
:102AC0000020EBE700203060CA46DAF8004015E04D
:102AD0002078062807D2DFE800F00604050307087F
:102AE00007E006E005E000BF00BF012038700020CD
:102AF000D4E700BF0AF1040ADAF80040002CE7D15D
:102B00005B48007818B1022038700020C6E75D48A5
:102B1000007818B10D2038700020BFE7FFF79AFD4C
:102B200000900020029083460190CA46DAF80040E7
:102B300066E02078062853D2DFE800F052172A0317
:102B40005354208960B12089401E208110C6012085
:102B50000290002001C50BF101001FFA80FB03E089
:102B6000019840F00100019045E0606858B160684C
:102B700001C50020606010C6012002900BF1010029
:102B80001FFA80FB03E0019840F00200019032E060
:102B9000D4F80480B8F81600E8B1D8F81010081D71
:102BA000C8F81000086801C5D8F80810D8F8100057
:102BB000884203D1D8F80400C8F81000B8F816000D
:102BC000401EA8F8160010C6012002900BF101006B
:102BD0001FFA80FB03E0019840F0040001900AE036
:102BE00000BF00BF0098FFF739FD002030600120D2
:102BF0003870584652E700BF0AF1040ADAF800407C
:102C0000002C96D10298012808D10020306000984D
:102C1000FFF724FD0020387058463FE71E48006843
:102C200090F83400019941F0800108431A4909687D
:102C300081F8340000201849096881F835001649E8
:102C40000698096808634846FFF7D5FE0098FFF725
:102C500005FDFFF7A4FEFFF7FDFC00900E4800689D
:102C600090F83500D0B1012831D002282ED116E0DD
:102C7000850000201C8D0008890000208A000020AB
:102C8000880000208600002064350120A00000207C
:102C9000870000206C0000209800002000BFFE4844
:102CA0000068C4693CB110C6002030600BF101001F
:102CB0001FFA80FB09E00120F749096881F8350017
:102CC0004946F5480068FFF740FE06E000BF494668
:102CD000F1480068FFF739FE00BF00BFEE4800680A
:102CE00090F8350020B1012828D0022825D11FE016
:102CF000207806280DD2DFE800F00C0607030D0E41
:102D0000002001C510E000BFE3480068406A01C52B
:102D10000AE000BF00BF0098FFF7A0FC0020306071
:102D2000012038705846B9E600BF002038700AE02C
:102D3000002001C50E20387005E000BF002001C54D
:102D40000A20387000BF00BF0020D349096881F80D
:102D50003400D149096881F83500CF490968C86154
:102D6000CD4909680862CC49096848620098FFF7B4
:102D700075FC584692E67CB5002514E06946284665
:102D800002F0CDF9064666B9C44850F8254044B172
:102D9000012C06D0D4E9020100EB8100A064019867
:102DA000E064681CC5B23F2DE8D97CBD002400BF9B
:102DB00002E0142002F0F8FAB94800780028F8D0B0
:102DC000B84800686421B0FBF1F0B64908600846D5
:102DD000006828B90020B4490870FF2002F0EAF921
:102DE00000BFFFF737FC0446B0480068B0490860F0
:102DF0000020AE4908602046FFF730FCAC48006870
:102E0000A8490968B0FBF1F0C0F16400A649087058
:102E1000FFF787FBFFF7AFFF0A2002F0C5FAE0E7F4
:102E200000B587B0032000218022A24BCDE90132FA
:102E3000CDE903104FF6FE703E239F4A0090AFF29B
:102E4000930001F057FF06AA9CA13E2002F0DAF899
:102E500007B000BD002400BF00BFFFF7FBFB044626
:102E600092480068401C914908602046FFF7F6FB35
:102E7000FFF753FBF1E700B587B003200021802264
:102E8000924BCDE90132CDE903104FF6FF703F239D
:102E90008F4A0090AFF2430001F02CFF06AA8DA1EB
:102EA0003F2002F0AFF807B000BD04E0002200F8B8
:102EB000012B4A1E91B20029F8D1704770B54FF42A
:102EC000B4618848FFF7F1FF002411E0601C85B26F
:102ED00004EB4400834901EBC00305EB450001EB23
:102EE000C006002018705E607FA05861601C84B22C
:102EF0003B2CEBD304EB44007A4901EBC0030020E8
:102F00001870586078A0586108467849086070BD0C
:102F100070B54FF430617648FFF7C7FF4FF480710A
:102F20005E48FFF7C2FF002413E0601CC5B204EB4B
:102F3000440000EBC4006E4901EBC00305EB450003
:102F400000EBC50001EBC0065E6167A01865601C60
:102F5000C4B21F2CE9D304EB440000EBC400644965
:102F600001EBC003002058615FA018650020614993
:102F700008605F486049086070BD00215F4A1170B9
:102F8000002004E000215E4A1154411CC8B2082808
:102F9000F8D300215B4A11705B4A11705B4A1160E3
:102FA0003D4A11607047002059490860594908702E
:102FB00059490870594908705949087059490860B9
:102FC0003A4908603A49086036490860344908704F
:102FD000704710B5FFF780FAFFF7E5FFFFF7CDFF69
:102FE000FFF796FFFFF76AFF00F0E4FE01F00FF82D
:102FF00001F03BFBFFF73FFFFFF712FF02F0A4FDDC
:10300000FFF77EFAFFF77CFB10BD454800780128EA
:1030100008D140480078FF2804D23E480078401C80
:103020003C490870704710B500243D4800780128DD
:1030300030D1FFF70FFB04463648007820B1354801
:103040000078401E3349087032480078F8B9324899
:103050000078E0B9FFF796FC10482B49097850F842
:1030600021002A49086028480078264909788842C2
:103070000DD026480068C06B401C24490968C8630D
:1030800028480068401C27490860FFF7FFFA2046DF
:10309000FFF7E4FA10BD000098000020643501201D
:1030A000840000207C000020780000209400002094
:1030B00080000020643101206033012075432F4FD0
:1030C000532D49492053746174000000643301207A
:1030D0006035012075432F4F532D49492049646CB9
:1030E00065000000742B01203F00000070000020EC
:1030F00064360120A40000209C00002089000020EC
:103100008A0000208700002088000020A000002006
:10311000B4000020850000208600002093000020DD
:10312000920000206C00002010B50024FE480078BA
:10313000012811D1FFF78EFA0446FC48007840B907
:10314000FB480078FF2804D2F9480078401CF84971
:1031500008702046FFF782FA10BD10B50024F2482F
:103160000078012821D1FFF775FA0446F04800786D
:10317000C0B1EF480078401EED490870084600785D
:1031800060B9EA48007828B92046FFF767FAFFF7E8
:1031900006FC0AE02046FFF761FA06E02046FFF74A
:1031A0005DFA02E02046FFF759FA10BD10B5DE487F
:1031B000007890B9FFF7E6FBDE480078DE4908703A
:1031C000DE48DC49097850F82100DD4908600846EE
:1031D0000068DC490860FFF744FA10BD10B5002410
:1031E000022002F0E1F8FFF735FA04460020D64944
:1031F00008602046FFF732FA0A2002F0D5F8FFF700
:1032000029FA0446D0480068D04908600120D04916
:1032100008702046FFF722FA10BD70B50026FFF7B0
:10322000DAF9FFF717FA0646CA480068401CC94990
:1032300008603046FFF712FABB480078012853D1E6
:10324000C548007820B1012804D0022809D103E044
:1032500001250BE0002509E001250120BE49087089
:1032600004E001250020BC49087000BF00BF05B97B
:1032700070BDBA48046833E0FFF7ECF90646206BEE
:1032800050B3206B401E2063206B28BB94F83400A1
:1032900000F0370040B114F8340F00F0C80020707F
:1032A00001206070343C02E0002084F8350094F87E
:1032B000340000F0080078B93834A078A8490978BB
:1032C0000843A74908702078A649085C617808433C
:1032D00014F83819A34A505464693046FFF7BEF910
:1032E00094F836003F28C7D100BFC1E740F2231051
:1032F0007047704710B590F8382001F10B039B5CC4
:1033000090F83940A34301F10B04A35423469B5C7E
:1033100023B98B7A90F83A40A3438B7210BD2DE904
:10332000F04F05460F4690469946A87A8E490E5CA6
:1033300005F10B00805D11F800B00BEBC60000F04A
:10334000FF0A7E4850F82A4000202434E0602760BD
:10335000207C20EA0800207484F81190207C243C12
:1033600000F0080068B994F83A007D4909780843EC
:103370007B4908707B48805D94F83910084379498F
:10338000885529462046FFF7B5FF206A20B1204620
:10339000216AFFF7DAFAE5615046BDE8F08F10B513
:1033A000684A1268D061674A126892F8383000F1B2
:1033B0000B02D25C634B1B6893F839301A43614BA4
:1033C0001B6893F8384000F10B031A55827A5D4B65
:1033D0001B6893F83A301A4382725A4A126892F87C
:1033E0003810604A525C574B1B6893F839309A4347
:1033F0005C4B5A541A46525C42B9524A126892F8CF
:103400003A30574A12789A43554B1A7010BD01460C
:1034100000228A72002005E0002301F10B02135400
:10342000421CD0B20828F7D3704705E011F8013BE1
:1034300000F8013B531E9AB2002AF7D170472DE9DC
:10344000F84F05460F4690469946DDE90AAB002045
:103450000090FFF7FFF8009044480468002C61D00A
:103460001C3454F8080C414908600098FFF7F6F83E
:1034700044F81C7CA576002020766076606144F8D4
:1034800018BC44F810AC44F8148C0C9824F80C0CBC
:1034900024F80A9C0020E077E810207705F0070068
:1034A000E076217F01208840A077E17E01208840DE
:1034B0006077002020606060E060A0602062A06211
:1034C0006062E0622063AFF2E03060631C3C002683
:1034D00006E0002104F1540040F82610701CC6B22A
:1034E000002EF6D02046FFF770F82046FFF709F8C7
:1034F000FFF7B0F80090114840F8254017480068E1
:1035000060610020A0611548006810B11348006890
:103510008461124804603834A0781149097808435E
:103520000F4925E039E000009200002085000020CE
:1035300086000020880000208700002064350120DC
:10354000A000002098000020940000207C000020B3
:1035500084000020B4000020A8000020A400002067
:10356000890000208A0000201C8D00089C0000209B
:10357000087020780B49085C6178084314F8381902
:10358000084A505408480078401C074908700098C1
:10359000FFF764F80020BDE8F88F0098FFF75EF8A9
:1035A0004220F8E78A000020930000202DE9F05F18
:1035B00004460F4691461E464FF0000B24B96E207C
:1035C00030700020BDE8F09F2078052803D001204E
:1035D00030700020F6E709F0800ABAF1000F04D03D
:1035E00029F080094FF0010801E04FF000080020A9
:1035F0003070FFF72FF88346B9F1000F2CD0B9F1E6
:10360000010F3BD0B9F1020F03D0B9F1030F46D13E
:1036100011E0208900EA0705BD4206D1B8F1010F8B
:1036200005D12089A843208101E0702030705846E0
:10363000FFF714F83AE0208900EA070535B1B8F140
:10364000010F05D12089A843208101E0702030704E
:103650005846FFF703F829E0208927EA0005BD4214
:1036600006D1B8F1010F05D120892843208101E05E
:10367000702030705846FEF7F1FF17E0208927EAE6
:10368000000535B1B8F1010F05D12089284320810B
:1036900001E0702030705846FEF7E0FF06E0584623
:1036A000FEF7DCFF00256F20307000BF00BF28460A
:1036B00088E72DE9F04106460D460027F7480078D7
:1036C00020B1102028700020BDE8F081FEF7C2FF75
:1036D0000746F348046884B100684068F049086010
:1036E00005202070268100206060EEA0E060384652
:1036F000FEF7B4FF0020287004E03846FEF7AEFF66
:10370000722028702046DFE730B501464A68086815
:103710002AB9CC68606028B10025456002E01060DD
:1037200000B142608B6800259D6230BDF0B5064651
:103730000F46B46800202C3460602780207A00F0A7
:10374000DF00207200206072207A2C3C88B9383467
:10375000A078D54909780843D34908702078D3491F
:10376000085C6178084314F83819D04A5054012590
:1037700000E000253046FFF7C7FF2846F0BD2DE9E1
:10378000F0470446894615464FF0000A24B96E20DA
:1037900028702046BDE8F087C048007818B10F2097
:1037A00028702046F6E72078052803D001202870ED
:1037B0002046EFE7FEF74EFF8246606808B101271A
:1037C00000E00027B9F1000F03D0B9F1010F3CD19F
:1037D00019E08FB9B3A0E06000202070B048006805
:1037E000606000202081AE4804605046FEF736FF3E
:1037F00000202870002605E05046FEF72FFF4920E4
:103800002870264628E0D4F8048005E000214046D0
:10381000FFF78CFFD8F80080B8F1000FF6D1A1A017
:10382000E060002020709E480068606000202081D9
:103830009B4804605046FEF711FF012F01D1FFF7AE
:10384000AEF800202870002606E05046FEF706FF7E
:1038500007202870264600BF00BF30469AE72DE9B2
:10386000F04105460E461446002725B96E2020700B
:103870000020BDE8F0811EB90C2020700020F8E780
:103880008648007818B1112020700020F1E7FEF77B
:10389000E1FE07462878052806D03846FEF7DEFE0A
:1038A000012020700020E4E7E86830603068FEF70F
:1038B000D5FF80463846FEF7D1FE002020704046F6
:1038C000D7E72DE9F04105460E46144600271DB9FD
:1038D0006E202070BDE8F08116B90C202070F9E749
:1038E0006E48007810B112202070F3E7FEF7B2FEA8
:1038F00007462878052805D03846FEF7AFFE012098
:103900002070E7E7EE603846FEF7A8FE0020207042
:1039100000BFDFE7F0B51446059E654F3F6897F896
:10392000347047F02007DFF888C1DCF800C08CF85D
:1039300034700027DFF878C1DCF800C08CF83570EF
:103940005B4F3F683E635A4F3F68B9620C828B748D
:10395000574F3F688F6047680F6000274F60C8600F
:10396000456805B169604160514F3F6897F838205C
:103970004E4FBF5CDFF838C1DCF800C09CF839C09E
:1039800027EA0C07DFF824C10CF802706746BF5C19
:103990005FB9474F3F6897F83AC0434F3F7827EAEF
:1039A0000C07DFF804C18CF80070F0BD2DE9F04F72
:1039B00089B005460F4691469A46129E0020029015
:1039C0002DB96E203070002009B0BDE8F08F33486B
:1039D000007818B1022030700020F5E735480078F3
:1039E00018B10D2030700020EEE72878052803D0AC
:1039F000012030700020E7E709F0800BBBF1000FD9
:103A000004D009F07F094FF0010801E04FF00008F1
:103A1000FEF720FE0290B9F1000F59D0B9F1010F65
:103A200079D0B9F1020F03D0B9F1030F72D120E0C0
:103A3000288900EA0704BC420FD1B8F1010F02D176
:103A40002889A04328811A48006884850298FEF7D7
:103A500005FE002030702046B6E74B463A4604A9E2
:103A60002846CDF800A0FFF755FF0298FEF7F6FDB7
:103A700079E0288900EA0704F4B1B8F1010F02D116
:103A80002889A04328810A48006884850298FEF7A7
:103A9000E5FD00203070204696E7000085000020FC
:103AA000740000203F000000890000208A000020F0
:103AB00098000020860000204B463A4604A928467C
:103AC000CDF800A0FFF726FF0298FEF7C7FD4AE0F9
:103AD000288927EA0004BC420FD1B8F1010F02D1B6
:103AE000288920432881C748006884850298FEF70A
:103AF000B5FD00203070204666E74B463A4604A9E3
:103B00002846CDF800A0FFF705FF0298FEF7A6FDB6
:103B100029E000E01FE0288927EA00047CB1B8F121
:103B2000010F02D1288920432881B6480068848586
:103B30000298FEF793FD00203070204644E74B4684
:103B40003A4604A92846CDF800A0FFF7E3FE029804
:103B5000FEF784FD07E00298FEF780FD00246F2049
:103B60003070204630E700BFFEF719FFFEF772FD08
:103B70000290A448006890F8350020B3A14800687E
:103B800090F83500039000209E49096881F83500BF
:103B900004A8FFF7B9FD00209A49096881F83400AC
:103BA0000298FEF75BFD00240398012805D0022847
:103BB00002D10E20307003E000BF0A20307000BF39
:103BC00000BF204600E78F480068848DB8F1010FE0
:103BD0001ED1B9F1000F0ED0B9F1010F0CD0B9F11F
:103BE000020F03D0B9F1030F0AD100E000BF28890A
:103BF000A04328810BE000BF28892043288106E0EC
:103C00000298FEF72BFD6F2030700020DCE600BF2D
:103C10000298FEF723FD002030702046D4E670B5F0
:103C20000025FEF717FD054676480068848D284676
:103C3000FEF714FD204670BD2DE9FC5F0446894661
:103C400092461E460020009024B96E20307000205D
:103C5000BDE8FC9F2078052803D0012030700020AB
:103C6000F6E7FEF7F7FC0090BAF1000F03D0BAF1C7
:103C7000010F0AD104E0208920EA090020810BE02D
:103C8000208940EA0900208106E00098FEF7E6FC62
:103C9000712030700020DBE700BF4FF0000B65683B
:103CA00055E0A87C40B3012838D0022802D0032870
:103CB00044D111E02089298A00EA0107288AB84204
:103CC00009D139462846FFF731FD8046B8F1010F8A
:103CD00001D14FF0010B38E02089298A00EA010761
:103CE0004FB139462846FFF721FD8046B8F1010F54
:103CF00001D14FF0010B28E0288A218920EA010731
:103D0000288AB84209D139462846FFF70FFD804678
:103D1000B8F1010F01D14FF0010B16E0288A21897B
:103D200020EA01074FB139462846FFF7FFFC8046DD
:103D3000B8F1010F01D14FF0010B06E00098FEF73A
:103D40008DFC6F203070002082E700BF2D68002DB1
:103D5000A7D10098FEF782FCBBF1010F01D1FEF75D
:103D60001EFEFEF777FC0090208901900098FEF778
:103D700075FC0020307001986AE72DE9F041044697
:103D80000D46002724B96E2028700020BDE8F08180
:103D90002078052803D0012028700020F6E7FEF7E0
:103DA00059FC074626893846FEF758FC0020287043
:103DB0003046EBE72DE9F04150211348FFF775F845
:103DC00000250EE0681C86B20F4800EB051400EBDE
:103DD0000617002020706760AFF23830E060681C82
:103DE00085B2042DEED3084800EB051400202070A6
:103DF0006060AFF25030E060034804490860BDE8FD
:103E0000F08100009800002014310120740000208F
:103E10002DE9FC5F05460F4691461E4600200090A6
:103E200025B9622030700020BDE8FC9F05F003003A
:103E300018B1622030700020F6E7022F03D25B2019
:103E400030700020F0E7B9F1040F03D25C2030702D
:103E50000020E9E7FEF7FEFB00907F480468006859
:103E600020B17D48006840687B4908600098FEF7F3
:103E7000F5FB1CB95A2030700020D5E7AA46A846A9
:103E8000781E01904FF0000B05E0C844CAF800808E
:103E9000C2460BF1010B01988345F6D30020CAF806
:103EA0000000256065602761E760C4F80890307005
:103EB0002046B9E72DE9F04104460D46002724B914
:103EC000602028700020BDE8F081FEF7C3FB0746A4
:103ED000206960B16668306860602069401E2061BA
:103EE0003846FEF7BBFB002028703046EBE738462B
:103EF000FEF7B4FB5D2028700020E4E72DE9F041D7
:103F000006460D461446002726B960202070002082
:103F1000BDE8F0811DB90C2020700020F8E74F4863
:103F2000007818B1112020700020F1E7FEF792FB15
:103F30000746706928602868FEF790FC804638467E
:103F4000FEF78CFB002020704046E1E72DE9F041B0
:103F500005460E46144600271DB960202070BDE8B6
:103F6000F08116B90C202070F9E73C48007810B1B8
:103F700012202070F3E7FEF76DFB07466E613846AE
:103F8000FEF76CFB0020207000BFE8E770B5044628
:103F90000D4600260CB9602070BD0DB95F20FBE70F
:103FA000FEF758FB0646D4E90310884204D3304696
:103FB000FEF754FB5E20EFE76068286065602069CB
:103FC000401C20613046FEF749FB0020E4E770B555
:103FD00005460C4600260DB9602070BD0CB9612065
:103FE000FBE7FEF737FB06462868206068686060DC
:103FF000A868A060E868E060286920613046FEF7A4
:104000002DFBD4E90301401A60610020E5E770B59B
:1040100078211348FEF749FF00240EE004EB44002A
:104020000F4901EBC005601C00EB400001EBC00034
:1040300068600CA06861601C84B2042CEED304EBB1
:104040004400074901EBC0050020686005A06861D5
:1040500008460149086070BDAC00002085000020C2
:10406000644101203F0000002DE9F04106460D4665
:104070004FF0000826B9042028700020BDE8F08128
:104080003078022803D0012028700020F6E7FEF7E0
:10409000E1FA80467468E08A78B12169081D2061E0
:1040A0000F68E08A401EE082A1682069884201D141
:1040B000606820610020287002E01F20287000271F
:1040C0004046FEF7CBFA3846D8E72DE9F0410646E0
:1040D0000F464FF00008FA48007810B10020BDE804
:1040E000F081FEF7B7FA8046F6480468006820B110
:1040F000F44800684068F34908604046FEF7AEFAAD
:10410000FCB1FEF7A7FA8046EF480568D5B1006814
:104110000068ED4908604046FEF7A0FA6E6006EBC5
:104120008700A860EE602E61AF820020E882022046
:104130002070002020816560E4A060612046FFF7C8
:1041400066F908E0DF4800686060DE4804604046C9
:10415000FEF784FA00242046C1E72DE9F047044623
:10416000894615464FF0000A24B9042028702046DD
:10417000BDE8F0872078022803D00120287020466F
:10418000F6E7CF48007818B10F2028702046EFE7F7
:10419000FEF760FA8246A07A10B14FF0010801E004
:1041A0004FF00008B9F1000F03D0B9F1010F49D168
:1041B00021E0B8F1000F17D1C4A060616668C24861
:1041C00000683060C048066000202070BD4800686C
:1041D000606000202081BB4804605046FEF73EFA34
:1041E00000202870002705E05046FEF737FA4920E6
:1041F000287027462DE005E00023042219462046BA
:10420000FFF78DF8A07A0028F6D1B0A0606166684B
:10421000AD4800683060AC48066000202070A948B6
:104220000068606000202081A64804605046FEF7C8
:1042300015FAB8F1010F01D1FEF7B1FB002028708B
:10424000002706E05046FEF709FA072028702746A7
:1042500000BF00BF38468BE770B5054600260DB994
:10426000042070BD2878022801D00120F9E7FEF76C
:10427000F1F906466C686068E060606820610020C3
:10428000E0823046FEF7EAF90020EAE72DE9F04740
:104290000646884615464FF0000926B904202870C6
:1042A0000020BDE8F0873078022803D00120287074
:1042B0000020F6E78248007818B10220287000201C
:1042C000EFE78348007818B10D2028700020E8E758
:1042D000FEF7C0F981467468E08A98B12169081D2B
:1042E00020610F68E08A401EE082A1682069884250
:1042F00001D1606820614846FEF7B0F900202870BF
:104300003846CEE77348006890F8340040F0040067
:104310007049096881F8340000206E49096881F805
:1043200035006C480068C0F830803046FFF737F839
:104330004846FEF793F9FEF732FBFEF78BF981460C
:104340006448006890F8350020B101280DD002289B
:104350000AD105E05F480068476A002028700DE038
:1043600000270E20287009E000BF31465948006838
:10437000FEF7C0FF00270A20287000BF00BF002002
:104380005449096881F834005249096881F83500B8
:1043900050490968C8614F49096808624D49096870
:1043A00048624846FEF75AF938467AE72DE9F04167
:1043B00004460F4615464FF0000824B90420287023
:1043C0000020BDE8F0812078022803D00120287069
:1043D0000020F6E7FEF73EF98046A07A20B30026DB
:1043E0007FB1012F0CD107E00223042200212046D7
:1043F000FEF795FF701CC6B2A07A0028F4D109E040
:1044000000BF0223042200212046FEF788FF701C13
:10441000C6B200BF00BF4046FEF720F9FEF7BFFA64
:104420000E2028703046CCE74046FEF717F90020F2
:10443000287000BFC5E72DE9F04105460E4600276C
:1044400015B90420BDE8F0812878022801D00120A8
:10445000F8E7FEF7FFF80746A87A60B100230422C8
:1044600031462846FEF75BFF3846FEF7F7F8FEF7C1
:1044700096FA0020E6E76C68E08AA18A884204DBAD
:104480003846FEF7EBF81E20DCE7E168081DE06027
:104490000E60E08A401CE082D4E90210884201D11B
:1044A0006068E0603846FEF7D9F80020CAE72DE9D9
:1044B000F04105460E46002775B90420BDE8F0819D
:1044C0008500002070000020B00000203F000000A8
:1044D00086000020980000202878022801D00120C2
:1044E000ECE7FEF7B7F80746A87A60B1002304228C
:1044F00031462846FEF713FF3846FEF7AFF8FEF7C1
:104500004EFA0020DAE76C68E08AA18A884204DB70
:104510003846FEF7A3F81E20D0E76168206988427C
:1045200001D1A06820612069001F20612069066018
:10453000E08A401CE0823846FEF790F80020BDE794
:104540002DE9F04105460F4616464FF0000815B913
:104550000420BDE8F0812878022801D00120F8E786
:10456000FEF778F88046A87AE8B106F0010050B16D
:1045700005E00023042239462846FEF7D0FEA87A3B
:104580000028F6D105E00023042239462846FEF72C
:10459000C6FE4046FEF762F806F0040008B9FEF7D2
:1045A000FEF90020D5E76C68E08AA18A884204DB26
:1045B0004046FEF753F81E20CBE706F0020058B144
:1045C00061682069884201D1A06820612069001FCC
:1045D00020612069076009E0E168081DE0600F6064
:1045E000D4E90210884201D16068E060E08A401C92
:1045F000E0824046FEF732F80020AAE72DE9F047B6
:1046000005460C464FF0000A15B90420BDE8F087B6
:104610000CB90920FAE72878022801D00120F5E733
:10462000FEF718F88246A87A207405F10B0804F109
:104630000809002705E018F8010B09F8010B781CA0
:10464000C7B2082FF7D36E68F08A18B130690068D6
:10465000206001E000202060F08AA080B08AE08025
:104660005046FDF7FBFF0020D0E72DE9F041602127
:104670001048FEF71AFC00240DE0601C86B204EB23
:1046800044000C4901EBC00506EB460001EBC007F6
:104690002F60601C84B2032CEFD304EB4400054967
:1046A00001EBC00500202860084603490860BDE80A
:1046B000F0810000DC410120B000002070B504460C
:1046C00000260CB9002070BD2078032801D00020FE
:1046D000F9E7FDF7BFFF0646258915B12089401E81
:1046E00020813046FDF7BAFF2846ECE770B5054655
:1046F0000026E548007808B1002070BDFDF7AAFF4C
:104700000646E2480468006820B1E0480068406856
:10471000DE4908603046FDF7A1FF4CB10320207050
:10472000258100206060DAA060612046FEF76FFE00
:104730002046E2E72DE9F0470446884615464FF04B
:10474000000924B9042028702046BDE8F0872078AD
:10475000032803D0012028702046F6E7CA480078D5
:1047600018B10F2028702046EFE7FDF773FF814650
:10477000A07A08B1012700E00027B8F1000F03D0AC
:10478000B8F1010F3AD119E08FB9C1A060610020E2
:104790002070BE480068606000202081BB48046033
:1047A0004846FDF75BFF00202870002605E04846DC
:1047B000FDF754FF49202870264626E005E0002337
:1047C000012219462046FEF7AAFDA07A0028F6D15C
:1047D000AFA0606100202070AC48006860600020DD
:1047E0002081AA4804604846FDF738FF012F01D117
:1047F000FEF7D5F800202870002606E04846FDF7B1
:104800002DFF07202870264600BF00BF30469CE7DA
:104810002DE9F04105460E46144600271DB9042037
:104820002070BDE8F0812878032802D00120207094
:10483000F7E79548007810B102202070F1E795481D
:10484000007810B10D202070EBE7FDF703FF07465D
:10485000288940B12889401E28813846FDF7FEFE90
:1048600000202070DDE78C48006890F8340040F0AC
:1048700001008949096881F83400002086490968E7
:1048800081F835008448006806632846FEF787FDF6
:104890003846FDF7E3FEFEF782F8FDF7DBFE07463C
:1048A0007D48006890F8350020B1012809D0022821
:1048B00006D102E0002020700BE00E20207008E0FE
:1048C00000BF294674480068FEF714FD0A202070D6
:1048D00000BF00BF00207049096881F834006E49AC
:1048E000096881F835006C490968C8616A49096836
:1048F00008623846FDF7B2FE00BF92E72DE9F041AD
:1049000004460F4615464FF0000824B904202870CD
:104910000020BDE8F0812078032803D00120287012
:104920000020F6E7FDF796FE8046A07A20B3002629
:104930007FB1012F0CD107E0022301220021204684
:10494000FEF7EDFC701CC6B2A07A0028F4D109E095
:1049500000BF0223012200212046FEF7E0FC701C6C
:10496000C6B200BF00BF4046FDF778FEFEF717F85D
:104970000E2028703046CCE74046FDF76FFE002041
:10498000287000BFC5E770B5044600250CB90420A7
:1049900070BD2078032801D00120F9E7FDF75AFE09
:1049A0000546A07A60B10023012219462046FEF791
:1049B000B6FC2846FDF752FEFDF7F1FF0020E7E7C1
:1049C00020894FF6FF71884207D22089401C208140
:1049D0002846FDF743FE0020DAE72846FDF73EFEB5
:1049E0003320D5E72DE9F04704460D464FF0000986
:1049F00014B90420BDE8F0870DB90920FAE7207842
:104A0000032801D00120F5E7FDF724FE8146A07AB6
:104A1000A87204F10B0705F10208002605E017F85B
:104A2000010B08F8010B701CC6B2082EF7D32089C1
:104A300028804846FDF712FE0020DBE72DE9F04113
:104A400004460E46154600271CB904202870BDE810
:104A5000F0812078032802D001202870F7E7FDF7C5
:104A6000F9FD074600202870208908B1268105E05D
:104A7000A07A08B9268101E0492028703846FDF760
:104A8000EDFD00BFE3E7000085000020700000207E
:104A90003F00000086000020980000202DE9F04F24
:104AA00085B08146884600200090B9F13F0F06D3BB
:104AB000B9F1FF0F03D02A2005B0BDE8F08FB8F19F
:104AC0003F0F01D32A20F7E7FDF7C4FD0090F94816
:104AD00050F8280020B10098FDF7C0FD2820EBE732
:104AE000B9F1FF0F03D1F448006890F83690F1480F
:104AF00050F8295025B90098FDF7B0FD2920DBE7D3
:104B0000012D04D10098FDF7A9FD4320D4E74FEA19
:104B1000E80708F0070003900120B84000F0FF0A02
:104B200001210398814001F0FF0B0020E14941F889
:104B30002900084640F8285015F8386FA8780290E8
:104B40006878383D0190DD48815D01980140D1B120
:104B5000DA48805D01998843D84988550846805DC8
:104B600028B9D748007802998843D5490870D448B5
:104B7000007840EA0A00D2490870D048C05D40EA97
:104B80000B00CE49C855EC69D4B104F10B00805D2F
:104B90000199884304F10B0188550846805D18B9D6
:104BA000A07A02998843A072A07A40EA0A00A07213
:104BB00004F10B00C05D40EA0B0004F10B01C85585
:104BC000286A30B3286A0490049804681FE004F14E
:104BD0000B00805D0199884304F10B01885508465C
:104BE000805D18B9A07A02998843A072A07A40EA41
:104BF0000A00A07204F10B00C05D40EA0B0004F152
:104C00000B01C8550498001D049004980468002CFA
:104C1000DDD185F8368085F83870039885F837003F
:104C200085F83AA085F839B00098FDF717FDA5483A
:104C30000078012801D1FDF7B2FE00203CE72DE904
:104C4000FE4F06460F4690461C464FF000093F2C8B
:104C500002D92A20BDE8FE8FFDF7FCFC81469A4868
:104C6000007820B14846FDF7F9FC3C20F2E7914876
:104C700050F8240060BB01208E4941F824004846CA
:104C8000FDF7ECFC0023424639463046FDF74DFC6B
:104C90008246002000900190034602465146029051
:104CA0002046FEF7CCFB054635B98648007801283A
:104CB0000CD1FDF774FE09E0FDF7CCFC8146002025
:104CC0007C4941F824004846FDF7C8FC2846C1E766
:104CD0004846FDF7C3FC2820BCE702F0010343B1BE
:104CE00002F002032BB102E0491E002308C0002994
:104CF000FAD170472DE9F04F85B081468A46934638
:104D00001C46DDE90F78129D002003903F2C03D94B
:104D10002A2005B0BDE8F08FFDF79CFC03906A489F
:104D2000007820B10398FDF799FC3C20F1E7614839
:104D300050F8240088BB01205E4941F82400039804
:104D4000FDF78CFC2A4641463846FFF7C6FF2B4646
:104D50005A4651464846FDF7E8FB04901198CDE9C4
:104D6000008002953A4620460E9B0499FEF767FBA9
:104D7000064636B95348007801280CD1FDF70FFEDE
:104D800009E0FDF767FC039000204A4941F8240040
:104D90000398FDF763FC3046BBE7FFE70398FDF798
:104DA0005DFC2820B5E72DE9F0410546002746487F
:104DB000007810B14020BDE8F0813F2D01D13E20A8
:104DC000F9E73F2D03D3FF2D01D02A20F3E7FDF7AC
:104DD00041FC0746FF2D03D13748006890F8365054
:104DE000344850F8254024B93846FDF737FC4320B5
:104DF000E1E7012C04D13846FDF730FC3D20DAE72D
:104E000014F8380F2D49085C6178884321782B4AC3
:104E1000505414F838091146085C30B994F83A1027
:104E200027480078884326490870E06918B1204671
:104E3000E169FEF75FFA206A18B12046216AFDF7A2
:104E400084FDA66A16B13046FEF75EFC00202063A2
:104E500084F8340084F835001C480078FF2804D218
:104E60001A480078401C194908703846FDF7F6FBCF
:104E7000FEF73FFAFDF7EEFB07461448007820B135
:104E800012480078401E114908702046FDF73FFB8C
:104E90000F480078401E0E4908700020054941F86F
:104EA0002500A069C0B9002061698861094960696D
:104EB000086017E064350120980000208A00002077
:104EC000890000209200002085000020860000203C
:104ED00093000020A4000020D4E905014861D4E932
:104EE00005108861F74800686061F6480460F6A024
:104EF00020653846FDF7B2FBF4480078012801D15F
:104F0000FDF74DFD002056E72DE9F041044600274E
:104F10003F2C02D13E20BDE8F0813F2C03D3FF2C73
:104F200001D02A20F7E7FF2C0BD1FDF793FB0746B2
:104F3000E748006890F83B603846FDF78FFB304645
:104F4000E9E7FDF787FB0746E24850F8245025B90A
:104F50003846FDF783FB4320DDE7012D04D13846B9
:104F6000FDF77CFB3D20D6E73F2085F83B00384627
:104F7000FDF774FB0020CEE72DE9F04705460E460D
:104F800014464FF000083F2D06D9FF2D04D02A20EB
:104F900020700020BDE8F0871EB90C202070002092
:104FA000F8E7CD48007818B1112020700020F1E713
:104FB000FDF750FB8046FF2D03D1C548006890F8EF
:104FC0003650C44850F8257037B94046FDF746FBC7
:104FD000432020700020DDE7012F06D14046FDF779
:104FE0003DFB432020700020D4E7386D30603068EE
:104FF000FDF734FC81464046FDF730FB0020207071
:105000004846C7E72DE9F04105460F4614464FF0E4
:1050100000083F2D05D9FF2D03D02A202070BDE8C0
:10502000F08117B90C202070F9E7AB48007810B177
:1050300012202070F3E7FDF70DFB8046FF2D03D112
:10504000A348006890F83650A24850F825602EB961
:105050004046FDF703FB43202070E0E7012E05D119
:105060004046FDF7FBFA43202070D8E737654046FD
:10507000FDF7F4FA0020207000BFD0E770B50546B8
:1050800000263F2D01D32A2070BDFDF7E3FA064626
:10509000904850F8254024B93046FDF7DFFA462005
:1050A000F2E7012C04D13046FDF7D8FA4320EBE7B4
:1050B00094F8340000F0080060B314F8340F00F0E6
:1050C000F700207014F83409F8B9206BC8B93834E7
:1050D000A07882490978084380490870207880497F
:1050E000085C6178084314F838197D4A50543046FA
:1050F000FDF7B4FA75480078012809D1FDF74FFC97
:1051000006E03046FDF7AAFA02E03046FDF7A6FABF
:105110000020B9E73046FDF7A1FA4420B4E72DE9B5
:10512000F04706460C464FF0000A3F2E04D9FF2EEA
:1051300002D02A20BDE8F0870CB90920FAE7002048
:1051400020606060FDF786FA8246FF2E03D160483A
:10515000006890F836605F4850F8265025B95046F0
:10516000FDF77CFA4320E5E7012D04D15046FDF719
:1051700075FA4320DEE7287C00F0010020B9504694
:10518000FDF76CFA4520D5E70027D5F80C90D5F847
:1051900008805046FDF762FA00E07F1C58F8041BB7
:1051A0000029FAD0B8002060A9EB070080006060F9
:1051B0000020BFE72DE9F04105464FF000083F2DE4
:1051C00002D14720BDE8F0813F2D03D3FF2D01D050
:1051D0002A20F7E7FDF73EFA8046FF2D05D13C482F
:1051E000006890F83650012608E03948006890F8C9
:1051F0003600A84201D1012600E00026354850F8CB
:10520000254024B94046FDF729FA4820DAE7012C69
:1052100004D14046FDF722FA4320D3E794F83870D2
:105220002F48C05D94F8391088432D49C855084669
:10523000C05D30B994F83A1028480078884327496F
:10524000087094F8340040F0080084F834004046B8
:10525000FDF704FA012E01D1FDF7A1FB0020B1E713
:105260002DE9F04104460E4600273F2C04D9FF2CBF
:1052700002D02A20BDE8F0810EB90920FAE7FDF737
:10528000E9F90746FF2C03D11148006890F8364031
:10529000104850F8245025B93846FDF7DFF9292089
:1052A000E8E7012D04D13846FDF7D8F94320E1E7BE
:1052B000582229463046FEF7B8F83846FDF7CEF9B1
:1052C0000020D7E79C0000203F0000009200002053
:1052D000980000206435012085000020890000200E
:1052E0008A0000202DE9F04704460E4615464FF08F
:1052F00000093F2C06D3FF2C04D02A202870002060
:10530000BDE8F0871EB1082028700020F8E7FDF7FF
:10531000A1F98146FF2C02D12148076802E021480B
:1053200050F8247007F1540050F826804846FDF7E5
:1053300095F9002028704046E2E72DE9F047044641
:105340000E4690461D464FF000093F2C05D3FF2C1A
:1053500003D02A202870BDE8F08716B108202870F5
:10536000F9E7FDF777F98146FF2C02D10C48076871
:1053700002E00C4850F8247007F1540040F82680F1
:105380004846FDF76BF90020287000BFE3E710B531
:105390000348006800F062FCFF20FFF704FD10BD29
:1053A000980000206435012070B5054600266C4841
:1053B000007800B170BD6B48007800B1FAE71DB30A
:1053C000FDF748F906466848006890F83840674895
:1053D000005D6549096891F83910884363490855AB
:1053E0000846005D40B96048006890F83A1060488F
:1053F000007888435E4908705B4800680563304662
:10540000FDF72CF9FDF7CBFA00BFD3E72DE9F0410A
:1054100007460C4615461E465148007810B15520E7
:10542000BDE8F0814F48007808B13220F8E727B98D
:105430001CB915B90EB95420F2E73B2C01D9512003
:10544000EEE73B2D01D95220EAE7B6F57A7F01D38A
:105450005320E5E7701D642148434FF47A71B0FB97
:10546000F1F14FF461607843C4EB041200EB820069
:10547000284400EBC00202EB001001EB800840461C
:10548000FFF792FF0020CBE770B5054600263F2DC1
:1054900001D32A2070BDFDF7DDF80646354850F8E7
:1054A000254024B93046FDF7D9F84320F2E7012C16
:1054B00004D13046FDF7D2F84320EBE7206B20B94A
:1054C0003046FDF7CBF85020E4E70020206394F845
:1054D000340000F0370040B114F8340F20F03700EA
:1054E000207001206070343C02E0002084F8350018
:1054F00094F8340000F00800A8B93834A0781C49AA
:10550000097808431A49087020781849085C6178BE
:10551000084314F83819154A50543046FDF79EF8E0
:10552000FDF73DFA02E03046FDF798F80020B1E7BC
:1055300070B50025FDF78EF805460F48046828462B
:10554000FDF78CF8204670BD70B504460025FDF7C8
:1055500081F80546084804602846FDF77FF870BDCD
:105560008500002086000020980000208A0000208E
:105570008900002064350120B4000020F74800684D
:1055800008B900207047F5480168F44AC8681060FF
:105590000020C8600861F2480088401CF04A108072
:1055A000F0480088401EEF4A10800846EAE72DE9DF
:1055B000F05F06460F4690469946DDE90AAB0C9D22
:1055C000B8F1010F09D0B8F1020F0CD127B983202F
:1055D00028700020BDE8F09F09E01EB982202870E5
:1055E0000020F7E703E0842028700020F2E700BFE6
:1055F000DD48007818B18B2028700020EAE7FDF71D
:1056000093FDFFF7BBFF04462CB9FDF7A6FD8620EE
:1056100028700020DEE7012084F82500A661E761FC
:1056200084F82480C4F80490C4F808A0C4F820B01A
:10563000FDF793FD002028702046CBE7002180F87D
:10564000251080F82410C161416141608160C7A1CB
:10565000016200210161C1490968C160BF49086058
:10566000BF490988491EBE4A1180BE490988491CA4
:10567000BC4A1180704730B5057D05F00704BC4D6C
:1056800005EBC4031D68854205D1C168196039B1B5
:1056900000250D6104E00169C268CA6002B11161B0
:1056A000012580F825500025C56005619D886D1E87
:1056B0009D8030BD70B505460C461DB98A2020700E
:1056C000002070BD2878642803D089202070002035
:1056D000F7E7A548007818B18B2020700020F0E78C
:1056E000FDF722FD95F82500D8B101280FD002283A
:1056F0000ED003281BD12846FFF7BDFF2846FFF731
:105700009DFFFDF72AFD002020700120D9E700BF92
:105710002846FFF793FFFDF720FD002020700120B1
:10572000CFE7FDF71AFD872020700020C9E7FDF7BD
:1057300014FD8D2020700020C3E72DE9F0410546BF
:105740000E46144626B9882020700020BDE8F0815E
:105750001DB98A2020700020F8E72878642803D03B
:10576000892020700020F1E77F48007818B11120CF
:1057700020700020EAE7FDF7D7FC95F8250098B1E6
:10578000012804D0022803D0032813D100BF00BF92
:10579000286A30603068FDF761F80746FDF7DDFCE8
:1057A000002020703846D1E7FDF7D7FC8720207015
:1057B0000020CBE7FDF7D1FC8D2020700020C5E74D
:1057C00070B504460D461CB98A202870002070BDB3
:1057D0002078642803D0892028700020F7E76248E9
:1057E000007818B18B2028700020F0E7FDF79CFCB2
:1057F00094F8250070B301280DD0022825D0032885
:105800002ED15C4960690968461AFDF7A6FC0020A4
:1058100028703046DBE794F8240001280CD00228D9
:1058200009D1A06908B9E66900E0A669FDF795FC11
:105830000020287006E000BFA669FDF78EFC00205E
:10584000287000BF00BF3046C1E7FDF786FC00208E
:105850002870BCE7FDF781FC872028700020B6E7A0
:10586000FDF77BFC8D2028700020B0E770B5054661
:105870000C461DB98A202070002070BD287864284D
:1058800003D0892020700020F7E73748007818B14E
:105890008B2020700020F0E7FDF746FC95F825608E
:1058A00036B1012E05D0022E04D0032E06D102E01F
:1058B00000BF00BF00BF0020207002E08D202070DC
:1058C00000BF00BFFDF749FC3046D6E770B50B4678
:1058D000032580F82550012B05D1264EC569366871
:1058E000354445610CE085692DB9224EC56936689D
:1058F0003544456104E01F4E85693668354445618D
:10590000057D05F007041A4D05EBC4010D682DB99E
:1059100008600025C56001258D8006E00A680860E2
:10592000C26010618D886D1C8D800025056170BD81
:1059300070B505460C461DB98A202070002070BD48
:105940002878642803D0892020700020F7E70648D3
:10595000007888B18B2020700020F0E7C80000207C
:10596000BA000020B8000020850000203F000000A1
:10597000BC460120BC000020FDF7D6FB95F82500B1
:10598000E8B1012810D002280FD003281DD12846E5
:10599000FFF771FE00212846FFF798FFFDF7DDFBBA
:1059A000002020700120CAE700BF00212846FFF731
:1059B0008DFFFDF7D2FB002020700120BFE7FDF72F
:1059C000CCFB872020700020B9E7FDF7C6FB8D20B7
:1059D00020700020B3E72DE9F04105460F469046C0
:1059E0001C4625B98A2020700020BDE8F081287867
:1059F000642803D0892020700020F6E77D480078D5
:105A000018B18B2020700020EFE7FDF78DFB95F893
:105A1000250090B301282AD0022827D0032833D1AB
:105A20002846FFF728FE00202070B7B1032F02D0D0
:105A3000042F13D108E06E681EB12846A968B0474C
:105A400001E08F2020700CE06E681EB141462846B0
:105A5000B04701E08F20207003E002E08420207036
:105A600000BF00BFFDF779FB0120BEE700BFFDF7D7
:105A700074FB8E2020700120B7E7FFE7FDF76DFB78
:105A8000872020700020B0E7FDF767FB8D20207095
:105A90000020AAE710B558480068FEF774FF0446D6
:105AA000204610BD08B500BF00BF6A46002152481D
:105AB0000068FEF7ADFEFDF737FB50480068401C5C
:105AC0004E4908600846007800F007084C4800EB93
:105AD000C8073C681AE0E668484960690968884276
