:020000040800F2
:10000000605001205D310008250B0008290B000815
:100010002D0B0008310B0008350B00080000000014
:10002000000000000000000000000000390B000884
:100030003B0B0008000000005B330008BD320008E5
:1000400077310008773100087731000877310008F0
:1000500077310008773100087731000877310008E0
:1000600077310008773100087731000877310008D0
:1000700077310008773100087731000877310008C0
:1000800077310008773100087731000877310008B0
:10009000B50400087731000877310008773100088F
:1000A0007731000829070008773100087731000808
:1000B000EF060008DD0700080F0800087731000888
:1000C0007731000877310008773100087731000870
:1000D00077310008410800087731000877310008BF
:1000E0007731000877310008773100087731000850
:1000F0005B07000877310008773100087731000886
:1001000077310008773100088D0700087731000843
:10011000410A0008770A000877310008FB0A000846
:10012000773100087731000877310008773100080F
:1001300077310008773100087731000877310008FF
:1001400077310008773100087731000877310008EF
:1001500077310008773100087731000877310008DF
:1001600077310008773100087731000877310008CF
:1001700077310008773100087731000877310008BF
:10018000773100087731000800F002F800F090F8AD
:100190000AA090E8000C82448344AAF10107DA45E2
:1001A00001D100F085F8AFF2090EBAE80F0013F0A4
:1001B000010F18BFFB1A43F001031847B8CE000027
:1001C000D8CE0000103A24BF78C878C1FAD85207B8
:1001D00024BF30C830C144BF04680C6070470000C1
:1001E0000023002400250026103A28BF78C1FBD840
:1001F000520728BF30C148BF0B6070476E2908F016
:100200003987702909F0918066290CF08A84652964
:100210000CF0878467290CF0848461290CF08384B6
:1002200003681B0A28BF41F08001692908F0E686AF
:10023000642908F0E386752908F0E0866F2909F043
:100240001F80782909F05D80E92908F0B987E42941
:1002500008F0B687F52908F0B387EF2909F01C806C
:10026000F82909F05C800368DB0928BF41F08001B0
:10027000632908F03A87732908F03F87E32909F0DA
:100280009784F32909F09C84002070471FB509F07A
:10029000EDFC0400002000210BF036FA401C6060E9
:1002A000002000210BF01AFAE0601FBD10B510BD50
:1002B00009F0AEFC1146FFF7E9FF00F01DF809F068
:1002C00087FD03B4FFF7F2FF03BC09F0CBFD00008C
:1002D000184800686421B0FBF1F4204602F0FFFFEB
:1002E00003F0DEFD00F0B6F800BF00231A4601213E
:1002F000184605F0EDFEF8E710B586B000BF03F034
:100300004DF803F0C8FC032000214FF480720A4B23
:10031000CDE90132CDE903100A200346074A0090D7
:10032000074805F049FB044603F0A2FD002006B093
:1003300010BD000084000020100100200C050020EA
:10034000D102000808B59DF8000000906A4600211F
:100350004B48006805F0D4F92AE06A460021484875
:10036000006805F0B7F801F068F9044601F0DFF81D
:10037000054601F0D6F806462246294601F0DAF88D
:100380004048007830B101280BD002280CD0032857
:100390000CD10AE03C4B3D4A0021184602F0A0F97E
:1003A00005E002F067F902E001E000E000BF00BFF5
:1003B000D3E708B500BF4FF4A06006F0ADFE002003
:1003C000034640F2473240F2E73100904FF0804060
:1003D00000F0D9FB0020034640F247326321009031
:1003E0002B4800F0D0FB40F2DC512A4800F063FEBD
:1003F0004FF4E13001F03BF842F21071254800F073
:100400005AFE02200123244A4FF4FA710090234837
:1004100001F02EFE012001F07BFA022001F078FAB3
:10042000032001F075FA1E4A1146012001F024FB59
:100430001B4A1146022001F01FFB194A11460320F6
:1004400001F01AFB3221134800F035FEFF2005F0C1
:1004500013FD08BD10B500BF002004F0A9FF084936
:1004600008600B230F4A00210F4805F04AFA0446A2
:100470000C230E4A00210E4805F043FA044610BD35
:10048000000000201500002000007A4400803B4658
:1004900000040040000C0040000C024000640040DA
:1004A000A08601000CA90020B30300080C2901203C
:1004B000450300082DE9F05F4FF0000A02F02CFF21
:1004C0008346F7480078401CF5490870584602F00A
:1004D00027FF0823F34AF449F44801F0CBFFF24820
:1004E000006816281BD1EF480078F1490870ED48E4
:1004F0004078487008460088EE490880E9488078CE
:10050000ED490870E748C078487008460088EB4914
:1005100008800846B0F90010002001F0D1FFE24841
:10052000006818281BD1DF480078E1490870DD48D1
:100530004078487008460088DE490880D9488078AD
:10054000DD490870D748C078487008460088DC4903
:1005500008800846B0F90010012001F0B1FFD24830
:10056000006840F2862188420ED0CF480068491CBE
:10057000884209D0CC480068B0F5227F04D0CA4830
:100580000068891C88427DD14FF0000A07E0C54809
:1005900010F80A00CB4901F80A000AF1010ABAF181
:1005A000080FF4DBC7480068C74988420BD1BE4832
:1005B000006840F28921884205D1C24948680CF0A0
:1005C0001BF8C2490860BF480068BF49891F8842BC
:1005D0005DD1B548006840F28621884214D1B949FE
:1005E0004968A1F1F9000BF0EBFA8046B84AB94B23
:1005F0000BF03AFB06460022B74B0BF069FC0446B1
:100600000BF098F8B5490860A748006840F28721C8
:10061000884214D1AB494968A1F23A400BF0D0FAB4
:100620008046AF4AAF4B0BF01FFB06460022AA4B99
:100630000BF04EFC04460BF07DF8A84948609A4840
:100640000068B0F5227F14D19E494968A1F2654047
:100650000BF0B6FA8046A44AA44B0BF005FB064605
:100660000022A34B0BF00CFD04460BF063F89B49F2
:1006700088608D48006840F28921884207D19149FD
:10068000486800E003E00BF0B7FF9449C86099495F
:10069000864808F00AFA9749491C844808F005FA88
:1006A0009449C91C814808F000FA93497F4808F032
:1006B000FCF992497D4808F0F8F991497B4808F027
:1006C000F4F98F490831794808F0EFF98D497748F6
:1006D00008F0EBF98C49754808F0E7F98A490831C8
:1006E000724808F0E2F903F000FBBDE8F09F10B596
:1006F00002F012FE04466A480078401C68490870FF
:10070000204602F00DFE0121880707F0DAFA0128E1
:1007100007D17E48006804F098FF0121880707F0A0
:10072000E1FA03F0E2FA10BD10B502F0F5FD04465F
:100730005B480078401C5A490870204602F0F0FDE2
:100740000121734807F0BDFA012803D10121704847
:1007500007F0C8FA03F0C9FA10BD10B502F0DCFDCD
:1007600004464F480078401C4D490870204602F06E
:10077000D7FD0121674807F0A4FA012803D1012120
:10078000644807F0AFFA03F0B0FA10BD2DE9F0416C
:1007900002F0C2FD044642480078401C40490870FF
:1007A000204602F0BDFD01215B4807F08AFA0128CE
:1007B00010D10121584807F095FA00F03EFF054698
:1007C00000F0B5FE064600F0ACFE07462A4631466C
:1007D00000F0B0FE03F089FABDE8F08110B502F038
:1007E0009BFD04462E480078401C2D490870204689
:1007F00002F096FD0121494807F063FA012803D170
:100800000121464807F06EFA03F06FFA10BD10B5EB
:1008100002F082FD044622480078401C20490870FE
:10082000204602F07DFD01213D4807F04AFA0128EB
:1008300003D101213A4807F055FA03F056FA10BDEA
:1008400010B502F069FD044615480078401C1449B3
:100850000870204602F064FD40F22551314807F04F
:10086000F6FC012875D140F225512E4807F026FDEF
:100870002C4807F040FC2C4908702C4800780528CB
:1008800068D2DFE800F003597087950026480078A9
:100890000D284DD125480078401C244908704AE0B5
:1008A000B9000020480000205000002000640040F3
:1008B00018000020240000201A000020280000203A
:1008C0002A0000201C000020565800402C00002068
:1008D00022718FA50F5D903F0080464010290120B6
:1008E000543541D47D00923FEE258DD13AAA8A3FFE
:1008F000000018400100F0107000F03003000012FA
:10090000080000320300001408000034000000203A
:100910000000014000040140000C004000040040C1
:100920000008004000100140540000205500002045
:100930000020824908707FE0814800780A280AD1A7
:100940000020804908707D480078401C7B49087071
:1009500008E072E06CE07A4800780D2802D00020B0
:100960007649087068E0764800787749754A1278C9
:10097000885474480078401C724908700846007812
:10098000182806DB002008706C480078401C6B4972
:10099000087051E06A4800780A2805D16748007855
:1009A000401C6649087002E000206449087043E07A
:1009B000634800780D2837D16348006863490860B0
:1009C00061484068624908605F4880686149086022
:1009D0005D48C068604908605B4800695F4908601D
:1009E000594840695E49086059480068584908609C
:1009F00058480068574908605748006856490860D9
:100A000056480068554908605548006854490860D0
:100A10005148006800F082FD5048006800F084FDF5
:100A20004A48006800F006FE00204449087003E0D0
:100A300000204249087000BF00BF03F056F910BD06
:100A400010B502F069FC044646480078401C454950
:100A50000870204602F064FC40F22551424807F03D
:100A6000F6FB012804D140F225513F4807F026FC4F
:100A700003F03BF910BD70B502F04EFC0546394855
:100A80000078401C37490870284602F049FC40F2C3
:100A90002551364807F0DBFB28B340F22551334897
:100AA00007F00CFC314807F026FBC4B23048008840
:100AB00000F40040B8B92E480088B0F5C87F13DABA
:100AC00000212C4806F08EFC2948008818B9012125
:100AD000284806F0C7FC264801880088401C244AA4
:100AE00010802548445405E02148008840F4004027
:100AF0001F49088003F0F9F870BD10B501211D48A9
:100B000007F0DFF868B11A48008840F4004018493F
:100B100008800121174807F0E5F80021154806F084
:100B2000A1FC10BD00BFFEE700BFFEE700BFFEE76F
:100B300000BFFEE700BFFEE770477047550000208A
:100B400054000020560000202029012038000020F9
:100B50003C00002040000020300000203400002035
:100B600044000020B9000020004C0040005000402C
:100B70005800002000140040D82A012000BF401E69
:100B80000028FCD170472DE9FF4104460D4616466A
:100B90001F46DDF82880F949601A8C4270D01ADCB3
:100BA000F749A4EB01008C426CD00ADCB4F1804F11
:100BB0004ED0F4482044002852D0B0F5806F71D157
:100BC00056E0B0F5806F65D0B0F5006F6CD0B0F531
:100BD000406FF4D170E0B0F5923F21D009DCB0F560
:100BE000806F7AD0B0F5644F0AD0B0F5684F7CD1F1
:100BF0000EE0B0F5943F1BD0B0F5963F75D11FE0E5
:100C00000121084606F08EF919208DF800006DE0EC
:100C10000121022006F086F92C208DF8000065E005
:100C20000121080406F07EF918208DF800005DE02F
:100C30000121192006F076F92C208DF8000055E0EE
:100C40000121880406F06EF91A208DF800004DE0AD
:100C50000121084606F055F91C208DF8000045E0FA
:100C60000121022006F04DF91D208DF800003DE025
:100C70000121042006F045F91E208DF8000035E022
:100C800023E0FFE70121082006F03BF932208DF830
:100C900000002BE00121102006F033F936208DF8FA
:100CA000000023E021E0FFE70121202006F029F9E0
:100CB00037208DF8000019E00121402006F021F9CD
:100CC0002B208DF8000011E007E00121802006F0C4
:100CD00018F92C208DF8000008E00121080206F028
:100CE00010F92D208DF8000000E000BF00BF029534
:100CF000ADF804600020ADF80C00ADF8060001A9C5
:100D0000204606F026FB0121204606F0EBFF0122DB
:100D10001146204606F0BEFFF8B28DF8010008F03B
:100D2000FF008DF8020001208DF80300684606F0F0
:100D3000F8F90121204606F095FBBDE8FF81FEB5DC
:100D400004460D462E468D49601A8C4270D01ADC3E
:100D50008B49A4EB01008C426CD00ADCB4F1804FCB
:100D60004ED088482044002852D0B0F5806F71D111
:100D700056E0B0F5806F65D0B0F5006F6CD0B0F57F
:100D8000406FF4D170E0B0F5923F21D009DCB0F5AE
:100D9000806F7AD0B0F5644F0AD0B0F5684F7CD13F
:100DA0000EE0B0F5943F1BD0B0F5963F75D11FE033
:100DB0000121084606F0B6F8A820ADF800006DE065
:100DC0000121022006F0AEF8A820ADF8000065E091
:100DD0000121080406F0A6F8A820ADF800005DE0A7
:100DE0000121480406F09EF8A820ADF8000055E067
:100DF0000121880406F096F8A820ADF800004DE027
:100E00000121084606F07DF85420ADF8000045E0C9
:100E10000121022006F075F85420ADF800003DE0F5
:100E20000121042006F06DF85420ADF8000035E0F3
:100E300023E0FFE70121082006F063F85420ADF815
:100E400000002BE00121102006F05BF85420ADF8E3
:100E5000000023E021E0FFE70121202006F051F807
:100E60005420ADF8000019E00121402006F049F8B7
:100E70005420ADF8000011E007E00121802006F0C9
:100E800040F85420ADF8000008E00121080206F007
:100E900038F85420ADF8000000E000BF00BF01208A
:100EA00001900020ADF80800ADF802006946204628
:100EB00006F04FFA0121204606F0D4FA4FF6FF70F3
:100EC000811B204606F08EFA03E0204606F08EFADB
:100ED00086B24FF6FF708642F7DB0021204606F00F
:100EE000C1FAFEBDFEB504460D462E462349601AE2
:100EF0008C4276D01ADC2249A4EB01008C427CD0D3
:100F00000ADCB4F1804F5AD01E48204400285FD03C
:100F1000B0F5806F67D167E0B0F5806F79D0B0F53C
:100F2000006F7FD0B0F5406FF4D184E0B0F5923F10
:100F30002AD009DCB0F5806F6AD0B0F5644F0AD0D2
:100F4000B0F5684F4FD10FE0B0F5943F25D0B0F524
:100F5000963F48D12AE00121084605F0E3FF44F21C
:100F6000A010ADF8000082E00121022005F0DAFFB8
:100F700044F2A010ADF8000079E00000001C004031
:100F8000000C004000FCFFBF0121080405F0CAFF6F
:100F900044F2A010ADF8000069E00121480405F01A
:100FA000C1FF44F2A010ADF8000060E00121880408
:100FB00005F0B8FF44F2A010ADF8000057E00121A1
:100FC000084605F09EFF42F2D000ADF800004EE06A
:100FD0000121022005F095FF42F2D000ADF800009B
:100FE00045E031E009E041E00121042005F089FFFE
:100FF00042F2D000ADF8000039E00121082005F0F0
:1010000080FF42F2D000ADF8000030E001E009E0DE
:1010100023E00121102005F074FF42F2D000ADF86A
:10102000000024E00121202005F06BFF42F2D000F7
:10103000ADF800001BE00121402005F062FF42F204
:10104000D000ADF8000012E00121802005F059FF2A
:1010500042F2D000ADF8000009E00121080205F0DD
:1010600050FF42F2D000ADF8000000E000BF00BF2A
:10107000012001900020ADF80800ADF8020069469B
:10108000204606F066F90121204606F0EBF94FF6FE
:10109000FF70811B204606F0A5F903E0204606F00C
:1010A000A5F986B24FF6FF708642F7DB0021204695
:1010B00006F0D8F9FEBD70B506460C46002500BF07
:1010C00004E00A213046FFF70DFF6D1CA542F8D35E
:1010D00070BD30B58BB004460D460121022005F0ED
:1010E00010FF0121022005F0D9FE02220521A248AD
:1010F00005F019FD2020099002208DF8280003201A
:101100008DF8290000208DF82A0001208DF82B0091
:1011100009A9994805F07CFCA8B2ADF81800002098
:10112000ADF81A000794ADF8200006A9934806F020
:1011300010F96020ADF804000120ADF80600002091
:10114000ADF8100001A98D4806F0D1F908218B48AF
:1011500006F02AFB0121894806F066F9012187483B
:1011600006F080F96421854806F0E3FA0BB030BD43
:1011700030B58BB004460D460121042005F0C1FEB8
:101180000121082005F08AFE02220C217C4805F08E
:10119000CAFC02220E217A4805F0C5FC4FF4A0409B
:1011A000099002208DF8280003208DF829000020E6
:1011B0008DF82A0001208DF82B0009A9704805F050
:1011C00027FCA8B2ADF818000020ADF81A0007946B
:1011D000ADF8200006A96B4806F0BBF86020ADF81A
:1011E00004000120ADF806000020ADF8100001A9B0
:1011F000644806F043F901A9624806F0C5F90821E0
:10120000604806F0C8FA08215E4806F0DAFA0121C3
:101210005C4806F009F901215A4806F023F96421D7
:10122000584806F084FA6421564806F084FA0BB058
:1012300030BD2DE9F84F044689464FF0000A524967
:1012400048460BF0A7F8514900900BF035FA834659
:101250000BF000F807464E4A4E4B0AF09DFA054641
:101260000AF068FA82464C4950460BF0F1FA01D276
:10127000DFF824A1002150460BF0EAF901D24FF02B
:10128000000A012C0BD1454950460BF015FA0646D1
:101290000BF092F9054629463A4806F048FA022C26
:1012A0000BD13E4950460BF007FA06460BF084F985
:1012B00005462946334806F03EFABDE8F88F70B57A
:1012C00004460D46364840F8245050F82410204675
:1012D000FFF7AFFF70BD0146314850F8210070475D
:1012E00010B504462E4951F824002E490AF0DEFFBD
:1012F0002B4941F82400084650F824102046FFF7F7
:1013000098FF10BD10B50446254951F82400254921
:101310000BF092FB224941F82400084650F82410B3
:101320002046FFF786FF10BD7FB505460C4601211C
:10133000202005F0E6FD0195ADF800400020ADF855
:101340000800ADF802006946174806F002F80122CD
:101350001146154806F09EFC37208DF80C00002041
:101360008DF80D0001208DF80E008DF80F0003A8F8
:1013700005F0D7FE7FBD00000004024000040040DD
:10138000000C0240000800400000C842CDCC4C3D9B
:101390009A9999999999A93F000002430000FA444B
:1013A00038290120000040400014004070B5044678
:1013B0000D46E1B2FC4806F088FE00BF4021FA4825
:1013C00006F076FE0028F9D0204670BD10B588B032
:1013D00004460121022005F061FD0121102005F0E5
:1013E000A1FD07220621F14805F09DFB07221146C9
:1013F000EE4805F098FBC020069002208DF81C00F6
:101400008DF81D0000208DF81E0001208DF81F00B2
:1014100006A9E64805F0FCFA02940020ADF80C009D
:10142000ADF80E00ADF81000ADF814000C20ADF8CA
:10143000120002A9DE4806F07FFD25208DF8040089
:1014400000208DF8050001208DF806008DF80700BA
:1014500001A805F066FE012240F22551D44806F0AD
:10146000D1FE0121D24806F0EFFD08B010BD10B545
:1014700088B004460121084605F010FD0121102026
:1014800005F050FD07220A21CA4805F04CFB07224F
:101490000921C84805F047FB4FF4C06006900220C0
:1014A0008DF81C008DF81D0000208DF81E00012015
:1014B0008DF81F0006A9BF4805F0AAFA4FF4E130E5
:1014C00002900020ADF80C00ADF80E00ADF8100051
:1014D000ADF814000C20ADF8120002A9B44806F0D3
:1014E0002BFD0121B24806F0AFFD4021B04806F0C7
:1014F000D6FD012240F22551AD4806F083FE25209D
:101500008DF8040001208DF805008DF806008DF897
:10151000070001A805F005FE08B010BDA649086047
:101520007047A54800687047A44908607047A34801
:10153000006870472DE9F04F8BB006460C46914687
:101540009F48016830460BF077FA83469D48016852
:1015500020460BF071FA0A9058460AF07BFE21F003
:10156000004107464FF03332974B0AF07BFC0BD318
:101570000A980AF06FFE21F0004107464FF033321F
:10158000914B0AF06FFC2BD248460AF063FECDE97E
:10159000080159460A9809F08DF901900AF05AFE9F
:1015A0008A4A8B4BCDE902010AF0B2F90022894B3D
:1015B000CDE904010AF058FBCDE90601DDE9082375
:1015C0000AF05EFD21F0004107460022824B0AF03E
:1015D0000FFB01D2012001E04FF0FF30824601E015
:1015E0004FF0000A0A9908460BF066F85946089031
:1015F00058460BF061F8079008990AF057FE8046AC
:101600000AF056F8074664210AFB01F00AF0F4FFDD
:10161000394609900BF050F805466948066069485C
:1016200004606E490D6028460BB0BDE8F08F6B4832
:10163000006870476A4908607047694800687047E9
:10164000F0B503460D461646002729460A2E03D05C
:10165000002008702846F0BD33B9302001F8010B96
:10166000002008702846F6E7002B03DA2D2001F849
:10167000010B5B4242F210720DE093FBF2F404B9ED
:1016800037B104F1300001F8010B04FB12330127DC
:101690000A2092FBF0F2002AEFDC002008702846B6
:1016A000D9E70FB470B586B006460CA8019073E078
:1016B0000B9800785C281CD10B98401C0B9000788C
:1016C0006E2809D072280FD10D21304606F0FDFC9E
:1016D0000B98401C0B900BE00A21304606F0F5FCFD
:1016E0000B98401C0B9003E00B98401C0B9000BF24
:1016F0004BE00B980078252840D10B98401C0B90AC
:101700000078642818D0732833D1019810C801904C
:101710000BE02178304606F0D8FC00BF402130466F
:1017200006F0C6FC0028F9D0641C20780028F0D10F
:101730000B98401C0B9020E0019820C801900A22D1
:1017400002A92846FFF77CFF02AC0BE02178304667
:1017500006F0BBFC00BF4021304606F0A9FC002883
:10176000F9D0641C20780028F0D10B98401C0B9015
:1017700003E00B98401C0B9000BF06E00B9810F89C
:10178000011B0B90304606F0A0FC00BF4021304604
:1017900006F08EFC0028F9D00B980078002887D13D
:1017A00006B070BC5DF814FB00500040000402401D
:1017B00000100140000002405C000020600000209A
:1017C0006C000020700000203333D33F4AD8124D04
:1017D000FB210940008066400080564064000020E4
:1017E0006800002010B588B0044601940020ADF8D0
:1017F0000800ADF80A00ADF80C00ADF810000C20A0
:10180000ADF80E00012105F049FB0121080505F0A6
:1018100078FB08220C21344805F085F908220221C2
:10182000324805F080F900208DF81A0001208DF86B
:101830001B0002208DF81800C002059002208DF8D0
:10184000190005A9284805F0E3F802208DF81800D2
:101850000420059005A9254805F0DAF801A92448D7
:1018600006F06AFB35208DF81C0001208DF81F0062
:101870008DF81D008DF81E004FF4A06005F04CFCA3
:1018800007A805F04EFC012240F22551184806F049
:10189000B9FC0121164806F0D7FB08B010BD0FB403
:1018A00038B505A800901348009A049907F00EFA7D
:1018B000002000900F4807F009FB85B200240DE0DE
:1018C00000BF40210A4806F0F3FB0028F9D0094880
:1018D000015D074806F0F9FB601C84B2AC42EFDB07
:1018E00038BC5DF814FB000000080240000C024008
:1018F00000500040482901201CB5FE4903C9CDE92C
:10190000000108236A460021FB4800F087FD1CBD4A
:1019100070B588B005460024F649083103C9CDE901
:1019200006010020019002908DF80C008DF80D004A
:1019300008208DF80E00601E00EA054000F180705E
:10194000069006A810F834008DF80F0006A830F8AD
:101950003400010A8DF8101006A850F83400010C6C
:101960008DF8111006A850F83400000E8DF8120002
:1019700006A800EBC40001798DF8131006A800EB4F
:10198000C4008088010A8DF8141006A800EBC4007A
:101990004068010C8DF8151006A800EBC4004068E3
:1019A000000E8DF8160001A9D34806F029FE064660
:1019B00000BF3146D04806F0BBFE0128F9D108B07F
:1019C00070BD70B588B006460024CA49103103C9FD
:1019D000CDE9060106F540700190029000208DF8D7
:1019E0000C008DF80D0008208DF80E0000BF3FE0C0
:1019F00006A810F834008DF80F0006A830F834005F
:101A0000010A8DF8101006A850F83400010C8DF86A
:101A1000111006A850F83400000E8DF8120006A828
:101A200000EBC40001798DF8131006A800EBC40088
:101A30008088010A8DF8141006A800EBC4004068E5
:101A4000010C8DF8151006A800EBC4004068000ECC
:101A50008DF8160001A9A84806F0D2FD054600BF82
:101A60002946A54806F064FE0128F9D1601CC4B2DD
:101A7000012CBDDB08B070BD2DE9F0418CB00746EC
:101A80000D461646002418229A49183106A807F078
:101A90003CFA07F5C0600190029000208DF80C0020
:101AA0008DF80D0008208DF80E00C5F30741280EB3
:101AB00061F31F20C5F3072100EB014000EB056136
:101AC0000991C6F30741300E61F31F20C6F30721C9
:101AD00000EB014000EB06610B9100BF3FE006A860
:101AE00010F834008DF80F0006A830F83400010A11
:101AF0008DF8101006A850F83400010C8DF8111064
:101B000006A850F83400000E8DF8120006A800EB6D
:101B1000C40001798DF8131006A800EBC40080887A
:101B2000010A8DF8141006A800EBC4004068010CEF
:101B30008DF8151006A800EBC4004068000E8DF863
:101B4000160001A96C4806F05BFD804600BF4146C7
:101B5000694806F0EDFD0128F9D1601CC4B2032CE0
:101B6000BDDB0CB0BDE8F081F0B587B007460D468F
:101B700000246049303103C9CDE9050107F5C06093
:101B80000090019000208DF808008DF809000820D1
:101B90008DF80A00C5F30741281661F31F20C5F32D
:101BA000072100EB014000EB0560069000BF3FE01D
:101BB00005A810F834008DF80B0005A830F83400A3
:101BC000010A8DF80C1005A850F83400010C8DF8AE
:101BD0000D1005A850F83400000E8DF80E0005A871
:101BE00000EBC40001798DF80F1005A800EBC400CC
:101BF0008088010A8DF8101005A800EBC400406829
:101C0000010C8DF8111005A800EBC4004068000E0F
:101C10008DF812006946384806F0F2FC064600BF0F
:101C20003146354806F084FD0128F9D1601CC4B264
:101C3000012CBDDB07B0F0BD2DE9F043A5B0804617
:101C40000D4616461F46002480222A49383105A831
:101C500007F05BF908F540700090019000208DF8C6
:101C600008008DF8090008208DF80A0010951295DB
:101C70001495169618961A961C971E9705A8C7666F
:101C80001E4941674942C1670A9149420C9100BF10
:101C900046E005A810F834008DF80B0005A830F8D0
:101CA0003400010A8DF80C1005A850F83400010C1E
:101CB0008DF80D1005A850F83400000E8DF80E00B8
:101CC00005A800EBC40001798DF80F1005A800EB02
:101CD000C4008088010A8DF8101005A800EBC4002C
:101CE0004068010C8DF8111005A800EBC400406895
:101CF000000E05E068CC000800640040F6C99A3B7D
:101D00008DF812006946D84806F07AFC814600BF7B
:101D10004946D54806F00CFD0128F9D1601CC4B233
:101D2000102CB6DB25B0BDE8F0832DE9F0418AB078
:101D300005460F4690460024CC4B0FCB06AE0FC68F
:101D400005F540700190029000208DF80C008DF890
:101D50000D0008208DF80E001FB944F250100690B7
:101D600002E045F250200690CDF81C8000243FE0B0
:101D700006A810F834008DF80F0006A830F83400DB
:101D8000010A8DF8101006A850F83400010C8DF8E7
:101D9000111006A850F83400000E8DF8120006A8A5
:101DA00000EBC40001798DF8131006A800EBC40005
:101DB0008088010A8DF8141006A800EBC400406862
:101DC000010C8DF8151006A800EBC4004068000E49
:101DD0008DF8160001A9A44806F012FC064600BFC3
:101DE0003146A14806F0A4FC0128F9D1601CC4B218
:101DF000022CBDDB0AB0BDE8F08130B587B00446E7
:101E00009A49103103C9CDE9050104F540700090ED
:101E1000019000208DF808008DF8090008208DF849
:101E20000A000598C0B28DF80B000598010A8DF8DC
:101E30000C100598010C8DF80D100598000E8DF80A
:101E40000E000698C1B28DF80F100698010A8DF8A1
:101E500010100698010C8DF811100698000E8DF8E0
:101E600012006946804806F0CBFB054600BF2946B4
:101E70007D4806F05DFC0128F9D107B030BD30B5D2
:101E800087B004467949183103C9CDE9050104F545
:101E900040700090019000208DF808008DF8090036
:101EA00008208DF80A000598C0B28DF80B0005983F
:101EB000010A8DF80C100598010C8DF80D1005988D
:101EC000000E8DF80E000698C1B28DF80F1006981E
:101ED000010A8DF810100698010C8DF81110069863
:101EE000000E8DF8120069465F4806F089FB054632
:101EF00000BF29465C4806F01BFC0128F9D107B059
:101F000030BD30B587B004465849203103C9CDE90A
:101F1000050104F540700090019000208DF8080044
:101F20008DF8090008208DF80A000598C0B28DF8D8
:101F30000B000598010A8DF80C100598010C8DF81E
:101F40000D100598000E8DF80E000698C1B28DF8A0
:101F50000F100698010A8DF810100698010C8DF8E4
:101F600011100698000E8DF8120069463E4806F0E2
:101F700047FB054600BF29463B4806F0D9FB012830
:101F8000F9D107B030BD30B587B0044637492831A4
:101F900003C9CDE9050104F54070009001900020CF
:101FA0008DF808008DF8090008208DF80A000598C2
:101FB000C0B28DF80B000598010A8DF80C10059839
:101FC000010C8DF80D100598000E8DF80E00069886
:101FD000C1B28DF80F100698010A8DF810100698FE
:101FE000010C8DF811100698000E8DF8120069464C
:101FF0001D4806F005FB054600BF29461A4806F0B5
:1020000097FB0128F9D107B030BD70B586B0044602
:102010000D46009504F540700190029000208DF867
:102020000C008DF80D0008208DF80E009DF80000C2
:102030008DF80F009DF801108DF810109DF802101A
:102040008DF811109DF803108DF8121001A90648A3
:1020500006F0D6FA064600BF3146034806F068FB94
:102060000128F9D106B070BD0064004020CD000801
:102070002DE9F04F8BB006460F4614461D46DDF89D
:1020800050804FF00009CA46CB46B5F5807F43D05B
:1020900012DC102D34D008DC012D25D0022D26D0E5
:1020A000042D27D0082D4FD127E0202D2BD0402DF7
:1020B0002CD0802D48D12CE0B5F5805F38D009DCDC
:1020C000B5F5007F2BD0B5F5806F2BD0B5F5006F3F
:1020D0003AD12AE0B5F5005F2DD0B5F5804F2DD06F
:1020E000B5F5004F30D12CE04FF000092DE04FF056
:1020F00001092AE04FF0020927E04FF0030924E02C
:102100004FF0040921E04FF005091EE04FF00609E9
:102110001BE04FF0070918E04FF0080915E04FF0F9
:10212000090912E04FF00A090FE04FF00B090CE02B
:102130004FF00C0909E04FF00D0906E04FF00E09D1
:1021400003E04FF00F0900E000BF00BFB8F5807F4B
:102150004BD01ADCB8F1100F3BD00CDCB8F1010FFA
:102160002BD0B8F1020F2BD0B8F1040F2BD0B8F15F
:10217000080F52D12AE0B8F1200F2DD0B8F1400F4E
:102180002DD0B8F1800F48D12CE0B8F5805F38D061
:1021900009DCB8F5007F2BD0B8F5806F2BD0B8F5EF
:1021A000006F3AD12AE0B8F5005F2DD0B8F5804F26
:1021B0002DD0B8F5004F30D12CE04FF0000A2DE0C3
:1021C0004FF0010A2AE04FF0020A27E04FF0030A1D
:1021D00024E04FF0040A21E04FF0050A1EE04FF022
:1021E000060A1BE04FF0070A18E04FF0080A15E056
:1021F0004FF0090A12E04FF00A0A0FE04FF00B0A05
:102200000CE04FF00C0A09E04FF00D0A06E04FF029
:102210000E0A03E04FF00F0A00E000BF00BFA7481E
:10222000304418B1B0F5806F1AD10CE04FF0090BB3
:1022300000208DF8120014208DF8040001214806BA
:1022400004F05FFE0DE04FF0090B0E208DF8120038
:1022500040208DF804000121000504F052FE00E04A
:1022600000BF00BFC4F3090078BBA012A0F5801026
:102270008038092834D2DFE800F0050A0F14191E4F
:1022800023292E000121084604F008FE29E001213F
:10229000022004F003FE24E00121042004F0FEFDEE
:1022A0001FE00121082004F0F9FD1AE001211020AF
:1022B00004F0F4FD15E00121202004F0EFFD10E012
:1022C0000121402004F0EAFD0BE009E0012180201B
:1022D00004F0E4FD05E00121080204F0DFFD00E068
:1022E00000BF00BF5A464946204604F01CFC5A462F
:1022F0005146204604F017FC45EA080009900220E8
:102300008DF828008DF8290000208DF82A00012082
:102310008DF82B0009A9204604F07AFB304605F021
:10232000DDFF00208DF81E008DF81F008DF82000C5
:102330008DF821008DF822008DF823008DF81A0009
:102340008DF81B000B208DF81C0007208DF81D0058
:102350007D2F22D008DC0A2F0FD0142F11D0322F5E
:1023600013D0642F29D114E0FA2F1AD0B7F5FA7FD1
:102370001BD0B7F57A7F20D11BE0C820ADF818003C
:102380001CE06420ADF8180018E02820ADF8180013
:1023900014E01420ADF8180010E01020ADF818007B
:1023A0000CE00820ADF8180008E00420ADF8180093
:1023B00004E00220ADF8180000E000BF00BF06A94D
:1023C000304605F0A4FF00208DF8130001208DF8A1
:1023D00014000020ADF80800ADF80A00ADF80C00BC
:1023E000ADF80E00ADF8100001208DF8150002A820
:1023F00006F017F800208DF8050003208DF8060080
:1024000001208DF8070001A804F08BFE01220221B3
:10241000304606F005FB0BB0BDE8F08F2DE9F04328
:1024200085B081460D4690461E46002400950195D4
:1024300000208DF808008DF809008DF80A6000BFB3
:1024400006E018F804100DF10B000155601C84B271
:10245000B442F6DB6946484606F0D2F80746002447
:1024600000BF3946484606F063F90128F9D105B0A6
:10247000BDE8F0832DE9F04186B080460D46164652
:102480001F4600240021404606F032FA18B9002009
:1024900006B0BDE8F08101AA0021404606F0A5F98A
:1024A000002405E00DF10F00005D3055601CC4B242
:1024B000BC42F7DB019828600120E9E7009CFFBFE0
:1024C000044A42F8201070470146024850F82100A3
:1024D00070470000740000202DE9F04F8BB00446D7
:1024E00089469246FC49504609F054FFFB49019049
:1024F0000AF0E2F8FA4902900AF00CFA8346F7492A
:1025000009F048FFF44903900AF0D6F8049008F067
:10251000FFFA059009F09EFE21F00041CDE9060189
:10252000484609F097FE0746DDE9062309F09CFBC3
:10253000054609F0FFF80A90E749504609F02AFFDE
:10254000E64901900AF0B8F8E64902900AF0E2F98B
:10255000E249039009F01EFFDF4904900AF0ACF84D
:10256000059008F0D5FA834609F074FE21F0004189
:10257000CDE90601484609F06DFE0546DDE9062372
:1025800009F072FB074609F0D5F80990D249504688
:1025900009F000FFD14901900AF08EF8D24902906B
:1025A0000AF0B8F9CD49039009F0F4FECA49049045
:1025B0000AF082F8059008F0ABFA834609F04AFE6B
:1025C00021F000480746484609F044FE05463A46D1
:1025D000434609F049FBCDE9060109F0ABF8089044
:1025E00008A807C884E807000BB0BDE8F08F37B52E
:1025F000009809F0E1FF0446009809F0DDFF054668
:10260000224629460120FFF737FA019809F0D4FF46
:102610000446019809F0D0FF0546224629460220CB
:10262000FFF72AFA029809F0C7FF0446029809F05A
:10263000C3FF0546224629460320FFF71DFA3EBD8B
:1026400037B5009809F09CFF044621460120FFF7AA
:102650008BFA019809F094FF044621460220FFF707
:1026600083FA029809F08CFF044621460320FFF705
:102670007BFA3EBD10B500210120FFF775FA00215D
:102680000220FFF771FA00210320FFF76DFA10BD59
:102690002DE9F04104460025944920460AF00CF843
:1026A0000746934909F076FE0646924909F072FE04
:1026B00005462846BDE8F0812DE9F0410446002595
:1026C0008A49204609F066FE07468A4909F0F4FF68
:1026D0000646874909F0F0FF05462846BDE8F08127
:1026E0000FB597B00020169015901490139012908B
:1026F000119010900F900E900D900C90DDE9181035
:102700000AF09AF9099009F0A5FD21F00041CDE900
:102710000A0109F00FF8169077491A980AF098F80C
:1027200001D275481A9075481899006809F0F4FEAE
:1027300039D0724918980860002117980AF088F873
:1027400017D86F496F4808F0B5F808901A98FFF746
:10275000B3FF4FF07F51069009F0AEFF079001469E
:1027600009A8089AFFF7B8FE09A807C8FFF73FFFB6
:1027700016E06349644808F09DF808901A98FFF73E
:102780009BFF4FF07F51069009F096FF079001469E
:1027900009A8089AFFF7A0FE09A807C8FFF727FFB6
:1027A00000205A4908601A9809F054FDCDE9080143
:1027B000179809F04FFD21F00041CDE90601DDE950
:1027C000082309F0A5F8CDE90A0108F0B3FF159038
:1027D000159809F03FFD00224FF08043CDE9040138
:1027E00008F054FACDE908014FF07C501A9909F02D
:1027F00063FF059009F02EFDCDE90601DDE9082310
:1028000009F032FACDE90A0108F094FF13904FF075
:102810008040139909F050FF0B90169909F018FFAA
:1028200078D24FF08040139909F046FF0B9016992B
:102830000AF070F81290179809F00CFD21F0004191
:10284000CDE90801129809F005FDCDE90601DDE9A1
:10285000082309F05DF8CDE90A0108F06BFF149038
:102860002A481599006809F0F3FE54D827480068F3
:1028700009F0F0FC00224FF08043CDE9000108F0A0
:1028800005FACDE904014FF07C501A9909F014FFC4
:10289000019009F0DFFCCDE90201DDE9042309F034
:1028A000E3F9CDE90801169809F0D4FCCDE9060159
:1028B000DDE9082309F0E4FBCDE90A0108F03AFF5D
:1028C000119013491148006809F0F0FC0B901A9917
:1028D00009F0F2FE10907FE1DB0F49400000344325
:1028E000000016430000B4420000F041D4C2EE43A1
:1028F0006EDBAA410000FA4400409C4580000020A5
:1029000000008C4200007AC400007A447C00002061
:102910000AD7233CBAE0FE481599006809F098FFF1
:102920003ED2DDE9141009F0C1FC0B90F8480168B3
:102930000B9809F08DFF33D8F548159900680AF017
:102940007BF8019009F086FCCDE90401179809F0A5
:1029500081FC21F00041CDE90201DDE9042309F009
:1029600083F9CDE90801139916980AF065F80590E6
:1029700009F070FCCDE90601DDE9082309F080FBD0
:10298000CDE90A0108F0D6FE1190179809F062FC13
:1029900021F00041CDE90A0108F0CCFE10901BE1C6
:1029A000DDE9141009F082FC0B90D94801680B98FE
:1029B00009F04EFE56D24FF08040159909F07CFE8A
:1029C0000A90149909F072FC0B90D14801680B9899
:1029D00009F03EFF46D84FF08040159909F06CFE93
:1029E0000190149909F062FC0290C94801680298AC
:1029F0000AF022F8039009F02DFC00224FF08043EA
:102A0000CDE9040108F042F9CDE908014FF07C500E
:102A10001A9909F051FE059009F01CFCCDE9060158
:102A2000DDE9082309F020F9CDE90A0108F082FE6A
:102A300011904FF08040159909F03EFE08901499CE
:102A400009F034FC0990B2480168099809F0F4FFD4
:102A5000B0490A9009F0F0FF0B901A9909F02CFE8A
:102A60001090B9E04FF08040159909F025FE0A90CA
:102A7000149909F01BFC0B90A54801680B9809F00C
:102A8000E7FD8CD2002011901090A5E04FF080401F
:102A9000139909F011FE0B90169909F0D9FEE0D8B0
:102AA0009B481599006809F0D3FD35D8984800680F
:102AB00009F0D0FB00224FF08043CDE9000108F07F
:102AC000E5F8CDE904014FF07C501A9909F0F4FDC6
:102AD000019009F0BFFBCDE90201DDE9042309F013
:102AE000C3F8CDE90801169809F0B4FBCDE9060159
:102AF000DDE9082309F0C4FACDE90A0108F01AFE5D
:102B0000119084498248006809F0D0FB0B901A9913
:102B100009F0D2FD10905FE07D481599006809F03A
:102B200097FE4AD24FF08040159909F0C5FD0B90F1
:102B3000774801680B9809F08BFE3ED84FF0804033
:102B4000159909F0B9FD029071480168029809F0E1
:102B500073FF039009F07EFB00224FF08043CDE924
:102B6000040108F093F8CDE908014FF07C501A9960
:102B700009F0A2FD059009F06DFBCDE90601DDE944
:102B8000082309F071F8CDE90A0108F0D3FD11908E
:102B90004FF08040159909F08FFD09905C4801685D
:102BA000099809F049FF5B490A9009F045FF0B902D
:102BB0001A9909F081FD10900EE04FF080401599B0
:102BC00009F07AFD0B90524801680B9809F040FD1E
:102BD00002D20020119010904E494D48006809F033
:102BE00065FB4B4908600021179809F031FD0DD2B3
:102BF0001699189809F020FF0B90119909F056FBCF
:102C00000F90109880F00040109008E016991898E6
:102C100009F04CFB0B90119909F00EFF0F90FEF795
:102C200080FC0B900F9909F075FE0E903A490E98B2
:102C300009F042FD0B90109909F038FB0D900D98AA
:102C400009F008FB21F000410022344BCDE90A01D4
:102C500009F008F901D200200D9031490D9809F0D2
:102C6000F7FC11D800210D9809F0F2FD0CD84FF0B7
:102C70008041169809F08EFB0B90119909F0E8FD40
:102C800002D827480D9015E026490D9809F0E0FD7F
:102C900010D800210D9809F0DBFC0BD24FF08041D9
:102CA000169809F077FB0B90119909F0D1FD01D826
:102CB0001C480D900D9817901B49179809F0FCFCC3
:102CC000079009F0C7FA21F000410022174BCDE927
:102CD000080108F061FDCDE90A0108F02BFD0C9018
:102CE00013490C9809F0E8FC4FF07C510A901798B2
:102CF00009F0E2FC09900A9909F09EFE0B90FFF79B
:102D0000DBFC0C490860179880F000400B9013E042
:102D10007C0000200AD7233C0000204100409F4057
:102D200000009643000096C3295C8F3D0000594087
:102D3000D7B35D3F682C0120FFF7BEFC8249486095
:102D400082490C9809F0B8FC4FF07C510A90179812
:102D500009F0B2FC09900A9909F0A8FA0B90FFF764
:102D6000ABFC79498860FEF768FC00210B9009F004
:102D70006FFD60D2FEF761FC4FF07E51069009F0C6
:102D80009BFC7349079009F005FB7249089009F014
:102D900093FC0021099009F08FFC0A90FFF78CFC4E
:102DA0000B906948006801460A900B9809F07EFA7A
:102DB00065490860FEF741FC4FF07E51069009F02E
:102DC0007BFC6349079009F0E5FA6249089009F035
:102DD00073FC6149099009F06FFC0A90FFF76CFCE5
:102DE0000B905948406801460A900B9809F05EFA2A
:102DF00055494860FEF721FC4FF07E51069009F0DE
:102E00005BFC5349079009F0C5FA5249089009F054
:102E100053FC5149099009F04FFC0A90FFF74CFC14
:102E20000B904948806801460A900B9809F03EFAD9
:102E30004549886066E0FEF700FC00210B9009F030
:102E400007FC5FD2FEF7F9FB4FF07E51069009F0C8
:102E500033FC3F49079009F09DFA3E49089009F07C
:102E60002BFC3D49099009F027FC0A90FFF724FC50
:102E70000B903548006801460A900B9809F016FA45
:102E800031490860FEF7D9FB4FF07E51069009F0FA
:102E900013FC2F49079009F07DFA2E49089009F09C
:102EA0000BFC2D49099009F007FC0A90FFF704FC80
:102EB0000B902548406801460A900B9809F0F6F9F6
:102EC00021494860FEF7B9FB4FF07E51069009F0AA
:102ED000F3FB1F49079009F05DFA1E49089009F0BD
:102EE000EBFB0021099009F0E7FB0A90FFF7E4FBF8
:102EF0000B901548806801460A900B9809F0D6F9A6
:102F000011498860104807C8FFF79AFBDDE91810DF
:102F100009F09EFC06D2FEF704FB0B90199909F00C
:102F200097FC0BD9DDE9181009F092FB08D8FEF7E1
:102F3000F8FA0B90199909F08BFB01D8FFF79AFB6F
:102F400001201BB000BD0000682C0120D7B35D3FFD
:102F500000003443DB0F49400000FA430CB5002069
:102F6000019000907248006840F480307049086019
:102F700000BF6F48006800F4003000900198401CCA
:102F80000190009818B90198B0F5A06FF1D1684888
:102F9000006800F4003010B10120009001E0002032
:102FA00000900098012846D161484030006840F008
:102FB00080505F49403108605E48006840F48040BE
:102FC0005C4908605A48083000685949083108606F
:102FD0000846006840F4004008600846006840F475
:102FE000A05008605448091F0860081F006840F09E
:102FF0008070091F086000BF4D48006800F0007035
:103000000028F9D040F205604C4908604848083073
:10301000006820F00300464908310860084600684F
:1030200040F00200086000BF41480830006800F02E
:103030000C000828F8D10CBD10B53D48006840F0E0
:1030400001003B49086000203949083108603848D0
:1030500000683B490840364908603A48091D086045
:10306000081F006820F48020091F086000203049F4
:103070000C310860FFF772FF4FF0006032490860C2
:1030800010BD70B500200022022300240221284D2B
:1030900008352D6805F00C0020B1042806D008285A
:1030A00034D107E0294D2A4E356033E0294D284EB2
:1030B00035602FE01E4D2D1D2D68C5F380541C4D2D
:1030C0002D1D2D6805F03F0154B1224DB5FBF1F5E2
:1030D000174E361D3668C6F3881605FB06F209E062
:1030E0001A4DB5FBF1F5124E361D3668C6F388163B
:1030F00005FB06F20E4D2D1D2D68C5F301456D1C17
:103100006B00B2FBF3F5124E356003E00F4D104E2D
:10311000356000BF00BF064D08352D68C5F30315A7
:103120000D4E705D0A4D2D68C540094E356070BD6D
:10313000003802400070004008544007003C024044
:10314000FFFFF6FE1030002408ED00E00024F4003C
:103150008400002000127A0088000020094880477F
:1031600009480047FEE7FEE7FEE7FEE7FEE7FEE769
:10317000FEE7FEE7FEE7FEE704480549054A064B81
:10318000704700003930000889010008604A0120BA
:1031900060500120604C0120604C01205748802184
:1031A00002E0491E002204C00029FAD1544A554BBE
:1031B0001A601A46126822F007021A600022524B67
:1031C0001A807047704710B50446204603F0A9FBEB
:1031D00010BD10B50446204603F0A4FB10BD10B589
:1031E00003F0A1FB10BD10B503F09FFB10BD70B53F
:1031F000044610464FF080750560051F28462C6078
:10320000424E051F28462E604FF01236051F2846F5
:103210002E604FF00336051F28462E604FF0023611
:10322000051F28462E607610051F28462E60051FB4
:10323000284629604FF01136051F28462E604FF0B2
:103240001036051F28462E604FF00936051F284608
:103250002E604FF00836051F28462E604FF00736C7
:10326000051F28462E604FF00636051F28462E60A3
:103270004FF00536051F28462E604FF00436051F17
:1032800028462E6070BD10B503F050FB10BD10B580
:103290000446204603F04BFB10BD10B503F048FB7D
:1032A00019480088401C18490880084600880A28E8
:1032B00003D30020088003F04FFA10BD10B500F0D2
:1032C0002BF8044612480078401C1149087020462B
:1032D00000F026F800F003FE00F007FD10BD411ECF
:1032E0004FF0E0225161FF220A49CA7200214FF0DB
:1032F000E02291610721116170470000742C0120C8
:10330000742E0120980000209C00002053600008CB
:10331000B900002018ED00E0EFF3108072B670479E
:1033200080F3108870471F484FF0FF0101700020A4
:1033300080F309881C48012101701C484FF080511E
:10334000016062B6FEE719484FF080510160704796
:1033500016484FF080510160704772B6EFF3098054
:1033600028B1203880E8F00F11490968086000B5DD
:10337000104880475DF804EB0F4810490A78027046
:103380000B480F490A680260106890E8F00F20307F
:1033900080F309884EF0040E62B6704772B670472B
:1033A00062B6704722ED00E0C600002004ED00E0A8
:1033B000CC00002087320008BB000020BC000020A9
:1033C000D40000201D481E481E481F481F482048A2
:1033D000204821482148224822482348234824489D
:1033E000244825482548264826482748274828486D
:1033F0002848294829482A482A482B482B482C483D
:103400002C482D482D482E482E482F482F4830480C
:1034100030483148314832483248334833483448DC
:1034200034483548354836483648374837483848AC
:1034300038483948394800BF7047000050CD00086F
:1034400054CD00085ACD00085CCD000858CD0008C6
:103450005ECD000860CD000862CD000864CD000894
:1034600066CD000868CD00086ACD00086CCD000864
:103470006ECD000870CD000872CD000874CD000834
:1034800076CD000878CD00087ACD00087CCD000804
:103490007ECD000880CD000882CD000884CD0008D4
:1034A00086CD000888CD00088ACD00088CCD0008A4
:1034B0008ECD000890CD000892CD000894CD000874
:1034C00096CD000898CD00089ACD00089CCD000844
:1034D0009ECD0008A0CD0008A2CD0008A6CD000812
:1034E000A8CD0008AACD0008ACCD00083C450120BD
:1034F000BC490120B0CD0008B2CD0008B4CD000811
:10350000B6CD0008B8CD0008BACD0008BCCD000883
:10351000BECD0008C0CD0008AECD0008C2CD000869
:103520000146002002E0491C421CD0B20A78002A61
:10353000F9D170472DE9F04105460E4614460027A3
:1035400025B9042020700020BDE8F0811EB90C20B0
:1035500020700020F8E7F748007818B1112020709B
:103560000020F1E72878012808D0022807D0032896
:1035700002D0042804D100E000BF00BF00BF03E078
:10358000012020700020DFE700BFFFF7C5FE0746DF
:10359000686930603068FFF7C3FF80463846FFF740
:1035A000BFFE002020704046CEE72DE9F0410546E1
:1035B0000E46144600271DB904202070BDE8F08196
:1035C00016B90C202070F9E7DA48007810B1122003
:1035D0002070F3E72878012808D0022807D00328B4
:1035E00002D0042804D100E000BF00BF00BF02E009
:1035F00001202070E2E700BFFFF78EFE07466E61F4
:103600003846FFF78DFE0020207000BFD6E7F0B5EA
:10361000024612F8384F95785678383A0B461868B3
:103620000FE000F10B073F5DB74300F10B0C0CF806
:10363000047067463F5D17B9877AAF4387721B1DD9
:1036400018680028EDD1F0BDBB49BC4A1278885CEF
:10365000BB49095CB84A515C01EBC001B94A117021
:10366000704710B50024FFF757FE0446B1480078B4
:10367000F8B9B5480078E0B9FFF7E6FFB348B149BB
:10368000097850F82100B2490860AE480078B14985
:10369000097888420DD0AE480068C06B401CAC4928
:1036A0000968C863AC480068401CAB490860FFF774
:1036B0004AFE2046FFF734FE10BD70B501460024D7
:1036C000A64D2D68EC61A54C246821620B46186854
:1036D0001BE0A24C246894F8385000F10B04645DA0
:1036E0009E4D2D6895F839502C439C4D2D6895F8CA
:1036F000386000F10B05AC55847A984D2D6895F82B
:103700003A502C4384721B1D18680028E1D1934C59
:10371000246894F838208A4CA45C904D2D6895F864
:103720003950AC43864DAC542C46A45C44B98B4C08
:10373000246894F83A50814C2478AC437F4D2C7027
:1037400070BD2DE9FF4F83B081460E461546109F90
:1037500000200090B9F1000F05D10420387000203E
:1037600007B0BDE8F08FD9F8000018B90420387010
:103770000020F5E71EB9042038700020F0E71DB9DD
:10378000042038700020EBE700203060CA46DAF8E9
:10379000004015E02078062807D2DFE800F0060494
:1037A0000503070807E006E005E000BF00BF0120B1
:1037B00038700020D4E700BF0AF1040ADAF80040AC
:1037C000002CE7D15B48007818B102203870002047
:1037D000C6E75D48007818B10D2038700020BFE7BB
:1037E000FFF79AFD00900020029083460190CA46A0
:1037F000DAF8004066E02078062853D2DFE800F0CF
:1038000052172A035354208960B12089401E208119
:1038100010C601200290002001C50BF101001FFA23
:1038200080FB03E0019840F00100019045E06068F2
:1038300058B1606801C50020606010C60120029088
:103840000BF101001FFA80FB03E0019840F0020039
:10385000019032E0D4F80480B8F81600E8B1D8F846
:103860001010081DC8F81000086801C5D8F8081025
:10387000D8F81000884203D1D8F80400C8F8100026
:10388000B8F81600401EA8F8160010C601200290D5
:103890000BF101001FFA80FB03E0019840F00400E7
:1038A00001900AE000BF00BF0098FFF739FD00203B
:1038B000306001203870584652E700BF0AF1040A10
:1038C000DAF80040002C96D10298012808D1002097
:1038D00030600098FFF724FD0020387058463FE71D
:1038E0001E48006890F83400019941F080010843B7
:1038F0001A49096881F8340000201849096881F8DC
:10390000350016490698096808634846FFF7D5FE52
:103910000098FFF705FDFFF7A4FEFFF7FDFC009000
:103920000E48006890F83500D0B1012831D0022847
:103930002ED116E0B9000020C4CD0008BD00002043
:10394000BE000020BC000020BA0000206438012026
:10395000D4000020BB000020A0000020CC000020EC
:1039600000BFFE480068C4693CB110C6002030604A
:103970000BF101001FFA80FB09E00120F7490968FB
:1039800081F835004946F5480068FFF740FE06E03B
:1039900000BF4946F1480068FFF739FE00BF00BF8D
:1039A000EE48006890F8350020B1012828D00228A0
:1039B00025D11FE0207806280DD2DFE800F00C06A4
:1039C00007030D0E002001C510E000BFE3480068AA
:1039D000406A01C50AE000BF00BF0098FFF7A0FCE5
:1039E00000203060012038705846B9E600BF002042
:1039F00038700AE0002001C50E20387005E000BFD5
:103A0000002001C50A20387000BF00BF0020D34944
:103A1000096881F83400D149096881F83500CF4937
:103A20000968C861CD4909680862CC4909684862DB
:103A30000098FFF775FC584692E67CB5002514E027
:103A40006946284602F0CDF9064666B9C44850F8E2
:103A5000254044B1012C06D0D4E9020100EB8100DD
:103A6000A0640198E064681CC5B23F2DE8D97CBD14
:103A7000002400BF02E0142002F0F8FAB9480078F0
:103A80000028F8D0B84800686421B0FBF1F0B649CE
:103A900008600846006828B90020B4490870FF2073
:103AA00002F0EAF900BFFFF737FC0446B0480068AF
:103AB000B04908600020AE4908602046FFF730FC9E
:103AC000AC480068A8490968B0FBF1F0C0F1640097
:103AD000A6490870FFF787FBFFF7AFFF0A2002F047
:103AE000C5FAE0E700B587B0032000218022A24B91
:103AF000CDE90132CDE903104FF6FE703E239F4A17
:103B00000090AFF2930001F057FF06AA9CA13E205F
:103B100002F0DAF807B000BD002400BF00BFFFF7D5
:103B2000FBFB044692480068401C9149086020460F
:103B3000FFF7F6FBFFF753FBF1E700B587B0032073
:103B400000218022924BCDE90132CDE903104FF6DE
:103B5000FF703F238F4A0090AFF2430001F02CFF2B
:103B600006AA8DA13F2002F0AFF807B000BD04E027
:103B7000002200F8012B4A1E91B20029F8D17047AB
:103B800070B54FF4B4618848FFF7F1FF002411E0ED
:103B9000601C85B204EB4400834901EBC00305EBD4
:103BA000450001EBC006002018705E607FA05861E0
:103BB000601C84B23B2CEBD304EB44007A4901EB4C
:103BC000C00300201870586078A0586108467849F2
:103BD000086070BD70B54FF430617648FFF7C7FFDD
:103BE0004FF480715E48FFF7C2FF002413E0601CB1
:103BF000C5B204EB440000EBC4006E4901EBC00306
:103C000005EB450000EBC50001EBC0065E6167A057
:103C10001865601CC4B21F2CE9D304EB440000EB10
:103C2000C400644901EBC003002058615FA018651F
:103C30000020614908605F486049086070BD00214C
:103C40005F4A1170002004E000215E4A1154411CBB
:103C5000C8B20828F8D300215B4A11705B4A117082
:103C60005B4A11603D4A1160704700205949086065
:103C700059490870594908705949087059490870DC
:103C8000594908603A4908603A490860364908606D
:103C900034490870704710B5FFF780FAFFF7E5FF69
:103CA000FFF7CDFFFFF796FFFFF76AFF00F0E4FE96
:103CB00001F00FF801F03BFBFFF73FFFFFF712FFAA
:103CC00002F0A4FDFFF77EFAFFF77CFB10BD45482C
:103CD0000078012808D140480078FF2804D23E48E7
:103CE0000078401C3C490870704710B500243D48DE
:103CF0000078012830D1FFF70FFB044636480078E2
:103D000020B135480078401E3349087032480078A9
:103D1000F8B932480078E0B9FFF796FC10482B4913
:103D2000097850F821002A49086028480078264977
:103D3000097888420DD026480068C06B401C244991
:103D40000968C86328480068401C27490860FFF7D5
:103D5000FFFA2046FFF7E4FA10BD0000CC00002077
:103D600064380120B8000020B0000020AC00002022
:103D7000C8000020B4000020643401206036012017
:103D800075432F4F532D494920537461740000002F
:103D9000643601206038012075432F4F532D494967
:103DA0002049646C65000000742E01203F00000073
:103DB000A400002064390120D8000020D000002099
:103DC000BD000020BE000020BB000020BC00002081
:103DD000D4000020E8000020B9000020BA00002034
:103DE000C7000020C6000020A000002010B500245D
:103DF000FE480078012811D1FFF78EFA0446FC48EE
:103E0000007840B9FB480078FF2804D2F9480078D0
:103E1000401CF84908702046FFF782FA10BD10B523
:103E20000024F2480078012821D1FFF775FA0446F2
:103E3000F0480078C0B1EF480078401EED490870A6
:103E40000846007860B9EA48007828B92046FFF7AC
:103E500067FAFFF706FC0AE02046FFF761FA06E082
:103E60002046FFF75DFA02E02046FFF759FA10BD41
:103E700010B5DE48007890B9FFF7E6FBDE48007821
:103E8000DE490870DE48DC49097850F82100DD4938
:103E9000086008460068DC490860FFF744FA10BD76
:103EA00010B50024022002F0E1F8FFF735FA0446CD
:103EB0000020D64908602046FFF732FA0A2002F0B7
:103EC000D5F8FFF729FA0446D0480068D0490860C1
:103ED0000120D04908702046FFF722FA10BD70B5C6
:103EE0000026FFF7DAF9FFF717FA0646CA48006816
:103EF000401CC94908603046FFF712FABB480078F9
:103F0000012853D1C548007820B1012804D00228E7
:103F100009D103E001250BE0002509E0012501207E
:103F2000BE49087004E001250020BC49087000BFAC
:103F300000BF05B970BDBA48046833E0FFF7ECF97B
:103F40000646206B50B3206B401E2063206B28BBBD
:103F500094F8340000F0370040B114F8340F00F04A
:103F6000C800207001206070343C02E0002084F81A
:103F7000350094F8340000F0080078B93834A0789F
:103F8000A84909780843A74908702078A649085C21
:103F90006178084314F83819A34A505464693046CC
:103FA000FFF7BEF994F836003F28C7D100BFC1E73C
:103FB00040F223107047704710B590F8382001F197
:103FC0000B039B5C90F83940A34301F10B04A3540D
:103FD00023469B5C23B98B7A90F83A40A3438B72BB
:103FE00010BD2DE9F04F05460F4690469946A87A38
:103FF0008E490E5C05F10B00805D11F800B00BEBF3
:10400000C60000F0FF0A7E4850F82A400020243401
:10401000E0602760207C20EA0800207484F811907A
:10402000207C243C00F0080068B994F83A007D49EF
:10403000097808437B4908707B48805D94F8391003
:1040400008437949885529462046FFF7B5FF206A7D
:1040500020B12046216AFFF7DAFAE5615046BDE853
:10406000F08F10B5684A1268D061674A126892F8FA
:10407000383000F10B02D25C634B1B6893F8393087
:104080001A43614B1B6893F8384000F10B031A5533
:10409000827A5D4B1B6893F83A301A4382725A4A0F
:1040A000126892F83810604A525C574B1B6893F8BC
:1040B00039309A435C4B5A541A46525C42B9524AC0
:1040C000126892F83A30574A12789A43554B1A7050
:1040D00010BD014600228A72002005E0002301F194
:1040E0000B021354421CD0B20828F7D3704705E0E6
:1040F00011F8013B00F8013B531E9AB2002AF7D198
:1041000070472DE9F84F05460F4690469946DDE980
:104110000AAB00200090FFF7FFF8009044480468C5
:10412000002C61D01C3454F8080C414908600098F8
:10413000FFF7F6F844F81C7CA57600202076607620
:10414000606144F818BC44F810AC44F8148C0C9826
:1041500024F80C0C24F80A9C0020E077E810207763
:1041600005F00700E076217F01208840A077E17EFE
:10417000012088406077002020606060E060A060DF
:104180002062A0626062E0622063AFF2E0306063B0
:104190001C3C002606E0002104F1540040F82610E3
:1041A000701CC6B2002EF6D02046FFF770F82046ED
:1041B000FFF709F8FFF7B0F80090114840F82540E4
:1041C0001748006860610020A0611548006810B1C0
:1041D000134800688461124804603834A07811499B
:1041E000097808430F4925E039E00000C6000020A7
:1041F000B9000020BA000020BC000020BB00002055
:1042000064380120D4000020CC000020C800002029
:10421000B0000020B8000020E8000020DC000020F2
:10422000D8000020BD000020BE000020C4CD000842
:10423000D0000020087020780B49085C61780843A2
:1042400014F83819084A505408480078401C0749A7
:1042500008700098FFF764F80020BDE8F88F009818
:10426000FFF75EF84220F8E7BE000020C7000020FC
:104270002DE9F05F04460F4691461E464FF0000BB5
:1042800024B96E2030700020BDE8F09F207805280A
:1042900003D0012030700020F6E709F0800ABAF15F
:1042A000000F04D029F080094FF0010801E04FF021
:1042B000000800203070FFF72FF88346B9F1000F97
:1042C0002CD0B9F1010F3BD0B9F1020F03D0B9F1F5
:1042D000030F46D111E0208900EA0705BD4206D14F
:1042E000B8F1010F05D12089A843208101E0702099
:1042F00030705846FFF714F83AE0208900EA0705C5
:1043000035B1B8F1010F05D12089A843208101E022
:10431000702030705846FFF703F829E0208927EA1B
:104320000005BD4206D1B8F1010F05D1208928430F
:10433000208101E0702030705846FEF7F1FF17E051
:10434000208927EA000535B1B8F1010F05D1208990
:104350002843208101E0702030705846FEF7E0FFCE
:1043600006E05846FEF7DCFF00256F20307000BFE6
:1043700000BF284688E72DE9F04106460D46002794
:10438000F748007820B1102028700020BDE8F081A7
:10439000FEF7C2FF0746F348046884B1006840682E
:1043A000F049086005202070268100206060EEA0A2
:1043B000E0603846FEF7B4FF0020287004E038467D
:1043C000FEF7AEFF722028702046DFE730B50146C9
:1043D0004A6808682AB9CC68606028B10025456041
:1043E00002E0106000B142608B6800259D6230BD24
:1043F000F0B506460F46B46800202C346060278074
:10440000207A00F0DF00207200206072207A2C3CBD
:1044100088B93834A078D54909780843D349087059
:104420002078D349085C6178084314F83819D04AD9
:104430005054012500E000253046FFF7C7FF28460D
:10444000F0BD2DE9F0470446894615464FF0000AB5
:1044500024B96E2028702046BDE8F087C048007857
:1044600018B10F2028702046F6E72078052803D0E1
:10447000012028702046EFE7FEF74EFF8246606875
:1044800008B1012700E00027B9F1000F03D0B9F10E
:10449000010F3CD119E08FB9B3A0E060002020707B
:1044A000B0480068606000202081AE48046050463B
:1044B000FEF736FF00202870002605E05046FEF784
:1044C0002FFF49202870264628E0D4F8048005E014
:1044D00000214046FFF78CFFD8F80080B8F1000FAC
:1044E000F6D1A1A0E060002020709E4800686060C6
:1044F000002020819B4804605046FEF711FF012FE9
:1045000001D1FFF7AEF800202870002606E05046E3
:10451000FEF706FF07202870264600BF00BF304682
:104520009AE72DE9F04105460E461446002725B9C5
:104530006E2020700020BDE8F0811EB90C20207094
:104540000020F8E78648007818B11120207000207C
:10455000F1E7FEF7E1FE07462878052806D0384641
:10456000FEF7DEFE012020700020E4E7E8683060FE
:104570003068FEF7D5FF80463846FEF7D1FE0020B2
:1045800020704046D7E72DE9F04105460E46144617
:1045900000271DB96E202070BDE8F08116B90C20EF
:1045A0002070F9E76E48007810B112202070F3E710
:1045B000FEF7B2FE07462878052805D03846FEF7F4
:1045C000AFFE01202070E7E7EE603846FEF7A8FE58
:1045D0000020207000BFDFE7F0B51446059E654F50
:1045E0003F6897F8347047F02007DFF888C1DCF89F
:1045F00000C08CF834700027DFF878C1DCF800C008
:104600008CF835705B4F3F683E635A4F3F68B96224
:104610000C828B74574F3F688F6047680F6000278C
:104620004F60C860456805B169604160514F3F689F
:1046300097F838204E4FBF5CDFF838C1DCF800C077
:104640009CF839C027EA0C07DFF824C10CF8027087
:104650006746BF5C5FB9474F3F6897F83AC0434F22
:104660003F7827EA0C07DFF804C18CF80070F0BD32
:104670002DE9F04F89B005460F4691469A46129EA5
:10468000002002902DB96E203070002009B0BDE8E6
:10469000F08F3348007818B1022030700020F5E721
:1046A0003548007818B10D2030700020EEE72878EA
:1046B000052803D0012030700020E7E709F0800BC7
:1046C000BBF1000F04D009F07F094FF0010801E0B1
:1046D0004FF00008FEF720FE0290B9F1000F59D00C
:1046E000B9F1010F79D0B9F1020F03D0B9F1030F7D
:1046F00072D120E0288900EA0704BC420FD1B8F14A
:10470000010F02D12889A04328811A4800688485B6
:104710000298FEF705FE002030702046B6E74B46B3
:104720003A4604A92846CDF800A0FFF755FF0298A5
:10473000FEF7F6FD79E0288900EA0704F4B1B8F144
:10474000010F02D12889A04328810A480068848586
:104750000298FEF7E5FD00203070204696E7000045
:10476000B9000020A80000203F000000BD0000208C
:10477000BE000020CC000020BA0000204B463A4684
:1047800004A92846CDF800A0FFF726FF0298FEF7FF
:10479000C7FD4AE0288927EA0004BC420FD1B8F1DE
:1047A000010F02D1288920432881C74800688485E9
:1047B0000298FEF7B5FD00203070204666E74B46B4
:1047C0003A4604A92846CDF800A0FFF705FF029855
:1047D000FEF7A6FD29E000E01FE0288927EA000493
:1047E0007CB1B8F1010F02D1288920432881B64855
:1047F000006884850298FEF793FD00203070204603
:1048000044E74B463A4604A92846CDF800A0FFF7F6
:10481000E3FE0298FEF784FD07E00298FEF780FDB4
:1048200000246F203070204630E700BFFEF719FFEC
:10483000FEF772FD0290A448006890F8350020B39E
:10484000A148006890F83500039000209E4909684F
:1048500081F8350004A8FFF7B9FD00209A490968DE
:1048600081F834000298FEF75BFD002403980128CC
:1048700005D0022802D10E20307003E000BF0A20CC
:10488000307000BF00BF204600E78F480068848D6D
:10489000B8F1010F1ED1B9F1000F0ED0B9F1010F1F
:1048A0000CD0B9F1020F03D0B9F1030F0AD100E027
:1048B00000BF2889A04328810BE000BF288920433E
:1048C000288106E00298FEF72BFD6F203070002053
:1048D000DCE600BF0298FEF723FD00203070204682
:1048E000D4E670B50025FEF717FD0546764800684A
:1048F000848D2846FEF714FD204670BD2DE9FC5F2F
:104900000446894692461E460020009024B96E2037
:1049100030700020BDE8FC9F2078052803D00120DE
:1049200030700020F6E7FEF7F7FC0090BAF1000FB8
:1049300003D0BAF1010F0AD104E0208920EA09006E
:1049400020810BE0208940EA0900208106E00098E0
:10495000FEF7E6FC712030700020DBE700BF4FF06F
:10496000000B656855E0A87C40B3012838D00228C8
:1049700002D0032844D111E02089298A00EA0107E6
:10498000288AB84209D139462846FFF731FD8046CA
:10499000B8F1010F01D14FF0010B38E02089298ACD
:1049A00000EA01074FB139462846FFF721FD80464E
:1049B000B8F1010F01D14FF0010B28E0288A2189BD
:1049C00020EA0107288AB84209D139462846FFF76C
:1049D0000FFD8046B8F1010F01D14FF0010B16E039
:1049E000288A218920EA01074FB139462846FFF776
:1049F000FFFC8046B8F1010F01D14FF0010B06E03A
:104A00000098FEF78DFC6F203070002082E700BF19
:104A10002D68002DA7D10098FEF782FCBBF1010F95
:104A200001D1FEF71EFEFEF777FC00902089019071
:104A30000098FEF775FC0020307001986AE72DE9B8
:104A4000F04104460D46002724B96E20287000204E
:104A5000BDE8F0812078052803D0012028700020CF
:104A6000F6E7FEF759FC074626893846FEF758FC5C
:104A7000002028703046EBE72DE9F0415021134823
:104A8000FFF775F800250EE0681C86B20F4800EBB2
:104A9000051400EB0617002020706760AFF2383075
:104AA000E060681C85B2042DEED3084800EB0514C5
:104AB000002020706060AFF25030E060034804498D
:104AC0000860BDE8F0810000CC0000201434012013
:104AD000A80000202DE9FC5F05460F4691461E46C2
:104AE0000020009025B9622030700020BDE8FC9FB6
:104AF00005F0030018B1622030700020F6E7022FA5
:104B000003D25B2030700020F0E7B9F1040F03D22C
:104B10005C2030700020E9E7FEF7FEFB00907F4844
:104B20000468006820B17D48006840687B490860DF
:104B30000098FEF7F5FB1CB95A2030700020D5E72D
:104B4000AA46A846781E01904FF0000B05E0C84425
:104B5000CAF80080C2460BF1010B01988345F6D3D9
:104B60000020CAF80000256065602761E760C4F88E
:104B7000089030702046B9E72DE9F04104460D4613
:104B8000002724B9602028700020BDE8F081FEF7DE
:104B9000C3FB0746206960B16668306860602069C1
:104BA000401E20613846FEF7BBFB002028703046CF
:104BB000EBE73846FEF7B4FB5D2028700020E4E701
:104BC0002DE9F04106460D461446002726B960201F
:104BD00020700020BDE8F0811DB90C20207000205D
:104BE000F8E74F48007818B1112020700020F1E755
:104BF000FEF792FB0746706928602868FEF790FC74
:104C000080463846FEF78CFB002020704046E1E7E6
:104C10002DE9F04105460E46144600271DB96020D7
:104C20002070BDE8F08116B90C202070F9E73C48EF
:104C3000007810B112202070F3E7FEF76DFB0746F5
:104C40006E613846FEF76CFB0020207000BFE8E77D
:104C500070B504460D4600260CB9602070BD0DB934
:104C60005F20FBE7FEF758FB0646D4E903108842B5
:104C700004D33046FEF754FB5E20EFE760682860FF
:104C800065602069401C20613046FEF749FB00202A
:104C9000E4E770B505460C4600260DB9602070BDEE
:104CA0000CB96120FBE7FEF737FB06462868206059
:104CB00068686060A868A060E868E06028692061B2
:104CC0003046FEF72DFBD4E90301401A6061002055
:104CD000E5E770B578211348FEF749FF00240EE0A0
:104CE00004EB44000F4901EBC005601C00EB4000E1
:104CF00001EBC00068600CA06861601C84B2042CE9
:104D0000EED304EB4400074901EBC00500206860C6
:104D100005A0686108460149086070BDE0000020F8
:104D2000B9000020644401203F0000002DE9F0415B
:104D300006460D464FF0000826B9042028700020D2
:104D4000BDE8F0813078022803D0012028700020CF
:104D5000F6E7FEF7E1FA80467468E08A78B12169E7
:104D6000081D20610F68E08A401EE082A16820696A
:104D7000884201D1606820610020287002E01F2075
:104D8000287000274046FEF7CBFA3846D8E72DE9D1
:104D9000F04106460F464FF00008FA48007810B17F
:104DA0000020BDE8F081FEF7B7FA8046F6480468B7
:104DB000006820B1F44800684068F3490860404644
:104DC000FEF7AEFAFCB1FEF7A7FA8046EF48056899
:104DD000D5B100680068ED4908604046FEF7A0FACA
:104DE0006E6006EB8700A860EE602E61AF82002047
:104DF000E88202202070002020816560E4A06061CC
:104E00002046FFF766F908E0DF4800686060DE488A
:104E100004604046FEF784FA00242046C1E72DE9ED
:104E2000F0470446894615464FF0000A24B904208D
:104E300028702046BDE8F0872078022803D00120A2
:104E400028702046F6E7CF48007818B10F20287068
:104E50002046EFE7FEF760FA8246A07A10B14FF0E5
:104E6000010801E04FF00008B9F1000F03D0B9F1DB
:104E7000010F49D121E0B8F1000F17D1C4A0606142
:104E80006668C24800683060C04806600020207034
:104E9000BD480068606000202081BB480460504627
:104EA000FEF73EFA00202870002705E05046FEF786
:104EB00037FA4920287027462DE005E00023042218
:104EC00019462046FFF78DF8A07A0028F6D1B0A049
:104ED00060616668AD4800683060AC4806600020DC
:104EE0002070A9480068606000202081A648046006
:104EF0005046FEF715FAB8F1010F01D1FEF7B1FBEC
:104F000000202870002706E05046FEF709FA072027
:104F10002870274600BF00BF38468BE770B50546AE
:104F200000260DB9042070BD2878022801D0012088
:104F3000F9E7FEF7F1F906466C686068E0606068C2
:104F400020610020E0823046FEF7EAF90020EAE71F
:104F50002DE9F0470646884615464FF0000926B968
:104F6000042028700020BDE8F0873078022803D0A4
:104F7000012028700020F6E78248007818B102204E
:104F800028700020EFE78348007818B10D202870C2
:104F90000020E8E7FEF7C0F981467468E08A98B11E
:104FA0002169081D20610F68E08A401EE082A16827
:104FB0002069884201D1606820614846FEF7B0F957
:104FC000002028703846CEE77348006890F8340017
:104FD00040F004007049096881F8340000206E49EF
:104FE000096881F835006C480068C0F830803046A8
:104FF000FFF737F84846FEF793F9FEF732FBFEF766
:105000008BF981466448006890F8350020B101288A
:105010000DD002280AD105E05F480068476A0020E9
:1050200028700DE000270E20287009E000BF3146EF
:1050300059480068FEF7C0FF00270A20287000BF0B
:1050400000BF00205449096881F8340052490968BA
:1050500081F8350050490968C8614F4909680862FC
:105060004D49096848624846FEF75AF938467AE7DA
:105070002DE9F04104460F4615464FF0000824B9CB
:10508000042028700020BDE8F0812078022803D099
:10509000012028700020F6E7FEF73EF98046A07A4E
:1050A00020B300267FB1012F0CD107E00223042298
:1050B00000212046FEF795FF701CC6B2A07A00289A
:1050C000F4D109E000BF0223042200212046FEF7AC
:1050D00088FF701CC6B200BF00BF4046FEF720F933
:1050E000FEF7BFFA0E2028703046CCE74046FEF7A8
:1050F00017F90020287000BFC5E72DE9F0410546EB
:105100000E46002715B90420BDE8F0812878022852
:1051100001D00120F8E7FEF7FFF80746A87A60B152
:105120000023042231462846FEF75BFF3846FEF78F
:10513000F7F8FEF796FA0020E6E76C68E08AA18AA5
:10514000884204DB3846FEF7EBF81E20DCE7E16816
:10515000081DE0600E60E08A401CE082D4E9021085
:10516000884201D16068E0603846FEF7D9F8002037
:10517000CAE72DE9F04105460E46002775B904201F
:10518000BDE8F081B9000020A4000020E400002068
:105190003F000000BA000020CC0000202878022840
:1051A00001D00120ECE7FEF7B7F80746A87A60B116
:1051B0000023042231462846FEF713FF3846FEF747
:1051C000AFF8FEF74EFA0020DAE76C68E08AA18AB1
:1051D000884204DB3846FEF7A3F81E20D0E761685A
:1051E0002069884201D1A06820612069001F2061E8
:1051F00020690660E08A401CE0823846FEF790F89D
:105200000020BDE72DE9F04105460F4616464FF058
:10521000000815B90420BDE8F0812878022801D0E3
:105220000120F8E7FEF778F88046A87AE8B106F0A2
:10523000010050B105E00023042239462846FEF75C
:10524000D0FEA87A0028F6D105E0002304223946D2
:105250002846FEF7C6FE4046FEF762F806F0040058
:1052600008B9FEF7FEF90020D5E76C68E08AA18A4C
:10527000884204DB4046FEF753F81E20CBE706F0D9
:10528000020058B161682069884201D1A06820619C
:105290002069001F20612069076009E0E168081D9E
:1052A000E0600F60D4E90210884201D16068E060DC
:1052B000E08A401CE0824046FEF732F80020AAE770
:1052C0002DE9F04705460C464FF0000A15B90420B9
:1052D000BDE8F0870CB90920FAE72878022801D048
:1052E0000120F5E7FEF718F88246A87A207405F148
:1052F0000B0804F10809002705E018F8010B09F86C
:10530000010B781CC7B2082FF7D36E68F08A18B16A
:1053100030690068206001E000202060F08AA080F1
:10532000B08AE0805046FDF7FBFF0020D0E72DE972
:10533000F04160211048FEF71AFC00240DE0601CCB
:1053400086B204EB44000C4901EBC00506EB4600B5
:1053500001EBC0072F60601C84B2032CEFD304EB79
:105360004400054901EBC0050020286008460349B8
:105370000860BDE8F0810000DC440120E40000206A
:1053800070B5044600260CB9002070BD20780328B3
:1053900001D00020F9E7FDF7BFFF0646258915B1CA
:1053A0002089401E20813046FDF7BAFF2846ECE7F1
:1053B00070B505460026E548007808B1002070BDAC
:1053C000FDF7AAFF0646E2480468006820B1E048FD
:1053D00000684068DE4908603046FDF7A1FF4CB127
:1053E00003202070258100206060DAA060612046E3
:1053F000FEF76FFE2046E2E72DE9F04704468846B7
:1054000015464FF0000924B9042028702046BDE855
:10541000F0872078032803D0012028702046F6E783
:10542000CA48007818B10F2028702046EFE7FDF732
:1054300073FF8146A07A08B1012700E00027B8F188
:10544000000F03D0B8F1010F3AD119E08FB9C1A014
:10545000606100202070BE480068606000202081EC
:10546000BB4804604846FDF75BFF0020287000261B
:1054700005E04846FDF754FF49202870264626E0FF
:1054800005E00023012219462046FEF7AAFDA07A76
:105490000028F6D1AFA0606100202070AC48006801
:1054A000606000202081AA4804604846FDF738FF6C
:1054B000012F01D1FEF7D5F800202870002606E064
:1054C0004846FDF72DFF07202870264600BF00BF85
:1054D00030469CE72DE9F04105460E46144600276C
:1054E0001DB904202070BDE8F0812878032802D07F
:1054F00001202070F7E79548007810B10220207055
:10550000F1E79548007810B10D202070EBE7FDF72A
:1055100003FF0746288940B12889401E2881384664
:10552000FDF7FEFE00202070DDE78C48006890F853
:10553000340040F001008949096881F834000020F6
:105540008649096881F83500844800680663284662
:10555000FEF787FD3846FDF7E3FEFEF782F8FDF71C
:10556000DBFE07467D48006890F8350020B1012831
:1055700009D0022806D102E0002020700BE00E20A6
:10558000207008E000BF294674480068FEF714FD4B
:105590000A20207000BF00BF00207049096881F810
:1055A00034006E49096881F835006C490968C861A2
:1055B0006A49096808623846FDF7B2FE00BF92E703
:1055C0002DE9F04104460F4615464FF0000824B976
:1055D000042028700020BDE8F0812078032803D043
:1055E000012028700020F6E7FDF796FE8046A07A9D
:1055F00020B300267FB1012F0CD107E00223012246
:1056000000212046FEF7EDFC701CC6B2A07A0028EF
:10561000F4D109E000BF0223012200212046FEF759
:10562000E0FC701CC6B200BF00BF4046FDF778FE2C
:10563000FEF717F80E2028703046CCE74046FDF7FD
:105640006FFE0020287000BFC5E770B50446002536
:105650000CB9042070BD2078032801D00120F9E79F
:10566000FDF75AFE0546A07A60B1002301221946D3
:105670002046FEF7B6FC2846FDF752FEFDF7F1FF87
:105680000020E7E720894FF6FF71884207D2208982
:10569000401C20812846FDF743FE0020DAE728461B
:1056A000FDF73EFE3320D5E72DE9F04704460D46D1
:1056B0004FF0000914B90420BDE8F0870DB90920A6
:1056C000FAE72078032801D00120F5E7FDF724FE52
:1056D0008146A07AA87204F10B0705F102080026A2
:1056E00005E017F8010B08F8010B701CC6B2082E74
:1056F000F7D3208928804846FDF712FE0020DBE71B
:105700002DE9F04104460E46154600271CB9042039
:105710002870BDE8F0812078032802D0012028708D
:10572000F7E7FDF7F9FD074600202870208908B14A
:10573000268105E0A07A08B9268101E04920287079
:105740003846FDF7EDFD00BFE3E70000B90000209B
:10575000A40000203F000000BA000020CC00002080
:105760002DE9F04F85B08146884600200090B9F1C0
:105770003F0F06D3B9F1FF0F03D02A2005B0BDE8D3
:10578000F08FB8F13F0F01D32A20F7E7FDF7C4FDF2
:105790000090F94850F8280020B10098FDF7C0FDAE
:1057A0002820EBE7B9F1FF0F03D1F448006890F827
:1057B0003690F14850F8295025B90098FDF7B0FD12
:1057C0002920DBE7012D04D10098FDF7A9FD432036
:1057D000D4E74FEAE80708F0070003900120B8403B
:1057E00000F0FF0A01210398814001F0FF0B002027
:1057F000E14941F82900084640F8285015F8386F6B
:10580000A87802906878383D0190DD48815D019864
:105810000140D1B1DA48805D01998843D849885563
:105820000846805D28B9D748007802998843D54951
:105830000870D448007840EA0A00D2490870D0487D
:10584000C05D40EA0B00CE49C855EC69D4B104F103
:105850000B00805D0199884304F10B0188550846CF
:10586000805D18B9A07A02998843A072A07A40EAB4
:105870000A00A07204F10B00C05D40EA0B0004F1C5
:105880000B01C855286A30B3286A0490049804684C
:105890001FE004F10B00805D0199884304F10B01C6
:1058A00088550846805D18B9A07A02998843A0728D
:1058B000A07A40EA0A00A07204F10B00C05D40EA41
:1058C0000B0004F10B01C8550498001D04900498C6
:1058D0000468002CDDD185F8368085F8387003988F
:1058E00085F8370085F83AA085F839B00098FDF7BB
:1058F00017FDA5480078012801D1FDF7B2FE002070
:105900003CE72DE9FE4F06460F4690461C464FF0F9
:1059100000093F2C02D92A20BDE8FE8FFDF7FCFCD0
:1059200081469A48007820B14846FDF7F9FC3C20B2
:10593000F2E7914850F8240060BB01208E4941F8FD
:1059400024004846FDF7ECFC002342463946304629
:10595000FDF74DFC82460020009001900346024670
:10596000514602902046FEF7CCFB054635B98648E5
:10597000007801280CD1FDF774FE09E0FDF7CCFC9E
:10598000814600207C4941F824004846FDF7C8FCC8
:105990002846C1E74846FDF7C3FC2820BCE702F0D3
:1059A000010343B102F002032BB102E0491E0023C0
:1059B00008C00029FAD170472DE9F04F85B0814623
:1059C0008A4693461C46DDE90F78129D002003901D
:1059D0003F2C03D92A2005B0BDE8F08FFDF79CFCD1
:1059E00003906A48007820B10398FDF799FC3C20A9
:1059F000F1E7614850F8240088BB01205E4941F876
:105A000024000398FDF78CFC2A4641463846FFF7F0
:105A1000C6FF2B465A4651464846FDF7E8FB049020
:105A20001198CDE9008002953A4620460E9B0499D4
:105A3000FEF767FB064636B95348007801280CD1BB
:105A4000FDF70FFE09E0FDF767FC039000204A49CF
:105A500041F824000398FDF763FC3046BBE7FFE7FD
:105A60000398FDF75DFC2820B5E72DE9F0410546D8
:105A700000274648007810B14020BDE8F0813F2D56
:105A800001D13E20F9E73F2D03D3FF2D01D02A207D
:105A9000F3E7FDF741FC0746FF2D03D137480068C7
:105AA00090F83650344850F8254024B93846FDF770
:105AB00037FC4320E1E7012C04D13846FDF730FCE8
:105AC0003D20DAE714F8380F2D49085C61788843E7
:105AD00021782B4A505414F838091146085C30B923
