:020000040800F2
:10000000D8500120152D0008AD0F0008B10F0008D1
:10001000B50F0008B90F0008BD0F00080000000070
:10002000000000000000000000000000C10F0008F8
:10003000C30F000800000000132F0008752E0008F1
:100040002F2D00082F2D00082F2D00082F2D000820
:100050002F2D00082F2D00082F2D00082F2D000810
:100060002F2D00082F2D00082F2D00082F2D000800
:100070002F2D00082F2D00082F2D00082F2D0008F0
:100080002F2D00082F2D00082F2D00082F2D0008E0
:10009000890500082F2D00082F2D00082F2D00089E
:1000A0002F2D0008FD0700082F2D00082F2D000818
:1000B000C3070008B1080008E30800082F2D000856
:1000C0002F2D00082F2D00082F2D00082F2D0008A0
:1000D0002F2D0008150900082F2D0008D70C000847
:1000E0002F2D00082F2D00082F2D00082F2D000880
:1000F0002F0800082F2D00082F2D00082F2D000895
:100100002F2D00082F2D0008610800082F2D000852
:10011000C90E0008FF0E00082F2D0008830F0008ED
:100120002F2D00082F2D00082F2D00082F2D00083F
:100130002F2D00082F2D00082F2D00082F2D00082F
:100140002F2D00082F2D00082F2D00082F2D00081F
:100150002F2D00082F2D00082F2D00082F2D00080F
:100160002F2D00082F2D00082F2D00082F2D0008FF
:100170002F2D00082F2D00082F2D00082F2D0008EF
:100180002F2D00082F2D000800F002F800F090F845
:100190000AA090E8000C82448344AAF10107DA45E2
:1001A00001D100F085F8AFF2090EBAE80F0013F0A4
:1001B000010F18BFFB1A43F001031847F4B8000001
:1001C00014B90000103A24BF78C878C1FAD8520791
:1001D00024BF30C830C144BF04680C6070470000C1
:1001E0000023002400250026103A28BF78C1FBD840
:1001F000520728BF30C148BF0B6070476E2908F016
:100200001585702908F06D8666290BF01A8265291C
:100210000BF0178267290BF0148261290BF013820F
:1002200003681B0A28BF41F08001692908F0C284D5
:10023000642908F0BF84752908F0BC846F2908F090
:10024000FB85782908F03986E92908F09585E429A5
:1002500008F09285F52908F08F85EF2908F0F885D8
:10026000F82908F038860368DB0928BF41F08001CF
:10027000632908F01685732908F01B85E32909F026
:100280007382F32909F07882002070471FB509F0C6
:10029000C9FA0400002000210AF012F9401C606035
:1002A000002000210AF0F6F8E0601FBD10B510BD77
:1002B00009F08AFA1146FFF7E9FF00F01DF809F08E
:1002C00063FB03B4FFF7F2FF03BC09F0A7FB0000D8
:1002D000184800686421B0FBF1F4204602F0DBFD11
:1002E00003F0BAFB00F01BF900BF00231A460121FE
:1002F000184605F0C9FCF8E710B586B000BF02F05B
:1003000029FE03F0A4FA032000214FF480720A4B67
:10031000CDE90132CDE903100A200346074A0090D7
:10032000074805F025F9044603F07EFB002006B0DF
:1003300010BD000084000020100100200C050020EA
:10034000D102000808B59DF8000000906A4600211F
:100350007E48006804F0B0FF64E06A4600217B48F4
:10036000006804F093FE7A48007830B1012816D076
:10037000022826D0032826D124E04FF400717548C6
:1003800006F084F950B14FF48071724806F07EF99E
:1003900020B16F480078401C6D49087014E002F0ED
:1003A000ABFB01216B4806F071F948B102216948A5
:1003B00006F06CF920B166480078401C644908706A
:1003C00002E001E000E000BF00BF062002F073F889
:1003D000072002F070F8082002F06DF8092002F002
:1003E0006AF8092002F0A9F85B480078012819D1C1
:1003F0005A480078401C594908700846007864281B
:1004000010D15748006800F500605549086008465B
:1004100000210268092001F059FF00204E490870B0
:100420004E49087099E708B500BF4FF4A06006F088
:100430004FFC0020034640F2473240F2E731009083
:100440004FF0804000F0D9FD40F2DC51454801F00A
:100450006CF84FF4E13001F0AFFA4FF4E13001F005
:10046000B9FC4FF4E13001F0F8FA42F210713D4866
:1004700001F05BF801F028FA01F06CFA4FF400701B
:100480004310394A4FF4FA710090384802F0CAF824
:1004900001F03EFD062001F047FD072001F044FD7C
:1004A000082001F041FD092001F03EFD0A2001F085
:1004B0003BFD0B2001F038FD47F2305341F288320A
:1004C0001146062001F090FE47F2305341F2883287
:1004D0001146072001F088FE47F2305341F288327E
:1004E0001146082001F080FE43F69823204A114669
:1004F000092001F079FE1F4A11460A2001F0B1FDE2
:100500001C4A11460B2001F0ACFD3221154801F0C8
:100510000CF802F0E5FAFF2005F08AFA08BD10B5E4
:1005200000BF002004F020FD084908600B23124A98
:100530000021124804F0C1FF04460C23104A002198
:10054000104804F0BAFF044610BD0000000000206F
:1005500006000020001002400400002005000020DA
:1005600020000020000C0040000402400064004015
:1005700090D00300E09304000CA900202704000899
:100580000C290120450300082DE9F05F4FF0000A17
:1005900002F09EFC8346FB480078401CF949087035
:1005A000584602F099FC0823F74AF849F84802F047
:1005B0003BFAF648006816281BD1F3480078F54945
:1005C0000870F1484078487008460088F249088071
:1005D000ED488078F1490870EB48C07848700846CB
:1005E0000088EF4908800846B0F90010002002F0AA
:1005F00041FAE648006818281BD1E3480078E5492D
:100600000870E1484078487008460088E249088050
:10061000DD488078E1490870DB48C07848700846BA
:100620000088E04908800846B0F90010012002F077
:1006300021FAD648006840F2862188420ED0D3487D
:100640000068491C884209D0D0480068B0F5227F74
:1006500004D0CE480068891C88427DD14FF0000A42
:1006600007E0C94810F80A00CF4901F80A000AF16A
:10067000010ABAF1080FF4DBCB480068CB49884285
:100680000BD1C248006840F28921884205D1C64991
:1006900048680AF085FDC6490860C3480068C34938
:1006A000891F88425DD1B948006840F2862188429E
:1006B00014D1BD494968A1F1F9000AF055F9804605
:1006C000BC4ABD4B0AF0A4F906460022BB4B0AF017
:1006D000D3FA044609F00AFFB9490860AB4800683C
:1006E00040F28721884214D1AF494968A1F23A40CB
:1006F0000AF03AF98046B34AB34B0AF089F9064644
:100700000022AE4B0AF0B8FA044609F0EFFEAC49FD
:1007100048609E480068B0F5227F14D1A24949681C
:10072000A1F265400AF020F98046A84AA84B0AF0D9
:100730006FF906460022A74B0AF0AAFA044609F010
:10074000D5FE9F4988609148006840F2892188421F
:1007500007D19549486800E003E00AF021FD984977
:10076000C8609D498A4807F07CFF9B49491C88481E
:1007700007F077FF9849C91C854807F072FF974931
:10078000834807F06EFF9649814807F06AFF954954
:100790007F4807F066FF934908317D4807F061FF05
:1007A00091497B4807F05DFF9049794807F059FF70
:1007B0008E490831764807F054FF03F072F8BDE81F
:1007C000F09F10B502F084FB04466E480078401C90
:1007D0006C490870204602F07FFB0121880707F072
:1007E0004CF8012807D18248006804F00AFD012175
:1007F000880707F053F803F054F810BD10B502F065
:1008000067FB04465F480078401C5E49087020463C
:1008100002F062FB0121774807F02FF8012803D18D
:100820000121744807F03AF803F03BF810BD10B509
:1008300002F04EFB044653480078401C51490870B2
:10084000204602F049FB01216B4807F016F8012809
:1008500003D10121684807F021F803F022F810BD08
:100860002DE9F04102F034FB044646480078401C74
:1008700044490870204602F02FFB01215F4806F032
:10088000FCFF012810D101215C4807F007F801F0B6
:10089000C9F9054601F040F9064601F037F9074667
:1008A0002A46314601F03BF902F0FBFFBDE8F0813A
:1008B00010B502F00DFB044632480078401C314967
:1008C0000870204602F008FB01214D4806F0D5FFD4
:1008D000012803D101214A4806F0E0FF02F0E1FFC0
:1008E00010BD10B502F0F4FA044626480078401C0A
:1008F00024490870204602F0EFFA0121414806F031
:10090000BCFF012803D101213E4806F0C7FF02F0D9
:10091000C8FF10BD2DE9F041002502F0D9FA0746C5
:1009200018480078401C17490870384602F0D4FA7D
:1009300040F22551344807F066FA012868D140F2A8
:100940002551314807F096FA2F4807F0B0F9C4B2A4
:1009500021462D4807F095F92C4800680F2874D2DD
:10096000DFE800F008576378848C8D8E8F9091A01B
:10097000FEFDFC00412C04D124480068401C2349A2
:100980000860A2E1B90000203C00002044000020E3
:100990000064004008000020140000200A0000202D
:1009A000180000201A0000200C00002056580040BB
:1009B0001C00002022718FA50F5D903F00804640F3
:1009C00010290120543541D47D00923FEE258DD170
:1009D0003AAA8A3F000018400100F0107000F03081
:1009E0000300001208000032030000140800003465
:1009F000000000200000014000040140000C004005
:100A000000040040000800400010014048000020A1
:100A10005DE1432C05D1FE480068401CFC4908609C
:100A200002E00020FA4908604FE1502C05D1F84857
:100A30000068401CF64908600BE0432C06D1F448DE
:100A400000680A30F249086003E011E10020F04933
:100A500008603AE1432C05D1ED480068401CEC49A0
:100A6000086002E00020EA4908602EE1E9480470CD
:100A7000E7480068401CE649086026E100BF00BF67
:100A800000BF00BF00BFE2480068092804DAE04860
:100A90000068401FE0490C54DD480068401CDC49F8
:100AA000086012E1DB480078052190FBF1F201FBC0
:100AB000120005287ED2DFE800F0032D5B87980046
:100AC000D4480078052190FBF1F0D449D24A12684D
:100AD00041F82020D0480168D1480AF03DFD054684
:100AE000002128460AF074FB00D20025CC49284694
:100AF0000AF06EFC00D2CA4DCA4928460AF09CFB97
:100B000080460AF011FB064632460021072001F01C
:100B1000DDFB7FE0BF480078052190FBF1F0C24982
:100B2000BD4A126841F82020BB490868BF490AF055
:100B3000C5F90546002128460AF04AFB00D20025E7
:100B4000BB4928460AF044FC00D2B94DB9492846B1
:100B50000AF072FB80460AF0E7FA02E076E06DE008
:100B600060E0064632460021082001F0AFFB51E06C
:100B7000A8480078052190FBF1F1AF48A64A126819
:100B800040F82120A4480168A5480AF0E5FC054684
:100B9000002128460AF01CFB00D20025A749284660
:100BA0000AF016FC00D2A54DA54928460AF044FBE0
:100BB000804600E02AE00AF0B7FA064632460021F5
:100BC000062001F083FB25E092480078052190FB88
:100BD000F1F19C48904A126840F821208E48006844
:100BE00001030B2001F0A3FA14E08A4800780521E4
:100BF00090FBF1F09449884A126841F82020864819
:100C0000006801030A2001F092FA03E0FF20814905
:100C1000087000BF00BF00207D490860FF207D49AB
:100C2000087052E0542C05D179480068401C78497E
:100C3000086002E000207649086046E075480470CC
:100C400073480068401C724908603EE07F480068B5
:100C5000401C7E49086008460068062807D16C4899
:100C60000068401C6A4908600020784908602CE050
:100C7000684800787649086008460068012802D074
:100C800002281AD115E07348007870B972480068DC
:100C900000F50060704908600846002102680920DC
:100CA00001F014FB01206B490870002068490860BE
:100CB00003E000206649086000BF00BF00205449DF
:100CC0000860FF205349087000BF00BF00BF02F05A
:100CD000E8FDBDE8F08110B502F0FAF804465F487F
:100CE0000078401C5D490870204602F0F5F840F29B
:100CF00025515B4807F087F801287DD140F2255146
:100D0000574807F0B7F8564806F0D1FF5549087024
:100D100055480078052870D2DFE800F00311263D21
:100D20004B00504800780D2805D14F480078401CF2
:100D30004D49087002E000204B490870C0E0494866
:100D400000780A2808D100204849087046480078F1
:100D5000401C4549087006E0424800780D2802D042
:100D6000002041490870ABE03E48007840493F4AC6
:100D7000127888543D480078401C3C490870084669
:100D80000078182806DB0020087037480078401CDF
:100D90003549087094E0334800780A2805D1324874
:100DA0000078401C3049087002E000202E4908708D
:100DB00086E02C4800780D287AD12D4800682D490E
:100DC00008602B4840682C490860294880682B49F6
:100DD00008602748C0682A490860254800692949F1
:100DE0000860234840692849086023480068224970
:100DF00008602248006801E063E05DE01F49086088
:100E00001F4800681E4908601E4800681D493EE0F2
:100E1000480000204C000020540000202029012020
:100E2000000034423C8E63423C2901200000C04057
:100E3000000010429A999942582901200000B442BA
:100E4000A64F7A42742901209029012050000020E9
:100E5000580000200400002020000020B9000020DD
:100E6000004800405C0000205D0000205E00002083
:100E7000AC2901202C00002030000020340000208C
:100E800024000020280000203800002010E0086026
:100E90004C4800684B4908604B48006800F033FE3E
:100EA0004A48006800F035FE4948006800F0B7FE87
:100EB00000204849087003E000204649087000BF40
:100EC00000BF02F0EEFC10BD10B502F001F80446C0
:100ED00041480078401C40490870204601F0FCFF62
:100EE00040F225513D4806F08EFF012804D140F222
:100EF00025513A4806F0BEFF02F0D3FC10BD70B594
:100F000001F0E6FF054634480078401C324908707D
:100F1000284601F0E1FF40F22551314806F073FF09
:100F200028B340F225512E4806F0A4FF2C4806F0C5
:100F3000BEFEC4B22B48008800F40040B8B929486E
:100F40000088B0F5C87F13DA0021274806F026F89C
:100F50002448008818B90121234806F05FF8214889
:100F600001880088401C1F4A10802048445405E036
:100F70001C48008840F400401A49088002F091FCA7
:100F800070BD10B50121184806F077FC68B115480E
:100F9000008840F40040134908800121124806F0FF
:100FA0007DFC0021104806F039F810BD00BFFEE7B7
:100FB00000BFFEE700BFFEE700BFFEE700BFFEE7A1
:100FC00070477047380000202400002028000020CF
:100FD0002C0000205D000020B9000020004C0040E3
:100FE000005000406000002000140040602B0120F1
:100FF00000BF401E0028FCD170472DE9FF41044688
:101000000D4616461F46DDF82880F949601A8C42C5
:1010100070D01ADCF749A4EB01008C426CD00ADCDA
:10102000B4F1804F4ED0F4482044002852D0B0F59F
:10103000806F71D156E0B0F5806F65D0B0F5006F6C
:101040006CD0B0F5406FF4D170E0B0F5923F21D094
:1010500009DCB0F5806F7AD0B0F5644F0AD0B0F5F6
:10106000684F7CD10EE0B0F5943F1BD0B0F5963FB1
:1010700075D11FE00121084605F030FD19208DF8DB
:1010800000006DE00121022005F028FD2C208DF8E4
:10109000000065E00121080405F020FD18208DF80E
:1010A00000005DE00121192005F018FD2C208DF8CD
:1010B000000055E00121880405F010FD1A208DF88C
:1010C00000004DE00121084605F0F7FC1C208DF8DA
:1010D000000045E00121022005F0EFFC1D208DF805
:1010E00000003DE00121042005F0E7FC1E208DF802
:1010F000000035E023E0FFE70121082005F0DDFCDA
:1011000032208DF800002BE00121102005F0D5FCE5
:1011100036208DF8000023E021E0FFE701212020A8
:1011200005F0CBFC37208DF8000019E001214020AC
:1011300005F0C3FC2B208DF8000011E007E0012131
:10114000802005F0BAFC2C208DF8000008E0012179
:10115000080205F0B2FC2D208DF8000000E000BF71
:1011600000BF0295ADF804600020ADF80C00ADF8AA
:10117000060001A9204605F0C8FE0121204606F020
:101180008DFB01221146204606F060FBF8B28DF877
:10119000010008F0FF008DF8020001208DF8030027
:1011A000684605F09AFD0121204605F037FFBDE8AD
:1011B000FF81FEB504460D462E468D49601A8C42CD
:1011C00070D01ADC8B49A4EB01008C426CD00ADC95
:1011D000B4F1804F4ED088482044002852D0B0F55A
:1011E000806F71D156E0B0F5806F65D0B0F5006FBB
:1011F0006CD0B0F5406FF4D170E0B0F5923F21D0E3
:1012000009DCB0F5806F7AD0B0F5644F0AD0B0F544
:10121000684F7CD10EE0B0F5943F1BD0B0F5963FFF
:1012200075D11FE00121084605F058FCA820ADF853
:1012300000006DE00121022005F050FCA820ADF86F
:10124000000065E00121080405F048FCA820ADF885
:1012500000005DE00121480405F040FCA820ADF845
:10126000000055E00121880405F038FCA820ADF805
:1012700000004DE00121084605F01FFC5420ADF8A8
:10128000000045E00121022005F017FC5420ADF8D4
:1012900000003DE00121042005F00FFC5420ADF8D2
:1012A000000035E023E0FFE70121082005F005FC00
:1012B0005420ADF800002BE00121102005F0FDFBCB
:1012C0005420ADF8000023E021E0FFE701212020B9
:1012D00005F0F3FB5420ADF8000019E00121402097
:1012E00005F0EBFB5420ADF8000011E007E0012110
:1012F000802005F0E2FB5420ADF8000008E0012159
:10130000080205F0DAFB5420ADF8000000E000BF51
:1013100000BF012001900020ADF80800ADF80200E8
:101320006946204605F0F1FD0121204605F076FED4
:101330004FF6FF70811B204605F030FE03E020468B
:1013400005F030FE86B24FF6FF708642F7DB0021D3
:10135000204605F063FEFEBDFEB504460D462E4652
:101360002349601A8C4276D01ADC2249A4EB010092
:101370008C427CD00ADCB4F1804F5AD01E48204405
:1013800000285FD0B0F5806F67D167E0B0F5806F5F
:1013900079D0B0F5006F7FD0B0F5406FF4D184E024
:1013A000B0F5923F2AD009DCB0F5806F6AD0B0F575
:1013B000644F0AD0B0F5684F4FD10FE0B0F5943FBD
:1013C00025D0B0F5963F48D12AE00121084605F026
:1013D00085FB44F2A010ADF8000082E0012102205C
:1013E00005F07CFB44F2A010ADF8000079E00000AD
:1013F000001C0040000C004000FCFFBF012108045D
:1014000005F06CFB44F2A010ADF8000069E001218A
:10141000480405F063FB44F2A010ADF8000060E062
:101420000121880405F05AFB44F2A010ADF8000039
:1014300057E00121084605F040FB42F2D000ADF82C
:1014400000004EE00121022005F037FB42F2D000FF
:10145000ADF8000045E031E009E041E00121042061
:1014600005F02BFB42F2D000ADF8000039E001217D
:10147000082005F022FB42F2D000ADF8000030E079
:1014800001E009E023E00121102005F016FB42F203
:10149000D000ADF8000024E00121202005F00DFB74
:1014A00042F2D000ADF800001BE00121402005F021
:1014B00004FB42F2D000ADF8000012E001218020D0
:1014C00005F0FBFA42F2D000ADF8000009E001217E
:1014D000080205F0F2FA42F2D000ADF8000000E098
:1014E00000BF00BF012001900020ADF80800ADF85A
:1014F00002006946204605F008FD0121204605F05E
:101500008DFD4FF6FF70811B204605F047FD03E07F
:10151000204605F047FD86B24FF6FF708642F7DBA6
:101520000021204605F07AFDFEBD70B506460C464A
:10153000002500BF04E00A213046FFF70DFF6D1CB7
:10154000A542F8D370BD30B58BB004460D460121DD
:10155000022005F0B2FA0121022005F07BFA0222F6
:101560000521A24805F0BBF82020099002208DF843
:10157000280003208DF8290000208DF82A00012082
:101580008DF82B0009A9994805F01EF8A8B2ADF80E
:1015900018000020ADF81A000794ADF8200006A945
:1015A000934805F0B2FC6020ADF804000120ADF8CE
:1015B00006000020ADF8100001A98D4805F073FD6C
:1015C00008218B4805F0CCFE0121894805F008FD73
:1015D0000121874805F022FD6421854805F085FE3C
:1015E0000BB030BD30B58BB004460D460121042050
:1015F00005F063FA0121082005F02CFA02220C21E3
:101600007C4805F06CF802220E217A4805F067F854
:101610004FF4A040099002208DF8280003208DF897
:10162000290000208DF82A0001208DF82B0009A93F
:10163000704804F0C9FFA8B2ADF818000020ADF85A
:101640001A000794ADF8200006A96B4805F05DFC70
:101650006020ADF804000120ADF806000020ADF8D0
:10166000100001A9644805F0E5FC01A9624805F0F5
:1016700067FD0821604805F06AFE08215E4805F014
:101680007CFE01215C4805F0ABFC01215A4805F0C5
:10169000C5FC6421584805F026FE6421564805F033
:1016A00026FE0BB030BD2DE9F84F044689464FF0B9
:1016B000000A5249484609F075FC5149009009F06A
:1016C000BBFD834609F0CEFB07464E4A4E4B08F061
:1016D0003FFF054608F00AFF82464C49504609F094
:1016E00077FE01D2DFF824A10021504609F070FDF9
:1016F00001D24FF0000A012C0BD14549504609F0A8
:101700009BFD064609F02CFD054629463A4805F0A2
:10171000EAFD022C0BD13E49504609F08DFD0646EC
:1017200009F01EFD05462946334805F0E0FDBDE8F9
:10173000F88F70B504460D46364840F8245050F8EE
:1017400024102046FFF7AFFF70BD0146314850F826
:101750002100704710B504462E4951F824002E4947
:1017600009F0ACFB2B4941F82400084650F824103E
:101770002046FFF798FF10BD10B50446254951F8E3
:101780002400254909F0E8FE224941F824000846D2
:1017900050F824102046FFF786FF10BD7FB50546A0
:1017A0000C460121202005F088F90195ADF8004094
:1017B0000020ADF80800ADF802006946174805F0B2
:1017C000A4FB01221146154806F040F837208DF899
:1017D0000C0000208DF80D0001208DF80E008DF812
:1017E0000F0003A805F079FA7FBD00000004024055
:1017F00000040040000C0240000800400000C84205
:10180000CDCC4C3D9A9999999999A93F00000243F2
:101810000000FA44C42901200000404000140040A8
:101820007CB504460D461646C4F30900002839D19C
:10183000A012A0F580108038092833D2DFE800F02C
:10184000050A0F14191E23282D000121084605F052
:1018500001F928E00121022005F0FCF823E0012134
:10186000042005F0F7F81EE00121082005F0F2F849
:1018700019E00121102005F0EDF814E001212020ED
:1018800005F0E8F80FE00121402005F0E3F80AE058
:101890000121802005F0DEF805E00121080205F0B5
:1018A000D9F800E000BF00BF00958DF8046000206B
:1018B0008DF806008DF8070002208DF805006946B6
:1018C000204604F081FE7CBD1CB50121102005F0EE
:1018D000C1F80320009000208DF804008DF8060068
:1018E00002208DF807008DF805006946284804F0AD
:1018F0006BFE0320009002208DF807006946244803
:1019000004F062FE0121022005F0A4F84FF480608B
:10191000009000208DF804008DF8060001208DF85D
:10192000070002208DF8050069461A4804F04CFEB5
:101930004FF48060009001208DF80700694615483B
:1019400004F042FE1CBD10B5012204211048FFF72F
:1019500067FF10BD1CB50121102005F07BF84FF486
:10196000F060009000208DF804008DF80600032040
:101970008DF8050001208DF807006946044804F041
:1019800023FE4FF4F061024804F09AFE1CBD0000F3
:10199000001002400004024070B504460D46E1B25A
:1019A000FC4806F06EF900BF4021FA4806F05CF9E9
:1019B0000028F9D0204670BD10B588B0044601213A
:1019C000022005F047F80121102005F087F80722D2
:1019D0000621F14804F083FE07221146EE4804F088
:1019E0007EFEC020069002208DF81C008DF81D00A0
:1019F00000208DF81E0001208DF81F0006A9E64882
:101A000004F0E2FD02940020ADF80C00ADF80E00E9
:101A1000ADF81000ADF814000C20ADF8120002A9CA
:101A2000DE4806F065F825208DF8040000208DF8CA
:101A3000050001208DF806008DF8070001A805F0CB
:101A40004CF9012240F22551D44806F0B7F90121A2
:101A5000D24806F0D5F808B010BD10B588B00446DD
:101A60000121042004F0F6FF0121880405F025F887
:101A700007220A21CA4804F032FE07220B21C84877
:101A800004F02DFE4FF44060069002208DF81C00FB
:101A90008DF81D0000208DF81E0001208DF81F001C
:101AA00006A9BF4804F090FD02940020ADF80C0098
:101AB000ADF80E00ADF81000ADF814000C20ADF834
:101AC000120002A9B74806F013F80121B54806F044
:101AD00097F84021B34806F0BEF8012240F22551A4
:101AE000B04806F06BF927208DF8040000208DF82F
:101AF000050001208DF806008DF8070001A805F00B
:101B0000ECF808B010BDA84908607047A648006806
:101B10007047A64908607047A448006870472DE9DF
:101B2000F04F8BB006460C469146A14801683046FE
:101B300009F012FD83469F480168204609F00CFD1C
:101B40000A90584609F08EF921F0004107464FF0FF
:101B50003332994B09F05AF80BD30A9809F082F9FD
:101B600021F0004107464FF03332934B09F04EF815
:101B70002BD2484609F076F9CDE9080159460A9872
:101B800008F044FB019009F06DF98C4A8C4BCDE9CB
:101B9000020108F091FD00228A4BCDE9040108F012
:101BA00037FFCDE90601DDE9082309F071F821F0DE
:101BB000004107460022844B08F0EEFE01D20120CE
:101BC00001E04FF0FF30824601E04FF0000A0A9931
:101BD000084609F031FB59460890584609F02CFB9D
:101BE0000790089909F06AF9804608F03DFC07461D
:101BF00064210AFB01F009F0D3FA3946099009F093
:101C00001BFB05466A4806606A4804606F490D6020
:101C100028460BB0BDE8F08F6C48006870476C49EF
:101C2000086070476A4800687047F0B503460D4683
:101C30001646002729460A2E03D0002008702846A1
:101C4000F0BD33B9302001F8010B002008702846A0
:101C5000F6E7002B03DA2D2001F8010B5B4242F27C
:101C600010720DE093FBF2F404B937B104F13000C7
:101C700001F8010B04FB123301270A2092FBF0F25A
:101C8000002AEFDC002008702846D9E70FB470B5B1
:101C900086B006460CA8019073E00B9800785C288B
:101CA0001CD10B98401C0B9000786E2809D072282C
:101CB0000FD10D21304605F0E4FF0B98401C0B902E
:101CC0000BE00A21304605F0DCFF0B98401C0B901E
:101CD00003E00B98401C0B9000BF4BE00B98007882
:101CE000252840D10B98401C0B900078642818D010
:101CF000732833D1019810C801900BE02178304649
:101D000005F0BFFF00BF4021304605F0ADFF0028C1
:101D1000F9D0641C20780028F0D10B98401C0B905F
:101D200020E0019820C801900A2202A92846FFF766
:101D30007CFF02AC0BE02178304605F0A2FF00BF2B
:101D40004021304605F090FF0028F9D0641C20782F
:101D50000028F0D10B98401C0B9003E00B98401C1E
:101D60000B9000BF06E00B9810F8011B0B9030465B
:101D700005F087FF00BF4021304605F075FF0028C1
:101D8000F9D00B980078002887D106B070BC5DF8B8
:101D900014FB00000050004000040240001001400D
:101DA0000008024000480040640000206800002055
:101DB00074000020780000203333D33F4AD8124DFE
:101DC000FB21094000806640008056406C000020E6
:101DD0007000002010B588B0044601940020ADF8D2
:101DE0000800ADF80A00ADF80C00ADF810000C20AA
:101DF000ADF80E00012104F02DFE0121080504F0CC
:101E00005CFE3D4805F026FE08220C213B4804F00C
:101E100066FC082202213A4804F061FC00208DF89B
:101E20001A0001208DF81B0002208DF81800C00256
:101E3000059002208DF8190005A9304804F0C4FB74
:101E400002208DF818000420059005A92C4804F004
:101E5000BBFB01A9284805F04BFE35208DF81C007E
:101E600001208DF81F008DF81D008DF81E004FF425
:101E7000A06004F02DFF07A804F02FFF012240F21C
:101E800025511D4805F09AFF01211B4805F0B8FEB9
:101E900042F2CF0140F2E730FFF780FC0020194901
:101EA00008800021184805F0B9F808B010BD0FB43B
:101EB00038B505A800901548009A049906F0E2FC90
:101EC00000200090114806F0DDFD85B200240DE0F1
:101ED00000BF4021084805F0C7FE0028F9D00B4894
:101EE000015D054805F0CDFE601C84B2AC42EFDB1D
:101EF00038BC5DF814FB00000050004000080240B0
:101F0000000C02406000002000140040D029012095
:101F10001CB5FD4903C9CDE9000108236A4600212B
:101F2000FA4800F055FD1CBD30B587B00446F649AF
:101F3000083103C9CDE9050104F540700090019016
:101F400000208DF808008DF8090008208DF80A009F
:101F50000598C0B28DF80B000598010A8DF80C1099
:101F60000598010C8DF80D100598000E8DF80E00E7
:101F70000698C1B28DF80F100698010A8DF810105E
:101F80000698010C8DF811100698000E8DF81200BD
:101F90006946DE4806F010F9054600BF2946DB48D1
:101FA00006F0A2F90128F9D107B030BD70B588B0AC
:101FB00006460024D449103103C9CDE9060106F5CF
:101FC00040700190029000208DF80C008DF80D00FB
:101FD00008208DF80E0000BF3FE006A810F834007E
:101FE0008DF80F0006A830F83400010A8DF81010A3
:101FF00006A850F83400010C8DF8111006A850F80E
:102000003400000E8DF8120006A800EBC400017920
:102010008DF8131006A800EBC4008088010A8DF823
:10202000141006A800EBC4004068010C8DF81510D0
:1020300006A800EBC4004068000E8DF8160001A948
:10204000B24806F0B9F8054600BF2946AF4806F089
:102050004BF90128F9D1601CC4B2012CBDDB08B0DA
:1020600070BD2DE9F04194B005460E461746002498
:102070003822A549183106A806F023FD05F5407061
:102080000190029000208DF80C008DF80D000820C2
:102090008DF80E000D960F979D49119149421391AD
:1020A00000BF3FE006A810F834008DF80F0006A826
:1020B00030F83400010A8DF8101006A850F83400EA
:1020C000010C8DF8111006A850F83400000E8DF8A0
:1020D000120006A800EBC40001798DF8131006A8C1
:1020E00000EBC4008088010A8DF8141006A800EBEC
:1020F000C4004068010C8DF8151006A800EBC40060
:102100004068000E8DF8160001A9804806F054F8CA
:10211000804600BF41467D4806F0E6F80128F9D127
:10212000601CC4B2072CBDDB14B0BDE8F081F0B573
:1021300089B005460F460024734B50330FCB05AED4
:102140000FC605F540700090019000208DF8080042
:102150008DF8090008208DF80A00069700BF3FE0BF
:1021600005A810F834008DF80B0005A830F83400ED
:10217000010A8DF80C1005A850F83400010C8DF8F8
:102180000D1005A850F83400000E8DF80E0005A8BB
:1021900000EBC40001798DF80F1005A800EBC40016
:1021A0008088010A8DF8101005A800EBC400406873
:1021B000010C8DF8111005A800EBC4004068000E5A
:1021C0008DF812006946514805F0F6FF064600BF3B
:1021D00031464E4806F088F80128F9D1601CC4B297
:1021E000022CBDDB09B0F0BD2DE9F043A5B080465F
:1021F0000D4616461F46002480224349603105A83B
:1022000006F05FFC08F540700090019000208DF80A
:1022100008008DF8090008208DF80A001095129525
:102220001495169618961A961C971E9705A8C766B9
:10223000384941674942C1670A9149420C9100BF40
:102240003FE005A810F834008DF80B0005A830F821
:102250003400010A8DF80C1005A850F83400010C68
:102260008DF80D1005A850F83400000E8DF80E0002
:1022700005A800EBC40001798DF80F1005A800EB4C
:10228000C4008088010A8DF8101005A800EBC40076
:102290004068010C8DF8111005A800EBC4004068DF
:1022A000000E8DF812006946184805F085FF81463A
:1022B00000BF4946154806F017F80128F9D1601CFF
:1022C000C4B2102CBDDB25B0BDE8F0832DE9F04190
:1022D0008AB005460F46904600240B4BE0330FCBE7
:1022E00006AE0FC605F540700190029000208DF8F3
:1022F0000C008DF80D0008208DF80E0067B944F22F
:10230000501006900BE000002CB70008006400405D
:10231000C0E1E400F6C99A3B45F250200690CDF8A2
:102320001C8000243FE006A810F834008DF80F0050
:1023300006A830F83400010A8DF8101006A850F8ED
:102340003400010C8DF8111006A850F83400000E6E
:102350008DF8120006A800EBC40001798DF8131067
:1023600006A800EBC4008088010A8DF8141006A8A6
:1023700000EBC4004068010C8DF8151006A800EBB6
:10238000C4004068000E8DF8160001A9A34805F0AE
:1023900013FF064600BF3146A04805F0A5FF0128FF
:1023A000F9D1601CC4B2022CBDDB0AB0BDE8F081DB
:1023B00030B587B004469A4903C9CDE9050104F553
:1023C00040700090019000208DF808008DF8090001
:1023D00008208DF80A000598C0B28DF80B0005980A
:1023E000010A8DF80C100598010C8DF80D10059858
:1023F000000E8DF80E000698C1B28DF80F100698E9
:10240000010A8DF810100698010C8DF8111006982D
:10241000000E8DF812006946804805F0CDFE054695
:1024200000BF29467D4805F05FFF0128F9D107B0BC
:1024300030BD30B587B004467949083103C9CDE9CC
:10244000050104F540700090019000208DF808000F
:102450008DF8090008208DF80A000598C0B28DF8A3
:102460000B000598010A8DF80C100598010C8DF8E9
:102470000D100598000E8DF80E000698C1B28DF86B
:102480000F100698010A8DF810100698010C8DF8AF
:1024900011100698000E8DF8120069465F4805F08D
:1024A0008BFE054600BF29465C4805F01DFF01284C
:1024B000F9D107B030BD30B587B004465849103166
:1024C00003C9CDE9050104F540700090019000209A
:1024D0008DF808008DF8090008208DF80A0005988D
:1024E000C0B28DF80B000598010A8DF80C10059804
:1024F000010C8DF80D100598000E8DF80E00069851
:10250000C1B28DF80F100698010A8DF810100698C8
:10251000010C8DF811100698000E8DF81200694616
:102520003E4805F049FE054600BF29463B4805F0F8
:10253000DBFE0128F9D107B030BD30B587B00446C5
:102540003749183103C9CDE9050104F54070009001
:10255000019000208DF808008DF8090008208DF802
:102560000A000598C0B28DF80B000598010A8DF895
:102570000C100598010C8DF80D100598000E8DF8C3
:102580000E000698C1B28DF80F100698010A8DF85A
:1025900010100698010C8DF811100698000E8DF899
:1025A000120069461D4805F007FE054600BF294692
:1025B0001A4805F099FE0128F9D107B030BD70B571
:1025C00086B004460D46009504F5407001900290D7
:1025D00000208DF80C008DF80D0008208DF80E00FD
:1025E0009DF800008DF80F009DF801108DF8101077
:1025F0009DF802108DF811109DF803108DF812103F
:1026000001A9064805F0D8FD064600BF314603483B
:1026100005F06AFE0128F9D106B070BD00640040E3
:102620001CB800082DE9F04F8BB006460F46144643
:102630001D46DDF850804FF00009CA46CB46B5F57F
:10264000807F43D012DC102D34D008DC012D25D042
:10265000022D26D0042D27D0082D4FD127E0202D84
:102660002BD0402D2CD0802D48D12CE0B5F5805FAB
:1026700038D009DCB5F5007F2BD0B5F5806F2BD0B5
:10268000B5F5006F3AD12AE0B5F5005F2DD0B5F56C
:10269000804F2DD0B5F5004F30D12CE04FF0000920
:1026A0002DE04FF001092AE04FF0020927E04FF03A
:1026B000030924E04FF0040921E04FF005091EE072
:1026C0004FF006091BE04FF0070918E04FF008092A
:1026D00015E04FF0090912E04FF00A090FE04FF042
:1026E0000B090CE04FF00C0909E04FF00D0906E072
:1026F0004FF00E0903E04FF00F0900E000BF00BFEC
:10270000B8F5807F4BD01ADCB8F1100F3BD00CDC51
:10271000B8F1010F2BD0B8F1020F2BD0B8F1040F94
:102720002BD0B8F1080F52D12AE0B8F1200F2DD0EC
:10273000B8F1400F2DD0B8F1800F48D12CE0B8F59A
:10274000805F38D009DCB8F5007F2BD0B8F5806FFA
:102750002BD0B8F5006F3AD12AE0B8F5005F2DD044
:10276000B8F5804F2DD0B8F5004F30D12CE04FF0A8
:10277000000A2DE04FF0010A2AE04FF0020A27E09C
:102780004FF0030A24E04FF0040A21E04FF0050A5D
:102790001EE04FF0060A1BE04FF0070A18E04FF06A
:1027A000080A15E04FF0090A12E04FF00A0A0FE09C
:1027B0004FF00B0A0CE04FF00C0A09E04FF00D0A45
:1027C00006E04FF00E0A03E04FF00F0A00E000BFF2
:1027D00000BFA748304418B1B0F5806F1AD10CE0A3
:1027E0004FF0090B00208DF8120014208DF8040022
:1027F0000121480604F061F90DE04FF0090B0E20AD
:102800008DF8120040208DF804000121000504F02D
:1028100054F900E000BF00BFC4F3090078BBA01268
:10282000A0F580108038092834D2DFE800F0050ACE
:102830000F14191E23292E000121084604F00AF95D
:1028400029E00121022004F005F924E001210420FF
:1028500004F000F91FE00121082004F0FBF81AE061
:102860000121102004F0F6F815E00121202004F0E9
:10287000F1F810E00121402004F0ECF80BE009E051
:102880000121802004F0E6F805E00121080204F0AF
:10289000E1F800E000BF00BF5A464946204603F079
:1028A0001EFF5A465146204603F019FF45EA08002C
:1028B000099002208DF828008DF8290000208DF85D
:1028C0002A0001208DF82B0009A9204603F07CFE88
:1028D000304605F0DFFA00208DF81E008DF81F004D
:1028E0008DF820008DF821008DF822008DF823004E
:1028F0008DF81A008DF81B000B208DF81C000720A6
:102900008DF81D007D2F22D008DC0A2F0FD0142F48
:1029100011D0322F13D0642F29D114E0FA2F1AD0FE
:10292000B7F5FA7F1BD0B7F57A7F20D11BE0C8201E
:10293000ADF818001CE06420ADF8180018E028205D
:10294000ADF8180014E01420ADF8180010E01020C5
:10295000ADF818000CE00820ADF8180008E00420DD
:10296000ADF8180004E00220ADF8180000E000BF48
:1029700000BF06A9304605F0A6FA00208DF8130026
:1029800001208DF814000020ADF80800ADF80A0011
:10299000ADF80C00ADF80E00ADF8100001208DF878
:1029A000150002A805F019FB00208DF80500032092
:1029B0008DF8060001208DF8070001A804F08DF9BC
:1029C00001220221304605F007FE0BB0BDE8F08F72
:1029D0002DE9F04385B081460D4690461E46002401
:1029E0000095019500208DF808008DF809008DF8FC
:1029F0000A6000BF06E018F804100DF10B00015545
:102A0000601C84B2B442F6DB6946484605F0D4FB4C
:102A10000746002400BF3946484605F065FC0128FA
:102A2000F9D105B0BDE8F0832DE9F04186B08046CC
:102A30000D4616461F4600240021404605F034FD91
:102A400018B9002006B0BDE8F08101AA0021404677
:102A500005F0A7FC002405E00DF10F00005D3055E6
:102A6000601CC4B2BC42F7DB019828600120E9E792
:102A7000009CFFBF044A42F82010704701460248FC
:102A800050F82100704700007C0000202DE9F04341
:102A900085B004460D4616464FF000090027012078
:102AA0000090019000208DF808008DF809000120A9
:102AB0008DF80A00600140EA45003043C7B28DF846
:102AC0000B706946124805F077FB804600BF41460F
:102AD0000F4805F009FC0128F9D105B0BDE8F083E5
:102AE00010B5002204210120FFF7D0FF01220321AD
:102AF0001046FFF7CBFF10BD10B501220421104690
:102B0000FFF7C4FF002203210120FFF7BFFF10BD24
:102B1000006400400CB500200190009072480068ED
:102B200040F480307049086000BF6F48006800F4CE
:102B3000003000900198401C0190009818B901984D
:102B4000B0F5A06FF1D16848006800F4003010B112
:102B50000120009001E0002000900098012846D15B
:102B600061484030006840F080505F494031086063
:102B70005E48006840F480405C4908605A4808306C
:102B800000685949083108600846006840F4004070
:102B900008600846006840F4A05008605448091FC7
:102BA0000860081F006840F08070091F086000BFBF
:102BB0004D48006800F000700028F9D040F2056030
:102BC0004C49086048480830006820F00300464936
:102BD000083108600846006840F00200086000BF45
:102BE00041480830006800F00C000828F8D10CBDFE
:102BF00010B53D48006840F001003B4908600020E6
:102C0000394908310860384800683B49084036496E
:102C100008603A48091D0860081F006820F48020F9
:102C2000091F0860002030490C310860FFF772FF6F
:102C30004FF000603249086010BD70B500200022DE
:102C4000022300240221284D08352D6805F00C00D0
:102C500020B1042806D0082834D107E0294D2A4E97
:102C6000356033E0294D284E35602FE01E4D2D1D77
:102C70002D68C5F380541C4D2D1D2D6805F03F01B6
:102C800054B1224DB5FBF1F5174E361D3668C6F32B
:102C9000881605FB06F209E01A4DB5FBF1F5124E58
:102CA000361D3668C6F3881605FB06F20E4D2D1D3F
:102CB0002D68C5F301456D1C6B00B2FBF3F5124E98
:102CC000356003E00F4D104E356000BF00BF064D6C
:102CD00008352D68C5F303150D4E705D0A4D2D683E
:102CE000C540094E356070BD00380240007000409C
:102CF00008544007003C0240FFFFF6FE103000245D
:102D000008ED00E00024F4008400002000127A00A6
:102D1000880000200948804709480047FEE7FEE791
:102D2000FEE7FEE7FEE7FEE7FEE7FEE7FEE7FEE77B
:102D300004480549054A064B70470000F12B00087E
:102D400089010008D84A0120D8500120D84C012020
:102D5000D84C01205748802102E0491E002204C0BF
:102D60000029FAD1544A554B1A601A46126822F0CB
:102D700007021A600022524B1A807047704710B544
:102D80000446204603F0A9FB10BD10B504462046BA
:102D900003F0A4FB10BD10B503F0A1FB10BD10B5EE
:102DA00003F09FFB10BD70B5044610464FF08075D0
:102DB0000560051F28462C60424E051F28462E60E0
:102DC0004FF01236051F28462E604FF00336051FC0
:102DD00028462E604FF00236051F28462E607610DA
:102DE000051F28462E60051F284629604FF0113622
:102DF000051F28462E604FF01036051F28462E600E
:102E00004FF00936051F28462E604FF00836051F83
:102E100028462E604FF00736051F28462E604FF0DB
:102E20000636051F28462E604FF00536051F28463A
:102E30002E604FF00436051F28462E6070BD10B579
:102E400003F050FB10BD10B50446204603F04BFBC9
:102E500010BD10B503F048FB19480088401C184904
:102E60000880084600880A2803D30020088003F061
:102E70004FFA10BD10B500F02BF804461248007848
:102E8000401C11490870204600F026F800F003FEAF
:102E900000F007FD10BD411E4FF0E0225161FF22FE
:102EA0000A49CA7200214FF0E022916107211161A5
:102EB00070470000F02C0120F02E01209800002027
:102EC0009C0000200B5C0008B900002018ED00E019
:102ED000EFF3108072B6704780F3108870471F4878
:102EE0004FF0FF010170002080F309881C48012188
:102EF00001701C484FF08051016062B6FEE719482E
:102F00004FF080510160704716484FF080510160CA
:102F1000704772B6EFF3098028B1203880E8F00FCF
:102F200011490968086000B5104880475DF804EB56
:102F30000F4810490A7802700B480F490A6802606E
:102F4000106890E8F00F203080F309884EF0040EEE
:102F500062B6704772B6704762B6704722ED00E005
:102F6000C600002004ED00E0CC0000203F2E000849
:102F7000BB000020BC000020D40000201D481E48DB
:102F80001E481F481F482048204821482148224801
:102F900022482348234824482448254825482648D1
:102FA00026482748274828482848294829482A48A1
:102FB0002A482B482B482C482C482D482D482E4871
:102FC0002E482F482F483048304831483148324841
:102FD0003248334833483448344835483548364811
:102FE000364837483748384838483948394800BFA4
:102FF000704700003CB8000840B8000846B8000818
:1030000048B8000844B800084AB800084CB800089E
:103010004EB8000850B8000852B8000854B800086C
:1030200056B8000858B800085AB800085CB800083C
:103030005EB8000860B8000862B8000864B800080C
:1030400066B8000868B800086AB800086CB80008DC
:103050006EB8000870B8000872B8000874B80008AC
:1030600076B8000878B800087AB800087CB800087C
:103070007EB8000880B8000882B8000884B800084C
:1030800086B8000888B800088AB800088CB800081C
:103090008EB8000892B8000894B8000896B80008E6
:1030A00098B80008B8450120384A01209CB80008AB
:1030B0009EB80008A0B80008A2B80008A4B800088C
:1030C000A6B80008A8B80008AAB80008ACB800085C
:1030D0009AB80008AEB800080146002002E0491C7A
:1030E000421CD0B20A78002AF9D170472DE9F0418C
:1030F00005460E461446002725B9042020700020FE
:10310000BDE8F0811EB90C2020700020F8E7F748D8
:10311000007818B1112020700020F1E728780128EC
:1031200008D0022807D0032802D0042804D100E0E8
:1031300000BF00BF00BF03E0012020700020DFE7D8
:1031400000BFFFF7C5FE0746686930603068FFF7CB
:10315000C3FF80463846FFF7BFFE00202070404680
:10316000CEE72DE9F04105460E46144600271DB96D
:1031700004202070BDE8F08116B90C202070F9E71A
:10318000DA48007810B112202070F3E7287801287F
:1031900008D0022807D0032802D0042804D100E078
:1031A00000BF00BF00BF02E001202070E2E700BFC7
:1031B000FFF78EFE07466E613846FFF78DFE002052
:1031C000207000BFD6E7F0B5024612F8384F957868
:1031D0005678383A0B4618680FE000F10B073F5D50
:1031E000B74300F10B0C0CF8047067463F5D17B94C
:1031F000877AAF4387721B1D18680028EDD1F0BD98
:10320000BB49BC4A1278885CBB49095CB84A515C2E
:1032100001EBC001B94A1170704710B50024FFF7E7
:1032200057FE0446B1480078F8B9B5480078E0B9CF
:10323000FFF7E6FFB348B149097850F82100B249D9
:103240000860AE480078B149097888420DD0AE4890
:103250000068C06B401CAC490968C863AC48006892
:10326000401CAB490860FFF74AFE2046FFF734FEDA
:1032700010BD70B501460024A64D2D68EC61A54C2B
:10328000246821620B4618681BE0A24C246894F85D
:10329000385000F10B04645D9E4D2D6895F839504F
:1032A0002C439C4D2D6895F8386000F10B05AC550A
:1032B000847A984D2D6895F83A502C4384721B1DE2
:1032C00018680028E1D1934C246894F838208A4C7F
:1032D000A45C904D2D6895F83950AC43864DAC54A4
:1032E0002C46A45C44B98B4C246894F83A50814C29
:1032F0002478AC437F4D2C7070BD2DE9FF4F83B017
:1033000081460E461546109F00200090B9F1000F2F
:1033100005D104203870002007B0BDE8F08FD9F83F
:10332000000018B9042038700020F5E71EB9042009
:1033300038700020F0E71DB9042038700020EBE75A
:1033400000203060CA46DAF8004015E020780628F0
:1033500007D2DFE800F006040503070807E006E0EF
:1033600005E000BF00BF012038700020D4E700BF97
:103370000AF1040ADAF80040002CE7D15B48007833
:1033800018B1022038700020C6E75D48007818B1F7
:103390000D2038700020BFE7FFF79AFD0090002055
:1033A000029083460190CA46DAF8004066E0207831
:1033B000062853D2DFE800F052172A03535420891D
:1033C00060B12089401E208110C60120029000209B
:1033D00001C50BF101001FFA80FB03E0019840F0EA
:1033E0000100019045E0606858B1606801C50020A7
:1033F000606010C6012002900BF101001FFA80FBF3
:1034000003E0019840F00200019032E0D4F804801B
:10341000B8F81600E8B1D8F81010081DC8F8100068
:10342000086801C5D8F80810D8F81000884203D100
:10343000D8F80400C8F81000B8F81600401EA8F824
:10344000160010C6012002900BF101001FFA80FB4C
:1034500003E0019840F0040001900AE000BF00BFC3
:103460000098FFF739FD0020306001203870584681
:1034700052E700BF0AF1040ADAF80040002C96D1A6
:103480000298012808D1002030600098FFF724FD41
:103490000020387058463FE71E48006890F8340016
:1034A000019941F0800108431A49096881F8340004
:1034B00000201849096881F83500164906980968FE
:1034C00008634846FFF7D5FE0098FFF705FDFFF7B4
:1034D000A4FEFFF7FDFC00900E48006890F8350050
:1034E000D0B1012831D002282ED116E0B900002039
:1034F000B0B80008BD000020BE000020BC000020C5
:10350000BA000020E0380120D4000020BB000020D9
:10351000A0000020CC00002000BFFE480068C46965
:103520003CB110C6002030600BF101001FFA80FB97
:1035300009E00120F749096881F835004946F54856
:103540000068FFF740FE06E000BF4946F14800680A
:10355000FFF739FE00BF00BFEE48006890F8350065
:1035600020B1012828D0022825D11FE02078062884
:103570000DD2DFE800F00C0607030D0E002001C598
:1035800010E000BFE3480068406A01C50AE000BFE0
:1035900000BF0098FFF7A0FC0020306001203870C9
:1035A0005846B9E600BF002038700AE0002001C587
:1035B0000E20387005E000BF002001C50A203870D9
:1035C00000BF00BF0020D349096881F83400D14909
:1035D000096881F83500CF490968C861CD49096893
:1035E0000862CC49096848620098FFF775FC5846A4
:1035F00092E67CB5002514E06946284602F0CDF934
:10360000064666B9C44850F8254044B1012C06D09E
:10361000D4E9020100EB8100A0640198E064681C19
:10362000C5B23F2DE8D97CBD002400BF02E01420C4
:1036300002F0F8FAB94800780028F8D0B8480068D5
:103640006421B0FBF1F0B64908600846006828B96B
:103650000020B4490870FF2002F0EAF900BFFFF72C
:1036600037FC0446B0480068B04908600020AE4905
:1036700008602046FFF730FCAC480068A84909689C
:10368000B0FBF1F0C0F16400A6490870FFF787FBBA
:10369000FFF7AFFF0A2002F0C5FAE0E700B587B0F8
:1036A000032000218022A24BCDE90132CDE9031095
:1036B0004FF6FE703E239F4A0090AFF2930001F058
:1036C00057FF06AA9CA13E2002F0DAF807B000BD21
:1036D000002400BF00BFFFF7FBFB044692480068D0
:1036E000401C914908602046FFF7F6FBFFF753FBAB
:1036F000F1E700B587B0032000218022924BCDE98D
:103700000132CDE903104FF6FF703F238F4A00903E
:10371000AFF2430001F02CFF06AA8DA13F2002F07A
:10372000AFF807B000BD04E0002200F8012B4A1EEC
:1037300091B20029F8D1704770B54FF4B461884850
:10374000FFF7F1FF002411E0601C85B204EB440098
:10375000834901EBC00305EB450001EBC0060020E7
:1037600018705E607FA05861601C84B23B2CEBD364
:1037700004EB44007A4901EBC00300201870586044
:1037800078A0586108467849086070BD70B54FF45C
:1037900030617648FFF7C7FF4FF480715E48FFF74E
:1037A000C2FF002413E0601CC5B204EB440000EB30
:1037B000C4006E4901EBC00305EB450000EBC500FA
:1037C00001EBC0065E6167A01865601CC4B21F2CC7
:1037D000E9D304EB440000EBC400644901EBC003EF
:1037E000002058615FA018650020614908605F48AB
:1037F0006049086070BD00215F4A1170002004E03C
:1038000000215E4A1154411CC8B20828F8D3002197
:103810005B4A11705B4A11705B4A11603D4A11604E
:103820007047002059490860594908705949087083
:103830005949087059490870594908603A4908605F
:103840003A4908603649086034490870704710B535
:10385000FFF780FAFFF7E5FFFFF7CDFFFFF796FFD1
:10386000FFF76AFF00F0E4FE01F00FF801F03BFB08
:10387000FFF73FFFFFF712FF02F0A4FDFFF77EFA0C
:10388000FFF77CFB10BD45480078012808D140486F
:103890000078FF2804D23E480078401C3C4908705C
:1038A000704710B500243D480078012830D1FFF75B
:1038B0000FFB04463648007820B135480078401E9A
:1038C0003349087032480078F8B932480078E0B9D6
:1038D000FFF796FC10482B49097850F821002A4937
:1038E0000860284800782649097888420DD0264883
:1038F0000068C06B401C24490968C86328480068F8
:10390000401C27490860FFF7FFFA2046FFF7E4FA5A
:1039100010BD0000CC000020E0380120B8000020DD
:10392000B0000020AC000020C8000020B40000203F
:10393000E0340120DC36012075432F4F532D4949D7
:103940002053746174000000E0360120DC3801204F
:1039500075432F4F532D49492049646C6500000081
:10396000F02E01203F000000A4000020E0390120DB
:10397000D8000020D0000020BD000020BE000020A4
:10398000BB000020BC000020D4000020E800002084
:10399000B9000020BA000020C7000020C6000020A7
:1039A000A000002010B50024FE480078012811D1A5
:1039B000FFF78EFA0446FC48007840B9FB480078CF
:1039C000FF2804D2F9480078401CF84908702046C6
:1039D000FFF782FA10BD10B50024F24800780128E4
:1039E00021D1FFF775FA0446F0480078C0B1EF48DE
:1039F0000078401EED4908700846007860B9EA4832
:103A0000007828B92046FFF767FAFFF706FC0AE0BE
:103A10002046FFF761FA06E02046FFF75DFA02E074
:103A20002046FFF759FA10BD10B5DE48007890B96E
:103A3000FFF7E6FBDE480078DE490870DE48DC4927
:103A4000097850F82100DD49086008460068DC4923
:103A50000860FFF744FA10BD10B50024022002F000
:103A6000E1F8FFF735FA04460020D6490860204601
:103A7000FFF732FA0A2002F0D5F8FFF729FA0446D8
:103A8000D0480068D04908600120D049087020461D
:103A9000FFF722FA10BD70B50026FFF7DAF9FFF73D
:103AA00017FA0646CA480068401CC94908603046F3
:103AB000FFF712FABB480078012853D1C5480078B7
:103AC00020B1012804D0022809D103E001250BE030
:103AD000002509E001250120BE49087004E0012508
:103AE0000020BC49087000BF00BF05B970BDBA48CE
:103AF000046833E0FFF7ECF90646206B50B3206B07
:103B0000401E2063206B28BB94F8340000F037007F
:103B100040B114F8340F00F0C8002070012060702C
:103B2000343C02E0002084F8350094F8340000F0C2
:103B3000080078B93834A078A84909780843A7491B
:103B400008702078A649085C6178084314F8381991
:103B5000A34A505464693046FFF7BEF994F8360022
:103B60003F28C7D100BFC1E740F22310704770471C
:103B700010B590F8382001F10B039B5C90F83940A8
:103B8000A34301F10B04A35423469B5C23B98B7A16
:103B900090F83A40A3438B7210BD2DE9F04F0546D3
:103BA0000F4690469946A87A8E490E5C05F10B00A7
:103BB000805D11F800B00BEBC60000F0FF0A7E48F4
:103BC00050F82A4000202434E0602760207C20EA5E
:103BD0000800207484F81190207C243C00F0080038
:103BE00068B994F83A007D49097808437B49087020
:103BF0007B48805D94F839100843794988552946F7
:103C00002046FFF7B5FF206A20B12046216AFFF762
:103C1000DAFAE5615046BDE8F08F10B5684A1268DF
:103C2000D061674A126892F8383000F10B02D25C1A
:103C3000634B1B6893F839301A43614B1B6893F848
:103C4000384000F10B031A55827A5D4B1B6893F8DC
:103C50003A301A4382725A4A126892F83810604A0F
:103C6000525C574B1B6893F839309A435C4B5A545B
:103C70001A46525C42B9524A126892F83A30574A90
:103C800012789A43554B1A7010BD014600228A7271
:103C9000002005E0002301F10B021354421CD0B2B6
:103CA0000828F7D3704705E011F8013B00F8013B05
:103CB000531E9AB2002AF7D170472DE9F84F0546F6
:103CC0000F4690469946DDE90AAB00200090FFF7C9
:103CD000FFF8009044480468002C61D01C3454F86C
:103CE000080C414908600098FFF7F6F844F81C7C7E
:103CF000A576002020766076606144F818BC44F810
:103D000010AC44F8148C0C9824F80C0C24F80A9C81
:103D10000020E077E810207705F00700E076217FAB
:103D200001208840A077E17E012088406077002054
:103D300020606060E060A0602062A0626062E0627B
:103D40002063AFF2E03060631C3C002606E00021F7
:103D500004F1540040F82610701CC6B2002EF6D0B4
:103D60002046FFF770F82046FFF709F8FFF7B0F894
:103D70000090114840F82540174800686061002015
:103D8000A0611548006810B11348006884611248AA
:103D900004603834A0781149097808430F4925E0B8
:103DA00039E00000C6000020B9000020BA00002061
:103DB000BC000020BB000020E0380120D40000201F
:103DC000CC000020C8000020B0000020B800002077
:103DD000E8000020DC000020D8000020BD0000200A
:103DE000BE000020B0B80008D00000200870207885
:103DF0000B49085C6178084314F83819084A505494
:103E000008480078401C074908700098FFF764F8DC
:103E10000020BDE8F88F0098FFF75EF84220F8E731
:103E2000BE000020C70000202DE9F05F04460F46C9
:103E300091461E464FF0000B24B96E2030700020D2
:103E4000BDE8F09F2078052803D0012030700020C5
:103E5000F6E709F0800ABAF1000F04D029F08009D2
:103E60004FF0010801E04FF0000800203070FFF72C
:103E70002FF88346B9F1000F2CD0B9F1010F3BD0D8
:103E8000B9F1020F03D0B9F1030F46D111E0208937
:103E900000EA0705BD4206D1B8F1010F05D120891E
:103EA000A843208101E0702030705846FFF714F8D5
:103EB0003AE0208900EA070535B1B8F1010F05D1D4
:103EC0002089A843208101E0702030705846FFF718
:103ED00003F829E0208927EA0005BD4206D1B8F1A0
:103EE000010F05D120892843208101E07020307026
:103EF0005846FEF7F1FF17E0208927EA000535B1A3
:103F0000B8F1010F05D120892843208101E07020FC
:103F100030705846FEF7E0FF06E05846FEF7DCFF3B
:103F200000256F20307000BF00BF284688E72DE9CC
:103F3000F04106460D460027F748007820B11020D2
:103F400028700020BDE8F081FEF7C2FF0746F34865
:103F5000046884B100684068F0490860052020705A
:103F6000268100206060EEA0E0603846FEF7B4FFD6
:103F70000020287004E03846FEF7AEFF722028705B
:103F80002046DFE730B501464A6808682AB9CC68A0
:103F9000606028B10025456002E0106000B1426019
:103FA0008B6800259D6230BDF0B506460F46B468AB
:103FB00000202C3460602780207A00F0DF0020721F
:103FC00000206072207A2C3C88B93834A078D5491A
:103FD00009780843D34908702078D349085C617890
:103FE000084314F83819D04A5054012500E0002540
:103FF0003046FFF7C7FF2846F0BD2DE9F0470446DD
:10400000894615464FF0000A24B96E2028702046D4
:10401000BDE8F087C048007818B10F20287020460E
:10402000F6E72078052803D0012028702046EFE726
:10403000FEF74EFF8246606808B1012700E00027C6
:10404000B9F1000F03D0B9F1010F3CD119E08FB9DC
:10405000B3A0E06000202070B048006860600020DD
:104060002081AE4804605046FEF736FF00202870DD
:10407000002605E05046FEF72FFF4920287026460F
:1040800028E0D4F8048005E000214046FFF78CFFCB
:10409000D8F80080B8F1000FF6D1A1A0E0600020B0
:1040A00020709E4800686060002020819B4804606A
:1040B0005046FEF711FF012F01D1FFF7AEF80020A7
:1040C0002870002606E05046FEF706FF07202870FD
:1040D000264600BF00BF30469AE72DE9F04105466D
:1040E0000E461446002725B96E2020700020BDE83A
:1040F000F0811EB90C2020700020F8E78648007877
:1041000018B1112020700020F1E7FEF7E1FE07460C
:104110002878052806D03846FEF7DEFE01202070FC
:104120000020E4E7E86830603068FEF7D5FF80469D
:104130003846FEF7D1FE002020704046D7E72DE933
:10414000F04105460E46144600271DB96E2020702A
:10415000BDE8F08116B90C202070F9E76E480078B0
:1041600010B112202070F3E7FEF7B2FE0746287860
:10417000052805D03846FEF7AFFE01202070E7E79E
:10418000EE603846FEF7A8FE0020207000BFDFE793
:10419000F0B51446059E654F3F6897F8347047F0B8
:1041A0002007DFF888C1DCF800C08CF834700027E5
:1041B000DFF878C1DCF800C08CF835705B4F3F68E1
:1041C0003E635A4F3F68B9620C828B74574F3F6809
:1041D0008F6047680F6000274F60C860456805B171
:1041E00069604160514F3F6897F838204E4FBF5C7F
:1041F000DFF838C1DCF800C09CF839C027EA0C07AA
:10420000DFF824C10CF802706746BF5C5FB9474F06
:104210003F6897F83AC0434F3F7827EA0C07DFF82A
:1042200004C18CF80070F0BD2DE9F04F89B005464F
:104230000F4691469A46129E002002902DB96E209C
:104240003070002009B0BDE8F08F3348007818B115
:10425000022030700020F5E73548007818B10D20B5
:1042600030700020EEE72878052803D00120307058
:104270000020E7E709F0800BBBF1000F04D009F044
:104280007F094FF0010801E04FF00008FEF720FE23
:104290000290B9F1000F59D0B9F1010F79D0B9F1FD
:1042A000020F03D0B9F1030F72D120E0288900EA90
:1042B0000704BC420FD1B8F1010F02D12889A043F5
:1042C00028811A48006884850298FEF705FE0020C0
:1042D00030702046B6E74B463A4604A92846CDF84A
:1042E00000A0FFF755FF0298FEF7F6FD79E0288958
:1042F00000EA0704F4B1B8F1010F02D12889A04304
:1043000028810A48006884850298FEF7E5FD0020B0
:104310003070204696E70000B9000020A800002079
:104320003F000000BD000020BE000020CC000020A7
:10433000BA0000204B463A4604A92846CDF800A012
:10434000FFF726FF0298FEF7C7FD4AE0288927EA13
:104350000004BC420FD1B8F1010F02D128892043DB
:104360002881C748006884850298FEF7B5FD0020C3
:104370003070204666E74B463A4604A92846CDF8F9
:1043800000A0FFF705FF0298FEF7A6FD29E000E078
:104390001FE0288927EA00047CB1B8F1010F02D19F
:1043A000288920432881B648006884850298FEF752
:1043B00093FD00203070204644E74B463A4604A95E
:1043C0002846CDF800A0FFF7E3FE0298FEF784FD33
:1043D00007E00298FEF780FD00246F203070204631
:1043E00030E700BFFEF719FFFEF772FD0290A44808
:1043F000006890F8350020B3A148006890F83500B7
:10440000039000209E49096881F8350004A8FFF751
:10441000B9FD00209A49096881F834000298FEF736
:104420005BFD00240398012805D0022802D10E204C
:10443000307003E000BF0A20307000BF00BF20468C
:1044400000E78F480068848DB8F1010F1ED1B9F1E3
:10445000000F0ED0B9F1010F0CD0B9F1020F03D04B
:10446000B9F1030F0AD100E000BF2889A0432881D9
:104470000BE000BF28892043288106E00298FEF760
:104480002BFD6F2030700020DCE600BF0298FEF7A5
:1044900023FD002030702046D4E670B50025FEF7DD
:1044A00017FD054676480068848D2846FEF714FD02
:1044B000204670BD2DE9FC5F0446894692461E46A3
:1044C0000020009024B96E2030700020BDE8FC9FD1
:1044D0002078052803D0012030700020F6E7FEF791
:1044E000F7FC0090BAF1000F03D0BAF1010F0AD126
:1044F00004E0208920EA090020810BE0208940EABD
:104500000900208106E00098FEF7E6FC712030707B
:104510000020DBE700BF4FF0000B656855E0A87C8A
:1045200040B3012838D0022802D0032844D111E03A
:104530002089298A00EA0107288AB84209D1394628
:104540002846FFF731FD8046B8F1010F01D14FF049
:10455000010B38E02089298A00EA01074FB139466A
:104560002846FFF721FD8046B8F1010F01D14FF039
:10457000010B28E0288A218920EA0107288AB8420D
:1045800009D139462846FFF70FFD8046B8F1010FE3
:1045900001D14FF0010B16E0288A218920EA01079A
:1045A0004FB139462846FFF7FFFC8046B8F1010FAE
:1045B00001D14FF0010B06E00098FEF78DFC6F2053
:1045C0003070002082E700BF2D68002DA7D1009831
:1045D000FEF782FCBBF1010F01D1FEF71EFEFEF7D4
:1045E00077FC0090208901900098FEF775FC002070
:1045F000307001986AE72DE9F04104460D46002726
:1046000024B96E2028700020BDE8F08120780528AC
:1046100003D0012028700020F6E7FEF759FC07467A
:1046200026893846FEF758FC002028703046EBE714
:104630002DE9F04150211348FFF775F800250EE0F1
:10464000681C86B20F4800EB051400EB061700202B
:1046500020706760AFF23830E060681C85B2042DCE
:10466000EED3084800EB0514002020706060AFF224
:104670005030E060034804490860BDE8F081000064
:10468000CC00002090340120A80000202DE9FC5F20
:1046900005460F4691461E460020009025B962202F
:1046A00030700020BDE8FC9F05F0030018B16220C7
:1046B00030700020F6E7022F03D25B20307000201C
:1046C000F0E7B9F1040F03D25C2030700020E9E775
:1046D000FEF7FEFB00907F480468006820B17D482B
:1046E000006840687B4908600098FEF7F5FB1CB93C
:1046F0005A2030700020D5E7AA46A846781E0190BF
:104700004FF0000B05E0C844CAF80080C2460BF128
:10471000010B01988345F6D30020CAF800002560FC
:1047200065602761E760C4F8089030702046B9E7FB
:104730002DE9F04104460D46002724B96020287079
:104740000020BDE8F081FEF7C3FB0746206960B199
:104750006668306860602069401E20613846FEF758
:10476000BBFB002028703046EBE73846FEF7B4FB71
:104770005D2028700020E4E72DE9F04106460D4653
:104780001446002726B9602020700020BDE8F08183
:104790001DB90C2020700020F8E74F48007818B1B0
:1047A000112020700020F1E7FEF792FB07467069A8
:1047B00028602868FEF790FC80463846FEF78CFBA0
:1047C000002020704046E1E72DE9F04105460E4605
:1047D000144600271DB960202070BDE8F08116B98D
:1047E0000C202070F9E73C48007810B112202070AE
:1047F000F3E7FEF76DFB07466E613846FEF76CFB8C
:104800000020207000BFE8E770B504460D46002682
:104810000CB9602070BD0DB95F20FBE7FEF758FBB7
:104820000646D4E90310884204D33046FEF754FB11
:104830005E20EFE76068286065602069401C2061A9
:104840003046FEF749FB0020E4E770B505460C460C
:1048500000260DB9602070BD0CB96120FBE7FEF7A2
:1048600037FB06462868206068686060A868A0601A
:10487000E868E060286920613046FEF72DFBD4E946
:104880000301401A60610020E5E770B57821134804
:10489000FEF749FF00240EE004EB44000F4901EB52
:1048A000C005601C00EB400001EBC00068600CA07C
:1048B0006861601C84B2042CEED304EB4400074909
:1048C00001EBC0050020686005A068610846014949
:1048D000086070BDE0000020B9000020E044012025
:1048E0003F0000002DE9F04106460D464FF000085C
:1048F00026B9042028700020BDE8F0813078022815
:1049000003D0012028700020F6E7FEF7E1FA804688
:104910007468E08A78B12169081D20610F68E08A17
:10492000401EE082A1682069884201D16068206150
:104930000020287002E01F20287000274046FEF764
:10494000CBFA3846D8E72DE9F04106460F464FF03E
:104950000008FA48007810B10020BDE8F081FEF7A9
:10496000B7FA8046F6480468006820B1F448006849
:104970004068F34908604046FEF7AEFAFCB1FEF726
:10498000A7FA8046EF480568D5B100680068ED4990
:1049900008604046FEF7A0FA6E6006EB8700A8604C
:1049A000EE602E61AF820020E8820220207000209D
:1049B00020816560E4A060612046FFF766F908E0A9
:1049C000DF4800686060DE4804604046FEF784FA15
:1049D00000242046C1E72DE9F047044689461546E4
:1049E0004FF0000A24B9042028702046BDE8F08763
:1049F0002078022803D0012028702046F6E7CF480F
:104A0000007818B10F2028702046EFE7FEF760FA13
:104A10008246A07A10B14FF0010801E04FF0000883
:104A2000B9F1000F03D0B9F1010F49D121E0B8F17C
:104A3000000F17D1C4A060616668C248006830608A
:104A4000C048066000202070BD48006860600020FB
:104A50002081BB4804605046FEF73EFA00202870D3
:104A6000002705E05046FEF737FA49202870274610
:104A70002DE005E00023042219462046FFF78DF8BB
:104A8000A07A0028F6D1B0A060616668AD480068E1
:104A90003060AC48066000202070A9480068606063
:104AA00000202081A64804605046FEF715FAB8F1B0
:104AB000010F01D1FEF7B1FB00202870002706E0AE
:104AC0005046FEF709FA07202870274600BF00BFAE
:104AD00038468BE770B5054600260DB9042070BD39
:104AE0002878022801D00120F9E7FEF7F1F90646FF
:104AF0006C686068E060606820610020E082304699
:104B0000FEF7EAF90020EAE72DE9F0470646884675
:104B100015464FF0000926B9042028700020BDE892
:104B2000F0873078022803D0012028700020F6E7B3
:104B30008248007818B1022028700020EFE78348EF
:104B4000007818B10D2028700020E8E7FEF7C0F9C2
:104B500081467468E08A98B12169081D20610F6858
:104B6000E08A401EE082A1682069884201D1606825
:104B700020614846FEF7B0F9002028703846CEE79D
:104B80007348006890F8340040F0040070490968E8
:104B900081F8340000206E49096881F835006C48BE
:104BA0000068C0F830803046FFF737F84846FEF717
:104BB00093F9FEF732FBFEF78BF9814664480068F3
:104BC00090F8350020B101280DD002280AD105E067
:104BD0005F480068476A002028700DE000270E201B
:104BE000287009E000BF314659480068FEF7C0FF51
:104BF00000270A20287000BF00BF00205449096820
:104C000081F834005249096881F835005049096833
:104C1000C8614F49096808624D49096848624846B9
:104C2000FEF75AF938467AE72DE9F04104460F4677
:104C300015464FF0000824B9042028700020BDE874
:104C4000F0812078022803D0012028700020F6E7A8
:104C5000FEF73EF98046A07A20B300267FB1012FEF
:104C60000CD107E00223042200212046FEF795FF25
:104C7000701CC6B2A07A0028F4D109E000BF02235C
:104C8000042200212046FEF788FF701CC6B200BF38
:104C900000BF4046FEF720F9FEF7BFFA0E2028704D
:104CA0003046CCE74046FEF717F90020287000BFD9
:104CB000C5E72DE9F04105460E46002715B9042049
:104CC000BDE8F0812878022801D00120F8E7FEF73E
:104CD000FFF80746A87A60B100230422314628462F
:104CE000FEF75BFF3846FEF7F7F8FEF796FA00206E
:104CF000E6E76C68E08AA18A884204DB3846FEF762
:104D0000EBF81E20DCE7E168081DE0600E60E08A39
:104D1000401CE082D4E90210884201D16068E06062
:104D20003846FEF7D9F80020CAE72DE9F0410546DC
:104D30000E46002775B90420BDE8F081B9000020B7
:104D4000A4000020E40000203F000000BA00002082
:104D5000CC0000202878022801D00120ECE7FEF7E3
:104D6000B7F80746A87A60B10023042231462846E6
:104D7000FEF713FF3846FEF7AFF8FEF74EFA0020B5
:104D8000DAE76C68E08AA18A884204DB3846FEF7DD
:104D9000A3F81E20D0E761682069884201D1A0688D
:104DA00020612069001F206120690660E08A401CA4
:104DB000E0823846FEF790F80020BDE72DE9F0418B
:104DC00005460F4616464FF0000815B90420BDE809
:104DD000F0812878022801D00120F8E7FEF778F862
:104DE0008046A87AE8B106F0010050B105E0002342
:104DF000042239462846FEF7D0FEA87A0028F6D1CC
:104E000005E00023042239462846FEF7C6FE404648
:104E1000FEF762F806F0040008B9FEF7FEF900207C
:104E2000D5E76C68E08AA18A884204DB4046FEF739
:104E300053F81E20CBE706F0020058B161682069E4
:104E4000884201D1A06820612069001F206120698B
:104E5000076009E0E168081DE0600F60D4E9021016
:104E6000884201D16068E060E08A401CE0824046F0
:104E7000FEF732F80020AAE72DE9F04705460C4678
:104E80004FF0000A15B90420BDE8F0870CB90920DD
:104E9000FAE72878022801D00120F5E7FEF718F894
:104EA0008246A87A207405F10B0804F1080900274E
:104EB00005E018F8010B09F8010B781CC7B2082FA0
:104EC000F7D36E68F08A18B130690068206001E09D
:104ED00000202060F08AA080B08AE0805046FDF774
:104EE000FBFF0020D0E72DE9F04160211048FEF7DC
:104EF0001AFC00240DE0601C86B204EB44000C494F
:104F000001EBC00506EB460001EBC0072F60601CFB
:104F100084B2032CEFD304EB4400054901EBC00538
:104F200000202860084603490860BDE8F0810000C1
:104F300058450120E400002070B5044600260CB955
:104F4000002070BD2078032801D00020F9E7FDF78C
:104F5000BFFF0646258915B12089401E20813046B5
:104F6000FDF7BAFF2846ECE770B505460026E54890
:104F7000007808B1002070BDFDF7AAFF0646E248A0
:104F80000468006820B1E04800684068DE490860B5
:104F90003046FDF7A1FF4CB1032020702581002091
:104FA0006060DAA060612046FEF76FFE2046E2E70F
:104FB0002DE9F0470446884615464FF0000924B90C
:104FC000042028702046BDE8F0872078032803D00D
:104FD000012028702046F6E7CA48007818B10F2053
:104FE00028702046EFE7FDF773FF8146A07A08B1ED
:104FF000012700E00027B8F1000F03D0B8F1010F3E
:105000003AD119E08FB9C1A0606100202070BE487C
:105010000068606000202081BB4804604846FDF7BE
:105020005BFF00202870002605E04846FDF754FF8E
:1050300049202870264626E005E000230122194673
:105040002046FEF7AAFDA07A0028F6D1AFA0606145
:1050500000202070AC480068606000202081AA48D1
:1050600004604846FDF738FF012F01D1FEF7D5F85F
:1050700000202870002606E04846FDF72DFF072097
:105080002870264600BF00BF30469CE72DE9F0415E
:1050900005460E46144600271DB904202070BDE8C1
:1050A000F0812878032802D001202070F7E7954886
:1050B000007810B102202070F1E79548007810B117
:1050C0000D202070EBE7FDF703FF0746288940B16C
:1050D0002889401E28813846FDF7FEFE00202070FA
:1050E000DDE78C48006890F8340040F00100894901
:1050F000096881F8340000208649096881F8350084
:105100008448006806632846FEF787FD3846FDF7A9
:10511000E3FEFEF782F8FDF7DBFE07467D480068F8
:1051200090F8350020B1012809D0022806D102E00C
:10513000002020700BE00E20207008E000BF294600
:1051400074480068FEF714FD0A20207000BF00BFFD
:1051500000207049096881F834006E49096881F8B7
:1051600035006C490968C8616A49096808623846AF
:10517000FDF7B2FE00BF92E72DE9F04104460F466D
:1051800015464FF0000824B9042028700020BDE81F
:10519000F0812078032803D0012028700020F6E752
:1051A000FDF796FE8046A07A20B300267FB1012F3E
:1051B0000CD107E00223012200212046FEF7EDFC7E
:1051C000701CC6B2A07A0028F4D109E000BF022307
:1051D000012200212046FEF7E0FC701CC6B200BF91
:1051E00000BF4046FDF778FEFEF717F80E20287046
:1051F0003046CCE74046FDF76FFE0020287000BF28
:10520000C5E770B5044600250CB9042070BD2078B0
:10521000032801D00120F9E7FDF75AFE0546A07AE0
:1052200060B10023012219462046FEF7B6FC28464D
:10523000FDF752FEFDF7F1FF0020E7E720894FF66A
:10524000FF71884207D22089401C20812846FDF743
:1052500043FE0020DAE72846FDF73EFE3320D5E77F
:105260002DE9F04704460D464FF0000914B904201B
:10527000BDE8F0870DB90920FAE72078032801D0AE
:105280000120F5E7FDF724FE8146A07AA87204F11B
:105290000B0705F10208002605E017F8010B08F8D6
:1052A000010B701CC6B2082EF7D32089288048460F
:1052B000FDF712FE0020DBE72DE9F04104460E4623
:1052C000154600271CB904202870BDE8F08120781D
:1052D000032802D001202870F7E7FDF7F9FD074603
:1052E00000202870208908B1268105E0A07A08B93D
:1052F000268101E0492028703846FDF7EDFD00BF0A
:10530000E3E70000B9000020A40000203F000000F7
:10531000BA000020CC0000202DE9F04F85B0814676
:10532000884600200090B9F13F0F06D3B9F1FF0F76
:1053300003D02A2005B0BDE8F08FB8F13F0F01D3AC
:105340002A20F7E7FDF7C4FD0090F94850F828003F
:1053500020B10098FDF7C0FD2820EBE7B9F1FF0F61
:1053600003D1F448006890F83690F14850F829507D
:1053700025B90098FDF7B0FD2920DBE7012D04D108
:105380000098FDF7A9FD4320D4E74FEAE80708F0AD
:10539000070003900120B84000F0FF0A01210398A4
:1053A000814001F0FF0B0020E14941F82900084647
:1053B00040F8285015F8386FA87802906878383D82
:1053C0000190DD48815D01980140D1B1DA48805DEE
:1053D00001998843D84988550846805D28B9D7483F
:1053E000007802998843D5490870D448007840EA8B
:1053F0000A00D2490870D048C05D40EA0B00CE498F
:10540000C855EC69D4B104F10B00805D0199884363
:1054100004F10B0188550846805D18B9A07A0299FD
:105420008843A072A07A40EA0A00A07204F10B003F
:10543000C05D40EA0B0004F10B01C855286A30B387
:10544000286A0490049804681FE004F10B00805D52
:105450000199884304F10B0188550846805D18B90D
:10546000A07A02998843A072A07A40EA0A00A0724A
:1054700004F10B00C05D40EA0B0004F10B01C855BC
:105480000498001D049004980468002CDDD185F870
:10549000368085F83870039885F8370085F83AA08B
:1054A00085F839B00098FDF717FDA5480078012868
:1054B00001D1FDF7B2FE00203CE72DE9FE4F064684
:1054C0000F4690461C464FF000093F2C02D92A2077
:1054D000BDE8FE8FFDF7FCFC81469A48007820B1BC
:1054E0004846FDF7F9FC3C20F2E7914850F82400CB
:1054F00060BB01208E4941F824004846FDF7ECFCD2
:105500000023424639463046FDF74DFC82460020D6
:105510000090019003460246514602902046FEF755
:10552000CCFB054635B98648007801280CD1FDF73B
:1055300074FE09E0FDF7CCFC814600207C4941F86F
:1055400024004846FDF7C8FC2846C1E74846FDF759
:10555000C3FC2820BCE702F0010343B102F00203C0
:105560002BB102E0491E002308C00029FAD1704780
:105570002DE9F04F85B081468A4693461C46DDE909
:105580000F78129D002003903F2C03D92A2005B0EC
:10559000BDE8F08FFDF79CFC03906A48007820B1CD
:1055A0000398FDF799FC3C20F1E7614850F824008E
:1055B00088BB01205E4941F824000398FDF78CFC6C
:1055C0002A4641463846FFF7C6FF2B465A46514603
:1055D0004846FDF7E8FB04901198CDE9008002955C
:1055E0003A4620460E9B0499FEF767FB064636B9FD
:1055F0005348007801280CD1FDF70FFE09E0FDF7B4
:1056000067FC039000204A4941F824000398FDF705
:1056100063FC3046BBE7FFE70398FDF75DFC2820FD
:10562000B5E72DE9F041054600274648007810B15E
:105630004020BDE8F0813F2D01D13E20F9E73F2D0C
:1056400003D3FF2D01D02A20F3E7FDF741FC0746E5
:10565000FF2D03D13748006890F83650344850F891
:10566000254024B93846FDF737FC4320E1E7012CFB
:1056700004D13846FDF730FC3D20DAE714F8380F46
:105680002D49085C6178884321782B4A505414F8DE
:1056900038091146085C30B994F83A102748007868
:1056A000884326490870E06918B12046E169FEF791
:1056B0005FFA206A18B12046216AFDF784FDA66AC8
:1056C00016B13046FEF75EFC0020206384F83400FB
:1056D00084F835001C480078FF2804D21A48007866
:1056E000401C194908703846FDF7F6FBFEF73FFAF3
:1056F000FDF7EEFB07461448007820B11248007809
:10570000401E114908702046FDF73FFB0F48007806
:10571000401E0E4908700020054941F82500A06987
:10572000C0B900206169886109496069086017E0B3
:10573000E0380120CC000020BE000020BD00002089
:10574000C6000020B9000020BA000020C7000020D9
:10575000D8000020D4E905014861D4E9051088612A
:10576000F74800686061F6480460F6A02065384696
:10577000FDF7B2FBF4480078012801D1FDF74DFD9B
:10578000002056E72DE9F041044600273F2C02D1C6
:105790003E20BDE8F0813F2C03D3FF2C01D02A200E
:1057A000F7E7FF2C0BD1FDF793FB0746E7480068AE
:1057B00090F83B603846FDF78FFB3046E9E7FDF790
:1057C00087FB0746E24850F8245025B93846FDF7D4
:1057D00083FB4320DDE7012D04D13846FDF77CFB38
:1057E0003D20D6E73F2085F83B003846FDF774FBA7
:1057F0000020CEE72DE9F04705460E4614464FF04F
:1058000000083F2D06D9FF2D04D02A20207000204B
:10581000BDE8F0871EB90C2020700020F8E7CD48C5
:10582000007818B1112020700020F1E7FDF750FB3F
:105830008046FF2D03D1C548006890F83650C44813
:1058400050F8257037B94046FDF746FB43202070DD
:105850000020DDE7012F06D14046FDF73DFB432048
:1058600020700020D4E7386D30603068FDF734FCDC
:1058700081464046FDF730FB002020704846C7E7D0
:105880002DE9F04105460F4614464FF000083F2D24
:1058900005D9FF2D03D02A202070BDE8F08117B96B
:1058A0000C202070F9E7AB48007810B1122020706E
:1058B000F3E7FDF70DFB8046FF2D03D1A3480068F9
:1058C00090F83650A24850F825602EB94046FDF7B2
:1058D00003FB43202070E0E7012E05D14046FDF791
:1058E000FBFA43202070D8E737654046FDF7F4FA0D
:1058F0000020207000BFD0E770B5054600263F2D80
:1059000001D32A2070BDFDF7E3FA0646904850F80F
:10591000254024B93046FDF7DFFA4620F2E7012C96
:1059200004D13046FDF7D8FA4320EBE794F8340071
:1059300000F0080060B314F8340F00F0F700207096
:1059400014F83409F8B9206BC8B93834A078824902
:10595000097808438049087020788049085C61789C
:10596000084314F838197D4A50543046FDF7B4FA0C
:1059700075480078012809D1FDF74FFC06E0304654
:10598000FDF7AAFA02E03046FDF7A6FA0020B9E7D3
:105990003046FDF7A1FA4420B4E72DE9F04706466A
:1059A0000C464FF0000A3F2E04D9FF2E02D02A20C9
:1059B000BDE8F0870CB90920FAE70020206060609C
:1059C000FDF786FA8246FF2E03D16048006890F802
:1059D00036605F4850F8265025B95046FDF77CFAEE
:1059E0004320E5E7012D04D15046FDF775FA432029
:1059F000DEE7287C00F0010020B95046FDF76CFA84
:105A00004520D5E70027D5F80C90D5F808805046FA
:105A1000FDF762FA00E07F1C58F8041B0029FAD059
:105A2000B8002060A9EB0700800060600020BFE79D
:105A30002DE9F04105464FF000083F2D02D14720E7
:105A4000BDE8F0813F2D03D3FF2D01D02A20F7E7D9
:105A5000FDF73EFA8046FF2D05D13C48006890F8DE
:105A60003650012608E03948006890F83600A84210
:105A700001D1012600E00026354850F8254024B920
:105A80004046FDF729FA4820DAE7012C04D14046C8
:105A9000FDF722FA4320D3E794F838702F48C05D11
:105AA00094F8391088432D49C8550846C05D30B96F
:105AB00094F83A102848007888432749087094F8E9
:105AC000340040F0080084F834004046FDF704FA42
:105AD000012E01D1FDF7A1FB0020B1E72DE9F04136
