:020000040800F2
:10000000F850012085330008ED110008F1110008B7
:10001000F5110008F9110008FD11000800000000AA
:1000200000000000000000000000000001120008B5
:10003000031200080000000083350008E5340008C2
:100040009F3300089F3300089F3300089F33000848
:100050009F3300089F3300089F3300089F33000838
:100060009F3300089F3300089F3300089F33000828
:100070009F3300089F3300089F3300089F33000818
:100080009F3300089F3300089F3300089F33000808
:10009000C90700089F3300089F3300089F330008FA
:1000A0009F3300083D0A00089F3300089F33000873
:1000B000030A0008F10A0008230B00089F33000818
:1000C0009F3300089F3300089F3300089F330008C8
:1000D0009F330008550B00089F330008170F0008D6
:1000E0009F3300089F3300089F3300089F330008A8
:1000F0006F0A00089F3300089F3300089F330008F1
:100100009F3300089F330008A10A00089F330008AE
:10011000091100083F1100089F330008C3110008AF
:100120009F3300089F3300089F3300089F33000867
:100130009F3300089F3300089F3300089F33000857
:100140009F3300089F3300089F3300089F33000847
:100150009F3300089F3300089F3300089F33000837
:100160009F3300089F3300089F3300089F33000827
:100170009F3300089F3300089F3300089F33000817
:100180009F3300089F33000800F002F800F090F859
:100190000AA090E8000C82448344AAF10107DA45E2
:1001A00001D100F085F8AFF2090EBAE80F0013F0A4
:1001B000010F18BFFB1A43F00103184700C30000EA
:1001C00020C30000103A24BF78C878C1FAD852077B
:1001D00024BF30C830C144BF04680C6070470000C1
:1001E0000023002400250026103A28BF78C1FBD840
:1001F000520728BF30C148BF0B6070476E2909F015
:100200004D80702909F0A58166290BF010876529BA
:100210000BF00D8767290BF00A8761290BF009871E
:1002200003681B0A28BF41F08001692908F0FA879A
:10023000642908F0F787752908F0F4876F2909F019
:100240003381782909F07181E92909F0CD80E42909
:1002500009F0CA80F52909F0C780EF2909F030813B
:10026000F82909F070810368DB0928BF41F080019B
:10027000632909F04E80732909F05380E32909F0BE
:10028000AB85F32909F0B085002070471FB509F050
:1002900001FE0400002000210AF0C4FD401C606043
:1002A000002000210AF0A8FDE0601FBD10B510BDC0
:1002B00009F0C2FD1146FFF7E9FF00F01DF809F053
:1002C0009BFE03B4FFF7F2FF03BC09F0DFFE000062
:1002D000184800686421B0FBF1F4204603F013F9DC
:1002E00003F0F2FE00F00AFA00BF00231A460121D3
:1002F000184606F001F8F8E710B586B000BF03F025
:1003000061F903F0DCFD032000214FF480720A4BF9
:10031000CDE90132CDE903100A200346074A0090D7
:10032000074805F05DFC044603F0B6FE002006B069
:1003300010BD000094000020200100201C050020BA
:10034000D10200080EB59DF80800029002AA002113
:10035000F548006805F0E8FA25E102AA0021F24814
:10036000006805F0CBF901F095FD044601F00CFDA5
:10037000054601F003FD06462246294601F007FD29
:10038000EA48007830B1012851D0022861D0032812
:1003900071D19BE001F0F2FC0446E5490BF0DEFC74
:1003A00009D2E44AE249080302F0B8FE0446E249F1
:1003B00002F034FE3AE001F0E1FC0446DC490BF0C7
:1003C000CDFB0BD801F0DAFC0446DC490BF0C6FC8F
:1003D00004D2D949D74802F021FE27E001F0CEFC33
:1003E0000446D6490BF0BAFB20D8D24AD449D348A8
:1003F00002F077FE0446D04902F010FE4FF400717F
:10040000D04806F07BFC88B14FF48071CD4806F0EF
:1004100075FC58B101F0B2FC0446CB490BF09EFBD1
:1004200004D800214FF0004002F0F8FD50E002F047
:1004300087FC0121C34806F061FC48B10221C14894
:1004400006F05CFC20B1B9480078401CB749087040
:100450003EE0BE4A0021052002F05CF801F08EFC6F
:100460000446BB490BF07AFB06D8BA494FF07E50E0
:1004700002F0D4FD29E02AE001F080FC0446B449F2
:100480000BF06CFC11D201F079FC0446B2490BF080
:1004900065FB0AD84FF07E52B049AD4802F021FE0C
:1004A0000446AC4902F0BAFD0FE001F067FC0446D7
:1004B000A9490BF053FC08D20021084602F0AEFD1A
:1004C0009A480078401C9949087001E000E000BF9C
:1004D00000BFA3480078401CA14908700846007876
:1004E0000A2842D101F04AFC9E4908609E480168F2
:1004F0009C4800680BF026FD04469C490BF004FA6A
:100500009B490860984800680BF0C0FA044695487B
:1005100000680BF0BBFA0546954800680BF0B6FA88
:1005200083460BF0EFFA81469148016848460BF08C
:1005300077FC80468F490BF045FB07460BF0A6FA87
:1005400006468B4800680BF0A1FA824633465246B5
:1005500089A18E48CDE9005401F0D0FC81480068A3
:100560008149086000207E49087089480078012888
:1005700019D188480078401C8649087008460078E0
:10058000642810D18448006800F500608249086042
:10059000084600210268092001F0BCFF00207C49C8
:1005A00008707C490870D8E608B500BF4FF4A06019
:1005B00006F0C6FE0020034640F2473240F2E73123
:1005C00000904FF0804000F038FE0020034640F2DB
:1005D000473263210090714800F02FFE40F2DC5159
:1005E0006F4801F0C2F84FF4E13001F01DFB4FF409
:1005F000E13001F027FD4FF4E13001F066FB42F2FB
:100600001071674801F0B1F801F07EFA01F0C2FA0A
:100610004FF400704310634A4FF4FA71009062483F
:1006200002F024F901F098FD012001F0A1FD022063
:1006300001F09EFD032001F09BFD042001F098FDD8
:10064000062001F095FD072001F092FD082001F041
:100650008FFD092001F08CFD0A2001F089FD0B209F
:1006600001F086FD514A1146012001F01EFE4F4A5D
:100670001146022001F019FE4C4A1146032001F0F8
:1006800014FE4A4A1146042001F00FFE42F6E063D0
:10069000474A1146052001F0CBFE47F2305341F2A4
:1006A00088321146062001F0C3FE47F2305341F272
:1006B00088321146072001F0BBFE47F2305341F269
:1006C00088321146082001F0B3FE43F69823394AD8
:1006D0001146092001F0ACFE354A11460A2001F00E
:1006E000E4FD334A11460B2001F0DFFD32212C4896
:1006F00001F03BF8FF2005F0D3FC08BD10B500BFAA
:10070000002004F069FF084908600B232A4A0021F1
:100710002A4805F00AFA04460C23294A00212948F0
:1007200005F003FA044610BD00000020140000206C
:100730000000C8C30000C0BF0AD7A33D00E044C604
:1007400000B04CC60010024000204BC610B6FDFFA2
:100750000050EBC5295C8F3D0010CCC500405DC545
:10076000060000200C000020080000200000C84205
:100770001000002000007A4425642E2564202020EB
:10078000256420202025640D0A0000000050004050
:10079000040000200500002030000020000400407C
:1007A000000C00400004024000640040A0860100EC
:1007B000E093040090D003001CA90020A9050008C4
:1007C0001C290120450300082DE9F05F4FF0000AC5
:1007D00002F0B6FE8346FB480078401CF9490870D9
:1007E000584602F0B1FE0823F74AF849F84802F0EB
:1007F0003FFAF648006816281BD1F3480078F549FF
:100800000870F1484078487008460088F24908802E
:10081000ED488078F1490870EB48C0784870084688
:100820000088EF4908800846B0F90010002002F067
:1008300045FAE648006818281BD1E3480078E549E6
:100840000870E1484078487008460088E24908800E
:10085000DD488078E1490870DB48C0784870084678
:100860000088E04908800846B0F90010012002F035
:1008700025FAD648006840F2862188420ED0D34837
:100880000068491C884209D0D0480068B0F5227F32
:1008900004D0CE480068891C88427DD14FF0000A00
:1008A00007E0C94810F80A00CF4901F80A000AF128
:1008B000010ABAF1080FF4DBCB480068CB49884243
:1008C0000BD1C248006840F28921884205D1C6494F
:1008D00048680BF017F9C6490860C3480068C34967
:1008E000891F88425DD1B948006840F2862188425C
:1008F00014D1BD494968A1F1F9000AF0E7FC80462E
:10090000BC4ABD4B0AF036FD06460022BB4B0AF03E
:1009100065FE04460AF09CFAB9490860AB480068D5
:1009200040F28721884214D1AF494968A1F23A4088
:100930000AF0CCFC8046B34AB34B0AF01BFD0646D6
:100940000022AE4B0AF04AFE04460AF081FAAC4996
:1009500048609E480068B0F5227F14D1A2494968DA
:10096000A1F265400AF0B2FC8046A84AA84B0AF002
:1009700001FD06460022A74B0AF03CFE04460AF0A1
:1009800067FA9F4988609148006840F2892188424F
:1009900007D19549486800E003E00BF0B3F89849A7
:1009A000C8609D498A4808F094F99B49491C8848C9
:1009B00008F08FF99849C91C854808F08AF99749C9
:1009C000834808F086F99649814808F082F99549EC
:1009D0007F4808F07EF9934908317D4808F079F99D
:1009E00091497B4808F075F99049794808F071F908
:1009F0008E490831764808F06CF903F08AFABDE8B0
:100A0000F09F10B502F09CFD04466E480078401C33
:100A10006C490870204602F097FD0121880707F015
:100A200064FA012807D18248006804F022FF0121FE
:100A3000880707F06BFA03F06CFA10BD10B502F0EE
:100A40007FFD04465F480078401C5E4908702046E0
:100A500002F07AFD0121774807F047FA012803D117
:100A60000121744807F052FA03F053FA10BD10B593
:100A700002F066FD044653480078401C5149087056
:100A8000204602F061FD01216B4807F02EFA012893
:100A900003D10121684807F039FA03F03AFA10BD92
:100AA0002DE9F04102F04CFD044646480078401C18
:100AB00044490870204602F047FD01215F4807F0D5
:100AC00014FA012810D101215C4807F01FFA01F047
:100AD000E1F9054601F058F9064601F04FF90746DD
:100AE0002A46314601F053F903F013FABDE8F081CC
:100AF00010B502F025FD044632480078401C31490B
:100B00000870204602F020FD01214D4807F0EDF964
:100B1000012803D101214A4807F0F8F903F0F9F957
:100B200010BD10B502F00CFD044626480078401CAC
:100B300024490870204602F007FD0121414807F0D2
:100B4000D4F9012803D101213E4807F0DFF903F071
:100B5000E0F910BD2DE9F041002502F0F1FC074657
:100B600018480078401C17490870384602F0ECFC21
:100B700040F22551344807F07EFC012868D140F24C
:100B80002551314807F0AEFC2F4807F0C8FBC4B22E
:100B900021462D4807F0ADFB2C4800680F2874D281
:100BA000DFE800F008576378848C8D8E8F9091A0D9
:100BB000FEFDFC00412C04D124480068401C234960
:100BC0000860A2E1C90000204C0000205400002071
:100BD0000064004018000020240000201A000020BB
:100BE000280000202A0000201C0000205658004049
:100BF0002C00002022718FA50F5D903F00804640A1
:100C000020290120543541D47D00923FEE258DD11D
:100C10003AAA8A3F000018400100F0107000F0303E
:100C20000300001208000032030000140800003422
:100C3000000000200000014000040140000C0040C2
:100C4000000400400008004000100140580000204F
:100C50005DE1432C05D1FE480068401CFC4908605A
:100C600002E00020FA4908604FE1502C05D1F84815
:100C70000068401CF64908600BE0432C06D1F4489C
:100C800000680A30F249086003E011E10020F049F1
:100C900008603AE1432C05D1ED480068401CEC495E
:100CA000086002E00020EA4908602EE1E94804708B
:100CB000E7480068401CE649086026E100BF00BF25
:100CC00000BF00BF00BFE2480068092804DAE0481E
:100CD0000068401FE0490C54DD480068401CDC49B6
:100CE000086012E1DB480078052190FBF1F201FB7E
:100CF000120005287ED2DFE800F0032D5B87980004
:100D0000D4480078052190FBF1F0D449D24A12680A
:100D100041F82020D0480168D1480BF013F905466E
:100D2000002128460AF01AFF00D20025CC492846A7
:100D30000BF014F800D2CA4DCA4928460AF042FF07
:100D400080460AF0A3FE064632460021072001F045
:100D5000E1FB7FE0BF480078052190FBF1F0C2493C
:100D6000BD4A126841F82020BB490868BF490AF013
:100D700057FD0546002128460AF0F0FE00D2002566
:100D8000BB4928460AF0EAFF00D2B94DB9492846C6
:100D90000AF018FF80460AF079FE02E076E06DE086
:100DA00060E0064632460021082001F0B3FB51E026
:100DB000A8480078052190FBF1F1AF48A64A1268D7
:100DC00040F82120A4480168A5480BF0BBF805466F
:100DD000002128460AF0C2FE00D20025A749284675
:100DE0000AF0BCFF00D2A54DA54928460AF0EAFE4C
:100DF000804600E02AE00AF049FE0646324600211D
:100E0000062001F087FB25E092480078052190FB41
:100E1000F1F19C48904A126840F821208E48006801
:100E200001030B2001F0A7FA14E08A48007805219D
:100E300090FBF1F09449884A126841F820208648D6
:100E4000006801030A2001F096FA03E0FF208149BF
:100E5000087000BF00BF00207D490860FF207D4969
:100E6000087052E0542C05D179480068401C78493C
:100E7000086002E000207649086046E0754804708A
:100E800073480068401C724908603EE07F48006873
:100E9000401C7E49086008460068062807D16C4857
:100EA0000068401C6A4908600020784908602CE00E
:100EB000684800787649086008460068012802D032
:100EC00002281AD115E07348007870B9724800689A
:100ED00000F500607049086008460021026809209A
:100EE00001F018FB01206B49087000206849086078
:100EF00003E000206649086000BF00BF002054499D
:100F00000860FF205349087000BF00BF00BF03F016
:100F100000F8BDE8F08110B502F012FB04465F480E
:100F20000078401C5D490870204602F00DFB40F23D
:100F300025515B4807F09FFA01287DD140F22551E9
:100F4000574807F0CFFA564807F0E9F955490870B5
:100F500055480078052870D2DFE800F00311263DDF
:100F60004B00504800780D2805D14F480078401CB0
:100F70004D49087002E000204B490870C0E0494824
:100F800000780A2808D100204849087046480078AF
:100F9000401C4549087006E0424800780D2802D000
:100FA000002041490870ABE03E48007840493F4A84
:100FB000127888543D480078401C3C490870084627
:100FC0000078182806DB0020087037480078401C9D
:100FD0003549087094E0334800780A2805D1324832
:100FE0000078401C3049087002E000202E4908704B
:100FF00086E02C4800780D287AD12D4800682D49CC
:1010000008602B4840682C490860294880682B49B3
:1010100008602748C0682A490860254800692949AE
:10102000086023484069284908602348006822492D
:1010300008602248006801E063E05DE01F49086045
:101040001F4800681E4908601E4800681D493EE0B0
:10105000580000205C00002064000020302901209E
:10106000000034423C8E63424C2901200000C04005
:10107000000010429A999942682901200000B44268
:10108000A64F7A4284290120A02901206000002077
:10109000680000200400002030000020C90000206B
:1010A000004800406C0000206D0000206E00002011
:1010B000BC2901203C00002040000020440000200A
:1010C00034000020380000204800002010E00860B4
:1010D0004C4800684B4908604B48006800F04BFEE4
:1010E0004A48006800F04DFE4948006800F0CFFE15
:1010F00000204849087003E000204649087000BFFE
:1011000000BF02F006FF10BD10B502F019FA044648
:1011100041480078401C40490870204602F014FA0B
:1011200040F225513D4807F0A6F9012804D140F2CC
:1011300025513A4807F0D6F902F0EBFE10BD70B524
:1011400002F0FEF9054634480078401C3249087028
:10115000284602F0F9F940F22551314807F08BF9A1
:1011600028B340F225512E4807F0BCF92C4807F06F
:10117000D6F8C4B22B48008800F40040B8B929481A
:101180000088B0F5C87F13DA0021274806F03EFA40
:101190002448008818B90121234806F077FA21482D
:1011A00001880088401C1F4A10802048445405E0F4
:1011B0001C48008840F400401A49088002F0A9FE4B
:1011C00070BD10B50121184806F08FFE68B11548B2
:1011D000008840F40040134908800121124806F0BD
:1011E00095FE0021104806F051FA10BD00BFFEE741
:1011F00000BFFEE700BFFEE700BFFEE700BFFEE75F
:10120000704770474800002034000020380000205C
:101210003C0000206D000020C9000020004C004070
:10122000005000407000002000140040702B01208E
:1012300000BF401E0028FCD170472DE9FF41044645
:101240000D4616461F46DDF82880F949601A8C4283
:1012500070D01ADCF749A4EB01008C426CD00ADC98
:10126000B4F1804F4ED0F4482044002852D0B0F55D
:10127000806F71D156E0B0F5806F65D0B0F5006F2A
:101280006CD0B0F5406FF4D170E0B0F5923F21D052
:1012900009DCB0F5806F7AD0B0F5644F0AD0B0F5B4
:1012A000684F7CD10EE0B0F5943F1BD0B0F5963F6F
:1012B00075D11FE00121084605F048FF19208DF87F
:1012C00000006DE00121022005F040FF2C208DF888
:1012D000000065E00121080405F038FF18208DF8B2
:1012E00000005DE00121192005F030FF2C208DF871
:1012F000000055E00121880405F028FF1A208DF830
:1013000000004DE00121084605F00FFF1C208DF87C
:10131000000045E00121022005F007FF1D208DF8A7
:1013200000003DE00121042005F0FFFE1E208DF8A5
:10133000000035E023E0FFE70121082005F0F5FE7D
:1013400032208DF800002BE00121102005F0EDFE89
:1013500036208DF8000023E021E0FFE70121202066
:1013600005F0E3FE37208DF8000019E00121402050
:1013700005F0DBFE2B208DF8000011E007E00121D5
:10138000802005F0D2FE2C208DF8000008E001211D
:10139000080205F0CAFE2D208DF8000000E000BF15
:1013A00000BF0295ADF804600020ADF80C00ADF868
:1013B000060001A9204606F0E0F80121204606F0CB
:1013C000A5FD01221146204606F078FDF8B28DF801
:1013D000010008F0FF008DF8020001208DF80300E5
:1013E000684605F0B2FF0121204606F04FF9BDE83E
:1013F000FF81FEB504460D462E468D49601A8C428B
:1014000070D01ADC8B49A4EB01008C426CD00ADC52
:10141000B4F1804F4ED088482044002852D0B0F517
:10142000806F71D156E0B0F5806F65D0B0F5006F78
:101430006CD0B0F5406FF4D170E0B0F5923F21D0A0
:1014400009DCB0F5806F7AD0B0F5644F0AD0B0F502
:10145000684F7CD10EE0B0F5943F1BD0B0F5963FBD
:1014600075D11FE00121084605F070FEA820ADF8F7
:1014700000006DE00121022005F068FEA820ADF813
:10148000000065E00121080405F060FEA820ADF829
:1014900000005DE00121480405F058FEA820ADF8E9
:1014A000000055E00121880405F050FEA820ADF8A9
:1014B00000004DE00121084605F037FE5420ADF84C
:1014C000000045E00121022005F02FFE5420ADF878
:1014D00000003DE00121042005F027FE5420ADF876
:1014E000000035E023E0FFE70121082005F01DFEA4
:1014F0005420ADF800002BE00121102005F015FE6E
:101500005420ADF8000023E021E0FFE70121202076
:1015100005F00BFE5420ADF8000019E00121402039
:1015200005F003FE5420ADF8000011E007E00121B2
:10153000802005F0FAFD5420ADF8000008E00121FC
:10154000080205F0F2FD5420ADF8000000E000BFF5
:1015500000BF012001900020ADF80800ADF80200A6
:101560006946204606F009F80121204606F08EF86B
:101570004FF6FF70811B204606F048F803E0204636
:1015800006F048F886B24FF6FF708642F7DB00217E
:10159000204606F07BF8FEBDFEB504460D462E46FD
:1015A0002349601A8C4276D01ADC2249A4EB010050
:1015B0008C427CD00ADCB4F1804F5AD01E482044C3
:1015C00000285FD0B0F5806F67D167E0B0F5806F1D
:1015D00079D0B0F5006F7FD0B0F5406FF4D184E0E2
:1015E000B0F5923F2AD009DCB0F5806F6AD0B0F533
:1015F000644F0AD0B0F5684F4FD10FE0B0F5943F7B
:1016000025D0B0F5963F48D12AE00121084605F0E3
:101610009DFD44F2A010ADF8000082E001210220FF
:1016200005F094FD44F2A010ADF8000079E0000050
:10163000001C0040000C004000FCFFBF012108041A
:1016400005F084FD44F2A010ADF8000069E001212E
:10165000480405F07BFD44F2A010ADF8000060E006
:101660000121880405F072FD44F2A010ADF80000DD
:1016700057E00121084605F058FD42F2D000ADF8D0
:1016800000004EE00121022005F04FFD42F2D000A3
:10169000ADF8000045E031E009E041E0012104201F
:1016A00005F043FD42F2D000ADF8000039E0012121
:1016B000082005F03AFD42F2D000ADF8000030E01D
:1016C00001E009E023E00121102005F02EFD42F2A7
:1016D000D000ADF8000024E00121202005F025FD18
:1016E00042F2D000ADF800001BE00121402005F0DF
:1016F0001CFD42F2D000ADF8000012E00121802074
:1017000005F013FD42F2D000ADF8000009E0012120
:10171000080205F00AFD42F2D000ADF8000000E03A
:1017200000BF00BF012001900020ADF80800ADF817
:1017300002006946204605F020FF0121204605F001
:10174000A5FF4FF6FF70811B204605F05FFF03E009
:10175000204605F05FFF86B24FF6FF708642F7DB4A
:101760000021204605F092FFFEBD70B506460C46EE
:10177000002500BF04E00A213046FFF70DFF6D1C75
:10178000A542F8D370BD30B58BB004460D4601219B
:10179000022005F0CAFC0121022005F093FC022280
:1017A0000521A24805F0D3FA2020099002208DF8E7
:1017B000280003208DF8290000208DF82A00012040
:1017C0008DF82B0009A9994805F036FAA8B2ADF8B2
:1017D00018000020ADF81A000794ADF8200006A903
:1017E000934805F0CAFE6020ADF804000120ADF872
:1017F00006000020ADF8100001A98D4805F08BFF10
:1018000008218B4806F0E4F80121894805F020FF03
:101810000121874805F03AFF6421854806F09DF8CC
:101820000BB030BD30B58BB004460D46012104200D
:1018300005F07BFC0121082005F044FC02220C216C
:101840007C4805F084FA02220E217A4805F07FFADE
:101850004FF4A040099002208DF8280003208DF855
:10186000290000208DF82A0001208DF82B0009A9FD
:10187000704805F0E1F9A8B2ADF818000020ADF805
:101880001A000794ADF8200006A96B4805F075FE14
:101890006020ADF804000120ADF806000020ADF88E
:1018A000100001A9644805F0FDFE01A9624805F099
:1018B0007FFF0821604806F082F808215E4806F0A4
:1018C00094F801215C4805F0C3FE01215A4805F057
:1018D000DDFE6421584806F03EF86421564806F0C3
:1018E0003EF80BB030BD2DE9F84F044689464FF065
:1018F000000A524948460AF007F8514900900AF098
:1019000061F9834609F060FF07464E4A4E4B09F0E5
:10191000D1FA054609F09CFA82464C4950460AF035
:101920001DFA01D2DFF824A1002150460AF016F971
:1019300001D24FF0000A012C0BD1454950460AF064
:1019400041F906460AF0BEF8054629463A4806F02F
:1019500002F8022C0BD13E4950460AF033F90646F4
:101960000AF0B0F805462946334805F0F8FFBDE80F
:10197000F88F70B504460D46364840F8245050F8AC
:1019800024102046FFF7AFFF70BD0146314850F8E4
:101990002100704710B504462E4951F824002E4905
:1019A00009F03EFF2B4941F82400084650F8241066
:1019B0002046FFF798FF10BD10B50446254951F8A1
:1019C000240025490AF0BEFA224941F824000846BD
:1019D00050F824102046FFF786FF10BD7FB505465E
:1019E0000C460121202005F0A0FB0195ADF8004038
:1019F0000020ADF80800ADF802006946174805F070
:101A0000BCFD01221146154806F058FA37208DF822
:101A10000C0000208DF80D0001208DF80E008DF8CF
:101A20000F0003A805F091FC7FBD000000040240F8
:101A300000040040000C0240000800400000C842C2
:101A4000CDCC4C3D9A9999999999A93F00000243B0
:101A50000000FA44D4290120000040400014004056
:101A60007CB504460D461646C4F30900002839D15A
:101A7000A012A0F580108038092833D2DFE800F0EA
:101A8000050A0F14191E23282D000121084605F010
:101A900019FB28E00121022005F014FB23E00121BD
:101AA000042005F00FFB1EE00121082005F00AFBD1
:101AB00019E00121102005F005FB14E00121202090
:101AC00005F000FB0FE00121402005F0FBFA0AE0E1
:101AD0000121802005F0F6FA05E00121080205F059
:101AE000F1FA00E000BF00BF00958DF8046000200F
:101AF0008DF806008DF8070002208DF80500694674
:101B0000204605F099F87CBD1CB50121102005F098
:101B1000D9FA0320009000208DF804008DF806000B
:101B200002208DF807008DF805006946344805F05D
:101B300083F80320009002208DF8070069463048A2
:101B400005F07AF80121022005F0BCFA4FF480601C
:101B5000009000208DF804008DF8060001208DF81B
:101B6000070002208DF805006946264805F064F854
:101B70004FF48060009001208DF8070069462148ED
:101B800005F05AF81CBD10B5012204211C48FFF7CE
:101B900067FF10BD1CB50121102005F093FA4FF42A
:101BA000F060009000208DF804008DF806000320FE
:101BB0008DF8050001208DF807006946104805F0F2
:101BC0003BF84FF4F0610E4805F0B2F80121022015
:101BD00005F078FA0220009000208DF804008DF8BE
:101BE000060003208DF8050001208DF807006946E6
:101BF000044805F021F80221024805F099F81CBDBF
:101C0000001002400004024070B504460D46E1B2E7
:101C1000FC4806F06EFB00BF4021FA4806F05CFB72
:101C20000028F9D0204670BD10B588B004460121C7
:101C3000022005F047FA0121102005F087FA07225B
:101C40000621F14805F083F807221146EE4805F019
:101C50007EF8C020069002208DF81C008DF81D0033
:101C600000208DF81E0001208DF81F0006A9E6480F
:101C700004F0E2FF02940020ADF80C00ADF80E0075
:101C8000ADF81000ADF814000C20ADF8120002A958
:101C9000DE4806F065FA25208DF8040000208DF856
:101CA000050001208DF806008DF8070001A805F059
:101CB0004CFB012240F22551D44806F0B7FB01212C
:101CC000D24806F0D5FA08B010BD10B588B0044669
:101CD0000121042005F0F6F90121880405F025FA18
:101CE00007220A21CA4805F032F807220B21C8480A
:101CF00005F02DF84FF44060069002208DF81C008E
:101D00008DF81D0000208DF81E0001208DF81F00A9
:101D100006A9BF4804F090FF02940020ADF80C0023
:101D2000ADF80E00ADF81000ADF814000C20ADF8C1
:101D3000120002A9B74806F013FA0121B54806F0CF
:101D400097FA4021B34806F0BEFA012240F225512D
:101D5000B04806F06BFB27208DF8040000208DF8BA
:101D6000050001208DF806008DF8070001A805F098
:101D7000ECFA08B010BDA84908607047A648006892
:101D80007047A64908607047A448006870472DE96D
:101D9000F04F8BB006460C469146A148016830468C
:101DA0000AF0D0F883469F48016820460AF0CAF836
:101DB0000A90584609F008FD21F0004107464FF00F
:101DC0003332994B09F0D4FB0BD30A9809F0FCFC91
:101DD00021F0004107464FF03332934B09F0C8FB26
:101DE0002BD2484609F0F0FCCDE9080159460A9883
:101DF00008F000FE019009F0E7FC8C4A8C4BCDE91D
:101E0000020109F00BF900228A4BCDE9040109F027
:101E1000B1FACDE90601DDE9082309F0EBFB21F079
:101E2000004107460022844B09F068FA01D20120E4
:101E300001E04FF0FF30824601E04FF0000A0A99BE
:101E4000084609F0BFFE59460890584609F0BAFE08
:101E50000790089909F0E4FC804608F0B7FF0746B0
:101E600064210AFB01F009F04DFE3946099009F0A2
:101E7000A9FE05466A4806606A4804606F490D601D
:101E800028460BB0BDE8F08F6C48006870476C497D
:101E9000086070476A4800687047F0B503460D4611
:101EA0001646002729460A2E03D00020087028462F
:101EB000F0BD33B9302001F8010B0020087028462E
:101EC000F6E7002B03DA2D2001F8010B5B4242F20A
:101ED00010720DE093FBF2F404B937B104F1300055
:101EE00001F8010B04FB123301270A2092FBF0F2E8
:101EF000002AEFDC002008702846D9E70FB470B53F
:101F000086B006460CA8019073E00B9800785C2818
:101F10001CD10B98401C0B9000786E2809D07228B9
:101F20000FD10D21304606F0E4F90B98401C0B90C0
:101F30000BE00A21304606F0DCF90B98401C0B90B0
:101F400003E00B98401C0B9000BF4BE00B9800780F
:101F5000252840D10B98401C0B900078642818D09D
:101F6000732833D1019810C801900BE021783046D6
:101F700006F0BFF900BF4021304606F0ADF9002859
:101F8000F9D0641C20780028F0D10B98401C0B90ED
:101F900020E0019820C801900A2202A92846FFF7F4
:101FA0007CFF02AC0BE02178304606F0A2F900BFBE
:101FB0004021304606F090F90028F9D0641C2078C2
:101FC0000028F0D10B98401C0B9003E00B98401CAC
:101FD0000B9000BF06E00B9810F8011B0B903046E9
:101FE00006F087F900BF4021304606F075F9002859
:101FF000F9D00B980078002887D106B070BC5DF846
:1020000014FB00000050004000040240001001409A
:1020100000080240004800407400002078000020C2
:1020200084000020880000203333D33F4AD8124D6B
:10203000FB21094000806640008056407C00002063
:102040008000002010B588B0044601940020ADF84F
:102050000800ADF80A00ADF80C00ADF810000C2037
:10206000ADF80E00012105F02DF80121080505F05D
:102070005CF808220C21344804F069FE0822022191
:10208000324804F064FE00208DF81A0001208DF81B
:102090001B0002208DF81800C002059002208DF868
:1020A000190005A9284804F0C7FD02208DF8180082
:1020B0000420059005A9254804F0BEFD01A9244887
:1020C00006F04EF835208DF81C0001208DF81F0019
:1020D0008DF81D008DF81E004FF4A06005F030F95A
:1020E00007A805F032F9012240F22551184806F000
:1020F0009DF90121164806F0BBF808B010BD0FB4D9
:1021000038B505A800901348009A049906F0F2FE2D
:10211000002000900F4806F0EDFF85B200240DE08E
:1021200000BF40210A4806F0D7F80028F9D0094836
:10213000015D074806F0DDF8601C84B2AC42EFDBBD
:1021400038BC5DF814FB000000080240000C02409F
:1021500000500040E02901201CB5FD4903C9CDE92C
:10216000000108236A460021FA4800F055FD1CBD15
:1021700030B587B00446F649083103C9CDE90501F9
:1021800004F540700090019000208DF808008DF853
:10219000090008208DF80A000598C0B28DF80B00E0
:1021A0000598010A8DF80C100598010C8DF80D109A
:1021B0000598000E8DF80E000698C1B28DF80F102C
:1021C0000698010A8DF810100698010C8DF8111070
:1021D0000698000E8DF812006946DE4806F024FBD2
:1021E000054600BF2946DB4806F0B6FB0128F9D1B9
:1021F00007B030BD70B588B006460024D449103110
:1022000003C9CDE9060106F5407001900290002057
:102210008DF80C008DF80D0008208DF80E0000BF21
:102220003FE006A810F834008DF80F0006A830F83B
:102230003400010A8DF8101006A850F83400010C83
:102240008DF8111006A850F83400000E8DF8120019
:1022500006A800EBC40001798DF8131006A800EB66
:10226000C4008088010A8DF8141006A800EBC40091
:102270004068010C8DF8151006A800EBC4004068FA
:10228000000E8DF8160001A9B24806F0CDFA0546F9
:1022900000BF2946AF4806F05FFB0128F9D1601C5A
:1022A000C4B2012CBDDB08B070BD2DE9F04194B083
:1022B00005460E46174600243822A549183106A8BF
:1022C00006F037FF05F540700190029000208DF870
:1022D0000C008DF80D0008208DF80E000D960F975C
:1022E0009D4911914942139100BF3FE006A810F8A3
:1022F00034008DF80F0006A830F83400010A8DF87C
:10230000101006A850F83400010C8DF8111006A822
:1023100050F83400000E8DF8120006A800EBC4003F
:1023200001798DF8131006A800EBC4008088010A1B
:102330008DF8141006A800EBC4004068010C8DF85D
:10234000151006A800EBC4004068000E8DF81600BA
:1023500001A9804806F068FA804600BF41467D48E2
:1023600006F0FAFA0128F9D1601CC4B2072CBDDBD3
:1023700014B0BDE8F081F0B589B005460F460024E1
:10238000734B50330FCB05AE0FC605F54070009070
:10239000019000208DF808008DF8090008208DF8C4
:1023A0000A00069700BF3FE005A810F834008DF83A
:1023B0000B0005A830F83400010A8DF80C1005A8B0
:1023C00050F83400010C8DF80D1005A850F83400B9
:1023D000000E8DF80E0005A800EBC40001798DF801
:1023E0000F1005A800EBC4008088010A8DF81010BA
:1023F00005A800EBC4004068010C8DF8111005A879
:1024000000EBC4004068000E8DF812006946514888
:1024100006F00AFA064600BF31464E4806F09CFA1E
:102420000128F9D1601CC4B2022CBDDB09B0F0BD9B
:102430002DE9F043A5B080460D4616461F46002400
:1024400080224349603105A806F073FE08F540700C
:102450000090019000208DF808008DF809000820F8
:102460008DF80A00109512951495169618961A96DE
:102470001C971E9705A8C766384941674942C1673E
:102480000A9149420C9100BF3FE005A810F83400C2
:102490008DF80B0005A830F83400010A8DF80C10F7
:1024A00005A850F83400010C8DF80D1005A850F85F
:1024B0003400000E8DF80E0005A800EBC400017971
:1024C0008DF80F1005A800EBC4008088010A8DF874
:1024D000101005A800EBC4004068010C8DF8111025
:1024E00005A800EBC4004068000E8DF81200694694
:1024F000184806F099F9814600BF4946154806F08C
:102500002BFA0128F9D1601CC4B2102CBDDB25B018
:10251000BDE8F0832DE9F0418AB005460F469046AC
:1025200000240B4BE0330FCB06AE0FC605F5407011
:102530000190029000208DF80C008DF80D0008200D
:102540008DF80E0067B944F2501006900BE00000C1
:1025500018C1000800640040C0E1E400F6C99A3BDD
:1025600045F250200690CDF81C8000243FE006A8DC
:1025700010F834008DF80F0006A830F83400010A76
:102580008DF8101006A850F83400010C8DF81110C9
:1025900006A850F83400000E8DF8120006A800EBD3
:1025A000C40001798DF8131006A800EBC4008088E0
:1025B000010A8DF8141006A800EBC4004068010C55
:1025C0008DF8151006A800EBC4004068000E8DF8C9
:1025D000160001A9A34806F027F9064600BF3146B8
:1025E000A04806F0B9F90128F9D1601CC4B2022C48
:1025F000BDDB0AB0BDE8F08130B587B004469A492A
:1026000003C9CDE9050104F5407000900190002058
:102610008DF808008DF8090008208DF80A0005984B
:10262000C0B28DF80B000598010A8DF80C100598C2
:10263000010C8DF80D100598000E8DF80E0006980F
:10264000C1B28DF80F100698010A8DF81010069887
:10265000010C8DF811100698000E8DF812006946D5
:10266000804806F0E1F8054600BF29467D4806F09F
:1026700073F90128F9D107B030BD30B587B00446F1
:102680007949083103C9CDE9050104F5407000908E
:10269000019000208DF808008DF8090008208DF8C1
:1026A0000A000598C0B28DF80B000598010A8DF854
:1026B0000C100598010C8DF80D100598000E8DF882
:1026C0000E000698C1B28DF80F100698010A8DF819
:1026D00010100698010C8DF811100698000E8DF858
:1026E000120069465F4806F09FF8054600BF29467C
:1026F0005C4806F031F90128F9D107B030BD30B59A
:1027000087B004465849103103C9CDE9050104F5E5
:1027100040700090019000208DF808008DF80900AD
:1027200008208DF80A000598C0B28DF80B000598B6
:10273000010A8DF80C100598010C8DF80D10059804
:10274000000E8DF80E000698C1B28DF80F10069895
:10275000010A8DF810100698010C8DF811100698DA
:10276000000E8DF8120069463E4806F05DF80546F9
:1027700000BF29463B4806F0EFF80128F9D107B021
:1027800030BD30B587B004463749183103C9CDE9AB
:10279000050104F540700090019000208DF80800BC
:1027A0008DF8090008208DF80A000598C0B28DF850
:1027B0000B000598010A8DF80C100598010C8DF896
:1027C0000D100598000E8DF80E000698C1B28DF818
:1027D0000F100698010A8DF810100698010C8DF85C
:1027E00011100698000E8DF8120069461D4806F07B
:1027F0001BF8054600BF29461A4806F0ADF8012827
:10280000F9D107B030BD70B586B004460D460095CD
:1028100004F540700190029000208DF80C008DF8B6
:102820000D0008208DF80E009DF800008DF80F00B7
:102830009DF801108DF810109DF802108DF8111000
:102840009DF803108DF8121001A9064805F0ECFF61
:10285000064600BF3146034806F07EF80128F9D14C
:1028600006B070BD0064004008C200082DE9F04FBA
:102870008BB006460F4614461D46DDF850804FF0DB
:102880000009CA46CB46B5F5807F43D012DC102D37
:1028900034D008DC012D25D0022D26D0042D27D0E0
:1028A000082D4FD127E0202D2BD0402D2CD0802D6E
:1028B00048D12CE0B5F5805F38D009DCB5F5007F54
:1028C0002BD0B5F5806F2BD0B5F5006F3AD12AE04B
:1028D000B5F5005F2DD0B5F5804F2DD0B5F5004F83
:1028E00030D12CE04FF000092DE04FF001092AE033
:1028F0004FF0020927E04FF0030924E04FF00409EC
:1029000021E04FF005091EE04FF006091BE04FF0F3
:10291000070918E04FF0080915E04FF0090912E027
:102920004FF00A090FE04FF00B090CE04FF00C09D3
:1029300009E04FF00D0906E04FF00E0903E04FF0FB
:102940000F0900E000BF00BFB8F5807F4BD01ADC54
:10295000B8F1100F3BD00CDCB8F1010F2BD0B8F15F
:10296000020F2BD0B8F1040F2BD0B8F1080F52D1C1
:102970002AE0B8F1200F2DD0B8F1400F2DD0B8F1DA
:10298000800F48D12CE0B8F5805F38D009DCB8F56D
:10299000007F2BD0B8F5806F2BD0B8F5006F3AD1FF
:1029A0002AE0B8F5005F2DD0B8F5804F2DD0B8F5EE
:1029B000004F30D12CE04FF0000A2DE04FF0010A1B
:1029C0002AE04FF0020A27E04FF0030A24E04FF01C
:1029D000040A21E04FF0050A1EE04FF0060A1BE052
:1029E0004FF0070A18E04FF0080A15E04FF0090A07
:1029F00012E04FF00A0A0FE04FF00B0A0CE04FF024
:102A00000C0A09E04FF00D0A06E04FF00E0A03E051
:102A10004FF00F0A00E000BF00BFA748304418B1D4
:102A2000B0F5806F1AD10CE04FF0090B00208DF843
:102A3000120014208DF804000121480604F075FBF3
:102A40000DE04FF0090B0E208DF8120040208DF89C
:102A500004000121000504F068FB00E000BF00BF96
:102A6000C4F3090078BBA012A0F5801080380928B3
:102A700034D2DFE800F0050A0F14191E23292E00B6
:102A80000121084604F01EFB29E00121022004F088
:102A900019FB24E00121042004F014FB1FE00121B4
:102AA000082004F00FFB1AE00121102004F00AFBBB
:102AB00015E00121202004F005FB10E00121402059
:102AC00004F000FB0BE009E00121802004F0FAFA99
:102AD00005E00121080204F0F5FA00E000BF00BFA4
:102AE0005A464946204604F032F95A465146204695
:102AF00004F02DF945EA0800099002208DF828001D
:102B00008DF8290000208DF82A0001208DF82B0077
:102B100009A9204604F090F8304605F0F3FC0020A7
:102B20008DF81E008DF81F008DF820008DF8210013
:102B30008DF822008DF823008DF81A008DF81B0007
:102B40000B208DF81C0007208DF81D007D2F22D052
:102B500008DC0A2F0FD0142F11D0322F13D0642F7E
:102B600029D114E0FA2F1AD0B7F5FA7F1BD0B7F5A8
:102B70007A7F20D11BE0C820ADF818001CE064204B
:102B8000ADF8180018E02820ADF8180014E0142063
:102B9000ADF8180010E01020ADF818000CE0082087
:102BA000ADF8180008E00420ADF8180004E0022099
:102BB000ADF8180000E000BF00BF06A9304605F0E0
:102BC000BAFC00208DF8130001208DF814000020BD
:102BD000ADF80800ADF80A00ADF80C00ADF80E0035
:102BE000ADF8100001208DF8150002A805F02DFDAC
:102BF00000208DF8050003208DF8060001208DF8D7
:102C0000070001A804F0A1FB01220221304606F0D2
:102C10001BF80BB0BDE8F08F2DE9F04385B081467D
:102C20000D4690461E4600240095019500208DF823
:102C300008008DF809008DF80A6000BF06E018F85A
:102C400004100DF10B000155601C84B2B442F6DB98
:102C50006946484605F0E8FD0746002400BF3946AE
:102C6000484605F079FE0128F9D105B0BDE8F083AA
:102C70002DE9F04186B080460D4616461F460024D9
:102C80000021404605F048FF18B9002006B0BDE815
:102C9000F08101AA0021404605F0BBFE002405E0BA
:102CA0000DF10F00005D3055601CC4B2BC42F7DB73
:102CB000019828600120E9E7009CFFBF044A42F820
:102CC000201070470146024850F82100704700006C
:102CD0008C0000202DE9F04385B004460D461646D1
:102CE0004FF00009002701200090019000208DF88E
:102CF00008008DF8090001208DF80A00600140EA03
:102D000045003043C7B28DF80B706946124805F094
:102D10008BFD804600BF41460F4805F01DFE01288F
:102D2000F9D105B0BDE8F08310B5002204210120DF
:102D3000FFF7D0FF012203211046FFF7CBFF10BDA4
:102D400010B5012204211046FFF7C4FF0022032121
:102D50000120FFF7BFFF10BD006400402DE9F04FD8
:102D60008BB00446894692460020069000215046CA
:102D700008F0F4FF0DD800214FF07E5007F03AFE26
:102D80000646F54908F0C0FD0546F44908F01AFF6B
:102D900006900021504608F0E1FE0CD20021F048D8
:102DA00007F028FE0646EC4908F0AEFD0546EB4963
:102DB00008F008FF0690EB48069908F031FDE74956
:102DC000019008F0A1FD8346E34908F0FBFE029064
:102DD00007F03EFF039008F0F7FC21F0004807469B
:102DE000484608F0F1FC3A464346CDE9040108F0B4
:102DF000C1FA054608F02CF80990DA48069909F05E
:102E0000A1F8D649019008F07FFD8346D24908F029
:102E1000D9FE029007F01CFF039008F0D5FC21F0CA
:102E20000041CDE90401484608F0CEFC0546DDE945
:102E3000042308F09FFA074608F00AF80890CA48E9
:102E4000069909F07FF8C549019008F05DFDC24977
:102E5000029008F0B7FE039007F0FAFE834608F0F0
:102E6000B3FC21F00041CDE90401484608F0ACFC78
:102E70000746DDE9042308F07DFA054607F0E8FF80
:102E80000790B948069908F0CBFCB449019008F0C6
:102E90003BFDB149029008F095FE834607F0D8FE4D
:102EA000039008F091FC21F00041CDE9040148466F
:102EB00008F08AFC0746DDE9042308F05BFA0546C2
:102EC00007F0C6FF0A9007A80FC884E80F000BB0F0
:102ED000BDE8F08F7FB5009808F0F4FD0446009837
:102EE00008F0F0FD0546224629460120FFF7DDF9EE
:102EF000019808F0E7FD0446019808F0E3FD054657
:102F0000224629460220FFF7D0F9029808F0DAFDA0
:102F10000446029808F0D6FD0546224629460320BD
:102F2000FFF7C3F9039808F0CDFD0446039808F0B5
:102F3000C9FD0546224629460420FFF7B6F97FBDA4
:102F40001FB5009808F0A2FD044621460120FFF7B6
:102F500012FA019808F09AFD044621460220FFF774
:102F60000AFA029808F092FD044621460320FFF772
:102F700002FA039808F08AFD044621460420FFF770
:102F8000FAF91FBD10B500210120FFF7F4F9002167
:102F90000220FFF7F0F900210320FFF7ECF90021F0
:102FA0000420FFF7E8F910BD2DE9F047044600259D
:102FB0006E49204608F0A8FC81466D4908F0A4FC43
:102FC00080464FF0804108F0FDFD0746624908F059
:102FD000F9FD0646674908F0F5FD05462846BDE8B7
:102FE000F0872DE9F047044600254FF08041204648
:102FF00008F08AFC8146584908F086FC80465D4905
:1030000008F082FC07465A4908F0DCFD064657499D
:1030100008F0D8FD05462846BDE8F0872DE9F047C1
:1030200004460D465449284608F0CCFD80465249D6
:10303000204608F0C7FD0746414608F0F1FB06466A
:10304000FFF7CFFF4D4908604B49284608F0BAFD0D
:1030500007464949204608F0B5FD8046394608F044
:1030600071FF0646FFF7BDFF4449486042492846C4
:1030700008F0A8FD814684F000483F49404608F02A
:10308000A1FD0746494608F05DFF0646FFF7A9FF88
:103090003A4988603849284608F094FD814684F012
:1030A00000483549404608F08DFD0746494608F07E
:1030B000B7FB0646FFF795FF3049C8603049204608
:1030C00008F04CFD03D22D480FC8FFF739FF2C49FB
:1030D000204608F043FE01D8FFF754FF0120BDE869
:1030E000F0872DE9F05F05460E461446002731466D
:1030F000284608F027FF8246FEF740FE8346314609
:1031000008F020FF8146514608F0FEFB804621462C
:1031100008F058FD07463846BDE8F09F2DE9F05FFE
:1031200004460E46154600273146204608F078FE34
:103130008246FEF723FE8346214608F003FF8146C0
:10314000514608F0E1FB8046294608F03BFD074662
:103150003846BDE8F09F0000DB0F494000003443D3
:10316000000080BF00003442000007436EDBAA412C
:103170000000FA44E3A59B3DF704353F002D0120F4
:103180009A99993F0CB50020019000907248006810
:1031900040F480307049086000BF6F48006800F458
:1031A000003000900198401C0190009818B90198D7
:1031B000B0F5A06FF1D16848006800F4003010B19C
:1031C0000120009001E0002000900098012846D1E5
:1031D00061484030006840F080505F4940310860ED
:1031E0005E48006840F480405C4908605A480830F6
:1031F00000685949083108600846006840F40040FA
:1032000008600846006840F4A05008605448091F50
:103210000860081F006840F08070091F086000BF48
:103220004D48006800F000700028F9D040F20560B9
:103230004C49086048480830006820F003004649BF
:10324000083108600846006840F00200086000BFCE
:1032500041480830006800F00C000828F8D10CBD87
:1032600010B53D48006840F001003B49086000206F
:10327000394908310860384800683B4908403649F8
:1032800008603A48091D0860081F006820F4802083
:10329000091F0860002030490C310860FFF772FFF9
:1032A0004FF000603249086010BD70B50020002268
:1032B000022300240221284D08352D6805F00C005A
:1032C00020B1042806D0082834D107E0294D2A4E21
:1032D000356033E0294D284E35602FE01E4D2D1D01
:1032E0002D68C5F380541C4D2D1D2D6805F03F0140
:1032F00054B1224DB5FBF1F5174E361D3668C6F3B5
:10330000881605FB06F209E01A4DB5FBF1F5124EE1
:10331000361D3668C6F3881605FB06F20E4D2D1DC8
:103320002D68C5F301456D1C6B00B2FBF3F5124E21
:10333000356003E00F4D104E356000BF00BF064DF5
:1033400008352D68C5F303150D4E705D0A4D2D68C7
:10335000C540094E356070BD003802400070004025
:1033600008544007003C0240FFFFF6FE10300024E6
:1033700008ED00E00024F4009400002000127A0020
:10338000980000200948804709480047FEE7FEE70B
:10339000FEE7FEE7FEE7FEE7FEE7FEE7FEE7FEE705
:1033A00004480549054A064B704700006132000891
:1033B00089010008F84A0120F8500120F84C01204A
:1033C000F84C01205748802102E0491E002204C029
:1033D0000029FAD1544A554B1A601A46126822F055
:1033E00007021A600022524B1A807047704710B5CE
:1033F0000446204603F0A9FB10BD10B50446204644
:1034000003F0A4FB10BD10B503F0A1FB10BD10B577
:1034100003F09FFB10BD70B5044610464FF0807559
:103420000560051F28462C60424E051F28462E6069
:103430004FF01236051F28462E604FF00336051F49
:1034400028462E604FF00236051F28462E60761063
:10345000051F28462E60051F284629604FF01136AB
:10346000051F28462E604FF01036051F28462E6097
:103470004FF00936051F28462E604FF00836051F0D
:1034800028462E604FF00736051F28462E604FF065
:103490000636051F28462E604FF00536051F2846C4
:1034A0002E604FF00436051F28462E6070BD10B503
:1034B00003F050FB10BD10B50446204603F04BFB53
:1034C00010BD10B503F048FB19480088401C18498E
:1034D0000880084600880A2803D30020088003F0EB
:1034E0004FFA10BD10B500F02BF8044612480078D2
:1034F000401C11490870204600F026F800F003FE39
:1035000000F007FD10BD411E4FF0E0225161FF2287
:103510000A49CA7200214FF0E0229161072111612E
:1035200070470000102D0120102F0120A80000205E
:10353000AC0000207B620008C900002018ED00E00C
:10354000EFF3108072B6704780F3108870471F4801
:103550004FF0FF010170002080F309881C48012111
:1035600001701C484FF08051016062B6FEE71948B7
:103570004FF080510160704716484FF08051016054
:10358000704772B6EFF3098028B1203880E8F00F59
:1035900011490968086000B5104880475DF804EBE0
:1035A0000F4810490A7802700B480F490A680260F8
:1035B000106890E8F00F203080F309884EF0040E78
:1035C00062B6704772B6704762B6704722ED00E08F
:1035D000D600002004ED00E0DC000020AF3400083D
:1035E000CB000020CC000020E40000201D481E4835
:1035F0001E481F481F48204820482148214822488B
:10360000224823482348244824482548254826485A
:1036100026482748274828482848294829482A482A
:103620002A482B482B482C482C482D482D482E48FA
:103630002E482F482F4830483048314831483248CA
:10364000324833483348344834483548354836489A
:10365000364837483748384838483948394800BF2D
:103660007047000028C200082CC2000832C20008BF
:1036700034C2000830C2000836C2000838C2000850
:103680003AC200083CC200083EC2000840C200081E
:1036900042C2000844C2000846C2000848C20008EE
:1036A0004AC200084CC200084EC2000850C20008BE
:1036B00052C2000854C2000856C2000858C200088E
:1036C0005AC200085CC200085EC2000860C200085E
:1036D00062C2000864C2000866C2000868C200082E
:1036E0006AC200086CC200086EC2000870C20008FE
:1036F00072C2000874C2000876C2000878C20008CE
:103700007AC200087EC2000880C2000882C2000897
:1037100084C20008D8450120584A012088C2000808
:103720008AC200088CC200088EC2000890C200083D
:1037300092C2000894C2000896C2000898C200080D
:1037400086C200089AC200080146002002E0491C17
:10375000421CD0B20A78002AF9D170472DE9F04115
:1037600005460E461446002725B904202070002087
:10377000BDE8F0811EB90C2020700020F8E7F74862
:10378000007818B1112020700020F1E72878012876
:1037900008D0022807D0032802D0042804D100E072
:1037A00000BF00BF00BF03E0012020700020DFE762
:1037B00000BFFFF7C5FE0746686930603068FFF755
:1037C000C3FF80463846FFF7BFFE0020207040460A
:1037D000CEE72DE9F04105460E46144600271DB9F7
:1037E00004202070BDE8F08116B90C202070F9E7A4
:1037F000DA48007810B112202070F3E72878012809
:1038000008D0022807D0032802D0042804D100E001
:1038100000BF00BF00BF02E001202070E2E700BF50
:10382000FFF78EFE07466E613846FFF78DFE0020DB
:10383000207000BFD6E7F0B5024612F8384F9578F1
:103840005678383A0B4618680FE000F10B073F5DD9
:10385000B74300F10B0C0CF8047067463F5D17B9D5
:10386000877AAF4387721B1D18680028EDD1F0BD21
:10387000BB49BC4A1278885CBB49095CB84A515CB8
:1038800001EBC001B94A1170704710B50024FFF771
:1038900057FE0446B1480078F8B9B5480078E0B959
:1038A000FFF7E6FFB348B149097850F82100B24963
:1038B0000860AE480078B149097888420DD0AE481A
:1038C0000068C06B401CAC490968C863AC4800681C
:1038D000401CAB490860FFF74AFE2046FFF734FE64
:1038E00010BD70B501460024A64D2D68EC61A54CB5
:1038F000246821620B4618681BE0A24C246894F8E7
:10390000385000F10B04645D9E4D2D6895F83950D8
:103910002C439C4D2D6895F8386000F10B05AC5593
:10392000847A984D2D6895F83A502C4384721B1D6B
:1039300018680028E1D1934C246894F838208A4C08
:10394000A45C904D2D6895F83950AC43864DAC542D
:103950002C46A45C44B98B4C246894F83A50814CB2
:103960002478AC437F4D2C7070BD2DE9FF4F83B0A0
:1039700081460E461546109F00200090B9F1000FB9
:1039800005D104203870002007B0BDE8F08FD9F8C9
:10399000000018B9042038700020F5E71EB9042093
:1039A00038700020F0E71DB9042038700020EBE7E4
:1039B00000203060CA46DAF8004015E0207806287A
:1039C00007D2DFE800F006040503070807E006E079
:1039D00005E000BF00BF012038700020D4E700BF21
:1039E0000AF1040ADAF80040002CE7D15B480078BD
:1039F00018B1022038700020C6E75D48007818B181
:103A00000D2038700020BFE7FFF79AFD00900020DE
:103A1000029083460190CA46DAF8004066E02078BA
:103A2000062853D2DFE800F052172A0353542089A6
:103A300060B12089401E208110C601200290002024
:103A400001C50BF101001FFA80FB03E0019840F073
:103A50000100019045E0606858B1606801C5002030
:103A6000606010C6012002900BF101001FFA80FB7C
:103A700003E0019840F00200019032E0D4F80480A5
:103A8000B8F81600E8B1D8F81010081DC8F81000F2
:103A9000086801C5D8F80810D8F81000884203D18A
:103AA000D8F80400C8F81000B8F81600401EA8F8AE
:103AB000160010C6012002900BF101001FFA80FBD6
:103AC00003E0019840F0040001900AE000BF00BF4D
:103AD0000098FFF739FD002030600120387058460B
:103AE00052E700BF0AF1040ADAF80040002C96D130
:103AF0000298012808D1002030600098FFF724FDCB
:103B00000020387058463FE71E48006890F834009F
:103B1000019941F0800108431A49096881F834008D
:103B200000201849096881F8350016490698096887
:103B300008634846FFF7D5FE0098FFF705FDFFF73D
:103B4000A4FEFFF7FDFC00900E48006890F83500D9
:103B5000D0B1012831D002282ED116E0C9000020B2
:103B60009CC20008CD000020CE000020CC00002028
:103B7000CA00002000390120E4000020CB00002012
:103B8000B0000020DC00002000BFFE480068C469CF
:103B90003CB110C6002030600BF101001FFA80FB21
:103BA00009E00120F749096881F835004946F548E0
:103BB0000068FFF740FE06E000BF4946F148006894
:103BC000FFF739FE00BF00BFEE48006890F83500EF
:103BD00020B1012828D0022825D11FE0207806280E
:103BE0000DD2DFE800F00C0607030D0E002001C522
:103BF00010E000BFE3480068406A01C50AE000BF6A
:103C000000BF0098FFF7A0FC002030600120387052
:103C10005846B9E600BF002038700AE0002001C510
:103C20000E20387005E000BF002001C50A20387062
:103C300000BF00BF0020D349096881F83400D14992
:103C4000096881F83500CF490968C861CD4909681C
:103C50000862CC49096848620098FFF775FC58462D
:103C600092E67CB5002514E06946284602F0CDF9BD
:103C7000064666B9C44850F8254044B1012C06D028
:103C8000D4E9020100EB8100A0640198E064681CA3
:103C9000C5B23F2DE8D97CBD002400BF02E014204E
:103CA00002F0F8FAB94800780028F8D0B84800685F
:103CB0006421B0FBF1F0B64908600846006828B9F5
:103CC0000020B4490870FF2002F0EAF900BFFFF7B6
:103CD00037FC0446B0480068B04908600020AE498F
:103CE00008602046FFF730FCAC480068A849096826
:103CF000B0FBF1F0C0F16400A6490870FFF787FB44
:103D0000FFF7AFFF0A2002F0C5FAE0E700B587B081
:103D1000032000218022A24BCDE90132CDE903101E
:103D20004FF6FE703E239F4A0090AFF2930001F0E1
:103D300057FF06AA9CA13E2002F0DAF807B000BDAA
:103D4000002400BF00BFFFF7FBFB04469248006859
:103D5000401C914908602046FFF7F6FBFFF753FB34
:103D6000F1E700B587B0032000218022924BCDE916
:103D70000132CDE903104FF6FF703F238F4A0090C8
:103D8000AFF2430001F02CFF06AA8DA13F2002F004
:103D9000AFF807B000BD04E0002200F8012B4A1E76
:103DA00091B20029F8D1704770B54FF4B4618848DA
:103DB000FFF7F1FF002411E0601C85B204EB440022
:103DC000834901EBC00305EB450001EBC006002071
:103DD00018705E607FA05861601C84B23B2CEBD3EE
:103DE00004EB44007A4901EBC003002018705860CE
:103DF00078A0586108467849086070BD70B54FF4E6
:103E000030617648FFF7C7FF4FF480715E48FFF7D7
:103E1000C2FF002413E0601CC5B204EB440000EBB9
:103E2000C4006E4901EBC00305EB450000EBC50083
:103E300001EBC0065E6167A01865601CC4B21F2C50
:103E4000E9D304EB440000EBC400644901EBC00378
:103E5000002058615FA018650020614908605F4834
:103E60006049086070BD00215F4A1170002004E0C5
:103E700000215E4A1154411CC8B20828F8D3002121
:103E80005B4A11705B4A11705B4A11603D4A1160D8
:103E9000704700205949086059490870594908700D
:103EA0005949087059490870594908603A490860E9
:103EB0003A4908603649086034490870704710B5BF
:103EC000FFF780FAFFF7E5FFFFF7CDFFFFF796FF5B
:103ED000FFF76AFF00F0E4FE01F00FF801F03BFB92
:103EE000FFF73FFFFFF712FF02F0A4FDFFF77EFA96
:103EF000FFF77CFB10BD45480078012808D14048F9
:103F00000078FF2804D23E480078401C3C490870E5
:103F1000704710B500243D480078012830D1FFF7E4
:103F20000FFB04463648007820B135480078401E23
:103F30003349087032480078F8B932480078E0B95F
:103F4000FFF796FC10482B49097850F821002A49C0
:103F50000860284800782649097888420DD026480C
:103F60000068C06B401C24490968C8632848006881
:103F7000401C27490860FFF7FFFA2046FFF7E4FAE4
:103F800010BD0000DC00002000390120C800002026
:103F9000C0000020BC000020D8000020C400002089
:103FA00000350120FC36012075432F4F532D494920
:103FB000205374617400000000370120FC38012098
:103FC00075432F4F532D49492049646C650000000B
:103FD000102F01203F000000B4000020003A012013
:103FE000E8000020E0000020CD000020CE000020EE
:103FF000CB000020CC000020E4000020F8000020CE
:10400000C9000020CA000020D7000020D6000020F0
:10401000B000002010B50024FE480078012811D11E
:10402000FFF78EFA0446FC48007840B9FB48007858
:10403000FF2804D2F9480078401CF849087020464F
:10404000FFF782FA10BD10B50024F248007801286D
:1040500021D1FFF775FA0446F0480078C0B1EF4867
:104060000078401EED4908700846007860B9EA48BB
:10407000007828B92046FFF767FAFFF706FC0AE048
:104080002046FFF761FA06E02046FFF75DFA02E0FE
:104090002046FFF759FA10BD10B5DE48007890B9F8
:1040A000FFF7E6FBDE480078DE490870DE48DC49B1
:1040B000097850F82100DD49086008460068DC49AD
:1040C0000860FFF744FA10BD10B50024022002F08A
:1040D000E1F8FFF735FA04460020D649086020468B
:1040E000FFF732FA0A2002F0D5F8FFF729FA044662
:1040F000D0480068D04908600120D04908702046A7
:10410000FFF722FA10BD70B50026FFF7DAF9FFF7C6
:1041100017FA0646CA480068401CC949086030467C
:10412000FFF712FABB480078012853D1C548007840
:1041300020B1012804D0022809D103E001250BE0B9
:10414000002509E001250120BE49087004E0012591
:104150000020BC49087000BF00BF05B970BDBA4857
:10416000046833E0FFF7ECF90646206B50B3206B90
:10417000401E2063206B28BB94F8340000F0370009
:1041800040B114F8340F00F0C800207001206070B6
:10419000343C02E0002084F8350094F8340000F04C
:1041A000080078B93834A078A84909780843A749A5
:1041B00008702078A649085C6178084314F838191B
:1041C000A34A505464693046FFF7BEF994F83600AC
:1041D0003F28C7D100BFC1E740F2231070477047A6
:1041E00010B590F8382001F10B039B5C90F8394032
:1041F000A34301F10B04A35423469B5C23B98B7AA0
:1042000090F83A40A3438B7210BD2DE9F04F05465C
:104210000F4690469946A87A8E490E5C05F10B0030
:10422000805D11F800B00BEBC60000F0FF0A7E487D
:1042300050F82A4000202434E0602760207C20EAE7
:104240000800207484F81190207C243C00F00800C1
:1042500068B994F83A007D49097808437B490870A9
:104260007B48805D94F83910084379498855294680
:104270002046FFF7B5FF206A20B12046216AFFF7EC
:10428000DAFAE5615046BDE8F08F10B5684A126869
:10429000D061674A126892F8383000F10B02D25CA4
:1042A000634B1B6893F839301A43614B1B6893F8D2
:1042B000384000F10B031A55827A5D4B1B6893F866
:1042C0003A301A4382725A4A126892F83810604A99
:1042D000525C574B1B6893F839309A435C4B5A54E5
:1042E0001A46525C42B9524A126892F83A30574A1A
:1042F00012789A43554B1A7010BD014600228A72FB
:10430000002005E0002301F10B021354421CD0B23F
:104310000828F7D3704705E011F8013B00F8013B8E
:10432000531E9AB2002AF7D170472DE9F84F05467F
:104330000F4690469946DDE90AAB00200090FFF752
:10434000FFF8009044480468002C61D01C3454F8F5
:10435000080C414908600098FFF7F6F844F81C7C07
:10436000A576002020766076606144F818BC44F899
:1043700010AC44F8148C0C9824F80C0C24F80A9C0B
:104380000020E077E810207705F00700E076217F35
:1043900001208840A077E17E0120884060770020DE
:1043A00020606060E060A0602062A0626062E06205
:1043B0002063AFF2E03060631C3C002606E0002181
:1043C00004F1540040F82610701CC6B2002EF6D03E
:1043D0002046FFF770F82046FFF709F8FFF7B0F81E
:1043E0000090114840F8254017480068606100209F
:1043F000A0611548006810B1134800688461124834
:1044000004603834A0781149097808430F4925E041
:1044100039E00000D6000020C9000020CA000020BA
:10442000CC000020CB00002000390120E400002057
:10443000DC000020D8000020C0000020C8000020C0
:10444000F8000020EC000020E8000020CD00002053
:10445000CE0000209CC20008E000002008702078F8
:104460000B49085C6178084314F83819084A50541D
:1044700008480078401C074908700098FFF764F866
:104480000020BDE8F88F0098FFF75EF84220F8E7BB
:10449000CE000020D70000202DE9F05F04460F4633
:1044A00091461E464FF0000B24B96E20307000205C
:1044B000BDE8F09F2078052803D00120307000204F
:1044C000F6E709F0800ABAF1000F04D029F080095C
:1044D0004FF0010801E04FF0000800203070FFF7B6
:1044E0002FF88346B9F1000F2CD0B9F1010F3BD062
:1044F000B9F1020F03D0B9F1030F46D111E02089C1
:1045000000EA0705BD4206D1B8F1010F05D12089A7
:10451000A843208101E0702030705846FFF714F85E
:104520003AE0208900EA070535B1B8F1010F05D15D
:104530002089A843208101E0702030705846FFF7A1
:1045400003F829E0208927EA0005BD4206D1B8F129
:10455000010F05D120892843208101E070203070AF
:104560005846FEF7F1FF17E0208927EA000535B12C
:10457000B8F1010F05D120892843208101E0702086
:1045800030705846FEF7E0FF06E05846FEF7DCFFC5
:1045900000256F20307000BF00BF284688E72DE956
:1045A000F04106460D460027F748007820B110205C
:1045B00028700020BDE8F081FEF7C2FF0746F348EF
:1045C000046884B100684068F049086005202070E4
:1045D000268100206060EEA0E0603846FEF7B4FF60
:1045E0000020287004E03846FEF7AEFF72202870E5
:1045F0002046DFE730B501464A6808682AB9CC682A
:10460000606028B10025456002E0106000B14260A2
:104610008B6800259D6230BDF0B506460F46B46834
:1046200000202C3460602780207A00F0DF002072A8
:1046300000206072207A2C3C88B93834A078D549A3
:1046400009780843D34908702078D349085C617819
:10465000084314F83819D04A5054012500E00025C9
:104660003046FFF7C7FF2846F0BD2DE9F047044666
:10467000894615464FF0000A24B96E20287020465E
:10468000BDE8F087C048007818B10F202870204698
:10469000F6E72078052803D0012028702046EFE7B0
:1046A000FEF74EFF8246606808B1012700E0002750
:1046B000B9F1000F03D0B9F1010F3CD119E08FB966
:1046C000B3A0E06000202070B04800686060002067
:1046D0002081AE4804605046FEF736FF0020287067
:1046E000002605E05046FEF72FFF49202870264699
:1046F00028E0D4F8048005E000214046FFF78CFF55
:10470000D8F80080B8F1000FF6D1A1A0E060002039
:1047100020709E4800686060002020819B480460F3
:104720005046FEF711FF012F01D1FFF7AEF8002030
:104730002870002606E05046FEF706FF0720287086
:10474000264600BF00BF30469AE72DE9F0410546F6
:104750000E461446002725B96E2020700020BDE8C3
:10476000F0811EB90C2020700020F8E78648007800
:1047700018B1112020700020F1E7FEF7E1FE074696
:104780002878052806D03846FEF7DEFE0120207086
:104790000020E4E7E86830603068FEF7D5FF804627
:1047A0003846FEF7D1FE002020704046D7E72DE9BD
:1047B000F04105460E46144600271DB96E202070B4
:1047C000BDE8F08116B90C202070F9E76E4800783A
:1047D00010B112202070F3E7FEF7B2FE07462878EA
:1047E000052805D03846FEF7AFFE01202070E7E728
:1047F000EE603846FEF7A8FE0020207000BFDFE71D
:10480000F0B51446059E654F3F6897F8347047F041
:104810002007DFF888C1DCF800C08CF8347000276E
:10482000DFF878C1DCF800C08CF835705B4F3F686A
:104830003E635A4F3F68B9620C828B74574F3F6892
:104840008F6047680F6000274F60C860456805B1FA
:1048500069604160514F3F6897F838204E4FBF5C08
:10486000DFF838C1DCF800C09CF839C027EA0C0733
:10487000DFF824C10CF802706746BF5C5FB9474F90
:104880003F6897F83AC0434F3F7827EA0C07DFF8B4
:1048900004C18CF80070F0BD2DE9F04F89B00546D9
:1048A0000F4691469A46129E002002902DB96E2026
:1048B0003070002009B0BDE8F08F3348007818B19F
:1048C000022030700020F5E73548007818B10D203F
:1048D00030700020EEE72878052803D001203070E2
:1048E0000020E7E709F0800BBBF1000F04D009F0CE
:1048F0007F094FF0010801E04FF00008FEF720FEAD
:104900000290B9F1000F59D0B9F1010F79D0B9F186
:10491000020F03D0B9F1030F72D120E0288900EA19
:104920000704BC420FD1B8F1010F02D12889A0437E
:1049300028811A48006884850298FEF705FE002049
:1049400030702046B6E74B463A4604A92846CDF8D3
:1049500000A0FFF755FF0298FEF7F6FD79E02889E1
:1049600000EA0704F4B1B8F1010F02D12889A0438D
:1049700028810A48006884850298FEF7E5FD00203A
:104980003070204696E70000C9000020B8000020E3
:104990003F000000CD000020CE000020DC00002001
:1049A000CA0000204B463A4604A92846CDF800A08C
:1049B000FFF726FF0298FEF7C7FD4AE0288927EA9D
:1049C0000004BC420FD1B8F1010F02D12889204365
:1049D0002881C748006884850298FEF7B5FD00204D
:1049E0003070204666E74B463A4604A92846CDF883
:1049F00000A0FFF705FF0298FEF7A6FD29E000E002
:104A00001FE0288927EA00047CB1B8F1010F02D128
:104A1000288920432881B648006884850298FEF7DB
:104A200093FD00203070204644E74B463A4604A9E7
:104A30002846CDF800A0FFF7E3FE0298FEF784FDBC
:104A400007E00298FEF780FD00246F2030702046BA
:104A500030E700BFFEF719FFFEF772FD0290A44891
:104A6000006890F8350020B3A148006890F8350040
:104A7000039000209E49096881F8350004A8FFF7DB
:104A8000B9FD00209A49096881F834000298FEF7C0
:104A90005BFD00240398012805D0022802D10E20D6
:104AA000307003E000BF0A20307000BF00BF204616
:104AB00000E78F480068848DB8F1010F1ED1B9F16D
:104AC000000F0ED0B9F1010F0CD0B9F1020F03D0D5
:104AD000B9F1030F0AD100E000BF2889A043288163
:104AE0000BE000BF28892043288106E00298FEF7EA
:104AF0002BFD6F2030700020DCE600BF0298FEF72F
:104B000023FD002030702046D4E670B50025FEF766
:104B100017FD054676480068848D2846FEF714FD8B
:104B2000204670BD2DE9FC5F0446894692461E462C
:104B30000020009024B96E2030700020BDE8FC9F5A
:104B40002078052803D0012030700020F6E7FEF71A
:104B5000F7FC0090BAF1000F03D0BAF1010F0AD1AF
:104B600004E0208920EA090020810BE0208940EA46
:104B70000900208106E00098FEF7E6FC7120307005
:104B80000020DBE700BF4FF0000B656855E0A87C14
:104B900040B3012838D0022802D0032844D111E0C4
:104BA0002089298A00EA0107288AB84209D13946B2
:104BB0002846FFF731FD8046B8F1010F01D14FF0D3
:104BC000010B38E02089298A00EA01074FB13946F4
:104BD0002846FFF721FD8046B8F1010F01D14FF0C3
:104BE000010B28E0288A218920EA0107288AB84297
:104BF00009D139462846FFF70FFD8046B8F1010F6D
:104C000001D14FF0010B16E0288A218920EA010723
:104C10004FB139462846FFF7FFFC8046B8F1010F37
:104C200001D14FF0010B06E00098FEF78DFC6F20DC
:104C30003070002082E700BF2D68002DA7D10098BA
:104C4000FEF782FCBBF1010F01D1FEF71EFEFEF75D
:104C500077FC0090208901900098FEF775FC0020F9
:104C6000307001986AE72DE9F04104460D460027AF
:104C700024B96E2028700020BDE8F0812078052836
:104C800003D0012028700020F6E7FEF759FC074604
:104C900026893846FEF758FC002028703046EBE79E
:104CA0002DE9F04150211348FFF775F800250EE07B
:104CB000681C86B20F4800EB051400EB06170020B5
:104CC00020706760AFF23830E060681C85B2042D58
:104CD000EED3084800EB0514002020706060AFF2AE
:104CE0005030E060034804490860BDE8F0810000EE
:104CF000DC000020B0340120B80000202DE9FC5F6A
:104D000005460F4691461E460020009025B96220B8
:104D100030700020BDE8FC9F05F0030018B1622050
:104D200030700020F6E7022F03D25B2030700020A5
:104D3000F0E7B9F1040F03D25C2030700020E9E7FE
:104D4000FEF7FEFB00907F480468006820B17D48B4
:104D5000006840687B4908600098FEF7F5FB1CB9C5
:104D60005A2030700020D5E7AA46A846781E019048
:104D70004FF0000B05E0C844CAF80080C2460BF1B2
:104D8000010B01988345F6D30020CAF80000256086
:104D900065602761E760C4F8089030702046B9E785
:104DA0002DE9F04104460D46002724B96020287003
:104DB0000020BDE8F081FEF7C3FB0746206960B123
:104DC0006668306860602069401E20613846FEF7E2
:104DD000BBFB002028703046EBE73846FEF7B4FBFB
:104DE0005D2028700020E4E72DE9F04106460D46DD
:104DF0001446002726B9602020700020BDE8F0810D
:104E00001DB90C2020700020F8E74F48007818B139
:104E1000112020700020F1E7FEF792FB0746706931
:104E200028602868FEF790FC80463846FEF78CFB29
:104E3000002020704046E1E72DE9F04105460E468E
:104E4000144600271DB960202070BDE8F08116B916
:104E50000C202070F9E73C48007810B11220207037
:104E6000F3E7FEF76DFB07466E613846FEF76CFB15
:104E70000020207000BFE8E770B504460D4600260C
:104E80000CB9602070BD0DB95F20FBE7FEF758FB41
:104E90000646D4E90310884204D33046FEF754FB9B
:104EA0005E20EFE76068286065602069401C206133
:104EB0003046FEF749FB0020E4E770B505460C4696
:104EC00000260DB9602070BD0CB96120FBE7FEF72C
:104ED00037FB06462868206068686060A868A060A4
:104EE000E868E060286920613046FEF72DFBD4E9D0
:104EF0000301401A60610020E5E770B5782113488E
:104F0000FEF749FF00240EE004EB44000F4901EBDB
:104F1000C005601C00EB400001EBC00068600CA005
:104F20006861601C84B2042CEED304EB4400074992
:104F300001EBC0050020686005A0686108460149D2
:104F4000086070BDF0000020C9000020004501206D
:104F50003F0000002DE9F04106460D464FF00008E5
:104F600026B9042028700020BDE8F081307802289E
:104F700003D0012028700020F6E7FEF7E1FA804612
:104F80007468E08A78B12169081D20610F68E08AA1
:104F9000401EE082A1682069884201D160682061DA
:104FA0000020287002E01F20287000274046FEF7EE
:104FB000CBFA3846D8E72DE9F04106460F464FF0C8
:104FC0000008FA48007810B10020BDE8F081FEF733
:104FD000B7FA8046F6480468006820B1F4480068D3
:104FE0004068F34908604046FEF7AEFAFCB1FEF7B0
:104FF000A7FA8046EF480568D5B100680068ED491A
:1050000008604046FEF7A0FA6E6006EB8700A860D5
:10501000EE602E61AF820020E88202202070002026
:1050200020816560E4A060612046FFF766F908E032
:10503000DF4800686060DE4804604046FEF784FA9E
:1050400000242046C1E72DE9F0470446894615466D
:105050004FF0000A24B9042028702046BDE8F087EC
:105060002078022803D0012028702046F6E7CF4898
:10507000007818B10F2028702046EFE7FEF760FA9D
:105080008246A07A10B14FF0010801E04FF000080D
:10509000B9F1000F03D0B9F1010F49D121E0B8F106
:1050A000000F17D1C4A060616668C2480068306014
:1050B000C048066000202070BD4800686060002085
:1050C0002081BB4804605046FEF73EFA002028705D
:1050D000002705E05046FEF737FA4920287027469A
:1050E0002DE005E00023042219462046FFF78DF845
:1050F000A07A0028F6D1B0A060616668AD4800686B
:105100003060AC48066000202070A94800686060EC
:1051100000202081A64804605046FEF715FAB8F139
:10512000010F01D1FEF7B1FB00202870002706E037
:105130005046FEF709FA07202870274600BF00BF37
:1051400038468BE770B5054600260DB9042070BDC2
:105150002878022801D00120F9E7FEF7F1F9064688
:105160006C686068E060606820610020E082304622
:10517000FEF7EAF90020EAE72DE9F04706468846FF
:1051800015464FF0000926B9042028700020BDE81C
:10519000F0873078022803D0012028700020F6E73D
:1051A0008248007818B1022028700020EFE7834879
:1051B000007818B10D2028700020E8E7FEF7C0F94C
:1051C00081467468E08A98B12169081D20610F68E2
:1051D000E08A401EE082A1682069884201D16068AF
:1051E00020614846FEF7B0F9002028703846CEE727
:1051F0007348006890F8340040F004007049096872
:1052000081F8340000206E49096881F835006C4847
:105210000068C0F830803046FFF737F84846FEF7A0
:1052200093F9FEF732FBFEF78BF98146644800687C
:1052300090F8350020B101280DD002280AD105E0F0
:105240005F480068476A002028700DE000270E20A4
:10525000287009E000BF314659480068FEF7C0FFDA
:1052600000270A20287000BF00BF002054490968A9
:1052700081F834005249096881F8350050490968BD
:10528000C8614F49096808624D4909684862484643
:10529000FEF75AF938467AE72DE9F04104460F4601
:1052A00015464FF0000824B9042028700020BDE8FE
:1052B000F0812078022803D0012028700020F6E732
:1052C000FEF73EF98046A07A20B300267FB1012F79
:1052D0000CD107E00223042200212046FEF795FFAF
:1052E000701CC6B2A07A0028F4D109E000BF0223E6
:1052F000042200212046FEF788FF701CC6B200BFC2
:1053000000BF4046FEF720F9FEF7BFFA0E202870D6
:105310003046CCE74046FEF717F90020287000BF62
:10532000C5E72DE9F04105460E46002715B90420D2
:10533000BDE8F0812878022801D00120F8E7FEF7C7
:10534000FFF80746A87A60B10023042231462846B8
:10535000FEF75BFF3846FEF7F7F8FEF796FA0020F7
:10536000E6E76C68E08AA18A884204DB3846FEF7EB
:10537000EBF81E20DCE7E168081DE0600E60E08AC3
:10538000401CE082D4E90210884201D16068E060EC
:105390003846FEF7D9F80020CAE72DE9F041054666
:1053A0000E46002775B90420BDE8F081C900002031
:1053B000B4000020F40000203F000000CA000020DC
:1053C000DC0000202878022801D00120ECE7FEF75D
:1053D000B7F80746A87A60B1002304223146284670
:1053E000FEF713FF3846FEF7AFF8FEF74EFA00203F
:1053F000DAE76C68E08AA18A884204DB3846FEF767
:10540000A3F81E20D0E761682069884201D1A06816
:1054100020612069001F206120690660E08A401C2D
:10542000E0823846FEF790F80020BDE72DE9F04114
:1054300005460F4616464FF0000815B90420BDE892
:10544000F0812878022801D00120F8E7FEF778F8EB
:105450008046A87AE8B106F0010050B105E00023CB
:10546000042239462846FEF7D0FEA87A0028F6D155
:1054700005E00023042239462846FEF7C6FE4046D2
:10548000FEF762F806F0040008B9FEF7FEF9002006
:10549000D5E76C68E08AA18A884204DB4046FEF7C3
:1054A00053F81E20CBE706F0020058B1616820696E
:1054B000884201D1A06820612069001F2061206915
:1054C000076009E0E168081DE0600F60D4E90210A0
:1054D000884201D16068E060E08A401CE08240467A
:1054E000FEF732F80020AAE72DE9F04705460C4602
:1054F0004FF0000A15B90420BDE8F0870CB9092067
:10550000FAE72878022801D00120F5E7FEF718F81D
:105510008246A87A207405F10B0804F108090027D7
:1055200005E018F8010B09F8010B781CC7B2082F29
:10553000F7D36E68F08A18B130690068206001E026
:1055400000202060F08AA080B08AE0805046FDF7FD
:10555000FBFF0020D0E72DE9F04160211048FEF765
:105560001AFC00240DE0601C86B204EB44000C49D8
:1055700001EBC00506EB460001EBC0072F60601C85
:1055800084B2032CEFD304EB4400054901EBC005C2
:1055900000202860084603490860BDE8F08100004B
:1055A00078450120F400002070B5044600260CB9AF
:1055B000002070BD2078032801D00020F9E7FDF716
:1055C000BFFF0646258915B12089401E208130463F
:1055D000FDF7BAFF2846ECE770B505460026E5481A
:1055E000007808B1002070BDFDF7AAFF0646E2482A
:1055F0000468006820B1E04800684068DE4908603F
:105600003046FDF7A1FF4CB103202070258100201A
:105610006060DAA060612046FEF76FFE2046E2E798
:105620002DE9F0470446884615464FF0000924B995
:10563000042028702046BDE8F0872078032803D096
:10564000012028702046F6E7CA48007818B10F20DC
:1056500028702046EFE7FDF773FF8146A07A08B176
:10566000012700E00027B8F1000F03D0B8F1010FC7
:105670003AD119E08FB9C1A0606100202070BE4806
:105680000068606000202081BB4804604846FDF748
:105690005BFF00202870002605E04846FDF754FF18
:1056A00049202870264626E005E0002301221946FD
:1056B0002046FEF7AAFDA07A0028F6D1AFA06061CF
:1056C00000202070AC480068606000202081AA485B
:1056D00004604846FDF738FF012F01D1FEF7D5F8E9
:1056E00000202870002606E04846FDF72DFF072021
:1056F0002870264600BF00BF30469CE72DE9F041E8
:1057000005460E46144600271DB904202070BDE84A
:10571000F0812878032802D001202070F7E795480F
:10572000007810B102202070F1E79548007810B1A0
:105730000D202070EBE7FDF703FF0746288940B1F5
:105740002889401E28813846FDF7FEFE0020207083
:10575000DDE78C48006890F8340040F0010089498A
:10576000096881F8340000208649096881F835000D
:105770008448006806632846FEF787FD3846FDF733
:10578000E3FEFEF782F8FDF7DBFE07467D48006882
:1057900090F8350020B1012809D0022806D102E096
:1057A000002020700BE00E20207008E000BF29468A
:1057B00074480068FEF714FD0A20207000BF00BF87
:1057C00000207049096881F834006E49096881F841
:1057D00035006C490968C8616A4909680862384639
:1057E000FDF7B2FE00BF92E72DE9F04104460F46F7
:1057F00015464FF0000824B9042028700020BDE8A9
:10580000F0812078032803D0012028700020F6E7DB
:10581000FDF796FE8046A07A20B300267FB1012FC7
:105820000CD107E00223012200212046FEF7EDFC07
:10583000701CC6B2A07A0028F4D109E000BF022390
:10584000012200212046FEF7E0FC701CC6B200BF1A
:1058500000BF4046FDF778FEFEF717F80E202870CF
:105860003046CCE74046FDF76FFE0020287000BFB1
:10587000C5E770B5044600250CB9042070BD20783A
:10588000032801D00120F9E7FDF75AFE0546A07A6A
:1058900060B10023012219462046FEF7B6FC2846D7
:1058A000FDF752FEFDF7F1FF0020E7E720894FF6F4
:1058B000FF71884207D22089401C20812846FDF7CD
:1058C00043FE0020DAE72846FDF73EFE3320D5E709
:1058D0002DE9F04704460D464FF0000914B90420A5
:1058E000BDE8F0870DB90920FAE72078032801D038
:1058F0000120F5E7FDF724FE8146A07AA87204F1A5
:105900000B0705F10208002605E017F8010B08F85F
:10591000010B701CC6B2082EF7D320892880484698
:10592000FDF712FE0020DBE72DE9F04104460E46AC
:10593000154600271CB904202870BDE8F0812078A6
:10594000032802D001202870F7E7FDF7F9FD07468C
:1059500000202870208908B1268105E0A07A08B9C6
:10596000268101E0492028703846FDF7EDFD00BF93
:10597000E3E70000C9000020B40000203F00000061
:10598000CA000020DC0000202DE9F04F85B08146E0
:10599000884600200090B9F13F0F06D3B9F1FF0F00
:1059A00003D02A2005B0BDE8F08FB8F13F0F01D336
:1059B0002A20F7E7FDF7C4FD0090F94850F82800C9
:1059C00020B10098FDF7C0FD2820EBE7B9F1FF0FEB
:1059D00003D1F448006890F83690F14850F8295007
:1059E00025B90098FDF7B0FD2920DBE7012D04D192
:1059F0000098FDF7A9FD4320D4E74FEAE80708F037
:105A0000070003900120B84000F0FF0A012103982D
:105A1000814001F0FF0B0020E14941F829000846D0
:105A200040F8285015F8386FA87802906878383D0B
:105A30000190DD48815D01980140D1B1DA48805D77
:105A400001998843D84988550846805D28B9D748C8
:105A5000007802998843D5490870D448007840EA14
:105A60000A00D2490870D048C05D40EA0B00CE4918
:105A7000C855EC69D4B104F10B00805D01998843ED
:105A800004F10B0188550846805D18B9A07A029987
:105A90008843A072A07A40EA0A00A07204F10B00C9
:105AA000C05D40EA0B0004F10B01C855286A30B311
:105AB000286A0490049804681FE004F10B00805DDC
:105AC0000199884304F10B0188550846805D18B997
:105AD000A07A02998843A072A07A40EA0A00A072D4
